{
  "address": "0x237edb211Db157324C9AD7de9EC19ddA1B68D50b",
  "abi": [
    {
      "inputs": [
        {
          "internalType": "address",
          "name": "trustedForwarder",
          "type": "address"
        }
      ],
      "stateMutability": "nonpayable",
      "type": "constructor"
    },
    {
      "anonymous": false,
      "inputs": [
        {
          "indexed": true,
          "internalType": "address",
          "name": "contractAddress",
          "type": "address"
        },
        {
          "indexed": true,
          "internalType": "uint256",
          "name": "tokenId",
          "type": "uint256"
        },
        {
          "indexed": true,
          "internalType": "address",
          "name": "counter",
          "type": "address"
        }
      ],
      "name": "Counted",
      "type": "event"
    },
    {
      "inputs": [
        {
          "internalType": "address",
          "name": "",
          "type": "address"
        }
      ],
      "name": "count",
      "outputs": [
        {
          "internalType": "uint256",
          "name": "",
          "type": "uint256"
        }
      ],
      "stateMutability": "view",
      "type": "function"
    },
    {
      "inputs": [],
      "name": "increment",
      "outputs": [],
      "stateMutability": "nonpayable",
      "type": "function"
    },
    {
      "inputs": [
        {
          "internalType": "address",
          "name": "forwarder",
          "type": "address"
        }
      ],
      "name": "isTrustedForwarder",
      "outputs": [
        {
          "internalType": "bool",
          "name": "",
          "type": "bool"
        }
      ],
      "stateMutability": "view",
      "type": "function"
    },
    {
      "inputs": [],
      "name": "owner",
      "outputs": [
        {
          "internalType": "address",
          "name": "",
          "type": "address"
        }
      ],
      "stateMutability": "view",
      "type": "function"
    },
    {
      "inputs": [
        {
          "internalType": "address",
          "name": "trustedForwarder",
          "type": "address"
        }
      ],
      "name": "setTrustedForwarder",
      "outputs": [],
      "stateMutability": "nonpayable",
      "type": "function"
    },
    {
      "inputs": [],
      "name": "totalCount",
      "outputs": [
        {
          "internalType": "uint256",
          "name": "",
          "type": "uint256"
        }
      ],
      "stateMutability": "view",
      "type": "function"
    }
  ],
  "transactionHash": "0x3ea4023ea3c405aab3217b593012033a357d9aecf3c368b2fe54d22d41ec38a7",
  "args": [
    "0x7bC5a85d3Fd6A50F4085bc97320fEC88409d76a9"
  ],
  "numDeployments": 12,
  "solcInputHash": "4b358ce966589e61f4b2c88d2e544347",
  "bytecode": "0x608060405234801561001057600080fd5b5060405161050638038061050683398101604081905261002f91610062565b600180546001600160a01b03199081163317909155600080546001600160a01b0390931692909116919091179055610092565b60006020828403121561007457600080fd5b81516001600160a01b038116811461008b57600080fd5b9392505050565b610465806100a16000396000f3fe608060405234801561001057600080fd5b50600436106100725760003560e01c80638da5cb5b116100505780638da5cb5b146100e5578063d09de08a14610110578063da7422281461011a57600080fd5b806305d85eda1461007757806334eafb11146100aa578063572b6c05146100b3575b600080fd5b6100976100853660046103ff565b60036020526000908152604090205481565b6040519081526020015b60405180910390f35b61009760025481565b6100d56100c13660046103ff565b6000546001600160a01b0391821691161490565b60405190151581526020016100a1565b6001546100f8906001600160a01b031681565b6040516001600160a01b0390911681526020016100a1565b61011861012d565b005b6101186101283660046103ff565b6102c6565b6000546001600160a01b0316331461018c5760405162461bcd60e51b815260206004820152600b60248201527f436f756e7465723a34323900000000000000000000000000000000000000000060448201526064015b60405180910390fd5b600061019661035a565b80516001600160a01b03908116600090815260046020908152604080832082860151845290915290205491925016156102115760405162461bcd60e51b815260206004820152601360248201527f4e465420616c726561647920636f756e746564000000000000000000000000006044820152606401610183565b600061021b6103bb565b82516001600160a01b0390811660009081526004602090815260408083208288018051855290835281842080547fffffffffffffffffffffffff00000000000000000000000000000000000000001687871690811790915580855260039093528184208054600190810190915560028054909101905551875191519596509194919316917fe39cf6ce097c10dae6d67cc8b50f2e294be57dc01c496713b260b16300fbe42491a45050565b6001546001600160a01b031633146103205760405162461bcd60e51b815260206004820152600360248201527f34303300000000000000000000000000000000000000000000000000000000006044820152606401610183565b600080547fffffffffffffffffffffffff0000000000000000000000000000000000000000166001600160a01b0392909216919091179055565b60408051808201909152600080825260208201526000805481906001600160a01b031633141561039657602836033560601c9050604836033591505b6040518060400160405280826001600160a01b03168152602001838152509250505090565b600080546001600160a01b03163314156103fa57507fffffffffffffffffffffffffffffffffffffffffffffffffffffffffffffffec36013560601c90565b503390565b60006020828403121561041157600080fd5b81356001600160a01b038116811461042857600080fd5b939250505056fea26469706673582212208e724ade9d5c4211d913154bf12be25b9c92944ccc07f3fb0488640f5a40b03e64736f6c63430008090033",
  "devdoc": {
    "kind": "dev",
    "methods": {},
    "version": 1
  },
  "userdoc": {
    "kind": "user",
    "methods": {},
    "version": 1
  },
  "storageLayout": {
    "storage": [
      {
        "astId": 1304,
        "contract": "src/Counter.sol:Counter",
        "label": "_trustedForwarder",
        "offset": 0,
        "slot": "0",
        "type": "t_address"
      },
      {
        "astId": 1306,
        "contract": "src/Counter.sol:Counter",
        "label": "owner",
        "offset": 0,
        "slot": "1",
        "type": "t_address"
      },
      {
        "astId": 1193,
        "contract": "src/Counter.sol:Counter",
        "label": "totalCount",
        "offset": 0,
        "slot": "2",
        "type": "t_uint256"
      },
      {
        "astId": 1197,
        "contract": "src/Counter.sol:Counter",
        "label": "count",
        "offset": 0,
        "slot": "3",
        "type": "t_mapping(t_address,t_uint256)"
      },
      {
        "astId": 1203,
        "contract": "src/Counter.sol:Counter",
        "label": "registeredNFTs",
        "offset": 0,
        "slot": "4",
        "type": "t_mapping(t_address,t_mapping(t_uint256,t_address))"
      }
    ],
    "types": {
      "t_address": {
        "encoding": "inplace",
        "label": "address",
        "numberOfBytes": "20"
      },
      "t_mapping(t_address,t_mapping(t_uint256,t_address))": {
        "encoding": "mapping",
        "key": "t_address",
        "label": "mapping(address => mapping(uint256 => address))",
        "numberOfBytes": "32",
        "value": "t_mapping(t_uint256,t_address)"
      },
      "t_mapping(t_address,t_uint256)": {
        "encoding": "mapping",
        "key": "t_address",
        "label": "mapping(address => uint256)",
        "numberOfBytes": "32",
        "value": "t_uint256"
      },
      "t_mapping(t_uint256,t_address)": {
        "encoding": "mapping",
        "key": "t_uint256",
        "label": "mapping(uint256 => address)",
        "numberOfBytes": "32",
        "value": "t_address"
      },
      "t_uint256": {
        "encoding": "inplace",
        "label": "uint256",
        "numberOfBytes": "32"
      }
    }
  }
}