{
  "address": "0x5fc202dA14967676b554C99E3A88B64815C4c57f",
  "abi": [
    {
      "inputs": [
        {
          "internalType": "address",
          "name": "trustedForwarder",
          "type": "address"
        }
      ],
      "stateMutability": "nonpayable",
      "type": "constructor"
    },
    {
      "anonymous": false,
      "inputs": [
        {
          "indexed": true,
          "internalType": "address",
          "name": "contractAddress",
          "type": "address"
        },
        {
          "indexed": true,
          "internalType": "uint256",
          "name": "tokenId",
          "type": "uint256"
        },
        {
          "indexed": true,
          "internalType": "address",
          "name": "counter",
          "type": "address"
        }
      ],
      "name": "Counted",
      "type": "event"
    },
    {
      "inputs": [
        {
          "internalType": "address",
          "name": "",
          "type": "address"
        }
      ],
      "name": "collectionCount",
      "outputs": [
        {
          "internalType": "uint256",
          "name": "",
          "type": "uint256"
        }
      ],
      "stateMutability": "view",
      "type": "function"
    },
    {
      "inputs": [
        {
          "internalType": "address",
          "name": "",
          "type": "address"
        }
      ],
      "name": "count",
      "outputs": [
        {
          "internalType": "uint256",
          "name": "",
          "type": "uint256"
        }
      ],
      "stateMutability": "view",
      "type": "function"
    },
    {
      "inputs": [],
      "name": "increment",
      "outputs": [],
      "stateMutability": "nonpayable",
      "type": "function"
    },
    {
      "inputs": [
        {
          "internalType": "address",
          "name": "forwarder",
          "type": "address"
        }
      ],
      "name": "isTrustedForwarder",
      "outputs": [
        {
          "internalType": "bool",
          "name": "",
          "type": "bool"
        }
      ],
      "stateMutability": "view",
      "type": "function"
    },
    {
      "inputs": [],
      "name": "owner",
      "outputs": [
        {
          "internalType": "address",
          "name": "",
          "type": "address"
        }
      ],
      "stateMutability": "view",
      "type": "function"
    },
    {
      "inputs": [
        {
          "internalType": "address",
          "name": "trustedForwarder",
          "type": "address"
        }
      ],
      "name": "setTrustedForwarder",
      "outputs": [],
      "stateMutability": "nonpayable",
      "type": "function"
    },
    {
      "inputs": [],
      "name": "totalCount",
      "outputs": [
        {
          "internalType": "uint256",
          "name": "",
          "type": "uint256"
        }
      ],
      "stateMutability": "view",
      "type": "function"
    }
  ],
  "transactionHash": "0x2298df7f4a04726fb894598e85fddf99118acd67381dea8f85e0cc2901e59c3f",
  "args": [
    "0xd5d0B5BC313f095A44e84ad4a21A42fB94577342"
  ],
  "numDeployments": 4,
  "solcInputHash": "929f80341fdb0dc8b000a92af340aff1",
  "bytecode": "0x608060405234801561001057600080fd5b5060405161054538038061054583398101604081905261002f91610062565b600180546001600160a01b03199081163317909155600080546001600160a01b0390931692909116919091179055610092565b60006020828403121561007457600080fd5b81516001600160a01b038116811461008b57600080fd5b9392505050565b6104a4806100a16000396000f3fe608060405234801561001057600080fd5b506004361061007d5760003560e01c80638da5cb5b1161005b5780638da5cb5b146100f0578063d09de08a1461011b578063d17744cd14610125578063da7422281461014557600080fd5b806305d85eda1461008257806334eafb11146100b5578063572b6c05146100be575b600080fd5b6100a261009036600461043e565b60046020526000908152604090205481565b6040519081526020015b60405180910390f35b6100a260025481565b6100e06100cc36600461043e565b6000546001600160a01b0391821691161490565b60405190151581526020016100ac565b600154610103906001600160a01b031681565b6040516001600160a01b0390911681526020016100ac565b610123610158565b005b6100a261013336600461043e565b60036020526000908152604090205481565b61012361015336600461043e565b610305565b6000546001600160a01b031633146101b75760405162461bcd60e51b815260206004820152600b60248201527f436f756e7465723a34323900000000000000000000000000000000000000000060448201526064015b60405180910390fd5b60006101c1610399565b80516001600160a01b039081166000908152600560209081526040808320828601518452909152902054919250161561023c5760405162461bcd60e51b815260206004820152601360248201527f4e465420616c726561647920636f756e7465640000000000000000000000000060448201526064016101ae565b60006102466103fa565b82516001600160a01b0390811660009081526005602090815260408083208288018051855290835281842080547fffffffffffffffffffffffff000000000000000000000000000000000000000016878716908117909155808552600484528285208054600190810190915560028054820190558951871686526003909452828520805490940190935551875191519596509194919316917fe39cf6ce097c10dae6d67cc8b50f2e294be57dc01c496713b260b16300fbe42491a45050565b6001546001600160a01b0316331461035f5760405162461bcd60e51b815260206004820152600360248201527f343033000000000000000000000000000000000000000000000000000000000060448201526064016101ae565b600080547fffffffffffffffffffffffff0000000000000000000000000000000000000000166001600160a01b0392909216919091179055565b60408051808201909152600080825260208201526000805481906001600160a01b03163314156103d557602836033560601c9050604836033591505b6040518060400160405280826001600160a01b03168152602001838152509250505090565b600080546001600160a01b031633141561043957507fffffffffffffffffffffffffffffffffffffffffffffffffffffffffffffffec36013560601c90565b503390565b60006020828403121561045057600080fd5b81356001600160a01b038116811461046757600080fd5b939250505056fea2646970667358221220eb7f93ddcaf1069774d9b0b0d3dc699b0f60a8381ab7187d6a426d82638c559064736f6c63430008090033",
  "devdoc": {
    "kind": "dev",
    "methods": {},
    "version": 1
  },
  "userdoc": {
    "kind": "user",
    "methods": {},
    "version": 1
  },
  "storageLayout": {
    "storage": [
      {
        "astId": 1308,
        "contract": "src/Counter.sol:Counter",
        "label": "_trustedForwarder",
        "offset": 0,
        "slot": "0",
        "type": "t_address"
      },
      {
        "astId": 1310,
        "contract": "src/Counter.sol:Counter",
        "label": "owner",
        "offset": 0,
        "slot": "1",
        "type": "t_address"
      },
      {
        "astId": 1039,
        "contract": "src/Counter.sol:Counter",
        "label": "totalCount",
        "offset": 0,
        "slot": "2",
        "type": "t_uint256"
      },
      {
        "astId": 1043,
        "contract": "src/Counter.sol:Counter",
        "label": "collectionCount",
        "offset": 0,
        "slot": "3",
        "type": "t_mapping(t_address,t_uint256)"
      },
      {
        "astId": 1047,
        "contract": "src/Counter.sol:Counter",
        "label": "count",
        "offset": 0,
        "slot": "4",
        "type": "t_mapping(t_address,t_uint256)"
      },
      {
        "astId": 1053,
        "contract": "src/Counter.sol:Counter",
        "label": "registeredNFTs",
        "offset": 0,
        "slot": "5",
        "type": "t_mapping(t_address,t_mapping(t_uint256,t_address))"
      }
    ],
    "types": {
      "t_address": {
        "encoding": "inplace",
        "label": "address",
        "numberOfBytes": "20"
      },
      "t_mapping(t_address,t_mapping(t_uint256,t_address))": {
        "encoding": "mapping",
        "key": "t_address",
        "label": "mapping(address => mapping(uint256 => address))",
        "numberOfBytes": "32",
        "value": "t_mapping(t_uint256,t_address)"
      },
      "t_mapping(t_address,t_uint256)": {
        "encoding": "mapping",
        "key": "t_address",
        "label": "mapping(address => uint256)",
        "numberOfBytes": "32",
        "value": "t_uint256"
      },
      "t_mapping(t_uint256,t_address)": {
        "encoding": "mapping",
        "key": "t_uint256",
        "label": "mapping(uint256 => address)",
        "numberOfBytes": "32",
        "value": "t_address"
      },
      "t_uint256": {
        "encoding": "inplace",
        "label": "uint256",
        "numberOfBytes": "32"
      }
    }
  }
}