{
  "address": "0x5628D89E569ce46175CAa252937C0C6C02d48012",
  "abi": [
    {
      "inputs": [
        {
          "internalType": "address",
          "name": "trustedForwarder",
          "type": "address"
        }
      ],
      "stateMutability": "nonpayable",
      "type": "constructor"
    },
    {
      "inputs": [
        {
          "internalType": "address",
          "name": "",
          "type": "address"
        }
      ],
      "name": "count",
      "outputs": [
        {
          "internalType": "uint256",
          "name": "",
          "type": "uint256"
        }
      ],
      "stateMutability": "view",
      "type": "function"
    },
    {
      "inputs": [],
      "name": "increment",
      "outputs": [],
      "stateMutability": "nonpayable",
      "type": "function"
    },
    {
      "inputs": [],
      "name": "incrementFromForwarderOnly",
      "outputs": [],
      "stateMutability": "nonpayable",
      "type": "function"
    },
    {
      "inputs": [
        {
          "internalType": "address",
          "name": "forwarder",
          "type": "address"
        }
      ],
      "name": "isTrustedForwarder",
      "outputs": [
        {
          "internalType": "bool",
          "name": "",
          "type": "bool"
        }
      ],
      "stateMutability": "view",
      "type": "function"
    },
    {
      "inputs": [],
      "name": "owner",
      "outputs": [
        {
          "internalType": "address",
          "name": "",
          "type": "address"
        }
      ],
      "stateMutability": "view",
      "type": "function"
    },
    {
      "inputs": [
        {
          "internalType": "address",
          "name": "trustedForwarder",
          "type": "address"
        }
      ],
      "name": "setTrustedForwarder",
      "outputs": [],
      "stateMutability": "nonpayable",
      "type": "function"
    }
  ],
  "transactionHash": "0xb7bdf07428a02ca2c3e5233760d08138d53c828c2e701d7f678bf33db46535c6",
  "args": [
    "0xDf3Bdf6830DdB4d6887e9743B2A9D1123CE29fdF"
  ],
  "numDeployments": 2,
  "solcInputHash": "7d6bcdccbb1b3ae1cf60c61d169ef42a",
  "bytecode": "0x608060405234801561001057600080fd5b5060405161042138038061042183398101604081905261002f91610062565b600180546001600160a01b03199081163317909155600080546001600160a01b0390931692909116919091179055610092565b60006020828403121561007457600080fd5b81516001600160a01b038116811461008b57600080fd5b9392505050565b610380806100a16000396000f3fe608060405234801561001057600080fd5b50600436106100725760003560e01c80638da5cb5b116100505780638da5cb5b146100e6578063d09de08a14610111578063da7422281461011957600080fd5b806305d85eda14610077578063572b6c05146100aa57806370699884146100dc575b600080fd5b6100976100853660046102db565b60026020526000908152604090205481565b6040519081526020015b60405180910390f35b6100cc6100b83660046102db565b6000546001600160a01b0391821691161490565b60405190151581526020016100a1565b6100e461012c565b005b6001546100f9906001600160a01b031681565b6040516001600160a01b0390911681526020016100a1565b6100e46101a5565b6100e46101273660046102db565b6101e9565b6000546001600160a01b031633146101a5576040517f08c379a000000000000000000000000000000000000000000000000000000000815260206004820152600b60248201527f436f756e7465723a34323900000000000000000000000000000000000000000060448201526064015b60405180910390fd5b6001600260006101b3610297565b6001600160a01b03166001600160a01b0316815260200190815260200160002060008282546101e2919061030b565b9091555050565b6001546001600160a01b0316331461025d576040517f08c379a000000000000000000000000000000000000000000000000000000000815260206004820152600360248201527f3430330000000000000000000000000000000000000000000000000000000000604482015260640161019c565b600080547fffffffffffffffffffffffff0000000000000000000000000000000000000000166001600160a01b0392909216919091179055565b600080546001600160a01b03163314156102d657507fffffffffffffffffffffffffffffffffffffffffffffffffffffffffffffffec36013560601c90565b503390565b6000602082840312156102ed57600080fd5b81356001600160a01b038116811461030457600080fd5b9392505050565b60008219821115610345577f4e487b7100000000000000000000000000000000000000000000000000000000600052601160045260246000fd5b50019056fea264697066735822122054b83baeb4eaed96477e6db63e3ca7b8bd8dd47c38a5b3ac03c4d6856ee92b9c64736f6c63430008090033",
  "devdoc": {
    "kind": "dev",
    "methods": {},
    "version": 1
  },
  "userdoc": {
    "kind": "user",
    "methods": {},
    "version": 1
  },
  "storageLayout": {
    "storage": [
      {
        "astId": 9314,
        "contract": "src/Counter.sol:Counter",
        "label": "_trustedForwarder",
        "offset": 0,
        "slot": "0",
        "type": "t_address"
      },
      {
        "astId": 9316,
        "contract": "src/Counter.sol:Counter",
        "label": "owner",
        "offset": 0,
        "slot": "1",
        "type": "t_address"
      },
      {
        "astId": 9260,
        "contract": "src/Counter.sol:Counter",
        "label": "count",
        "offset": 0,
        "slot": "2",
        "type": "t_mapping(t_address,t_uint256)"
      }
    ],
    "types": {
      "t_address": {
        "encoding": "inplace",
        "label": "address",
        "numberOfBytes": "20"
      },
      "t_mapping(t_address,t_uint256)": {
        "encoding": "mapping",
        "key": "t_address",
        "label": "mapping(address => uint256)",
        "numberOfBytes": "32",
        "value": "t_uint256"
      },
      "t_uint256": {
        "encoding": "inplace",
        "label": "uint256",
        "numberOfBytes": "32"
      }
    }
  }
}