{
  "address": "0x92DC1d875d1fAE8318E217F2E343982C1968E7b8",
  "abi": [
    {
      "inputs": [
        {
          "internalType": "address",
          "name": "trustedForwarder",
          "type": "address"
        }
      ],
      "stateMutability": "nonpayable",
      "type": "constructor"
    },
    {
      "inputs": [
        {
          "internalType": "address",
          "name": "",
          "type": "address"
        }
      ],
      "name": "count",
      "outputs": [
        {
          "internalType": "uint256",
          "name": "",
          "type": "uint256"
        }
      ],
      "stateMutability": "view",
      "type": "function"
    },
    {
      "inputs": [],
      "name": "increment",
      "outputs": [],
      "stateMutability": "nonpayable",
      "type": "function"
    },
    {
      "inputs": [
        {
          "internalType": "address",
          "name": "forwarder",
          "type": "address"
        }
      ],
      "name": "isTrustedForwarder",
      "outputs": [
        {
          "internalType": "bool",
          "name": "",
          "type": "bool"
        }
      ],
      "stateMutability": "view",
      "type": "function"
    },
    {
      "inputs": [],
      "name": "owner",
      "outputs": [
        {
          "internalType": "address",
          "name": "",
          "type": "address"
        }
      ],
      "stateMutability": "view",
      "type": "function"
    },
    {
      "inputs": [
        {
          "internalType": "address",
          "name": "trustedForwarder",
          "type": "address"
        }
      ],
      "name": "setTrustedForwarder",
      "outputs": [],
      "stateMutability": "nonpayable",
      "type": "function"
    }
  ],
  "transactionHash": "0xf6fd3a772684ee699d5e5a26c8cda184e0fadf695f54e3be104ae9c29f0733b0",
  "args": [
    "0x8329569A4e633b17e617F66EF4f3668C8a504d58"
  ],
  "numDeployments": 1,
  "solcInputHash": "d9cd31552a58ec96a8ec078332e4b8f3",
  "bytecode": "0x608060405234801561001057600080fd5b5060405161040e38038061040e83398101604081905261002f91610062565b600180546001600160a01b03199081163317909155600080546001600160a01b0390931692909116919091179055610092565b60006020828403121561007457600080fd5b81516001600160a01b038116811461008b57600080fd5b9392505050565b61036d806100a16000396000f3fe608060405234801561001057600080fd5b50600436106100675760003560e01c80638da5cb5b116100505780638da5cb5b146100d1578063d09de08a146100fc578063da7422281461010657600080fd5b806305d85eda1461006c578063572b6c051461009f575b600080fd5b61008c61007a3660046102c8565b60026020526000908152604090205481565b6040519081526020015b60405180910390f35b6100c16100ad3660046102c8565b6000546001600160a01b0391821691161490565b6040519015158152602001610096565b6001546100e4906001600160a01b031681565b6040516001600160a01b039091168152602001610096565b610104610119565b005b6101046101143660046102c8565b6101d6565b6000546001600160a01b03163314610192576040517f08c379a000000000000000000000000000000000000000000000000000000000815260206004820152600b60248201527f436f756e7465723a34323900000000000000000000000000000000000000000060448201526064015b60405180910390fd5b6001600260006101a0610284565b6001600160a01b03166001600160a01b0316815260200190815260200160002060008282546101cf91906102f8565b9091555050565b6001546001600160a01b0316331461024a576040517f08c379a000000000000000000000000000000000000000000000000000000000815260206004820152600360248201527f34303300000000000000000000000000000000000000000000000000000000006044820152606401610189565b600080547fffffffffffffffffffffffff0000000000000000000000000000000000000000166001600160a01b0392909216919091179055565b600080546001600160a01b03163314156102c357507fffffffffffffffffffffffffffffffffffffffffffffffffffffffffffffffec36013560601c90565b503390565b6000602082840312156102da57600080fd5b81356001600160a01b03811681146102f157600080fd5b9392505050565b60008219821115610332577f4e487b7100000000000000000000000000000000000000000000000000000000600052601160045260246000fd5b50019056fea26469706673582212208b9d06030683c7a62ab8cd2e11ce2dcf0e9a8fd63f4d37a5cc442d5b23dda08d64736f6c63430008090033",
  "devdoc": {
    "kind": "dev",
    "methods": {},
    "version": 1
  },
  "userdoc": {
    "kind": "user",
    "methods": {},
    "version": 1
  },
  "storageLayout": {
    "storage": [
      {
        "astId": 1244,
        "contract": "src/Counter.sol:Counter",
        "label": "_trustedForwarder",
        "offset": 0,
        "slot": "0",
        "type": "t_address"
      },
      {
        "astId": 1246,
        "contract": "src/Counter.sol:Counter",
        "label": "owner",
        "offset": 0,
        "slot": "1",
        "type": "t_address"
      },
      {
        "astId": 1195,
        "contract": "src/Counter.sol:Counter",
        "label": "count",
        "offset": 0,
        "slot": "2",
        "type": "t_mapping(t_address,t_uint256)"
      },
      {
        "astId": 1201,
        "contract": "src/Counter.sol:Counter",
        "label": "registeredNFTs",
        "offset": 0,
        "slot": "3",
        "type": "t_mapping(t_address,t_mapping(t_uint256,t_bool))"
      }
    ],
    "types": {
      "t_address": {
        "encoding": "inplace",
        "label": "address",
        "numberOfBytes": "20"
      },
      "t_bool": {
        "encoding": "inplace",
        "label": "bool",
        "numberOfBytes": "1"
      },
      "t_mapping(t_address,t_mapping(t_uint256,t_bool))": {
        "encoding": "mapping",
        "key": "t_address",
        "label": "mapping(address => mapping(uint256 => bool))",
        "numberOfBytes": "32",
        "value": "t_mapping(t_uint256,t_bool)"
      },
      "t_mapping(t_address,t_uint256)": {
        "encoding": "mapping",
        "key": "t_address",
        "label": "mapping(address => uint256)",
        "numberOfBytes": "32",
        "value": "t_uint256"
      },
      "t_mapping(t_uint256,t_bool)": {
        "encoding": "mapping",
        "key": "t_uint256",
        "label": "mapping(uint256 => bool)",
        "numberOfBytes": "32",
        "value": "t_bool"
      },
      "t_uint256": {
        "encoding": "inplace",
        "label": "uint256",
        "numberOfBytes": "32"
      }
    }
  }
}