{
  "address": "0x7bC5a85d3Fd6A50F4085bc97320fEC88409d76a9",
  "abi": [
    {
      "inputs": [
        {
          "internalType": "string",
          "name": "name",
          "type": "string"
        },
        {
          "internalType": "string[]",
          "name": "_urls",
          "type": "string[]"
        }
      ],
      "stateMutability": "nonpayable",
      "type": "constructor"
    },
    {
      "inputs": [
        {
          "internalType": "address",
          "name": "sender",
          "type": "address"
        },
        {
          "internalType": "string[]",
          "name": "urls",
          "type": "string[]"
        },
        {
          "internalType": "bytes",
          "name": "callData",
          "type": "bytes"
        },
        {
          "internalType": "bytes4",
          "name": "callbackFunction",
          "type": "bytes4"
        },
        {
          "internalType": "bytes",
          "name": "extraData",
          "type": "bytes"
        }
      ],
      "name": "OffchainLookup",
      "type": "error"
    },
    {
      "anonymous": false,
      "inputs": [
        {
          "indexed": true,
          "internalType": "bytes32",
          "name": "role",
          "type": "bytes32"
        },
        {
          "indexed": true,
          "internalType": "bytes32",
          "name": "previousAdminRole",
          "type": "bytes32"
        },
        {
          "indexed": true,
          "internalType": "bytes32",
          "name": "newAdminRole",
          "type": "bytes32"
        }
      ],
      "name": "RoleAdminChanged",
      "type": "event"
    },
    {
      "anonymous": false,
      "inputs": [
        {
          "indexed": true,
          "internalType": "bytes32",
          "name": "role",
          "type": "bytes32"
        },
        {
          "indexed": true,
          "internalType": "address",
          "name": "account",
          "type": "address"
        },
        {
          "indexed": true,
          "internalType": "address",
          "name": "sender",
          "type": "address"
        }
      ],
      "name": "RoleGranted",
      "type": "event"
    },
    {
      "anonymous": false,
      "inputs": [
        {
          "indexed": true,
          "internalType": "bytes32",
          "name": "role",
          "type": "bytes32"
        },
        {
          "indexed": true,
          "internalType": "address",
          "name": "account",
          "type": "address"
        },
        {
          "indexed": true,
          "internalType": "address",
          "name": "sender",
          "type": "address"
        }
      ],
      "name": "RoleRevoked",
      "type": "event"
    },
    {
      "anonymous": false,
      "inputs": [
        {
          "indexed": true,
          "internalType": "address",
          "name": "owner",
          "type": "address"
        },
        {
          "indexed": true,
          "internalType": "address",
          "name": "authorized",
          "type": "address"
        },
        {
          "indexed": true,
          "internalType": "uint256",
          "name": "length",
          "type": "uint256"
        }
      ],
      "name": "Session",
      "type": "event"
    },
    {
      "inputs": [],
      "name": "ADMIN_ROLE",
      "outputs": [
        {
          "internalType": "bytes32",
          "name": "",
          "type": "bytes32"
        }
      ],
      "stateMutability": "view",
      "type": "function"
    },
    {
      "inputs": [],
      "name": "DEFAULT_ADMIN_ROLE",
      "outputs": [
        {
          "internalType": "bytes32",
          "name": "",
          "type": "bytes32"
        }
      ],
      "stateMutability": "view",
      "type": "function"
    },
    {
      "inputs": [
        {
          "internalType": "address",
          "name": "nftOwner",
          "type": "address"
        },
        {
          "internalType": "uint256",
          "name": "nonce",
          "type": "uint256"
        },
        {
          "internalType": "address",
          "name": "nftContract",
          "type": "address"
        },
        {
          "internalType": "uint256",
          "name": "tokenId",
          "type": "uint256"
        },
        {
          "internalType": "uint256",
          "name": "tokenNonce",
          "type": "uint256"
        }
      ],
      "name": "createMessage",
      "outputs": [
        {
          "internalType": "bytes32",
          "name": "",
          "type": "bytes32"
        }
      ],
      "stateMutability": "pure",
      "type": "function"
    },
    {
      "inputs": [
        {
          "internalType": "address",
          "name": "authorized",
          "type": "address"
        },
        {
          "internalType": "uint256",
          "name": "length",
          "type": "uint256"
        }
      ],
      "name": "createSession",
      "outputs": [],
      "stateMutability": "nonpayable",
      "type": "function"
    },
    {
      "inputs": [
        {
          "internalType": "bytes",
          "name": "response",
          "type": "bytes"
        },
        {
          "internalType": "bytes",
          "name": "extraData",
          "type": "bytes"
        }
      ],
      "name": "executeWithProof",
      "outputs": [
        {
          "internalType": "bool",
          "name": "",
          "type": "bool"
        },
        {
          "internalType": "bytes",
          "name": "",
          "type": "bytes"
        }
      ],
      "stateMutability": "payable",
      "type": "function"
    },
    {
      "inputs": [
        {
          "internalType": "address",
          "name": "from",
          "type": "address"
        }
      ],
      "name": "getNonce",
      "outputs": [
        {
          "internalType": "uint256",
          "name": "",
          "type": "uint256"
        }
      ],
      "stateMutability": "view",
      "type": "function"
    },
    {
      "inputs": [
        {
          "internalType": "bytes32",
          "name": "role",
          "type": "bytes32"
        }
      ],
      "name": "getRoleAdmin",
      "outputs": [
        {
          "internalType": "bytes32",
          "name": "",
          "type": "bytes32"
        }
      ],
      "stateMutability": "view",
      "type": "function"
    },
    {
      "inputs": [
        {
          "internalType": "address",
          "name": "authorizer",
          "type": "address"
        }
      ],
      "name": "getSession",
      "outputs": [
        {
          "components": [
            {
              "internalType": "address",
              "name": "authorized",
              "type": "address"
            },
            {
              "internalType": "uint256",
              "name": "expiresAt",
              "type": "uint256"
            }
          ],
          "internalType": "struct IForwardRequest.PlaySession",
          "name": "",
          "type": "tuple"
        }
      ],
      "stateMutability": "view",
      "type": "function"
    },
    {
      "inputs": [
        {
          "internalType": "bytes32",
          "name": "role",
          "type": "bytes32"
        },
        {
          "internalType": "address",
          "name": "account",
          "type": "address"
        }
      ],
      "name": "grantRole",
      "outputs": [],
      "stateMutability": "nonpayable",
      "type": "function"
    },
    {
      "inputs": [
        {
          "internalType": "bytes32",
          "name": "role",
          "type": "bytes32"
        },
        {
          "internalType": "address",
          "name": "account",
          "type": "address"
        }
      ],
      "name": "hasRole",
      "outputs": [
        {
          "internalType": "bool",
          "name": "",
          "type": "bool"
        }
      ],
      "stateMutability": "view",
      "type": "function"
    },
    {
      "inputs": [],
      "name": "invalidateSession",
      "outputs": [],
      "stateMutability": "nonpayable",
      "type": "function"
    },
    {
      "inputs": [],
      "name": "ownershipSigner",
      "outputs": [
        {
          "internalType": "address",
          "name": "",
          "type": "address"
        }
      ],
      "stateMutability": "view",
      "type": "function"
    },
    {
      "inputs": [
        {
          "components": [
            {
              "internalType": "address",
              "name": "from",
              "type": "address"
            },
            {
              "internalType": "address",
              "name": "authorizer",
              "type": "address"
            },
            {
              "internalType": "address",
              "name": "to",
              "type": "address"
            },
            {
              "internalType": "address",
              "name": "nftContract",
              "type": "address"
            },
            {
              "internalType": "uint256",
              "name": "tokenId",
              "type": "uint256"
            },
            {
              "internalType": "uint256",
              "name": "value",
              "type": "uint256"
            },
            {
              "internalType": "uint256",
              "name": "gas",
              "type": "uint256"
            },
            {
              "internalType": "uint256",
              "name": "nonce",
              "type": "uint256"
            },
            {
              "internalType": "bytes",
              "name": "data",
              "type": "bytes"
            }
          ],
          "internalType": "struct IForwardRequest.ForwardRequest",
          "name": "req",
          "type": "tuple"
        },
        {
          "internalType": "bytes",
          "name": "signature",
          "type": "bytes"
        }
      ],
      "name": "preflight",
      "outputs": [],
      "stateMutability": "view",
      "type": "function"
    },
    {
      "inputs": [
        {
          "internalType": "bytes32",
          "name": "role",
          "type": "bytes32"
        },
        {
          "internalType": "address",
          "name": "account",
          "type": "address"
        }
      ],
      "name": "renounceRole",
      "outputs": [],
      "stateMutability": "nonpayable",
      "type": "function"
    },
    {
      "inputs": [
        {
          "internalType": "bytes32",
          "name": "role",
          "type": "bytes32"
        },
        {
          "internalType": "address",
          "name": "account",
          "type": "address"
        }
      ],
      "name": "revokeRole",
      "outputs": [],
      "stateMutability": "nonpayable",
      "type": "function"
    },
    {
      "inputs": [
        {
          "internalType": "address",
          "name": "newSigner",
          "type": "address"
        }
      ],
      "name": "setOwnershipSigner",
      "outputs": [],
      "stateMutability": "nonpayable",
      "type": "function"
    },
    {
      "inputs": [
        {
          "internalType": "bytes4",
          "name": "interfaceId",
          "type": "bytes4"
        }
      ],
      "name": "supportsInterface",
      "outputs": [
        {
          "internalType": "bool",
          "name": "",
          "type": "bool"
        }
      ],
      "stateMutability": "view",
      "type": "function"
    },
    {
      "inputs": [
        {
          "internalType": "uint256",
          "name": "",
          "type": "uint256"
        }
      ],
      "name": "urls",
      "outputs": [
        {
          "internalType": "string",
          "name": "",
          "type": "string"
        }
      ],
      "stateMutability": "view",
      "type": "function"
    },
    {
      "inputs": [
        {
          "components": [
            {
              "internalType": "address",
              "name": "from",
              "type": "address"
            },
            {
              "internalType": "address",
              "name": "authorizer",
              "type": "address"
            },
            {
              "internalType": "address",
              "name": "to",
              "type": "address"
            },
            {
              "internalType": "address",
              "name": "nftContract",
              "type": "address"
            },
            {
              "internalType": "uint256",
              "name": "tokenId",
              "type": "uint256"
            },
            {
              "internalType": "uint256",
              "name": "value",
              "type": "uint256"
            },
            {
              "internalType": "uint256",
              "name": "gas",
              "type": "uint256"
            },
            {
              "internalType": "uint256",
              "name": "nonce",
              "type": "uint256"
            },
            {
              "internalType": "bytes",
              "name": "data",
              "type": "bytes"
            }
          ],
          "internalType": "struct IForwardRequest.ForwardRequest",
          "name": "req",
          "type": "tuple"
        },
        {
          "internalType": "bytes",
          "name": "signature",
          "type": "bytes"
        }
      ],
      "name": "verifyOwnershipProof",
      "outputs": [
        {
          "internalType": "bool",
          "name": "",
          "type": "bool"
        }
      ],
      "stateMutability": "view",
      "type": "function"
    }
  ],
  "transactionHash": "0xc65b38891ded5df94612b9696eea62d1cfe1822b9a1bafb8edd3bd0178827a25",
  "args": [
    "0xEssential PlaySession",
    [
      "https://middleware.nfight.xyz"
    ]
  ],
  "numDeployments": 9,
  "solcInputHash": "13c3ce14264c493e3f32bf9648c878da",
  "bytecode": "0x6101406040523480156200001257600080fd5b506040516200286438038062002864833981016040819052620000359162000455565b6040805180820182526005815264302e302e3160d81b60209182015283518482012060e08190527fae209a0b48f21c054280f2455d32cf309387644879d9acbd8ffc1991638118856101008190524660a081815285517f8b73c3c69bb8fe3d512ecc4cf759cc79239f7b179b0ffacaa9a75d522b39400f818701819052818801959095526060810193909352608080840192909252308382018190528651808503909201825260c0938401909652805194019390932090925291905261012052620001026000336200015e565b6200012e7fa49807205ce4d355092ef5a8a18f56e8913cf4a201fbe287825b095693c21775336200015e565b600180546001600160a01b031916331790558051620001559060059060208401906200020e565b50505062000589565b6200016a82826200016e565b5050565b6000828152602081815260408083206001600160a01b038516845290915290205460ff166200016a576000828152602081815260408083206001600160a01b03851684529091529020805460ff19166001179055620001ca3390565b6001600160a01b0316816001600160a01b0316837f2f8788117e7eff1d82e926ec794901d17c78024a50270940304540a733656f0d60405160405180910390a45050565b82805482825590600052602060002090810192821562000260579160200282015b828111156200026057825180516200024f91849160209091019062000272565b50916020019190600101906200022f565b506200026e929150620002fd565b5090565b82805462000280906200054c565b90600052602060002090601f016020900481019282620002a45760008555620002ef565b82601f10620002bf57805160ff1916838001178555620002ef565b82800160010185558215620002ef579182015b82811115620002ef578251825591602001919060010190620002d2565b506200026e9291506200031e565b808211156200026e57600062000314828262000335565b50600101620002fd565b5b808211156200026e57600081556001016200031f565b50805462000343906200054c565b6000825580601f1062000354575050565b601f0160209004906000526020600020908101906200037491906200031e565b50565b634e487b7160e01b600052604160045260246000fd5b604051601f8201601f191681016001600160401b0381118282101715620003b857620003b862000377565b604052919050565b600082601f830112620003d257600080fd5b81516001600160401b03811115620003ee57620003ee62000377565b602062000404601f8301601f191682016200038d565b82815285828487010111156200041957600080fd5b60005b83811015620004395785810183015182820184015282016200041c565b838111156200044b5760008385840101525b5095945050505050565b600080604083850312156200046957600080fd5b82516001600160401b03808211156200048157600080fd5b6200048f86838701620003c0565b9350602091508185015181811115620004a757600080fd5b8501601f81018713620004b957600080fd5b805182811115620004ce57620004ce62000377565b8060051b620004df8582016200038d565b918252828101850191858101908a841115620004fa57600080fd5b86850192505b838310156200053b578251868111156200051a5760008081fd5b6200052a8c8983890101620003c0565b835250918601919086019062000500565b809750505050505050509250929050565b600181811c908216806200056157607f821691505b602082108114156200058357634e487b7160e01b600052602260045260246000fd5b50919050565b60805160a05160c05160e051610100516101205161228b620005d960003960006116dc0152600061172b015260006117060152600061165f01526000611689015260006116b3015261228b6000f3fe6080604052600436106101445760003560e01c80638c8e13b9116100c0578063be0fb87e11610074578063dbf0eeef11610059578063dbf0eeef14610485578063f2cde3ef146104a6578063ffb703ee146104c657600080fd5b8063be0fb87e14610450578063d547741f1461046557600080fd5b80639c48439f116100a55780639c48439f146103a95780639ddd61d6146103c9578063a217fddf1461043b57600080fd5b80638c8e13b9146102dd57806391d148541461036557600080fd5b80632f2ff15d1161011757806336ff5f30116100fc57806336ff5f301461025c57806375b238fc1461027c578063796676be146102b057600080fd5b80632f2ff15d1461021a57806336568abe1461023c57600080fd5b806301ffc9a71461014957806312ce42fd1461017e578063248a9ca3146101a65780632d0335ab146101e4575b600080fd5b34801561015557600080fd5b506101696101643660046118ab565b6104e6565b60405190151581526020015b60405180910390f35b34801561018a57600080fd5b506001546040516001600160a01b039091168152602001610175565b3480156101b257600080fd5b506101d66101c13660046118ed565b60009081526020819052604090206001015490565b604051908152602001610175565b3480156101f057600080fd5b506101d66101ff366004611922565b6001600160a01b031660009081526003602052604090205490565b34801561022657600080fd5b5061023a61023536600461193d565b61057f565b005b34801561024857600080fd5b5061023a61025736600461193d565b6105aa565b34801561026857600080fd5b5061023a6102773660046119ab565b61063b565b34801561028857600080fd5b506101d67fa49807205ce4d355092ef5a8a18f56e8913cf4a201fbe287825b095693c2177581565b3480156102bc57600080fd5b506102d06102cb3660046118ed565b6107b5565b6040516101759190611a75565b3480156102e957600080fd5b506103416102f8366004611922565b604080518082018252600080825260209182018190526001600160a01b039384168152600282528290208251808401909352805490931682526001909201549181019190915290565b6040805182516001600160a01b031681526020928301519281019290925201610175565b34801561037157600080fd5b5061016961038036600461193d565b6000918252602082815260408084206001600160a01b0393909316845291905290205460ff1690565b3480156103b557600080fd5b506101696103c4366004611c0c565b610861565b3480156103d557600080fd5b506101d66103e4366004611c70565b604080516001600160a01b03808816602083015291810186905290841660608201526080810183905260a0810182905260009060c00160405160208183030381529060405280519060200120905095945050505050565b34801561044757600080fd5b506101d6600081565b34801561045c57600080fd5b5061023a610a67565b34801561047157600080fd5b5061023a61048036600461193d565b610ada565b610498610493366004611cbe565b610b00565b604051610175929190611d2a565b3480156104b257600080fd5b5061023a6104c1366004611922565b610d7e565b3480156104d257600080fd5b5061023a6104e1366004611d45565b610de0565b60007fffffffff0000000000000000000000000000000000000000000000000000000082167f7965db0b00000000000000000000000000000000000000000000000000000000148061057957507f01ffc9a7000000000000000000000000000000000000000000000000000000007fffffffff000000000000000000000000000000000000000000000000000000008316145b92915050565b60008281526020819052604090206001015461059b8133610dea565b6105a58383610e68565b505050565b6001600160a01b038116331461062d5760405162461bcd60e51b815260206004820152602f60248201527f416363657373436f6e74726f6c3a2063616e206f6e6c792072656e6f756e636560448201527f20726f6c657320666f722073656c66000000000000000000000000000000000060648201526084015b60405180910390fd5b6106378282610f06565b5050565b61068361064784611d6f565b83838080601f016020809104026020016040519081016040528093929190818152602001838380828437600092019190915250610f8592505050565b156105a5573060056106986020860186611922565b600360006106a96020890189611922565b6001600160a01b031681526020810191909152604001600020546106d36080880160608901611922565b608088018035906004906000906106ed9060608d01611922565b6001600160a01b0390811682526020808301939093526040918201600090812060808e81013583529085529083902054835198831694890194909452918701959095529290931660608501529083015260a082015260c00160405160208183030381529060405263dbf0eeef60e01b86868660405160200161077193929190611e0a565b60408051601f19818403018152908290527f556f18300000000000000000000000000000000000000000000000000000000082526106249594939291600401611f29565b600581815481106107c557600080fd5b9060005260206000200160009150905080546107e090611eee565b80601f016020809104026020016040519081016040528092919081815260200182805461080c90611eee565b80156108595780601f1061082e57610100808354040283529160200191610859565b820191906000526020600020905b81548152906001019060200180831161083c57829003601f168201915b505050505081565b6020808301516001600160a01b0390811660009081526002835260408082208151808301909252805490931681526001909201549282018390529142106108ea5760405162461bcd60e51b815260206004820152600f60248201527f53657373696f6e204578706972656400000000000000000000000000000000006044820152606401610624565b835181516001600160a01b039081169116146109485760405162461bcd60e51b815260206004820152601560248201527f5369676e6572206e6f7420617574686f72697a656400000000000000000000006044820152606401610624565b6060840180516001600160a01b031660009081526004602090815260408083206080890180518552908352908320549188015160e0890151945191519294610a3a936109e7939087604080516001600160a01b03808816602083015291810186905290841660608201526080810183905260a0810182905260009060c00160405160208183030381529060405280519060200120905095945050505050565b6040517f19457468657265756d205369676e6564204d6573736167653a0a3332000000006020820152603c8101829052600090605c01604051602081830303815290604052805190602001209050919050565b6001549091506001600160a01b0316610a538287611087565b6001600160a01b0316149695505050505050565b6040517fffb703ee0000000000000000000000000000000000000000000000000000000081523360048201526000196024820152309063ffb703ee90604401600060405180830381600087803b158015610ac057600080fd5b505af1158015610ad4573d6000803e3d6000fd5b50505050565b600082815260208190526040902060010154610af68133610dea565b6105a58383610f06565b600060608180610b1285870187611c0c565b91509150610b568289898080601f01602080910402602001604051908101604052809392919081815260200183838082843760009201919091525061086192505050565b610bc85760405162461bcd60e51b815260206004820152603560248201527f54657374466f727761726465723a206f776e6572736869702070726f6f66206460448201527f6f6573206e6f74206d61746368207265717565737400000000000000000000006064820152608401610624565b610bd28282610f85565b610c445760405162461bcd60e51b815260206004820152602f60248201527f54657374466f727761726465723a207369676e617475726520646f6573206e6f60448201527f74206d61746368207265717565737400000000000000000000000000000000006064820152608401610624565b60e0820151610c549060016120af565b82516001600160a01b03908116600090815260036020908152604080832094909455606086015190921681526004825282812060808601518252909152908120805460019290610ca59084906120af565b9250508190555060008083604001516001600160a01b03168460c001516000866101000151876080015188606001518960200151604051602001610cec94939291906120c7565b60408051601f1981840301815290829052610d069161211e565b600060405180830381858888f193505050503d8060008114610d44576040519150601f19603f3d011682016040523d82523d6000602084013e610d49565b606091505b5091509150603f8460c00151610d5f919061213a565b5a11610d6d57610d6d61215c565b909450925050505b94509492505050565b7fa49807205ce4d355092ef5a8a18f56e8913cf4a201fbe287825b095693c21775610da98133610dea565b600180547fffffffffffffffffffffffff0000000000000000000000000000000000000000166001600160a01b0384161790555050565b61063782826110ab565b6000828152602081815260408083206001600160a01b038516845290915290205460ff1661063757610e26816001600160a01b03166014611155565b610e31836020611155565b604051602001610e42929190612172565b60408051601f198184030181529082905262461bcd60e51b825261062491600401611a75565b6000828152602081815260408083206001600160a01b038516845290915290205460ff16610637576000828152602081815260408083206001600160a01b03851684529091529020805460ff19166001179055610ec23390565b6001600160a01b0316816001600160a01b0316837f2f8788117e7eff1d82e926ec794901d17c78024a50270940304540a733656f0d60405160405180910390a45050565b6000828152602081815260408083206001600160a01b038516845290915290205460ff1615610637576000828152602081815260408083206001600160a01b0385168085529252808320805460ff1916905551339285917ff6391f5c32d9c69d2a47ea670b442974b53935d1edc7fd64eb21e047a839171b9190a45050565b6000806110448361103e7fdd8f4b70b0f4393e889bd39128a30628a78b61816a9eb8199759e7a349657e48876000015188604001518960a001518a60c001518b60e001518c61010001518051906020012060405160200161102397969594939291909687526001600160a01b0395861660208801529390941660408601526060850191909152608084015260a083019190915260c082015260e00190565b60405160208183030381529060405280519060200120611385565b90611087565b60e085015185516001600160a01b031660009081526003602052604090205491925014801561107f575083516001600160a01b038281169116145b949350505050565b600080600061109685856113ee565b915091506110a38161145e565b509392505050565b6040518060400160405280836001600160a01b0316815260200182426110d191906120af565b9052336000818152600260209081526040808320855181547fffffffffffffffffffffffff0000000000000000000000000000000000000000166001600160a01b039182161782559590920151600190920191909155518493861692917f1170e4b3e143a792ce7a7af268ecfe7d7b0574438d8040eb89c2bf5b7e6e15d891a45050565b606060006111648360026121f3565b61116f9060026120af565b67ffffffffffffffff81111561118757611187611a88565b6040519080825280601f01601f1916602001820160405280156111b1576020820181803683370190505b5090507f3000000000000000000000000000000000000000000000000000000000000000816000815181106111e8576111e8612212565b60200101907effffffffffffffffffffffffffffffffffffffffffffffffffffffffffffff1916908160001a9053507f78000000000000000000000000000000000000000000000000000000000000008160018151811061124b5761124b612212565b60200101907effffffffffffffffffffffffffffffffffffffffffffffffffffffffffffff1916908160001a90535060006112878460026121f3565b6112929060016120af565b90505b600181111561132f577f303132333435363738396162636465660000000000000000000000000000000085600f16601081106112d3576112d3612212565b1a60f81b8282815181106112e9576112e9612212565b60200101907effffffffffffffffffffffffffffffffffffffffffffffffffffffffffffff1916908160001a90535060049490941c9361132881612228565b9050611295565b50831561137e5760405162461bcd60e51b815260206004820181905260248201527f537472696e67733a20686578206c656e67746820696e73756666696369656e746044820152606401610624565b9392505050565b6000610579611392611652565b836040517f19010000000000000000000000000000000000000000000000000000000000006020820152602281018390526042810182905260009060620160405160208183030381529060405280519060200120905092915050565b6000808251604114156114255760208301516040840151606085015160001a61141987828585611779565b94509450505050611457565b82516040141561144f5760208301516040840151611444868383611863565b935093505050611457565b506000905060025b9250929050565b60008160048111156114725761147261223f565b141561147b5750565b600181600481111561148f5761148f61223f565b14156114dd5760405162461bcd60e51b815260206004820152601860248201527f45434453413a20696e76616c6964207369676e617475726500000000000000006044820152606401610624565b60028160048111156114f1576114f161223f565b141561153f5760405162461bcd60e51b815260206004820152601f60248201527f45434453413a20696e76616c6964207369676e6174757265206c656e677468006044820152606401610624565b60038160048111156115535761155361223f565b14156115c75760405162461bcd60e51b815260206004820152602260248201527f45434453413a20696e76616c6964207369676e6174757265202773272076616c60448201527f75650000000000000000000000000000000000000000000000000000000000006064820152608401610624565b60048160048111156115db576115db61223f565b141561164f5760405162461bcd60e51b815260206004820152602260248201527f45434453413a20696e76616c6964207369676e6174757265202776272076616c60448201527f75650000000000000000000000000000000000000000000000000000000000006064820152608401610624565b50565b6000306001600160a01b037f0000000000000000000000000000000000000000000000000000000000000000161480156116ab57507f000000000000000000000000000000000000000000000000000000000000000046145b156116d557507f000000000000000000000000000000000000000000000000000000000000000090565b50604080517f00000000000000000000000000000000000000000000000000000000000000006020808301919091527f0000000000000000000000000000000000000000000000000000000000000000828401527f000000000000000000000000000000000000000000000000000000000000000060608301524660808301523060a0808401919091528351808403909101815260c0909201909252805191012090565b6000807f7fffffffffffffffffffffffffffffff5d576e7357a4501ddfe92f46681b20a08311156117b05750600090506003610d75565b8460ff16601b141580156117c857508460ff16601c14155b156117d95750600090506004610d75565b6040805160008082526020820180845289905260ff881692820192909252606081018690526080810185905260019060a0016020604051602081039080840390855afa15801561182d573d6000803e3d6000fd5b5050604051601f1901519150506001600160a01b03811661185657600060019250925050610d75565b9660009650945050505050565b6000807f7fffffffffffffffffffffffffffffffffffffffffffffffffffffffffffffff831660ff84901c601b0161189d87828885611779565b935093505050935093915050565b6000602082840312156118bd57600080fd5b81357fffffffff000000000000000000000000000000000000000000000000000000008116811461137e57600080fd5b6000602082840312156118ff57600080fd5b5035919050565b80356001600160a01b038116811461191d57600080fd5b919050565b60006020828403121561193457600080fd5b61137e82611906565b6000806040838503121561195057600080fd5b8235915061196060208401611906565b90509250929050565b60008083601f84011261197b57600080fd5b50813567ffffffffffffffff81111561199357600080fd5b60208301915083602082850101111561145757600080fd5b6000806000604084860312156119c057600080fd5b833567ffffffffffffffff808211156119d857600080fd5b9085019061012082880312156119ed57600080fd5b90935060208501359080821115611a0357600080fd5b50611a1086828701611969565b9497909650939450505050565b60005b83811015611a38578181015183820152602001611a20565b83811115610ad45750506000910152565b60008151808452611a61816020860160208601611a1d565b601f01601f19169290920160200192915050565b60208152600061137e6020830184611a49565b634e487b7160e01b600052604160045260246000fd5b604051610120810167ffffffffffffffff81118282101715611ac257611ac2611a88565b60405290565b600082601f830112611ad957600080fd5b813567ffffffffffffffff80821115611af457611af4611a88565b604051601f8301601f19908116603f01168101908282118183101715611b1c57611b1c611a88565b81604052838152866020858801011115611b3557600080fd5b836020870160208301376000602085830101528094505050505092915050565b60006101208284031215611b6857600080fd5b611b70611a9e565b9050611b7b82611906565b8152611b8960208301611906565b6020820152611b9a60408301611906565b6040820152611bab60608301611906565b60608201526080820135608082015260a082013560a082015260c082013560c082015260e082013560e08201526101008083013567ffffffffffffffff811115611bf457600080fd5b611c0085828601611ac8565b82840152505092915050565b60008060408385031215611c1f57600080fd5b823567ffffffffffffffff80821115611c3757600080fd5b611c4386838701611b55565b93506020850135915080821115611c5957600080fd5b50611c6685828601611ac8565b9150509250929050565b600080600080600060a08688031215611c8857600080fd5b611c9186611906565b945060208601359350611ca660408701611906565b94979396509394606081013594506080013592915050565b60008060008060408587031215611cd457600080fd5b843567ffffffffffffffff80821115611cec57600080fd5b611cf888838901611969565b90965094506020870135915080821115611d1157600080fd5b50611d1e87828801611969565b95989497509550505050565b821515815260406020820152600061107f6040830184611a49565b60008060408385031215611d5857600080fd5b611d6183611906565b946020939093013593505050565b60006105793683611b55565b60008083357fffffffffffffffffffffffffffffffffffffffffffffffffffffffffffffffe1843603018112611db057600080fd5b830160208101925035905067ffffffffffffffff811115611dd057600080fd5b80360383131561145757600080fd5b818352818160208501375060006020828401015260006020601f19601f840116840101905092915050565b60408152611e2b60408201611e1e86611906565b6001600160a01b03169052565b6000611e3960208601611906565b6001600160a01b03166060830152611e5360408601611906565b6001600160a01b03166080830152611e6d60608601611906565b6001600160a01b03811660a084015250608085013560c083015260a085013560e083015261010060c08601358184015261012060e087013581850152611eb582880188611d7b565b925081610140860152611ecd61016086018483611ddf565b925050508281036020840152611ee4818587611ddf565b9695505050505050565b600181811c90821680611f0257607f821691505b60208210811415611f2357634e487b7160e01b600052602260045260246000fd5b50919050565b600060a082016001600160a01b0388168352602060a08185015281885480845260c08601915060c08160051b870101935060008a8152838120815b83811015612039578887037fffffffffffffffffffffffffffffffffffffffffffffffffffffffffffffff4001855281548390600181811c9080831680611fac57607f831692505b8a8310811415611fca57634e487b7160e01b88526022600452602488fd5b828c5260208c01818015611fe55760018114611ff657612020565b60ff19861682528c82019650612020565b6000898152602090208a5b8681101561201a57815484820152908501908e01612001565b83019750505b50949b5050978901979490940193505050600101611f64565b50505050505082810360408401526120518187611a49565b7fffffffff00000000000000000000000000000000000000000000000000000000861660608501529050828103608084015261208d8185611a49565b98975050505050505050565b634e487b7160e01b600052601160045260246000fd5b600082198211156120c2576120c2612099565b500190565b600085516120d9818460208a01611a1d565b91909101938452507fffffffffffffffffffffffffffffffffffffffff000000000000000000000000606092831b81166020850152911b166034820152604801919050565b60008251612130818460208701611a1d565b9190910192915050565b60008261215757634e487b7160e01b600052601260045260246000fd5b500490565b634e487b7160e01b600052600160045260246000fd5b7f416363657373436f6e74726f6c3a206163636f756e74200000000000000000008152600083516121aa816017850160208801611a1d565b7f206973206d697373696e6720726f6c652000000000000000000000000000000060179184019182015283516121e7816028840160208801611a1d565b01602801949350505050565b600081600019048311821515161561220d5761220d612099565b500290565b634e487b7160e01b600052603260045260246000fd5b60008161223757612237612099565b506000190190565b634e487b7160e01b600052602160045260246000fdfea26469706673582212200995e690125f3ffb43c39c1dab0dbe9057f060ef18dadc8afb2d201c1062cbc264736f6c63430008090033",
  "devdoc": {
    "author": "0xEssential",
    "details": "Allows a Relayer to submit meta-transactions that utilize an NFT (i.e. in a game) on behalf of EOAs. Transactions      are only executed if the Relayer provides a signature from a trusted signer. The signature must include the current      owner of the Layer 1 NFT being used, or a Burner EOA the owner has authorized to use its NFTs.      EssentialForwarder can be used to build Layer 2 games that use Layer 1 NFTs without bridging and with superior UX.      End users can specify a Burner EOA from their primary EOA, and then use that burner address to play games.      The Burner EOA can then sign messages for game moves without user interaction without any risk to the NFTs or other      assets owned by the primary EOA.",
    "kind": "dev",
    "methods": {
      "createMessage(address,uint256,address,uint256,uint256)": {
        "details": "The RPC server uses this view function to create the ownership proof",
        "params": {
          "nftContract": "the mainnet contract address for the NFT being utilized",
          "nftOwner": "the address that currently owns the L1 NFT",
          "nonce": "the meta-transaction nonce for account",
          "tokenId": "the tokenId from nftContract for the NFT being utilized"
        },
        "returns": {
          "_0": "the message _ownershipSigner should sign"
        }
      },
      "executeWithProof(bytes,bytes)": {
        "details": "The RPC call and re-submission should be handled by your Relayer client",
        "params": {
          "extraData": "The unaltered bytes in the OffchainLookup extraData error arg",
          "response": "The unaltered bytes reponse from a call made to an RPC based on OffchainLookup args"
        }
      },
      "getRoleAdmin(bytes32)": {
        "details": "Returns the admin role that controls `role`. See {grantRole} and {revokeRole}. To change a role's admin, use {_setRoleAdmin}."
      },
      "grantRole(bytes32,address)": {
        "details": "Grants `role` to `account`. If `account` had not been already granted `role`, emits a {RoleGranted} event. Requirements: - the caller must have ``role``'s admin role."
      },
      "hasRole(bytes32,address)": {
        "details": "Returns `true` if `account` has been granted `role`."
      },
      "invalidateSession()": {
        "details": "For efficiency in PlaySession persistence and lookup, an EOA must authorize      itself"
      },
      "ownershipSigner()": {
        "returns": {
          "_0": "the ownership proof signer address"
        }
      },
      "preflight((address,address,address,address,uint256,uint256,uint256,uint256,bytes),bytes)": {
        "details": "Per EIP-3668, a valid signature will cause a revert with useful error params."
      },
      "renounceRole(bytes32,address)": {
        "details": "Revokes `role` from the calling account. Roles are often managed via {grantRole} and {revokeRole}: this function's purpose is to provide a mechanism for accounts to lose their privileges if they are compromised (such as when a trusted device is misplaced). If the calling account had been revoked `role`, emits a {RoleRevoked} event. Requirements: - the caller must be `account`."
      },
      "revokeRole(bytes32,address)": {
        "details": "Revokes `role` from `account`. If `account` had been granted `role`, emits a {RoleRevoked} event. Requirements: - the caller must have ``role``'s admin role."
      },
      "supportsInterface(bytes4)": {
        "details": "See {IERC165-supportsInterface}."
      },
      "verifyOwnershipProof((address,address,address,address,uint256,uint256,uint256,uint256,bytes),bytes)": {
        "details": "Ensures that _ownershipSigner signed a message containing (nftOwner OR authorized address, nonce, nftContract, tokenId)",
        "params": {
          "req": "structured data submitted by EOA making a meta-transaction request",
          "signature": "the signature proof created by the ownership signer EOA"
        }
      }
    },
    "title": "EssentialForwarder",
    "version": 1
  },
  "userdoc": {
    "kind": "user",
    "methods": {
      "createMessage(address,uint256,address,uint256,uint256)": {
        "notice": "Construct message that _ownershipSigner must sign as ownership proof"
      },
      "createSession(address,uint256)": {
        "notice": "Allow `authorized` to use your NFTs in a game for `length` seconds. Your NFTs         will not be held in custody or approved for transfer."
      },
      "executeWithProof(bytes,bytes)": {
        "notice": "Re-submit a valid meta-tx request with trusted proof to execute the transaction."
      },
      "getNonce(address)": {
        "notice": "Get current nonce for EOA"
      },
      "getSession(address)": {
        "notice": "Get current session for Primary EOA"
      },
      "invalidateSession()": {
        "notice": "Stop allowing your current authorized burner address to use your NFTs."
      },
      "ownershipSigner()": {
        "notice": "Get ownershipSigner address"
      },
      "preflight((address,address,address,address,uint256,uint256,uint256,uint256,bytes),bytes)": {
        "notice": "Submit a meta-tx request and signature to check validity and receive         a response with data useful for fetching a trusted proof per EIP-3668."
      },
      "setOwnershipSigner(address)": {
        "notice": "Change the ownership signer"
      },
      "verifyOwnershipProof((address,address,address,address,uint256,uint256,uint256,uint256,bytes),bytes)": {
        "notice": "Verify signed OffchainLookup proof against meta-tx request data"
      }
    },
    "notice": "EIP-2771 based MetaTransaction Forwarding Contract with EIP-3668 OffchainLookup for cross-chain token gating",
    "version": 1
  },
  "storageLayout": {
    "storage": [
      {
        "astId": 24,
        "contract": "src/EssentialForwarder.sol:EssentialForwarder",
        "label": "_roles",
        "offset": 0,
        "slot": "0",
        "type": "t_mapping(t_bytes32,t_struct(RoleData)19_storage)"
      },
      {
        "astId": 1811,
        "contract": "src/EssentialForwarder.sol:EssentialForwarder",
        "label": "_ownershipSigner",
        "offset": 0,
        "slot": "1",
        "type": "t_address"
      },
      {
        "astId": 1816,
        "contract": "src/EssentialForwarder.sol:EssentialForwarder",
        "label": "_sessions",
        "offset": 0,
        "slot": "2",
        "type": "t_mapping(t_address,t_struct(PlaySession)1795_storage)"
      },
      {
        "astId": 1820,
        "contract": "src/EssentialForwarder.sol:EssentialForwarder",
        "label": "_nonces",
        "offset": 0,
        "slot": "3",
        "type": "t_mapping(t_address,t_uint256)"
      },
      {
        "astId": 1826,
        "contract": "src/EssentialForwarder.sol:EssentialForwarder",
        "label": "_tokenNonces",
        "offset": 0,
        "slot": "4",
        "type": "t_mapping(t_address,t_mapping(t_uint256,t_uint256))"
      },
      {
        "astId": 1424,
        "contract": "src/EssentialForwarder.sol:EssentialForwarder",
        "label": "urls",
        "offset": 0,
        "slot": "5",
        "type": "t_array(t_string_storage)dyn_storage"
      }
    ],
    "types": {
      "t_address": {
        "encoding": "inplace",
        "label": "address",
        "numberOfBytes": "20"
      },
      "t_array(t_string_storage)dyn_storage": {
        "base": "t_string_storage",
        "encoding": "dynamic_array",
        "label": "string[]",
        "numberOfBytes": "32"
      },
      "t_bool": {
        "encoding": "inplace",
        "label": "bool",
        "numberOfBytes": "1"
      },
      "t_bytes32": {
        "encoding": "inplace",
        "label": "bytes32",
        "numberOfBytes": "32"
      },
      "t_mapping(t_address,t_bool)": {
        "encoding": "mapping",
        "key": "t_address",
        "label": "mapping(address => bool)",
        "numberOfBytes": "32",
        "value": "t_bool"
      },
      "t_mapping(t_address,t_mapping(t_uint256,t_uint256))": {
        "encoding": "mapping",
        "key": "t_address",
        "label": "mapping(address => mapping(uint256 => uint256))",
        "numberOfBytes": "32",
        "value": "t_mapping(t_uint256,t_uint256)"
      },
      "t_mapping(t_address,t_struct(PlaySession)1795_storage)": {
        "encoding": "mapping",
        "key": "t_address",
        "label": "mapping(address => struct IForwardRequest.PlaySession)",
        "numberOfBytes": "32",
        "value": "t_struct(PlaySession)1795_storage"
      },
      "t_mapping(t_address,t_uint256)": {
        "encoding": "mapping",
        "key": "t_address",
        "label": "mapping(address => uint256)",
        "numberOfBytes": "32",
        "value": "t_uint256"
      },
      "t_mapping(t_bytes32,t_struct(RoleData)19_storage)": {
        "encoding": "mapping",
        "key": "t_bytes32",
        "label": "mapping(bytes32 => struct AccessControl.RoleData)",
        "numberOfBytes": "32",
        "value": "t_struct(RoleData)19_storage"
      },
      "t_mapping(t_uint256,t_uint256)": {
        "encoding": "mapping",
        "key": "t_uint256",
        "label": "mapping(uint256 => uint256)",
        "numberOfBytes": "32",
        "value": "t_uint256"
      },
      "t_string_storage": {
        "encoding": "bytes",
        "label": "string",
        "numberOfBytes": "32"
      },
      "t_struct(PlaySession)1795_storage": {
        "encoding": "inplace",
        "label": "struct IForwardRequest.PlaySession",
        "members": [
          {
            "astId": 1792,
            "contract": "src/EssentialForwarder.sol:EssentialForwarder",
            "label": "authorized",
            "offset": 0,
            "slot": "0",
            "type": "t_address"
          },
          {
            "astId": 1794,
            "contract": "src/EssentialForwarder.sol:EssentialForwarder",
            "label": "expiresAt",
            "offset": 0,
            "slot": "1",
            "type": "t_uint256"
          }
        ],
        "numberOfBytes": "64"
      },
      "t_struct(RoleData)19_storage": {
        "encoding": "inplace",
        "label": "struct AccessControl.RoleData",
        "members": [
          {
            "astId": 16,
            "contract": "src/EssentialForwarder.sol:EssentialForwarder",
            "label": "members",
            "offset": 0,
            "slot": "0",
            "type": "t_mapping(t_address,t_bool)"
          },
          {
            "astId": 18,
            "contract": "src/EssentialForwarder.sol:EssentialForwarder",
            "label": "adminRole",
            "offset": 0,
            "slot": "1",
            "type": "t_bytes32"
          }
        ],
        "numberOfBytes": "64"
      },
      "t_uint256": {
        "encoding": "inplace",
        "label": "uint256",
        "numberOfBytes": "32"
      }
    }
  }
}