{
  "address": "0x49a3611559be684e6De416B2800bc3ed1765c0DC",
  "abi": [
    {
      "inputs": [
        {
          "internalType": "string",
          "name": "name",
          "type": "string"
        },
        {
          "internalType": "string[]",
          "name": "_urls",
          "type": "string[]"
        }
      ],
      "stateMutability": "nonpayable",
      "type": "constructor"
    },
    {
      "inputs": [
        {
          "internalType": "address",
          "name": "sender",
          "type": "address"
        },
        {
          "internalType": "string[]",
          "name": "urls",
          "type": "string[]"
        },
        {
          "internalType": "bytes",
          "name": "callData",
          "type": "bytes"
        },
        {
          "internalType": "bytes4",
          "name": "callbackFunction",
          "type": "bytes4"
        },
        {
          "internalType": "bytes",
          "name": "extraData",
          "type": "bytes"
        }
      ],
      "name": "OffchainLookup",
      "type": "error"
    },
    {
      "anonymous": false,
      "inputs": [
        {
          "indexed": true,
          "internalType": "bytes32",
          "name": "role",
          "type": "bytes32"
        },
        {
          "indexed": true,
          "internalType": "bytes32",
          "name": "previousAdminRole",
          "type": "bytes32"
        },
        {
          "indexed": true,
          "internalType": "bytes32",
          "name": "newAdminRole",
          "type": "bytes32"
        }
      ],
      "name": "RoleAdminChanged",
      "type": "event"
    },
    {
      "anonymous": false,
      "inputs": [
        {
          "indexed": true,
          "internalType": "bytes32",
          "name": "role",
          "type": "bytes32"
        },
        {
          "indexed": true,
          "internalType": "address",
          "name": "account",
          "type": "address"
        },
        {
          "indexed": true,
          "internalType": "address",
          "name": "sender",
          "type": "address"
        }
      ],
      "name": "RoleGranted",
      "type": "event"
    },
    {
      "anonymous": false,
      "inputs": [
        {
          "indexed": true,
          "internalType": "bytes32",
          "name": "role",
          "type": "bytes32"
        },
        {
          "indexed": true,
          "internalType": "address",
          "name": "account",
          "type": "address"
        },
        {
          "indexed": true,
          "internalType": "address",
          "name": "sender",
          "type": "address"
        }
      ],
      "name": "RoleRevoked",
      "type": "event"
    },
    {
      "anonymous": false,
      "inputs": [
        {
          "indexed": true,
          "internalType": "address",
          "name": "owner",
          "type": "address"
        },
        {
          "indexed": true,
          "internalType": "address",
          "name": "authorized",
          "type": "address"
        },
        {
          "indexed": true,
          "internalType": "uint256",
          "name": "length",
          "type": "uint256"
        }
      ],
      "name": "Session",
      "type": "event"
    },
    {
      "inputs": [],
      "name": "ADMIN_ROLE",
      "outputs": [
        {
          "internalType": "bytes32",
          "name": "",
          "type": "bytes32"
        }
      ],
      "stateMutability": "view",
      "type": "function"
    },
    {
      "inputs": [],
      "name": "DEFAULT_ADMIN_ROLE",
      "outputs": [
        {
          "internalType": "bytes32",
          "name": "",
          "type": "bytes32"
        }
      ],
      "stateMutability": "view",
      "type": "function"
    },
    {
      "inputs": [
        {
          "internalType": "address",
          "name": "account",
          "type": "address"
        },
        {
          "internalType": "uint256",
          "name": "nonce",
          "type": "uint256"
        },
        {
          "internalType": "address",
          "name": "nftContract",
          "type": "address"
        },
        {
          "internalType": "uint256",
          "name": "tokenId",
          "type": "uint256"
        }
      ],
      "name": "createMessage",
      "outputs": [
        {
          "internalType": "bytes32",
          "name": "",
          "type": "bytes32"
        }
      ],
      "stateMutability": "view",
      "type": "function"
    },
    {
      "inputs": [
        {
          "internalType": "address",
          "name": "authorized",
          "type": "address"
        },
        {
          "internalType": "uint256",
          "name": "length",
          "type": "uint256"
        }
      ],
      "name": "createSession",
      "outputs": [],
      "stateMutability": "nonpayable",
      "type": "function"
    },
    {
      "inputs": [
        {
          "internalType": "bytes",
          "name": "response",
          "type": "bytes"
        },
        {
          "internalType": "bytes",
          "name": "extraData",
          "type": "bytes"
        }
      ],
      "name": "executeWithProof",
      "outputs": [
        {
          "internalType": "bool",
          "name": "",
          "type": "bool"
        },
        {
          "internalType": "bytes",
          "name": "",
          "type": "bytes"
        }
      ],
      "stateMutability": "payable",
      "type": "function"
    },
    {
      "inputs": [
        {
          "internalType": "address",
          "name": "from",
          "type": "address"
        }
      ],
      "name": "getNonce",
      "outputs": [
        {
          "internalType": "uint256",
          "name": "",
          "type": "uint256"
        }
      ],
      "stateMutability": "view",
      "type": "function"
    },
    {
      "inputs": [
        {
          "internalType": "bytes32",
          "name": "role",
          "type": "bytes32"
        }
      ],
      "name": "getRoleAdmin",
      "outputs": [
        {
          "internalType": "bytes32",
          "name": "",
          "type": "bytes32"
        }
      ],
      "stateMutability": "view",
      "type": "function"
    },
    {
      "inputs": [
        {
          "internalType": "bytes32",
          "name": "role",
          "type": "bytes32"
        },
        {
          "internalType": "address",
          "name": "account",
          "type": "address"
        }
      ],
      "name": "grantRole",
      "outputs": [],
      "stateMutability": "nonpayable",
      "type": "function"
    },
    {
      "inputs": [
        {
          "internalType": "bytes32",
          "name": "role",
          "type": "bytes32"
        },
        {
          "internalType": "address",
          "name": "account",
          "type": "address"
        }
      ],
      "name": "hasRole",
      "outputs": [
        {
          "internalType": "bool",
          "name": "",
          "type": "bool"
        }
      ],
      "stateMutability": "view",
      "type": "function"
    },
    {
      "inputs": [],
      "name": "invalidateSession",
      "outputs": [],
      "stateMutability": "nonpayable",
      "type": "function"
    },
    {
      "inputs": [],
      "name": "ownershipSigner",
      "outputs": [
        {
          "internalType": "address",
          "name": "",
          "type": "address"
        }
      ],
      "stateMutability": "view",
      "type": "function"
    },
    {
      "inputs": [
        {
          "components": [
            {
              "internalType": "address",
              "name": "from",
              "type": "address"
            },
            {
              "internalType": "address",
              "name": "authorizer",
              "type": "address"
            },
            {
              "internalType": "address",
              "name": "to",
              "type": "address"
            },
            {
              "internalType": "address",
              "name": "nftContract",
              "type": "address"
            },
            {
              "internalType": "uint256",
              "name": "tokenId",
              "type": "uint256"
            },
            {
              "internalType": "uint256",
              "name": "value",
              "type": "uint256"
            },
            {
              "internalType": "uint256",
              "name": "gas",
              "type": "uint256"
            },
            {
              "internalType": "uint256",
              "name": "nonce",
              "type": "uint256"
            },
            {
              "internalType": "bytes",
              "name": "data",
              "type": "bytes"
            }
          ],
          "internalType": "struct IForwardRequest.ForwardRequest",
          "name": "req",
          "type": "tuple"
        },
        {
          "internalType": "bytes",
          "name": "signature",
          "type": "bytes"
        }
      ],
      "name": "preflight",
      "outputs": [],
      "stateMutability": "view",
      "type": "function"
    },
    {
      "inputs": [
        {
          "internalType": "bytes32",
          "name": "role",
          "type": "bytes32"
        },
        {
          "internalType": "address",
          "name": "account",
          "type": "address"
        }
      ],
      "name": "renounceRole",
      "outputs": [],
      "stateMutability": "nonpayable",
      "type": "function"
    },
    {
      "inputs": [
        {
          "internalType": "bytes32",
          "name": "role",
          "type": "bytes32"
        },
        {
          "internalType": "address",
          "name": "account",
          "type": "address"
        }
      ],
      "name": "revokeRole",
      "outputs": [],
      "stateMutability": "nonpayable",
      "type": "function"
    },
    {
      "inputs": [
        {
          "internalType": "bytes4",
          "name": "interfaceId",
          "type": "bytes4"
        }
      ],
      "name": "supportsInterface",
      "outputs": [
        {
          "internalType": "bool",
          "name": "",
          "type": "bool"
        }
      ],
      "stateMutability": "view",
      "type": "function"
    },
    {
      "inputs": [
        {
          "internalType": "uint256",
          "name": "",
          "type": "uint256"
        }
      ],
      "name": "urls",
      "outputs": [
        {
          "internalType": "string",
          "name": "",
          "type": "string"
        }
      ],
      "stateMutability": "view",
      "type": "function"
    },
    {
      "inputs": [
        {
          "components": [
            {
              "internalType": "address",
              "name": "from",
              "type": "address"
            },
            {
              "internalType": "address",
              "name": "authorizer",
              "type": "address"
            },
            {
              "internalType": "address",
              "name": "to",
              "type": "address"
            },
            {
              "internalType": "address",
              "name": "nftContract",
              "type": "address"
            },
            {
              "internalType": "uint256",
              "name": "tokenId",
              "type": "uint256"
            },
            {
              "internalType": "uint256",
              "name": "value",
              "type": "uint256"
            },
            {
              "internalType": "uint256",
              "name": "gas",
              "type": "uint256"
            },
            {
              "internalType": "uint256",
              "name": "nonce",
              "type": "uint256"
            },
            {
              "internalType": "bytes",
              "name": "data",
              "type": "bytes"
            }
          ],
          "internalType": "struct IForwardRequest.ForwardRequest",
          "name": "req",
          "type": "tuple"
        },
        {
          "internalType": "bytes",
          "name": "signature",
          "type": "bytes"
        }
      ],
      "name": "verifyOwnershipProof",
      "outputs": [
        {
          "internalType": "bool",
          "name": "",
          "type": "bool"
        }
      ],
      "stateMutability": "view",
      "type": "function"
    }
  ],
  "transactionHash": "0x4f9a1a0a350e6a82bbc974068ae0cc5fb6e78e11dbb14ab067bc1211d5d9becf",
  "args": [
    "0xEssential PlaySession",
    [
      "https://middleware.nfight.xyz"
    ]
  ],
  "numDeployments": 1,
  "solcInputHash": "dbc5e6e323dae605109903a40187d9f8",
  "bytecode": "0x6101406040523480156200001257600080fd5b50604051620025bc380380620025bc833981016040819052620000359162000455565b6040805180820182526005815264302e302e3160d81b60209182015283518482012060e08190527fae209a0b48f21c054280f2455d32cf309387644879d9acbd8ffc1991638118856101008190524660a081815285517f8b73c3c69bb8fe3d512ecc4cf759cc79239f7b179b0ffacaa9a75d522b39400f818701819052818801959095526060810193909352608080840192909252308382018190528651808503909201825260c0938401909652805194019390932090925291905261012052620001026000336200015e565b6200012e7fa49807205ce4d355092ef5a8a18f56e8913cf4a201fbe287825b095693c21775336200015e565b600180546001600160a01b031916331790558051620001559060049060208401906200020e565b50505062000589565b6200016a82826200016e565b5050565b6000828152602081815260408083206001600160a01b038516845290915290205460ff166200016a576000828152602081815260408083206001600160a01b03851684529091529020805460ff19166001179055620001ca3390565b6001600160a01b0316816001600160a01b0316837f2f8788117e7eff1d82e926ec794901d17c78024a50270940304540a733656f0d60405160405180910390a45050565b82805482825590600052602060002090810192821562000260579160200282015b828111156200026057825180516200024f91849160209091019062000272565b50916020019190600101906200022f565b506200026e929150620002fd565b5090565b82805462000280906200054c565b90600052602060002090601f016020900481019282620002a45760008555620002ef565b82601f10620002bf57805160ff1916838001178555620002ef565b82800160010185558215620002ef579182015b82811115620002ef578251825591602001919060010190620002d2565b506200026e9291506200031e565b808211156200026e57600062000314828262000335565b50600101620002fd565b5b808211156200026e57600081556001016200031f565b50805462000343906200054c565b6000825580601f1062000354575050565b601f0160209004906000526020600020908101906200037491906200031e565b50565b634e487b7160e01b600052604160045260246000fd5b604051601f8201601f191681016001600160401b0381118282101715620003b857620003b862000377565b604052919050565b600082601f830112620003d257600080fd5b81516001600160401b03811115620003ee57620003ee62000377565b602062000404601f8301601f191682016200038d565b82815285828487010111156200041957600080fd5b60005b83811015620004395785810183015182820184015282016200041c565b838111156200044b5760008385840101525b5095945050505050565b600080604083850312156200046957600080fd5b82516001600160401b03808211156200048157600080fd5b6200048f86838701620003c0565b9350602091508185015181811115620004a757600080fd5b8501601f81018713620004b957600080fd5b805182811115620004ce57620004ce62000377565b8060051b620004df8582016200038d565b918252828101850191858101908a841115620004fa57600080fd5b86850192505b838310156200053b578251868111156200051a5760008081fd5b6200052a8c8983890101620003c0565b835250918601919086019062000500565b809750505050505050509250929050565b600181811c908216806200056157607f821691505b602082108114156200058357634e487b7160e01b600052602260045260246000fd5b50919050565b60805160a05160c05160e0516101005161012051611fe3620005d9600039600061144b0152600061149a01526000611475015260006113ce015260006113f8015260006114220152611fe36000f3fe60806040526004361061010e5760003560e01c806375b238fc116100a5578063a217fddf11610074578063d547741f11610059578063d547741f14610355578063dbf0eeef14610375578063ffb703ee1461039657600080fd5b8063a217fddf1461032b578063be0fb87e1461034057600080fd5b806375b238fc14610266578063796676be1461029a57806391d14854146102c75780639c48439f1461030b57600080fd5b80632d0335ab116100e15780632d0335ab146101ce5780632f2ff15d1461020457806336568abe1461022657806336ff5f301461024657600080fd5b806301ffc9a71461011357806312ce42fd146101485780631a929fb114610170578063248a9ca31461019e575b600080fd5b34801561011f57600080fd5b5061013361012e36600461161a565b6103b6565b60405190151581526020015b60405180910390f35b34801561015457600080fd5b506001546040516001600160a01b03909116815260200161013f565b34801561017c57600080fd5b5061019061018b366004611678565b61044f565b60405190815260200161013f565b3480156101aa57600080fd5b506101906101b93660046116bc565b60009081526020819052604090206001015490565b3480156101da57600080fd5b506101906101e93660046116d5565b6001600160a01b031660009081526003602052604090205490565b34801561021057600080fd5b5061022461021f3660046116f0565b610529565b005b34801561023257600080fd5b506102246102413660046116f0565b610554565b34801561025257600080fd5b5061022461026136600461175e565b6105e0565b34801561027257600080fd5b506101907fa49807205ce4d355092ef5a8a18f56e8913cf4a201fbe287825b095693c2177581565b3480156102a657600080fd5b506102ba6102b53660046116bc565b61072d565b60405161013f9190611828565b3480156102d357600080fd5b506101336102e23660046116f0565b6000918252602082815260408084206001600160a01b0393909316845291905290205460ff1690565b34801561031757600080fd5b506101336103263660046119bf565b6107d9565b34801561033757600080fd5b50610190600081565b34801561034c57600080fd5b50610224610879565b34801561036157600080fd5b506102246103703660046116f0565b6108ec565b610388610383366004611a23565b610912565b60405161013f929190611a8f565b3480156103a257600080fd5b506102246103b1366004611aaa565b610b59565b60007fffffffff0000000000000000000000000000000000000000000000000000000082167f7965db0b00000000000000000000000000000000000000000000000000000000148061044957507f01ffc9a7000000000000000000000000000000000000000000000000000000007fffffffff000000000000000000000000000000000000000000000000000000008316145b92915050565b6001600160a01b03808516600090815260026020908152604080832081518083019092528054909416815260019093015490830181905290919042106104dc5760405162461bcd60e51b815260206004820152600f60248201527f53657373696f6e2045787069726564000000000000000000000000000000000060448201526064015b60405180910390fd5b604080516001600160a01b03808916602083015291810187905290851660608201526080810184905260a00160405160208183030381529060405280519060200120915050949350505050565b6000828152602081905260409020600101546105458133610c03565b61054f8383610c81565b505050565b6001600160a01b03811633146105d25760405162461bcd60e51b815260206004820152602f60248201527f416363657373436f6e74726f6c3a2063616e206f6e6c792072656e6f756e636560448201527f20726f6c657320666f722073656c66000000000000000000000000000000000060648201526084016104d3565b6105dc8282610d1f565b5050565b6106286105ec84611ad4565b83838080601f016020809104026020016040519081016040528093929190818152602001838380828437600092019190915250610d9e92505050565b1561054f5730600461063d60208601866116d5565b6003600061064e60208901896116d5565b6001600160a01b0316815260208101919091526040016000205461067860808801606089016116d5565b604080516001600160a01b0394851660208201528082019390935292166060820152608087810135818301528251808303909101815260a082019092527fdbf0eeef00000000000000000000000000000000000000000000000000000000906106e99088908890889060c001611b6f565b60408051601f19818403018152908290527f556f18300000000000000000000000000000000000000000000000000000000082526104d39594939291600401611c8e565b6004818154811061073d57600080fd5b90600052602060002001600091509050805461075890611c53565b80601f016020809104026020016040519081016040528092919081815260200182805461078490611c53565b80156107d15780601f106107a6576101008083540402835291602001916107d1565b820191906000526020600020905b8154815290600101906020018083116107b457829003601f168201915b505050505081565b60008061084e6107fb85600001518660e001518760600151886080015161044f565b6040517f19457468657265756d205369676e6564204d6573736167653a0a3332000000006020820152603c8101829052600090605c01604051602081830303815290604052805190602001209050919050565b6001549091506001600160a01b03166108678285610ea0565b6001600160a01b031614949350505050565b6040517fffb703ee0000000000000000000000000000000000000000000000000000000081523360048201526000196024820152309063ffb703ee90604401600060405180830381600087803b1580156108d257600080fd5b505af11580156108e6573d6000803e3d6000fd5b50505050565b6000828152602081905260409020600101546109088133610c03565b61054f8383610d1f565b600060608180610924858701876119bf565b915091506109688289898080601f0160208091040260200160405190810160405280939291908181526020018383808284376000920191909152506107d992505050565b6109da5760405162461bcd60e51b815260206004820152603560248201527f54657374466f727761726465723a206f776e6572736869702070726f6f66206460448201527f6f6573206e6f74206d617463682072657175657374000000000000000000000060648201526084016104d3565b6109e48282610d9e565b610a565760405162461bcd60e51b815260206004820152602f60248201527f54657374466f727761726465723a207369676e617475726520646f6573206e6f60448201527f74206d617463682072657175657374000000000000000000000000000000000060648201526084016104d3565b60e0820151610a66906001611e14565b6003600084600001516001600160a01b03166001600160a01b031681526020019081526020016000208190555060008083604001516001600160a01b03168460c0015160008661010001518760200151604051602001610ac7929190611e2c565b60408051601f1981840301815290829052610ae191611e76565b600060405180830381858888f193505050503d8060008114610b1f576040519150601f19603f3d011682016040523d82523d6000602084013e610b24565b606091505b5091509150603f8460c00151610b3a9190611e92565b5a11610b4857610b48611eb4565b909450925050505b94509492505050565b6040518060400160405280836001600160a01b031681526020018242610b7f9190611e14565b9052336000818152600260209081526040808320855181547fffffffffffffffffffffffff0000000000000000000000000000000000000000166001600160a01b039182161782559590920151600190920191909155518493861692917f1170e4b3e143a792ce7a7af268ecfe7d7b0574438d8040eb89c2bf5b7e6e15d891a45050565b6000828152602081815260408083206001600160a01b038516845290915290205460ff166105dc57610c3f816001600160a01b03166014610ec4565b610c4a836020610ec4565b604051602001610c5b929190611eca565b60408051601f198184030181529082905262461bcd60e51b82526104d391600401611828565b6000828152602081815260408083206001600160a01b038516845290915290205460ff166105dc576000828152602081815260408083206001600160a01b03851684529091529020805460ff19166001179055610cdb3390565b6001600160a01b0316816001600160a01b0316837f2f8788117e7eff1d82e926ec794901d17c78024a50270940304540a733656f0d60405160405180910390a45050565b6000828152602081815260408083206001600160a01b038516845290915290205460ff16156105dc576000828152602081815260408083206001600160a01b0385168085529252808320805460ff1916905551339285917ff6391f5c32d9c69d2a47ea670b442974b53935d1edc7fd64eb21e047a839171b9190a45050565b600080610e5d83610e577fdd8f4b70b0f4393e889bd39128a30628a78b61816a9eb8199759e7a349657e488760000151886040015160008a60c001518b60e001518c610100015180519060200120604051602001610e3c97969594939291909687526001600160a01b03958616602088015293909416604086015260ff919091166060850152608084015260a083019190915260c082015260e00190565b604051602081830303815290604052805190602001206110f4565b90610ea0565b60e085015185516001600160a01b0316600090815260036020526040902054919250148015610e98575083516001600160a01b038281169116145b949350505050565b6000806000610eaf858561115d565b91509150610ebc816111cd565b509392505050565b60606000610ed3836002611f4b565b610ede906002611e14565b67ffffffffffffffff811115610ef657610ef661183b565b6040519080825280601f01601f191660200182016040528015610f20576020820181803683370190505b5090507f300000000000000000000000000000000000000000000000000000000000000081600081518110610f5757610f57611f6a565b60200101907effffffffffffffffffffffffffffffffffffffffffffffffffffffffffffff1916908160001a9053507f780000000000000000000000000000000000000000000000000000000000000081600181518110610fba57610fba611f6a565b60200101907effffffffffffffffffffffffffffffffffffffffffffffffffffffffffffff1916908160001a9053506000610ff6846002611f4b565b611001906001611e14565b90505b600181111561109e577f303132333435363738396162636465660000000000000000000000000000000085600f166010811061104257611042611f6a565b1a60f81b82828151811061105857611058611f6a565b60200101907effffffffffffffffffffffffffffffffffffffffffffffffffffffffffffff1916908160001a90535060049490941c9361109781611f80565b9050611004565b5083156110ed5760405162461bcd60e51b815260206004820181905260248201527f537472696e67733a20686578206c656e67746820696e73756666696369656e7460448201526064016104d3565b9392505050565b60006104496111016113c1565b836040517f19010000000000000000000000000000000000000000000000000000000000006020820152602281018390526042810182905260009060620160405160208183030381529060405280519060200120905092915050565b6000808251604114156111945760208301516040840151606085015160001a611188878285856114e8565b945094505050506111c6565b8251604014156111be57602083015160408401516111b38683836115d2565b9350935050506111c6565b506000905060025b9250929050565b60008160048111156111e1576111e1611f97565b14156111ea5750565b60018160048111156111fe576111fe611f97565b141561124c5760405162461bcd60e51b815260206004820152601860248201527f45434453413a20696e76616c6964207369676e6174757265000000000000000060448201526064016104d3565b600281600481111561126057611260611f97565b14156112ae5760405162461bcd60e51b815260206004820152601f60248201527f45434453413a20696e76616c6964207369676e6174757265206c656e6774680060448201526064016104d3565b60038160048111156112c2576112c2611f97565b14156113365760405162461bcd60e51b815260206004820152602260248201527f45434453413a20696e76616c6964207369676e6174757265202773272076616c60448201527f756500000000000000000000000000000000000000000000000000000000000060648201526084016104d3565b600481600481111561134a5761134a611f97565b14156113be5760405162461bcd60e51b815260206004820152602260248201527f45434453413a20696e76616c6964207369676e6174757265202776272076616c60448201527f756500000000000000000000000000000000000000000000000000000000000060648201526084016104d3565b50565b6000306001600160a01b037f00000000000000000000000000000000000000000000000000000000000000001614801561141a57507f000000000000000000000000000000000000000000000000000000000000000046145b1561144457507f000000000000000000000000000000000000000000000000000000000000000090565b50604080517f00000000000000000000000000000000000000000000000000000000000000006020808301919091527f0000000000000000000000000000000000000000000000000000000000000000828401527f000000000000000000000000000000000000000000000000000000000000000060608301524660808301523060a0808401919091528351808403909101815260c0909201909252805191012090565b6000807f7fffffffffffffffffffffffffffffff5d576e7357a4501ddfe92f46681b20a083111561151f5750600090506003610b50565b8460ff16601b1415801561153757508460ff16601c14155b156115485750600090506004610b50565b6040805160008082526020820180845289905260ff881692820192909252606081018690526080810185905260019060a0016020604051602081039080840390855afa15801561159c573d6000803e3d6000fd5b5050604051601f1901519150506001600160a01b0381166115c557600060019250925050610b50565b9660009650945050505050565b6000807f7fffffffffffffffffffffffffffffffffffffffffffffffffffffffffffffff831660ff84901c601b0161160c878288856114e8565b935093505050935093915050565b60006020828403121561162c57600080fd5b81357fffffffff00000000000000000000000000000000000000000000000000000000811681146110ed57600080fd5b80356001600160a01b038116811461167357600080fd5b919050565b6000806000806080858703121561168e57600080fd5b6116978561165c565b9350602085013592506116ac6040860161165c565b9396929550929360600135925050565b6000602082840312156116ce57600080fd5b5035919050565b6000602082840312156116e757600080fd5b6110ed8261165c565b6000806040838503121561170357600080fd5b823591506117136020840161165c565b90509250929050565b60008083601f84011261172e57600080fd5b50813567ffffffffffffffff81111561174657600080fd5b6020830191508360208285010111156111c657600080fd5b60008060006040848603121561177357600080fd5b833567ffffffffffffffff8082111561178b57600080fd5b9085019061012082880312156117a057600080fd5b909350602085013590808211156117b657600080fd5b506117c38682870161171c565b9497909650939450505050565b60005b838110156117eb5781810151838201526020016117d3565b838111156108e65750506000910152565b600081518084526118148160208601602086016117d0565b601f01601f19169290920160200192915050565b6020815260006110ed60208301846117fc565b634e487b7160e01b600052604160045260246000fd5b604051610120810167ffffffffffffffff811182821017156118755761187561183b565b60405290565b600082601f83011261188c57600080fd5b813567ffffffffffffffff808211156118a7576118a761183b565b604051601f8301601f19908116603f011681019082821181831017156118cf576118cf61183b565b816040528381528660208588010111156118e857600080fd5b836020870160208301376000602085830101528094505050505092915050565b6000610120828403121561191b57600080fd5b611923611851565b905061192e8261165c565b815261193c6020830161165c565b602082015261194d6040830161165c565b604082015261195e6060830161165c565b60608201526080820135608082015260a082013560a082015260c082013560c082015260e082013560e08201526101008083013567ffffffffffffffff8111156119a757600080fd5b6119b38582860161187b565b82840152505092915050565b600080604083850312156119d257600080fd5b823567ffffffffffffffff808211156119ea57600080fd5b6119f686838701611908565b93506020850135915080821115611a0c57600080fd5b50611a198582860161187b565b9150509250929050565b60008060008060408587031215611a3957600080fd5b843567ffffffffffffffff80821115611a5157600080fd5b611a5d8883890161171c565b90965094506020870135915080821115611a7657600080fd5b50611a838782880161171c565b95989497509550505050565b8215158152604060208201526000610e9860408301846117fc565b60008060408385031215611abd57600080fd5b611ac68361165c565b946020939093013593505050565b60006104493683611908565b60008083357fffffffffffffffffffffffffffffffffffffffffffffffffffffffffffffffe1843603018112611b1557600080fd5b830160208101925035905067ffffffffffffffff811115611b3557600080fd5b8036038313156111c657600080fd5b818352818160208501375060006020828401015260006020601f19601f840116840101905092915050565b60408152611b9060408201611b838661165c565b6001600160a01b03169052565b6000611b9e6020860161165c565b6001600160a01b03166060830152611bb86040860161165c565b6001600160a01b03166080830152611bd26060860161165c565b6001600160a01b03811660a084015250608085013560c083015260a085013560e083015261010060c08601358184015261012060e087013581850152611c1a82880188611ae0565b925081610140860152611c3261016086018483611b44565b925050508281036020840152611c49818587611b44565b9695505050505050565b600181811c90821680611c6757607f821691505b60208210811415611c8857634e487b7160e01b600052602260045260246000fd5b50919050565b600060a082016001600160a01b0388168352602060a08185015281885480845260c08601915060c08160051b870101935060008a8152838120815b83811015611d9e578887037fffffffffffffffffffffffffffffffffffffffffffffffffffffffffffffff4001855281548390600181811c9080831680611d1157607f831692505b8a8310811415611d2f57634e487b7160e01b88526022600452602488fd5b828c5260208c01818015611d4a5760018114611d5b57611d85565b60ff19861682528c82019650611d85565b6000898152602090208a5b86811015611d7f57815484820152908501908e01611d66565b83019750505b50949b5050978901979490940193505050600101611cc9565b5050505050508281036040840152611db681876117fc565b7fffffffff000000000000000000000000000000000000000000000000000000008616606085015290508281036080840152611df281856117fc565b98975050505050505050565b634e487b7160e01b600052601160045260246000fd5b60008219821115611e2757611e27611dfe565b500190565b60008351611e3e8184602088016117d0565b60609390931b7fffffffffffffffffffffffffffffffffffffffff000000000000000000000000169190920190815260140192915050565b60008251611e888184602087016117d0565b9190910192915050565b600082611eaf57634e487b7160e01b600052601260045260246000fd5b500490565b634e487b7160e01b600052600160045260246000fd5b7f416363657373436f6e74726f6c3a206163636f756e7420000000000000000000815260008351611f028160178501602088016117d0565b7f206973206d697373696e6720726f6c65200000000000000000000000000000006017918401918201528351611f3f8160288401602088016117d0565b01602801949350505050565b6000816000190483118215151615611f6557611f65611dfe565b500290565b634e487b7160e01b600052603260045260246000fd5b600081611f8f57611f8f611dfe565b506000190190565b634e487b7160e01b600052602160045260246000fdfea2646970667358221220d496e509ac8a1e3b6ab41a0fb251c11874a6259001b1f212bee492355c409c3b64736f6c63430008090033",
  "devdoc": {
    "author": "0xEssential",
    "details": "Allows a Relayer to submit meta-transactions that utilize an NFT (i.e. in a game) on behalf of EOAs. Transactions      are only executed if the Relayer provides a signature from a trusted signer. The signature must include the current      owner of the Layer 1 NFT being used, or a Burner EOA the owner has authorized to use its NFTs.      EssentialForwarder can be used to build Layer 2 games that use Layer 1 NFTs without bridging and with superior UX.      End users can specify a Burner EOA from their primary EOA, and then use that burner address to play games.      The Burner EOA can then sign messages for game moves without user interaction without any risk to the NFTs or other      assets owned by the primary EOA.",
    "kind": "dev",
    "methods": {
      "createMessage(address,uint256,address,uint256)": {
        "details": "The RPC server uses this view function to create the ownership proof",
        "params": {
          "account": "the address that currently owns the L1 NFT",
          "nftContract": "the mainnet contract address for the NFT being utilized",
          "nonce": "the meta-transaction nonce for account",
          "tokenId": "the tokenId from nftContract for the NFT being utilized"
        },
        "returns": {
          "_0": "the message _ownershipSigner should sign"
        }
      },
      "executeWithProof(bytes,bytes)": {
        "details": "The RPC call and re-submission should be handled by your Relayer client",
        "params": {
          "extraData": "The unaltered bytes in the OffchainLookup extraData error arg",
          "response": "The unaltered bytes reponse from a call made to an RPC based on OffchainLookup args"
        }
      },
      "getRoleAdmin(bytes32)": {
        "details": "Returns the admin role that controls `role`. See {grantRole} and {revokeRole}. To change a role's admin, use {_setRoleAdmin}."
      },
      "grantRole(bytes32,address)": {
        "details": "Grants `role` to `account`. If `account` had not been already granted `role`, emits a {RoleGranted} event. Requirements: - the caller must have ``role``'s admin role."
      },
      "hasRole(bytes32,address)": {
        "details": "Returns `true` if `account` has been granted `role`."
      },
      "invalidateSession()": {
        "details": "For efficiency in PlaySession persistence and lookup, an EOA must authorize      itself"
      },
      "ownershipSigner()": {
        "returns": {
          "_0": "the ownership proof signer address"
        }
      },
      "preflight((address,address,address,address,uint256,uint256,uint256,uint256,bytes),bytes)": {
        "details": "Per EIP-3668, a valid signature will cause a revert with useful error params."
      },
      "renounceRole(bytes32,address)": {
        "details": "Revokes `role` from the calling account. Roles are often managed via {grantRole} and {revokeRole}: this function's purpose is to provide a mechanism for accounts to lose their privileges if they are compromised (such as when a trusted device is misplaced). If the calling account had been revoked `role`, emits a {RoleRevoked} event. Requirements: - the caller must be `account`."
      },
      "revokeRole(bytes32,address)": {
        "details": "Revokes `role` from `account`. If `account` had been granted `role`, emits a {RoleRevoked} event. Requirements: - the caller must have ``role``'s admin role."
      },
      "supportsInterface(bytes4)": {
        "details": "See {IERC165-supportsInterface}."
      },
      "verifyOwnershipProof((address,address,address,address,uint256,uint256,uint256,uint256,bytes),bytes)": {
        "details": "Ensures that _ownershipSigner signed a message containing (nftOwner OR authorized address, nonce, nftContract, tokenId)",
        "params": {
          "req": "structured data submitted by EOA making a meta-transaction request",
          "signature": "the signature proof created by the ownership signer EOA"
        }
      }
    },
    "title": "EssentialForwarder",
    "version": 1
  },
  "userdoc": {
    "kind": "user",
    "methods": {
      "createMessage(address,uint256,address,uint256)": {
        "notice": "Construct message that _ownershipSigner must sign as ownership proof"
      },
      "createSession(address,uint256)": {
        "notice": "Allow `authorized` to use your NFTs in a game for `length` seconds. Your NFTs         will not be held in custody or approved for transfer."
      },
      "executeWithProof(bytes,bytes)": {
        "notice": "Re-submit a valid meta-tx request with trusted proof to execute the transaction."
      },
      "getNonce(address)": {
        "notice": "Get current nonce for EOA"
      },
      "invalidateSession()": {
        "notice": "Stop allowing your current authorized burner address to use your NFTs."
      },
      "ownershipSigner()": {
        "notice": "Get ownershipSigner address"
      },
      "preflight((address,address,address,address,uint256,uint256,uint256,uint256,bytes),bytes)": {
        "notice": "Submit a meta-tx request and signature to check validity and receive         a response with data useful for fetching a trusted proof per EIP-3668."
      },
      "verifyOwnershipProof((address,address,address,address,uint256,uint256,uint256,uint256,bytes),bytes)": {
        "notice": "Verify signed OffchainLookup proof against meta-tx request data"
      }
    },
    "notice": "EIP-2771 based MetaTransaction Forwarding Contract with EIP-3668 OffchainLookup for cross-chain token gating",
    "version": 1
  },
  "storageLayout": {
    "storage": [
      {
        "astId": 24,
        "contract": "src/EssentialForwarder.sol:EssentialForwarder",
        "label": "_roles",
        "offset": 0,
        "slot": "0",
        "type": "t_mapping(t_bytes32,t_struct(RoleData)19_storage)"
      },
      {
        "astId": 9787,
        "contract": "src/EssentialForwarder.sol:EssentialForwarder",
        "label": "_ownershipSigner",
        "offset": 0,
        "slot": "1",
        "type": "t_address"
      },
      {
        "astId": 9792,
        "contract": "src/EssentialForwarder.sol:EssentialForwarder",
        "label": "_sessions",
        "offset": 0,
        "slot": "2",
        "type": "t_mapping(t_address,t_struct(PlaySession)9776_storage)"
      },
      {
        "astId": 9466,
        "contract": "src/EssentialForwarder.sol:EssentialForwarder",
        "label": "_nonces",
        "offset": 0,
        "slot": "3",
        "type": "t_mapping(t_address,t_uint256)"
      },
      {
        "astId": 9469,
        "contract": "src/EssentialForwarder.sol:EssentialForwarder",
        "label": "urls",
        "offset": 0,
        "slot": "4",
        "type": "t_array(t_string_storage)dyn_storage"
      }
    ],
    "types": {
      "t_address": {
        "encoding": "inplace",
        "label": "address",
        "numberOfBytes": "20"
      },
      "t_array(t_string_storage)dyn_storage": {
        "base": "t_string_storage",
        "encoding": "dynamic_array",
        "label": "string[]",
        "numberOfBytes": "32"
      },
      "t_bool": {
        "encoding": "inplace",
        "label": "bool",
        "numberOfBytes": "1"
      },
      "t_bytes32": {
        "encoding": "inplace",
        "label": "bytes32",
        "numberOfBytes": "32"
      },
      "t_mapping(t_address,t_bool)": {
        "encoding": "mapping",
        "key": "t_address",
        "label": "mapping(address => bool)",
        "numberOfBytes": "32",
        "value": "t_bool"
      },
      "t_mapping(t_address,t_struct(PlaySession)9776_storage)": {
        "encoding": "mapping",
        "key": "t_address",
        "label": "mapping(address => struct IForwardRequest.PlaySession)",
        "numberOfBytes": "32",
        "value": "t_struct(PlaySession)9776_storage"
      },
      "t_mapping(t_address,t_uint256)": {
        "encoding": "mapping",
        "key": "t_address",
        "label": "mapping(address => uint256)",
        "numberOfBytes": "32",
        "value": "t_uint256"
      },
      "t_mapping(t_bytes32,t_struct(RoleData)19_storage)": {
        "encoding": "mapping",
        "key": "t_bytes32",
        "label": "mapping(bytes32 => struct AccessControl.RoleData)",
        "numberOfBytes": "32",
        "value": "t_struct(RoleData)19_storage"
      },
      "t_string_storage": {
        "encoding": "bytes",
        "label": "string",
        "numberOfBytes": "32"
      },
      "t_struct(PlaySession)9776_storage": {
        "encoding": "inplace",
        "label": "struct IForwardRequest.PlaySession",
        "members": [
          {
            "astId": 9773,
            "contract": "src/EssentialForwarder.sol:EssentialForwarder",
            "label": "authorized",
            "offset": 0,
            "slot": "0",
            "type": "t_address"
          },
          {
            "astId": 9775,
            "contract": "src/EssentialForwarder.sol:EssentialForwarder",
            "label": "expiresAt",
            "offset": 0,
            "slot": "1",
            "type": "t_uint256"
          }
        ],
        "numberOfBytes": "64"
      },
      "t_struct(RoleData)19_storage": {
        "encoding": "inplace",
        "label": "struct AccessControl.RoleData",
        "members": [
          {
            "astId": 16,
            "contract": "src/EssentialForwarder.sol:EssentialForwarder",
            "label": "members",
            "offset": 0,
            "slot": "0",
            "type": "t_mapping(t_address,t_bool)"
          },
          {
            "astId": 18,
            "contract": "src/EssentialForwarder.sol:EssentialForwarder",
            "label": "adminRole",
            "offset": 0,
            "slot": "1",
            "type": "t_bytes32"
          }
        ],
        "numberOfBytes": "64"
      },
      "t_uint256": {
        "encoding": "inplace",
        "label": "uint256",
        "numberOfBytes": "32"
      }
    }
  }
}