{
  "address": "0x9bbb4217115B7296630183Bb23703DEC93E8edCf",
  "abi": [
    {
      "inputs": [
        {
          "internalType": "string",
          "name": "name",
          "type": "string"
        },
        {
          "internalType": "string[]",
          "name": "_urls",
          "type": "string[]"
        }
      ],
      "stateMutability": "nonpayable",
      "type": "constructor"
    },
    {
      "inputs": [],
      "name": "InvalidOwnership",
      "type": "error"
    },
    {
      "inputs": [],
      "name": "InvalidSignature",
      "type": "error"
    },
    {
      "inputs": [
        {
          "internalType": "address",
          "name": "sender",
          "type": "address"
        },
        {
          "internalType": "string[]",
          "name": "urls",
          "type": "string[]"
        },
        {
          "internalType": "bytes",
          "name": "callData",
          "type": "bytes"
        },
        {
          "internalType": "bytes4",
          "name": "callbackFunction",
          "type": "bytes4"
        },
        {
          "internalType": "bytes",
          "name": "extraData",
          "type": "bytes"
        }
      ],
      "name": "OffchainLookup",
      "type": "error"
    },
    {
      "inputs": [],
      "name": "Unauthorized",
      "type": "error"
    },
    {
      "anonymous": false,
      "inputs": [
        {
          "indexed": true,
          "internalType": "bytes32",
          "name": "role",
          "type": "bytes32"
        },
        {
          "indexed": true,
          "internalType": "bytes32",
          "name": "previousAdminRole",
          "type": "bytes32"
        },
        {
          "indexed": true,
          "internalType": "bytes32",
          "name": "newAdminRole",
          "type": "bytes32"
        }
      ],
      "name": "RoleAdminChanged",
      "type": "event"
    },
    {
      "anonymous": false,
      "inputs": [
        {
          "indexed": true,
          "internalType": "bytes32",
          "name": "role",
          "type": "bytes32"
        },
        {
          "indexed": true,
          "internalType": "address",
          "name": "account",
          "type": "address"
        },
        {
          "indexed": true,
          "internalType": "address",
          "name": "sender",
          "type": "address"
        }
      ],
      "name": "RoleGranted",
      "type": "event"
    },
    {
      "anonymous": false,
      "inputs": [
        {
          "indexed": true,
          "internalType": "bytes32",
          "name": "role",
          "type": "bytes32"
        },
        {
          "indexed": true,
          "internalType": "address",
          "name": "account",
          "type": "address"
        },
        {
          "indexed": true,
          "internalType": "address",
          "name": "sender",
          "type": "address"
        }
      ],
      "name": "RoleRevoked",
      "type": "event"
    },
    {
      "anonymous": false,
      "inputs": [
        {
          "indexed": true,
          "internalType": "address",
          "name": "owner",
          "type": "address"
        },
        {
          "indexed": true,
          "internalType": "address",
          "name": "authorized",
          "type": "address"
        },
        {
          "indexed": true,
          "internalType": "uint256",
          "name": "length",
          "type": "uint256"
        }
      ],
      "name": "Session",
      "type": "event"
    },
    {
      "inputs": [],
      "name": "ADMIN_ROLE",
      "outputs": [
        {
          "internalType": "bytes32",
          "name": "",
          "type": "bytes32"
        }
      ],
      "stateMutability": "view",
      "type": "function"
    },
    {
      "inputs": [],
      "name": "DEFAULT_ADMIN_ROLE",
      "outputs": [
        {
          "internalType": "bytes32",
          "name": "",
          "type": "bytes32"
        }
      ],
      "stateMutability": "view",
      "type": "function"
    },
    {
      "inputs": [],
      "name": "PlaySession",
      "outputs": [
        {
          "internalType": "contract IEssentialPlaySession",
          "name": "",
          "type": "address"
        }
      ],
      "stateMutability": "view",
      "type": "function"
    },
    {
      "inputs": [
        {
          "internalType": "address",
          "name": "signer",
          "type": "address"
        },
        {
          "internalType": "address",
          "name": "authorizer",
          "type": "address"
        },
        {
          "internalType": "uint256",
          "name": "nonce",
          "type": "uint256"
        },
        {
          "internalType": "uint256",
          "name": "nftChainId",
          "type": "uint256"
        },
        {
          "internalType": "address",
          "name": "nftContract",
          "type": "address"
        },
        {
          "internalType": "uint256",
          "name": "tokenId",
          "type": "uint256"
        },
        {
          "internalType": "uint256",
          "name": "timestamp",
          "type": "uint256"
        }
      ],
      "name": "createMessage",
      "outputs": [
        {
          "internalType": "bytes32",
          "name": "",
          "type": "bytes32"
        }
      ],
      "stateMutability": "view",
      "type": "function"
    },
    {
      "inputs": [
        {
          "internalType": "address",
          "name": "authorized",
          "type": "address"
        },
        {
          "internalType": "uint256",
          "name": "length",
          "type": "uint256"
        }
      ],
      "name": "createSession",
      "outputs": [],
      "stateMutability": "nonpayable",
      "type": "function"
    },
    {
      "inputs": [
        {
          "components": [
            {
              "internalType": "address",
              "name": "from",
              "type": "address"
            },
            {
              "internalType": "address",
              "name": "authorizer",
              "type": "address"
            },
            {
              "internalType": "address",
              "name": "to",
              "type": "address"
            },
            {
              "internalType": "address",
              "name": "nftContract",
              "type": "address"
            },
            {
              "internalType": "uint256",
              "name": "nftTokenId",
              "type": "uint256"
            },
            {
              "internalType": "uint256",
              "name": "nftChainId",
              "type": "uint256"
            },
            {
              "internalType": "uint256",
              "name": "targetChainId",
              "type": "uint256"
            },
            {
              "internalType": "uint256",
              "name": "value",
              "type": "uint256"
            },
            {
              "internalType": "uint256",
              "name": "gas",
              "type": "uint256"
            },
            {
              "internalType": "uint256",
              "name": "nonce",
              "type": "uint256"
            },
            {
              "internalType": "bytes",
              "name": "data",
              "type": "bytes"
            }
          ],
          "internalType": "struct IForwardRequest.ERC721ForwardRequest",
          "name": "req",
          "type": "tuple"
        },
        {
          "internalType": "bytes",
          "name": "signature",
          "type": "bytes"
        }
      ],
      "name": "execute",
      "outputs": [
        {
          "internalType": "bool",
          "name": "",
          "type": "bool"
        },
        {
          "internalType": "bytes",
          "name": "",
          "type": "bytes"
        }
      ],
      "stateMutability": "payable",
      "type": "function"
    },
    {
      "inputs": [
        {
          "internalType": "bytes",
          "name": "response",
          "type": "bytes"
        },
        {
          "internalType": "bytes",
          "name": "extraData",
          "type": "bytes"
        }
      ],
      "name": "executeWithProof",
      "outputs": [
        {
          "internalType": "bool",
          "name": "",
          "type": "bool"
        },
        {
          "internalType": "bytes",
          "name": "",
          "type": "bytes"
        }
      ],
      "stateMutability": "payable",
      "type": "function"
    },
    {
      "inputs": [],
      "name": "getChainId",
      "outputs": [
        {
          "internalType": "uint256",
          "name": "id",
          "type": "uint256"
        }
      ],
      "stateMutability": "view",
      "type": "function"
    },
    {
      "inputs": [
        {
          "internalType": "address",
          "name": "from",
          "type": "address"
        }
      ],
      "name": "getNonce",
      "outputs": [
        {
          "internalType": "uint256",
          "name": "",
          "type": "uint256"
        }
      ],
      "stateMutability": "view",
      "type": "function"
    },
    {
      "inputs": [
        {
          "internalType": "bytes32",
          "name": "role",
          "type": "bytes32"
        }
      ],
      "name": "getRoleAdmin",
      "outputs": [
        {
          "internalType": "bytes32",
          "name": "",
          "type": "bytes32"
        }
      ],
      "stateMutability": "view",
      "type": "function"
    },
    {
      "inputs": [
        {
          "internalType": "address",
          "name": "authorizer",
          "type": "address"
        }
      ],
      "name": "getSession",
      "outputs": [
        {
          "components": [
            {
              "internalType": "address",
              "name": "authorized",
              "type": "address"
            },
            {
              "internalType": "uint256",
              "name": "expiresAt",
              "type": "uint256"
            }
          ],
          "internalType": "struct IForwardRequest.PlaySession",
          "name": "",
          "type": "tuple"
        }
      ],
      "stateMutability": "view",
      "type": "function"
    },
    {
      "inputs": [
        {
          "internalType": "bytes32",
          "name": "role",
          "type": "bytes32"
        },
        {
          "internalType": "address",
          "name": "account",
          "type": "address"
        }
      ],
      "name": "grantRole",
      "outputs": [],
      "stateMutability": "nonpayable",
      "type": "function"
    },
    {
      "inputs": [
        {
          "internalType": "bytes32",
          "name": "role",
          "type": "bytes32"
        },
        {
          "internalType": "address",
          "name": "account",
          "type": "address"
        }
      ],
      "name": "hasRole",
      "outputs": [
        {
          "internalType": "bool",
          "name": "",
          "type": "bool"
        }
      ],
      "stateMutability": "view",
      "type": "function"
    },
    {
      "inputs": [],
      "name": "ownershipSigner",
      "outputs": [
        {
          "internalType": "address",
          "name": "",
          "type": "address"
        }
      ],
      "stateMutability": "view",
      "type": "function"
    },
    {
      "inputs": [
        {
          "components": [
            {
              "internalType": "address",
              "name": "from",
              "type": "address"
            },
            {
              "internalType": "address",
              "name": "authorizer",
              "type": "address"
            },
            {
              "internalType": "address",
              "name": "to",
              "type": "address"
            },
            {
              "internalType": "address",
              "name": "nftContract",
              "type": "address"
            },
            {
              "internalType": "uint256",
              "name": "nftTokenId",
              "type": "uint256"
            },
            {
              "internalType": "uint256",
              "name": "nftChainId",
              "type": "uint256"
            },
            {
              "internalType": "uint256",
              "name": "targetChainId",
              "type": "uint256"
            },
            {
              "internalType": "uint256",
              "name": "value",
              "type": "uint256"
            },
            {
              "internalType": "uint256",
              "name": "gas",
              "type": "uint256"
            },
            {
              "internalType": "uint256",
              "name": "nonce",
              "type": "uint256"
            },
            {
              "internalType": "bytes",
              "name": "data",
              "type": "bytes"
            }
          ],
          "internalType": "struct IForwardRequest.ERC721ForwardRequest",
          "name": "req",
          "type": "tuple"
        },
        {
          "internalType": "bytes",
          "name": "signature",
          "type": "bytes"
        }
      ],
      "name": "preflight",
      "outputs": [],
      "stateMutability": "view",
      "type": "function"
    },
    {
      "inputs": [
        {
          "internalType": "bytes32",
          "name": "role",
          "type": "bytes32"
        },
        {
          "internalType": "address",
          "name": "account",
          "type": "address"
        }
      ],
      "name": "renounceRole",
      "outputs": [],
      "stateMutability": "nonpayable",
      "type": "function"
    },
    {
      "inputs": [
        {
          "internalType": "bytes32",
          "name": "role",
          "type": "bytes32"
        },
        {
          "internalType": "address",
          "name": "account",
          "type": "address"
        }
      ],
      "name": "revokeRole",
      "outputs": [],
      "stateMutability": "nonpayable",
      "type": "function"
    },
    {
      "inputs": [
        {
          "internalType": "address",
          "name": "newSigner",
          "type": "address"
        }
      ],
      "name": "setOwnershipSigner",
      "outputs": [],
      "stateMutability": "nonpayable",
      "type": "function"
    },
    {
      "inputs": [
        {
          "internalType": "address",
          "name": "playSession",
          "type": "address"
        }
      ],
      "name": "setPlaySessionOperator",
      "outputs": [],
      "stateMutability": "nonpayable",
      "type": "function"
    },
    {
      "inputs": [
        {
          "internalType": "bytes4",
          "name": "interfaceId",
          "type": "bytes4"
        }
      ],
      "name": "supportsInterface",
      "outputs": [
        {
          "internalType": "bool",
          "name": "",
          "type": "bool"
        }
      ],
      "stateMutability": "view",
      "type": "function"
    },
    {
      "inputs": [
        {
          "internalType": "uint256",
          "name": "",
          "type": "uint256"
        }
      ],
      "name": "urls",
      "outputs": [
        {
          "internalType": "string",
          "name": "",
          "type": "string"
        }
      ],
      "stateMutability": "view",
      "type": "function"
    },
    {
      "inputs": [
        {
          "components": [
            {
              "internalType": "address",
              "name": "from",
              "type": "address"
            },
            {
              "internalType": "address",
              "name": "authorizer",
              "type": "address"
            },
            {
              "internalType": "address",
              "name": "to",
              "type": "address"
            },
            {
              "internalType": "address",
              "name": "nftContract",
              "type": "address"
            },
            {
              "internalType": "uint256",
              "name": "nftTokenId",
              "type": "uint256"
            },
            {
              "internalType": "uint256",
              "name": "nftChainId",
              "type": "uint256"
            },
            {
              "internalType": "uint256",
              "name": "targetChainId",
              "type": "uint256"
            },
            {
              "internalType": "uint256",
              "name": "value",
              "type": "uint256"
            },
            {
              "internalType": "uint256",
              "name": "gas",
              "type": "uint256"
            },
            {
              "internalType": "uint256",
              "name": "nonce",
              "type": "uint256"
            },
            {
              "internalType": "bytes",
              "name": "data",
              "type": "bytes"
            }
          ],
          "internalType": "struct IForwardRequest.ERC721ForwardRequest",
          "name": "req",
          "type": "tuple"
        },
        {
          "internalType": "bytes",
          "name": "signature",
          "type": "bytes"
        }
      ],
      "name": "verify",
      "outputs": [
        {
          "internalType": "bool",
          "name": "",
          "type": "bool"
        }
      ],
      "stateMutability": "view",
      "type": "function"
    },
    {
      "inputs": [
        {
          "components": [
            {
              "internalType": "address",
              "name": "from",
              "type": "address"
            },
            {
              "internalType": "address",
              "name": "authorizer",
              "type": "address"
            },
            {
              "internalType": "address",
              "name": "to",
              "type": "address"
            },
            {
              "internalType": "address",
              "name": "nftContract",
              "type": "address"
            },
            {
              "internalType": "uint256",
              "name": "nftTokenId",
              "type": "uint256"
            },
            {
              "internalType": "uint256",
              "name": "nftChainId",
              "type": "uint256"
            },
            {
              "internalType": "uint256",
              "name": "targetChainId",
              "type": "uint256"
            },
            {
              "internalType": "uint256",
              "name": "value",
              "type": "uint256"
            },
            {
              "internalType": "uint256",
              "name": "gas",
              "type": "uint256"
            },
            {
              "internalType": "uint256",
              "name": "nonce",
              "type": "uint256"
            },
            {
              "internalType": "bytes",
              "name": "data",
              "type": "bytes"
            }
          ],
          "internalType": "struct IForwardRequest.ERC721ForwardRequest",
          "name": "req",
          "type": "tuple"
        },
        {
          "internalType": "bytes",
          "name": "signature",
          "type": "bytes"
        },
        {
          "internalType": "uint256",
          "name": "timestamp",
          "type": "uint256"
        }
      ],
      "name": "verifyOwnershipProof",
      "outputs": [
        {
          "internalType": "bool",
          "name": "",
          "type": "bool"
        }
      ],
      "stateMutability": "view",
      "type": "function"
    }
  ],
  "transactionHash": "0x88dd379a080f44b8c522cc2c20df0490a852fb1a8c33703bff4894c210435268",
  "args": [
    "0xEssential PlaySession",
    [
      "https://middleware.nfight.xyz"
    ]
  ],
  "solcInputHash": "96f21e780117b2dc083127a8074f7f25",
  "bytecode": "0x6101206040523480156200001257600080fd5b50604051620029d1380380620029d1833981016040819052620000359162000452565b6040805180820182526005815264302e302e3160d81b60209182015283518482012060c08181527fae209a0b48f21c054280f2455d32cf309387644879d9acbd8ffc19916381188560e08190524660a081815286517f36c25de3e541d5d970f66e4210d728721220fff5c077cc6cd008b3a0c62adab78188018190528189019690965260608101939093523060808085019190915283820192909252865180840390910181529190920190945283519390920192909220905261010052620000ff6000336200015b565b6200012b7fa49807205ce4d355092ef5a8a18f56e8913cf4a201fbe287825b095693c21775336200015b565b600180546001600160a01b031916331790558051620001529060049060208401906200020b565b50505062000586565b6200016782826200016b565b5050565b6000828152602081815260408083206001600160a01b038516845290915290205460ff1662000167576000828152602081815260408083206001600160a01b03851684529091529020805460ff19166001179055620001c73390565b6001600160a01b0316816001600160a01b0316837f2f8788117e7eff1d82e926ec794901d17c78024a50270940304540a733656f0d60405160405180910390a45050565b8280548282559060005260206000209081019282156200025d579160200282015b828111156200025d57825180516200024c9184916020909101906200026f565b50916020019190600101906200022c565b506200026b929150620002fa565b5090565b8280546200027d9062000549565b90600052602060002090601f016020900481019282620002a15760008555620002ec565b82601f10620002bc57805160ff1916838001178555620002ec565b82800160010185558215620002ec579182015b82811115620002ec578251825591602001919060010190620002cf565b506200026b9291506200031b565b808211156200026b57600062000311828262000332565b50600101620002fa565b5b808211156200026b57600081556001016200031c565b508054620003409062000549565b6000825580601f1062000351575050565b601f0160209004906000526020600020908101906200037191906200031b565b50565b634e487b7160e01b600052604160045260246000fd5b604051601f8201601f191681016001600160401b0381118282101715620003b557620003b562000374565b604052919050565b600082601f830112620003cf57600080fd5b81516001600160401b03811115620003eb57620003eb62000374565b602062000401601f8301601f191682016200038a565b82815285828487010111156200041657600080fd5b60005b838110156200043657858101830151828201840152820162000419565b83811115620004485760008385840101525b5095945050505050565b600080604083850312156200046657600080fd5b82516001600160401b03808211156200047e57600080fd5b6200048c86838701620003bd565b9350602091508185015181811115620004a457600080fd5b8501601f81018713620004b657600080fd5b805182811115620004cb57620004cb62000374565b8060051b620004dc8582016200038a565b918252828101850191858101908a841115620004f757600080fd5b86850192505b838310156200053857825186811115620005175760008081fd5b620005278c8983890101620003bd565b8352509186019190860190620004fd565b809750505050505050509250929050565b600181811c908216806200055e57607f821691505b602082108114156200058057634e487b7160e01b600052602260045260246000fd5b50919050565b60805160a05160c05160e05161010051612406620005cb60003960006116f2015260006117410152600061171c015260006116a0015260006116c901526124066000f3fe6080604052600436106101405760003560e01c80637b5f9ae9116100b6578063a217fddf1161006f578063a217fddf146103fa578063d547741f1461040f578063dbf0eeef1461042f578063dbf42df714610450578063f2cde3ef14610463578063ffb703ee1461048357600080fd5b80637b5f9ae91461031657806381902564146103365780638c4a7b1b146103565780638c8e13b91461037657806391d14854146103ba57806395cb1c2d146103da57600080fd5b80632f2ff15d116101085780632f2ff15d146102405780633408e4701461026257806336568abe146102755780635c0dfff61461029557806375b238fc146102b5578063796676be146102e957600080fd5b806301ffc9a71461014557806312ce42fd1461017a578063248a9ca3146101ac5780632d0335ab146101ea5780632dfcd87314610220575b600080fd5b34801561015157600080fd5b5061016561016036600461178f565b6104a3565b60405190151581526020015b60405180910390f35b34801561018657600080fd5b506001546001600160a01b03165b6040516001600160a01b039091168152602001610171565b3480156101b857600080fd5b506101dc6101c73660046117b9565b60009081526020819052604090206001015490565b604051908152602001610171565b3480156101f657600080fd5b506101dc6102053660046117f7565b6001600160a01b031660009081526002602052604090205490565b34801561022c57600080fd5b50600554610194906001600160a01b031681565b34801561024c57600080fd5b5061026061025b366004611814565b6104da565b005b34801561026e57600080fd5b50466101dc565b34801561028157600080fd5b50610260610290366004611814565b610505565b3480156102a157600080fd5b506101dc6102b0366004611844565b610588565b3480156102c157600080fd5b506101dc7fa49807205ce4d355092ef5a8a18f56e8913cf4a201fbe287825b095693c2177581565b3480156102f557600080fd5b506103096103043660046117b9565b6105cc565b6040516101719190611911565b34801561032257600080fd5b506102606103313660046117f7565b610678565b34801561034257600080fd5b50610165610351366004611ac0565b6106c6565b34801561036257600080fd5b50610165610371366004611b6f565b6107b6565b34801561038257600080fd5b506103966103913660046117f7565b610808565b6040805182516001600160a01b031681526020928301519281019290925201610171565b3480156103c657600080fd5b506101656103d5366004611814565b610898565b3480156103e657600080fd5b506102606103f5366004611b6f565b6108c1565b34801561040657600080fd5b506101dc600081565b34801561041b57600080fd5b5061026061042a366004611814565b6109c0565b61044261043d366004611be1565b6109e6565b604051610171929190611c4d565b61044261045e366004611b6f565b610bad565b34801561046f57600080fd5b5061026061047e3660046117f7565b610d51565b34801561048f57600080fd5b5061026061049e366004611c68565b610d9b565b60006001600160e01b03198216637965db0b60e01b14806104d457506301ffc9a760e01b6001600160e01b03198316145b92915050565b6000828152602081905260409020600101546104f68133610e08565b6105008383610e6c565b505050565b6001600160a01b038116331461057a5760405162461bcd60e51b815260206004820152602f60248201527f416363657373436f6e74726f6c3a2063616e206f6e6c792072656e6f756e636560448201526e103937b632b9903337b91039b2b63360891b60648201526084015b60405180910390fd5b6105848282610ef0565b5050565b600087878787878746886040516020016105a9989796959493929190611c94565b604051602081830303815290604052805190602001209050979650505050505050565b600481815481106105dc57600080fd5b9060005260206000200160009150905080546105f790611cdf565b80601f016020809104026020016040519081016040528092919081815260200182805461062390611cdf565b80156106705780601f1061064557610100808354040283529160200191610670565b820191906000526020600020905b81548152906001019060200180831161065357829003601f168201915b505050505081565b7fa49807205ce4d355092ef5a8a18f56e8913cf4a201fbe287825b095693c217756106a38133610e08565b50600580546001600160a01b0319166001600160a01b0392909216919091179055565b60006102586106d58342611d30565b1061070a5760405162461bcd60e51b81526020600482015260056024820152645374616c6560d81b6044820152606401610571565b600061078a610737866000015187602001518861012001518960a001518a606001518b608001518a610588565b6040517f19457468657265756d205369676e6564204d6573736167653a0a3332000000006020820152603c8101829052600090605c01604051602081830303815290604052805190602001209050919050565b6001549091506001600160a01b03166107a38286610f55565b6001600160a01b03161495945050505050565b60006108006107c485611d47565b84848080601f016020809104026020016040519081016040528093929190818152602001838380828437600092019190915250610f7992505050565b949350505050565b6040805180820190915260008082526020820152600554604051638c8e13b960e01b81526001600160a01b03848116600483015290911690638c8e13b990602401604080518083038186803b15801561086057600080fd5b505afa158015610874573d6000803e3d6000fd5b505050506040513d601f19601f820116820180604052508101906104d49190611d53565b6000918252602082815260408084206001600160a01b0393909316845291905290205460ff1690565b6108cc8383836107b6565b6108e957604051638baa579f60e01b815260040160405180910390fd5b3060046108f960208601866117f7565b61090960408701602088016117f7565b6002600061091a60208a018a6117f7565b6001600160a01b0316815260208101919091526040016000205460a088013561094960808a0160608b016117f7565b89608001354642604051602001610967989796959493929190611c94565b60405160208183030381529060405263dbf0eeef60e01b428787876040516020016109959493929190611e1a565b60408051601f1981840301815290829052630556f18360e41b82526105719594939291600401611f1f565b6000828152602081905260409020600101546109dc8133610e08565b6105008383610ef0565b600060608180806109f986880188612058565b925092509250610a08826110b8565b610a24576040516282b42960e81b815260040160405180910390fd5b610a2e8282610f79565b610a4b57604051638baa579f60e01b815260040160405180910390fd5b610a8d828a8a8080601f0160208091040260200160405190810160405280939291908181526020018383808284376000920191909152508892506106c6915050565b610aaa57604051630f1f82e960e31b815260040160405180910390fd5b81516001600160a01b031660009081526002602052604081208054909190610ad1906120c5565b9190508190555060008083604001516001600160a01b03168461010001516000866101400151876080015188606001518960200151604051602001610b1994939291906120e0565b60408051601f1981840301815290829052610b3391612124565b600060405180830381858888f193505050503d8060008114610b71576040519150601f19603f3d011682016040523d82523d6000602084013e610b76565b606091505b5091509150603f846101000151610b8d9190612140565b5a11610b9b57610b9b612162565b90955093505050505b94509492505050565b60006060610bbc8585856107b6565b610c235760405162461bcd60e51b815260206004820152603260248201527f4d696e696d616c466f727761726465723a207369676e617475726520646f6573604482015271081b9bdd081b585d18da081c995c5d595cdd60721b6064820152608401610571565b610c336101208601356001612178565b60026000610c4460208901896117f7565b6001600160a01b03166001600160a01b0316815260200190815260200160002081905550600080866040016020810190610c7e91906117f7565b6001600160a01b031661010088013560e0890135610ca06101408b018b612190565b600080610cb060208f018f6117f7565b604051602001610cc49594939291906121d7565b60408051601f1981840301815290829052610cde91612124565b600060405180830381858888f193505050503d8060008114610d1c576040519150601f19603f3d011682016040523d82523d6000602084013e610d21565b606091505b509092509050610d37603f610100890135612140565b5a11610d4557610d45612162565b90969095509350505050565b7fa49807205ce4d355092ef5a8a18f56e8913cf4a201fbe287825b095693c21775610d7c8133610e08565b600180546001600160a01b0319166001600160a01b0384161790555050565b600554604051600162247e0960e11b031981526001600160a01b038481166004830152602482018490529091169063ffb703ee90604401600060405180830381600087803b158015610dec57600080fd5b505af1158015610e00573d6000803e3d6000fd5b505050505050565b610e128282610898565b61058457610e2a816001600160a01b03166014611164565b610e35836020611164565b604051602001610e4692919061220f565b60408051601f198184030181529082905262461bcd60e51b825261057191600401611911565b610e768282610898565b610584576000828152602081815260408083206001600160a01b03851684529091529020805460ff19166001179055610eac3390565b6001600160a01b0316816001600160a01b0316837f2f8788117e7eff1d82e926ec794901d17c78024a50270940304540a733656f0d60405160405180910390a45050565b610efa8282610898565b15610584576000828152602081815260408083206001600160a01b0385168085529252808320805460ff1916905551339285917ff6391f5c32d9c69d2a47ea670b442974b53935d1edc7fd64eb21e047a839171b9190a45050565b6000806000610f648585611307565b91509150610f7181611377565b509392505050565b600080611066836110607f43fa348c6c9d3f16a4580fbb7f1b7f0432ed8cdc844564275311b61f50661ea08760400151886000015189602001518a606001518b61012001518c60a001518d608001518e60c001518f6101400151805190602001206040516020016110459a99989796959493929190998a526001600160a01b0398891660208b015296881660408a0152948716606089015292909516608087015260a086015260c085019390935260e08401929092526101008301919091526101208201526101400190565b60405160208183030381529060405280519060200120611535565b90610f55565b61012085015185516001600160a01b03166000908152600260205260409020549192501480156110a2575083516001600160a01b038281169116145b80156108005750468460c0015114949350505050565b600081600001516001600160a01b031682602001516001600160a01b031614156110e457506001919050565b60055460405163cd502eb760e01b81526001600160a01b039091169063cd502eb790611114908590600401612284565b60206040518083038186803b15801561112c57600080fd5b505afa158015611140573d6000803e3d6000fd5b505050506040513d601f19601f820116820180604052508101906104d4919061234c565b6060600061117383600261236e565b61117e906002612178565b67ffffffffffffffff81111561119657611196611924565b6040519080825280601f01601f1916602001820160405280156111c0576020820181803683370190505b509050600360fc1b816000815181106111db576111db61238d565b60200101906001600160f81b031916908160001a905350600f60fb1b8160018151811061120a5761120a61238d565b60200101906001600160f81b031916908160001a905350600061122e84600261236e565b611239906001612178565b90505b60018111156112b1576f181899199a1a9b1b9c1cb0b131b232b360811b85600f166010811061126d5761126d61238d565b1a60f81b8282815181106112835761128361238d565b60200101906001600160f81b031916908160001a90535060049490941c936112aa816123a3565b905061123c565b5083156113005760405162461bcd60e51b815260206004820181905260248201527f537472696e67733a20686578206c656e67746820696e73756666696369656e746044820152606401610571565b9392505050565b60008082516041141561133e5760208301516040840151606085015160001a61133287828585611583565b94509450505050611370565b825160401415611368576020830151604084015161135d86838361166d565b935093505050611370565b506000905060025b9250929050565b600081600481111561138b5761138b6123ba565b14156113945750565b60018160048111156113a8576113a86123ba565b14156113f65760405162461bcd60e51b815260206004820152601860248201527f45434453413a20696e76616c6964207369676e617475726500000000000000006044820152606401610571565b600281600481111561140a5761140a6123ba565b14156114585760405162461bcd60e51b815260206004820152601f60248201527f45434453413a20696e76616c6964207369676e6174757265206c656e677468006044820152606401610571565b600381600481111561146c5761146c6123ba565b14156114c55760405162461bcd60e51b815260206004820152602260248201527f45434453413a20696e76616c6964207369676e6174757265202773272076616c604482015261756560f01b6064820152608401610571565b60048160048111156114d9576114d96123ba565b14156115325760405162461bcd60e51b815260206004820152602260248201527f45434453413a20696e76616c6964207369676e6174757265202776272076616c604482015261756560f01b6064820152608401610571565b50565b60006104d461154261169c565b8360405161190160f01b6020820152602281018390526042810182905260009060620160405160208183030381529060405280519060200120905092915050565b6000807f7fffffffffffffffffffffffffffffff5d576e7357a4501ddfe92f46681b20a08311156115ba5750600090506003610ba4565b8460ff16601b141580156115d257508460ff16601c14155b156115e35750600090506004610ba4565b6040805160008082526020820180845289905260ff881692820192909252606081018690526080810185905260019060a0016020604051602081039080840390855afa158015611637573d6000803e3d6000fd5b5050604051601f1901519150506001600160a01b03811661166057600060019250925050610ba4565b9660009650945050505050565b6000806001600160ff1b03831660ff84901c601b0161168e87828885611583565b935093505050935093915050565b60007f00000000000000000000000000000000000000000000000000000000000000004614156116eb57507f000000000000000000000000000000000000000000000000000000000000000090565b50604080517f00000000000000000000000000000000000000000000000000000000000000006020808301919091527f0000000000000000000000000000000000000000000000000000000000000000828401527f000000000000000000000000000000000000000000000000000000000000000060608301523060808301524660a0808401919091528351808403909101815260c0909201909252805191012090565b6000602082840312156117a157600080fd5b81356001600160e01b03198116811461130057600080fd5b6000602082840312156117cb57600080fd5b5035919050565b6001600160a01b038116811461153257600080fd5b80356117f2816117d2565b919050565b60006020828403121561180957600080fd5b8135611300816117d2565b6000806040838503121561182757600080fd5b823591506020830135611839816117d2565b809150509250929050565b600080600080600080600060e0888a03121561185f57600080fd5b873561186a816117d2565b9650602088013561187a816117d2565b955060408801359450606088013593506080880135611898816117d2565b9699959850939692959460a0840135945060c09093013592915050565b60005b838110156118d05781810151838201526020016118b8565b838111156118df576000848401525b50505050565b600081518084526118fd8160208601602086016118b5565b601f01601f19169290920160200192915050565b60208152600061130060208301846118e5565b634e487b7160e01b600052604160045260246000fd5b604051610160810167ffffffffffffffff8111828210171561195e5761195e611924565b60405290565b600082601f83011261197557600080fd5b813567ffffffffffffffff8082111561199057611990611924565b604051601f8301601f19908116603f011681019082821181831017156119b8576119b8611924565b816040528381528660208588010111156119d157600080fd5b836020870160208301376000602085830101528094505050505092915050565b60006101608284031215611a0457600080fd5b611a0c61193a565b9050611a17826117e7565b8152611a25602083016117e7565b6020820152611a36604083016117e7565b6040820152611a47606083016117e7565b60608201526080820135608082015260a082013560a082015260c082013560c082015260e082013560e08201526101008083013581830152506101208083013581830152506101408083013567ffffffffffffffff811115611aa857600080fd5b611ab485828601611964565b82840152505092915050565b600080600060608486031215611ad557600080fd5b833567ffffffffffffffff80821115611aed57600080fd5b611af9878388016119f1565b94506020860135915080821115611b0f57600080fd5b50611b1c86828701611964565b925050604084013590509250925092565b60008083601f840112611b3f57600080fd5b50813567ffffffffffffffff811115611b5757600080fd5b60208301915083602082850101111561137057600080fd5b600080600060408486031215611b8457600080fd5b833567ffffffffffffffff80821115611b9c57600080fd5b908501906101608288031215611bb157600080fd5b90935060208501359080821115611bc757600080fd5b50611bd486828701611b2d565b9497909650939450505050565b60008060008060408587031215611bf757600080fd5b843567ffffffffffffffff80821115611c0f57600080fd5b611c1b88838901611b2d565b90965094506020870135915080821115611c3457600080fd5b50611c4187828801611b2d565b95989497509550505050565b821515815260406020820152600061080060408301846118e5565b60008060408385031215611c7b57600080fd5b8235611c86816117d2565b946020939093013593505050565b6001600160a01b0398891681529688166020880152604087019590955260608601939093529416608084015260a083019390935260c082019290925260e08101919091526101000190565b600181811c90821680611cf357607f821691505b60208210811415611d1457634e487b7160e01b600052602260045260246000fd5b50919050565b634e487b7160e01b600052601160045260246000fd5b600082821015611d4257611d42611d1a565b500390565b60006104d436836119f1565b600060408284031215611d6557600080fd5b6040516040810181811067ffffffffffffffff82111715611d8857611d88611924565b6040528251611d96816117d2565b81526020928301519281019290925250919050565b6000808335601e19843603018112611dc257600080fd5b830160208101925035905067ffffffffffffffff811115611de257600080fd5b80360383131561137057600080fd5b81835281816020850137506000828201602090810191909152601f909101601f19169091010190565b84815260606020820152611e4160608201611e34866117e7565b6001600160a01b03169052565b6000611e4f602086016117e7565b6001600160a01b03166080830152611e69604086016117e7565b6001600160a01b031660a0830152611e83606086016117e7565b6001600160a01b03811660c084015250608085013560e083015261010060a08601358184015261012060c08701358185015261014060e088013581860152610160838901358187015282890135610180870152611ee2828a018a611dab565b94509250806101a08701525050611efe6101c085018383611df1565b9150508281036040840152611f14818587611df1565b979650505050505050565b600060a0820160018060a01b0388168352602060a08185015281885480845260c08601915060c08160051b870101935060008a8152838120815b838110156120105788870360bf1901855281548390600181811c9080831680611f8357607f831692505b8a8310811415611fa157634e487b7160e01b88526022600452602488fd5b828c5260208c01818015611fbc5760018114611fcd57611ff7565b60ff19861682528c82019650611ff7565b6000898152602090208a5b86811015611ff157815484820152908501908e01611fd8565b83019750505b50949b5050978901979490940193505050600101611f59565b505050505050828103604084015261202881876118e5565b6001600160e01b0319861660608501529050828103608084015261204c81856118e5565b98975050505050505050565b60008060006060848603121561206d57600080fd5b83359250602084013567ffffffffffffffff8082111561208c57600080fd5b612098878388016119f1565b935060408601359150808211156120ae57600080fd5b506120bb86828701611964565b9150509250925092565b60006000198214156120d9576120d9611d1a565b5060010190565b600085516120f2818460208a016118b5565b91909101938452506bffffffffffffffffffffffff19606092831b81166020850152911b166034820152604801919050565b600082516121368184602087016118b5565b9190910192915050565b60008261215d57634e487b7160e01b600052601260045260246000fd5b500490565b634e487b7160e01b600052600160045260246000fd5b6000821982111561218b5761218b611d1a565b500190565b6000808335601e198436030181126121a757600080fd5b83018035915067ffffffffffffffff8211156121c257600080fd5b60200191503681900382131561137057600080fd5b84868237909301918252606090811b6bffffffffffffffffffffffff19908116602084015292901b9091166034820152604801919050565b7f416363657373436f6e74726f6c3a206163636f756e74200000000000000000008152600083516122478160178501602088016118b5565b7001034b99036b4b9b9b4b733903937b6329607d1b60179184019182015283516122788160288401602088016118b5565b01602801949350505050565b6020815261229e6020820183516001600160a01b03169052565b600060208301516122ba60408401826001600160a01b03169052565b5060408301516001600160a01b03811660608401525060608301516001600160a01b038116608084015250608083015160a083015260a083015160c083015260c083015160e083015260e08301516101008181850152808501519150506101208181850152808501519150506101408181850152808501519150506101608081850152506108006101808401826118e5565b60006020828403121561235e57600080fd5b8151801515811461130057600080fd5b600081600019048311821515161561238857612388611d1a565b500290565b634e487b7160e01b600052603260045260246000fd5b6000816123b2576123b2611d1a565b506000190190565b634e487b7160e01b600052602160045260246000fdfea2646970667358221220386e14a334ea4ec65c8b38884d3ba8568606e01e936b0f683b6177e195b2968e64736f6c63430008090033",
  "devdoc": {
    "author": "0xEssential",
    "details": "Allows a Relayer to submit meta-transactions that utilize an NFT (i.e. in a game) on behalf of EOAs. Transactions      are only executed if the Relayer provides a signature from a trusted signer. The signature must include the current      owner of the Layer 1 NFT being used, or a Burner EOA the owner has authorized to use its NFTs.      EssentialForwarder can be used to build Layer 2 games that use Layer 1 NFTs without bridging and with superior UX.      End users can specify a Burner EOA from their primary EOA, and then use that burner address to play games.      The Burner EOA can then sign messages for game moves without user interaction without any risk to the NFTs or other      assets owned by the primary EOA.",
    "kind": "dev",
    "methods": {
      "createMessage(address,address,uint256,uint256,address,uint256,uint256)": {
        "details": "The RPC server uses this view function to create the ownership proof",
        "params": {
          "authorizer": "the address that currently owns the L1 NFT",
          "nftChainId": "the chainId for the nftContract",
          "nftContract": "the contract address for the NFT being utilized",
          "nonce": "the meta-transaction nonce for account",
          "signer": "the address that currently owns the L1 NFT",
          "timestamp": "the timestamp from the OffchainLookup error",
          "tokenId": "the tokenId from nftContract for the NFT being utilized"
        },
        "returns": {
          "_0": "the message _ownershipSigner should sign"
        }
      },
      "executeWithProof(bytes,bytes)": {
        "details": "The RPC call and re-submission should be handled by your Relayer client",
        "params": {
          "extraData": "The unaltered bytes from OffchainLookup::extraData",
          "response": "The unaltered bytes reponse from a call made to an RPC url from OffchainLookup::urls"
        }
      },
      "getRoleAdmin(bytes32)": {
        "details": "Returns the admin role that controls `role`. See {grantRole} and {revokeRole}. To change a role's admin, use {_setRoleAdmin}."
      },
      "grantRole(bytes32,address)": {
        "details": "Grants `role` to `account`. If `account` had not been already granted `role`, emits a {RoleGranted} event. Requirements: - the caller must have ``role``'s admin role."
      },
      "hasRole(bytes32,address)": {
        "details": "Returns `true` if `account` has been granted `role`."
      },
      "ownershipSigner()": {
        "returns": {
          "_0": "the ownership proof signer address"
        }
      },
      "preflight((address,address,address,address,uint256,uint256,uint256,uint256,uint256,uint256,bytes),bytes)": {
        "details": "Per EIP-3668, a valid signature will cause a revert with useful error params."
      },
      "renounceRole(bytes32,address)": {
        "details": "Revokes `role` from the calling account. Roles are often managed via {grantRole} and {revokeRole}: this function's purpose is to provide a mechanism for accounts to lose their privileges if they are compromised (such as when a trusted device is misplaced). If the calling account had been revoked `role`, emits a {RoleRevoked} event. Requirements: - the caller must be `account`."
      },
      "revokeRole(bytes32,address)": {
        "details": "Revokes `role` from `account`. If `account` had been granted `role`, emits a {RoleRevoked} event. Requirements: - the caller must have ``role``'s admin role."
      },
      "supportsInterface(bytes4)": {
        "details": "See {IERC165-supportsInterface}."
      },
      "verify((address,address,address,address,uint256,uint256,uint256,uint256,uint256,uint256,bytes),bytes)": {
        "details": "Useful for transactions where the signer is not using a specific NFT, but values are still required in the signature - use the zero address for nftContract and 0 for tokenId"
      },
      "verifyOwnershipProof((address,address,address,address,uint256,uint256,uint256,uint256,uint256,uint256,bytes),bytes,uint256)": {
        "details": "Ensures that _ownershipSigner signed a message containing (nftOwner OR authorized address, nonce, nftContract, tokenId)",
        "params": {
          "req": "structured data submitted by EOA making a meta-transaction request",
          "signature": "the signature proof created by the ownership signer EOA"
        }
      }
    },
    "title": "EssentialForwarder",
    "version": 1
  },
  "userdoc": {
    "kind": "user",
    "methods": {
      "createMessage(address,address,uint256,uint256,address,uint256,uint256)": {
        "notice": "Construct message that _ownershipSigner must sign as ownership proof"
      },
      "createSession(address,uint256)": {
        "notice": "Allow `authorized` to use your NFTs in a game for `length` seconds. Your NFTs         will not be held in custody or approved for transfer."
      },
      "executeWithProof(bytes,bytes)": {
        "notice": "Re-submit a valid meta-tx request with trust-minimized proof to execute the transaction."
      },
      "getNonce(address)": {
        "notice": "Get current nonce for EOA"
      },
      "getSession(address)": {
        "notice": "Get current session for Primary EOA"
      },
      "ownershipSigner()": {
        "notice": "Get ownershipSigner address"
      },
      "preflight((address,address,address,address,uint256,uint256,uint256,uint256,uint256,uint256,bytes),bytes)": {
        "notice": "Submit a meta-tx request and signature to check validity and receive a response with data useful for fetching a trusted proof per EIP-3668."
      },
      "setOwnershipSigner(address)": {
        "notice": "Change the ownership signer"
      },
      "setPlaySessionOperator(address)": {
        "notice": "Change the PlaySession source"
      },
      "verify((address,address,address,address,uint256,uint256,uint256,uint256,uint256,uint256,bytes),bytes)": {
        "notice": "Submit a meta-tx request where a proof of ownership is not required."
      },
      "verifyOwnershipProof((address,address,address,address,uint256,uint256,uint256,uint256,uint256,uint256,bytes),bytes,uint256)": {
        "notice": "Verify signed OffchainLookup proof against meta-tx request data"
      }
    },
    "notice": "EIP-2771 based MetaTransaction Forwarding Contract with EIP-3668 OffchainLookup for cross-chain token gating",
    "version": 1
  },
  "storageLayout": {
    "storage": [
      {
        "astId": 5222,
        "contract": "@0xessential/contracts/fwd/EssentialForwarder.sol:EssentialForwarder",
        "label": "_roles",
        "offset": 0,
        "slot": "0",
        "type": "t_mapping(t_bytes32,t_struct(RoleData)5217_storage)"
      },
      {
        "astId": 1040,
        "contract": "@0xessential/contracts/fwd/EssentialForwarder.sol:EssentialForwarder",
        "label": "_ownershipSigner",
        "offset": 0,
        "slot": "1",
        "type": "t_address"
      },
      {
        "astId": 353,
        "contract": "@0xessential/contracts/fwd/EssentialForwarder.sol:EssentialForwarder",
        "label": "_nonces",
        "offset": 0,
        "slot": "2",
        "type": "t_mapping(t_address,t_uint256)"
      },
      {
        "astId": 358,
        "contract": "@0xessential/contracts/fwd/EssentialForwarder.sol:EssentialForwarder",
        "label": "_sessions",
        "offset": 0,
        "slot": "3",
        "type": "t_mapping(t_address,t_struct(PlaySession)1023_storage)"
      },
      {
        "astId": 361,
        "contract": "@0xessential/contracts/fwd/EssentialForwarder.sol:EssentialForwarder",
        "label": "urls",
        "offset": 0,
        "slot": "4",
        "type": "t_array(t_string_storage)dyn_storage"
      },
      {
        "astId": 364,
        "contract": "@0xessential/contracts/fwd/EssentialForwarder.sol:EssentialForwarder",
        "label": "PlaySession",
        "offset": 0,
        "slot": "5",
        "type": "t_contract(IEssentialPlaySession)986"
      }
    ],
    "types": {
      "t_address": {
        "encoding": "inplace",
        "label": "address",
        "numberOfBytes": "20"
      },
      "t_array(t_string_storage)dyn_storage": {
        "base": "t_string_storage",
        "encoding": "dynamic_array",
        "label": "string[]",
        "numberOfBytes": "32"
      },
      "t_bool": {
        "encoding": "inplace",
        "label": "bool",
        "numberOfBytes": "1"
      },
      "t_bytes32": {
        "encoding": "inplace",
        "label": "bytes32",
        "numberOfBytes": "32"
      },
      "t_contract(IEssentialPlaySession)986": {
        "encoding": "inplace",
        "label": "contract IEssentialPlaySession",
        "numberOfBytes": "20"
      },
      "t_mapping(t_address,t_bool)": {
        "encoding": "mapping",
        "key": "t_address",
        "label": "mapping(address => bool)",
        "numberOfBytes": "32",
        "value": "t_bool"
      },
      "t_mapping(t_address,t_struct(PlaySession)1023_storage)": {
        "encoding": "mapping",
        "key": "t_address",
        "label": "mapping(address => struct IForwardRequest.PlaySession)",
        "numberOfBytes": "32",
        "value": "t_struct(PlaySession)1023_storage"
      },
      "t_mapping(t_address,t_uint256)": {
        "encoding": "mapping",
        "key": "t_address",
        "label": "mapping(address => uint256)",
        "numberOfBytes": "32",
        "value": "t_uint256"
      },
      "t_mapping(t_bytes32,t_struct(RoleData)5217_storage)": {
        "encoding": "mapping",
        "key": "t_bytes32",
        "label": "mapping(bytes32 => struct AccessControl.RoleData)",
        "numberOfBytes": "32",
        "value": "t_struct(RoleData)5217_storage"
      },
      "t_string_storage": {
        "encoding": "bytes",
        "label": "string",
        "numberOfBytes": "32"
      },
      "t_struct(PlaySession)1023_storage": {
        "encoding": "inplace",
        "label": "struct IForwardRequest.PlaySession",
        "members": [
          {
            "astId": 1020,
            "contract": "@0xessential/contracts/fwd/EssentialForwarder.sol:EssentialForwarder",
            "label": "authorized",
            "offset": 0,
            "slot": "0",
            "type": "t_address"
          },
          {
            "astId": 1022,
            "contract": "@0xessential/contracts/fwd/EssentialForwarder.sol:EssentialForwarder",
            "label": "expiresAt",
            "offset": 0,
            "slot": "1",
            "type": "t_uint256"
          }
        ],
        "numberOfBytes": "64"
      },
      "t_struct(RoleData)5217_storage": {
        "encoding": "inplace",
        "label": "struct AccessControl.RoleData",
        "members": [
          {
            "astId": 5214,
            "contract": "@0xessential/contracts/fwd/EssentialForwarder.sol:EssentialForwarder",
            "label": "members",
            "offset": 0,
            "slot": "0",
            "type": "t_mapping(t_address,t_bool)"
          },
          {
            "astId": 5216,
            "contract": "@0xessential/contracts/fwd/EssentialForwarder.sol:EssentialForwarder",
            "label": "adminRole",
            "offset": 0,
            "slot": "1",
            "type": "t_bytes32"
          }
        ],
        "numberOfBytes": "64"
      },
      "t_uint256": {
        "encoding": "inplace",
        "label": "uint256",
        "numberOfBytes": "32"
      }
    }
  }
}