{
  "address": "0xAD30159433a9CB8aF2AC71fd5bb0c44537e50403",
  "abi": [
    {
      "inputs": [
        {
          "internalType": "string",
          "name": "name",
          "type": "string"
        },
        {
          "internalType": "string[]",
          "name": "_urls",
          "type": "string[]"
        }
      ],
      "stateMutability": "nonpayable",
      "type": "constructor"
    },
    {
      "inputs": [
        {
          "internalType": "address",
          "name": "sender",
          "type": "address"
        },
        {
          "internalType": "string[]",
          "name": "urls",
          "type": "string[]"
        },
        {
          "internalType": "bytes",
          "name": "callData",
          "type": "bytes"
        },
        {
          "internalType": "bytes4",
          "name": "callbackFunction",
          "type": "bytes4"
        },
        {
          "internalType": "bytes",
          "name": "extraData",
          "type": "bytes"
        }
      ],
      "name": "OffchainLookup",
      "type": "error"
    },
    {
      "anonymous": false,
      "inputs": [
        {
          "indexed": true,
          "internalType": "bytes32",
          "name": "role",
          "type": "bytes32"
        },
        {
          "indexed": true,
          "internalType": "bytes32",
          "name": "previousAdminRole",
          "type": "bytes32"
        },
        {
          "indexed": true,
          "internalType": "bytes32",
          "name": "newAdminRole",
          "type": "bytes32"
        }
      ],
      "name": "RoleAdminChanged",
      "type": "event"
    },
    {
      "anonymous": false,
      "inputs": [
        {
          "indexed": true,
          "internalType": "bytes32",
          "name": "role",
          "type": "bytes32"
        },
        {
          "indexed": true,
          "internalType": "address",
          "name": "account",
          "type": "address"
        },
        {
          "indexed": true,
          "internalType": "address",
          "name": "sender",
          "type": "address"
        }
      ],
      "name": "RoleGranted",
      "type": "event"
    },
    {
      "anonymous": false,
      "inputs": [
        {
          "indexed": true,
          "internalType": "bytes32",
          "name": "role",
          "type": "bytes32"
        },
        {
          "indexed": true,
          "internalType": "address",
          "name": "account",
          "type": "address"
        },
        {
          "indexed": true,
          "internalType": "address",
          "name": "sender",
          "type": "address"
        }
      ],
      "name": "RoleRevoked",
      "type": "event"
    },
    {
      "anonymous": false,
      "inputs": [
        {
          "indexed": true,
          "internalType": "address",
          "name": "owner",
          "type": "address"
        },
        {
          "indexed": true,
          "internalType": "address",
          "name": "authorized",
          "type": "address"
        },
        {
          "indexed": true,
          "internalType": "uint256",
          "name": "length",
          "type": "uint256"
        }
      ],
      "name": "Session",
      "type": "event"
    },
    {
      "inputs": [],
      "name": "ADMIN_ROLE",
      "outputs": [
        {
          "internalType": "bytes32",
          "name": "",
          "type": "bytes32"
        }
      ],
      "stateMutability": "view",
      "type": "function"
    },
    {
      "inputs": [],
      "name": "DEFAULT_ADMIN_ROLE",
      "outputs": [
        {
          "internalType": "bytes32",
          "name": "",
          "type": "bytes32"
        }
      ],
      "stateMutability": "view",
      "type": "function"
    },
    {
      "inputs": [
        {
          "internalType": "address",
          "name": "nftOwner",
          "type": "address"
        },
        {
          "internalType": "uint256",
          "name": "nonce",
          "type": "uint256"
        },
        {
          "internalType": "address",
          "name": "nftContract",
          "type": "address"
        },
        {
          "internalType": "uint256",
          "name": "tokenId",
          "type": "uint256"
        },
        {
          "internalType": "uint256",
          "name": "tokenNonce",
          "type": "uint256"
        }
      ],
      "name": "createMessage",
      "outputs": [
        {
          "internalType": "bytes32",
          "name": "",
          "type": "bytes32"
        }
      ],
      "stateMutability": "pure",
      "type": "function"
    },
    {
      "inputs": [
        {
          "internalType": "address",
          "name": "authorized",
          "type": "address"
        },
        {
          "internalType": "uint256",
          "name": "length",
          "type": "uint256"
        }
      ],
      "name": "createSession",
      "outputs": [],
      "stateMutability": "nonpayable",
      "type": "function"
    },
    {
      "inputs": [
        {
          "components": [
            {
              "internalType": "address",
              "name": "from",
              "type": "address"
            },
            {
              "internalType": "address",
              "name": "authorizer",
              "type": "address"
            },
            {
              "internalType": "address",
              "name": "to",
              "type": "address"
            },
            {
              "internalType": "address",
              "name": "nftContract",
              "type": "address"
            },
            {
              "internalType": "uint256",
              "name": "nftNonce",
              "type": "uint256"
            },
            {
              "internalType": "uint256",
              "name": "tokenId",
              "type": "uint256"
            },
            {
              "internalType": "uint256",
              "name": "value",
              "type": "uint256"
            },
            {
              "internalType": "uint256",
              "name": "gas",
              "type": "uint256"
            },
            {
              "internalType": "uint256",
              "name": "nonce",
              "type": "uint256"
            },
            {
              "internalType": "bytes",
              "name": "data",
              "type": "bytes"
            }
          ],
          "internalType": "struct IForwardRequest.ERC721ForwardRequest",
          "name": "req",
          "type": "tuple"
        },
        {
          "internalType": "bytes",
          "name": "signature",
          "type": "bytes"
        }
      ],
      "name": "execute",
      "outputs": [
        {
          "internalType": "bool",
          "name": "",
          "type": "bool"
        },
        {
          "internalType": "bytes",
          "name": "",
          "type": "bytes"
        }
      ],
      "stateMutability": "payable",
      "type": "function"
    },
    {
      "inputs": [
        {
          "internalType": "bytes",
          "name": "response",
          "type": "bytes"
        },
        {
          "internalType": "bytes",
          "name": "extraData",
          "type": "bytes"
        }
      ],
      "name": "executeWithProof",
      "outputs": [
        {
          "internalType": "bool",
          "name": "",
          "type": "bool"
        },
        {
          "internalType": "bytes",
          "name": "",
          "type": "bytes"
        }
      ],
      "stateMutability": "payable",
      "type": "function"
    },
    {
      "inputs": [],
      "name": "getChainId",
      "outputs": [
        {
          "internalType": "uint256",
          "name": "id",
          "type": "uint256"
        }
      ],
      "stateMutability": "view",
      "type": "function"
    },
    {
      "inputs": [
        {
          "internalType": "address",
          "name": "from",
          "type": "address"
        }
      ],
      "name": "getNonce",
      "outputs": [
        {
          "internalType": "uint256",
          "name": "",
          "type": "uint256"
        }
      ],
      "stateMutability": "view",
      "type": "function"
    },
    {
      "inputs": [
        {
          "internalType": "bytes32",
          "name": "role",
          "type": "bytes32"
        }
      ],
      "name": "getRoleAdmin",
      "outputs": [
        {
          "internalType": "bytes32",
          "name": "",
          "type": "bytes32"
        }
      ],
      "stateMutability": "view",
      "type": "function"
    },
    {
      "inputs": [
        {
          "internalType": "address",
          "name": "authorizer",
          "type": "address"
        }
      ],
      "name": "getSession",
      "outputs": [
        {
          "components": [
            {
              "internalType": "address",
              "name": "authorized",
              "type": "address"
            },
            {
              "internalType": "uint256",
              "name": "expiresAt",
              "type": "uint256"
            }
          ],
          "internalType": "struct IForwardRequest.PlaySession",
          "name": "",
          "type": "tuple"
        }
      ],
      "stateMutability": "view",
      "type": "function"
    },
    {
      "inputs": [
        {
          "internalType": "address",
          "name": "contractAddress",
          "type": "address"
        },
        {
          "internalType": "uint256",
          "name": "tokenId",
          "type": "uint256"
        }
      ],
      "name": "getTokenNonce",
      "outputs": [
        {
          "internalType": "uint256",
          "name": "",
          "type": "uint256"
        }
      ],
      "stateMutability": "view",
      "type": "function"
    },
    {
      "inputs": [
        {
          "internalType": "bytes32",
          "name": "role",
          "type": "bytes32"
        },
        {
          "internalType": "address",
          "name": "account",
          "type": "address"
        }
      ],
      "name": "grantRole",
      "outputs": [],
      "stateMutability": "nonpayable",
      "type": "function"
    },
    {
      "inputs": [
        {
          "internalType": "bytes32",
          "name": "role",
          "type": "bytes32"
        },
        {
          "internalType": "address",
          "name": "account",
          "type": "address"
        }
      ],
      "name": "hasRole",
      "outputs": [
        {
          "internalType": "bool",
          "name": "",
          "type": "bool"
        }
      ],
      "stateMutability": "view",
      "type": "function"
    },
    {
      "inputs": [],
      "name": "invalidateSession",
      "outputs": [],
      "stateMutability": "nonpayable",
      "type": "function"
    },
    {
      "inputs": [],
      "name": "ownershipSigner",
      "outputs": [
        {
          "internalType": "address",
          "name": "",
          "type": "address"
        }
      ],
      "stateMutability": "view",
      "type": "function"
    },
    {
      "inputs": [
        {
          "components": [
            {
              "internalType": "address",
              "name": "from",
              "type": "address"
            },
            {
              "internalType": "address",
              "name": "authorizer",
              "type": "address"
            },
            {
              "internalType": "address",
              "name": "to",
              "type": "address"
            },
            {
              "internalType": "address",
              "name": "nftContract",
              "type": "address"
            },
            {
              "internalType": "uint256",
              "name": "nftNonce",
              "type": "uint256"
            },
            {
              "internalType": "uint256",
              "name": "tokenId",
              "type": "uint256"
            },
            {
              "internalType": "uint256",
              "name": "value",
              "type": "uint256"
            },
            {
              "internalType": "uint256",
              "name": "gas",
              "type": "uint256"
            },
            {
              "internalType": "uint256",
              "name": "nonce",
              "type": "uint256"
            },
            {
              "internalType": "bytes",
              "name": "data",
              "type": "bytes"
            }
          ],
          "internalType": "struct IForwardRequest.ERC721ForwardRequest",
          "name": "req",
          "type": "tuple"
        },
        {
          "internalType": "bytes",
          "name": "signature",
          "type": "bytes"
        }
      ],
      "name": "preflight",
      "outputs": [],
      "stateMutability": "view",
      "type": "function"
    },
    {
      "inputs": [
        {
          "internalType": "bytes32",
          "name": "role",
          "type": "bytes32"
        },
        {
          "internalType": "address",
          "name": "account",
          "type": "address"
        }
      ],
      "name": "renounceRole",
      "outputs": [],
      "stateMutability": "nonpayable",
      "type": "function"
    },
    {
      "inputs": [
        {
          "internalType": "bytes32",
          "name": "role",
          "type": "bytes32"
        },
        {
          "internalType": "address",
          "name": "account",
          "type": "address"
        }
      ],
      "name": "revokeRole",
      "outputs": [],
      "stateMutability": "nonpayable",
      "type": "function"
    },
    {
      "inputs": [
        {
          "internalType": "address",
          "name": "newSigner",
          "type": "address"
        }
      ],
      "name": "setOwnershipSigner",
      "outputs": [],
      "stateMutability": "nonpayable",
      "type": "function"
    },
    {
      "inputs": [
        {
          "internalType": "bytes4",
          "name": "interfaceId",
          "type": "bytes4"
        }
      ],
      "name": "supportsInterface",
      "outputs": [
        {
          "internalType": "bool",
          "name": "",
          "type": "bool"
        }
      ],
      "stateMutability": "view",
      "type": "function"
    },
    {
      "inputs": [
        {
          "internalType": "uint256",
          "name": "",
          "type": "uint256"
        }
      ],
      "name": "urls",
      "outputs": [
        {
          "internalType": "string",
          "name": "",
          "type": "string"
        }
      ],
      "stateMutability": "view",
      "type": "function"
    },
    {
      "inputs": [
        {
          "components": [
            {
              "internalType": "address",
              "name": "from",
              "type": "address"
            },
            {
              "internalType": "address",
              "name": "authorizer",
              "type": "address"
            },
            {
              "internalType": "address",
              "name": "to",
              "type": "address"
            },
            {
              "internalType": "address",
              "name": "nftContract",
              "type": "address"
            },
            {
              "internalType": "uint256",
              "name": "nftNonce",
              "type": "uint256"
            },
            {
              "internalType": "uint256",
              "name": "tokenId",
              "type": "uint256"
            },
            {
              "internalType": "uint256",
              "name": "value",
              "type": "uint256"
            },
            {
              "internalType": "uint256",
              "name": "gas",
              "type": "uint256"
            },
            {
              "internalType": "uint256",
              "name": "nonce",
              "type": "uint256"
            },
            {
              "internalType": "bytes",
              "name": "data",
              "type": "bytes"
            }
          ],
          "internalType": "struct IForwardRequest.ERC721ForwardRequest",
          "name": "req",
          "type": "tuple"
        },
        {
          "internalType": "bytes",
          "name": "signature",
          "type": "bytes"
        }
      ],
      "name": "verify",
      "outputs": [
        {
          "internalType": "bool",
          "name": "",
          "type": "bool"
        }
      ],
      "stateMutability": "view",
      "type": "function"
    },
    {
      "inputs": [
        {
          "components": [
            {
              "internalType": "address",
              "name": "from",
              "type": "address"
            },
            {
              "internalType": "address",
              "name": "authorizer",
              "type": "address"
            },
            {
              "internalType": "address",
              "name": "to",
              "type": "address"
            },
            {
              "internalType": "address",
              "name": "nftContract",
              "type": "address"
            },
            {
              "internalType": "uint256",
              "name": "nftNonce",
              "type": "uint256"
            },
            {
              "internalType": "uint256",
              "name": "tokenId",
              "type": "uint256"
            },
            {
              "internalType": "uint256",
              "name": "value",
              "type": "uint256"
            },
            {
              "internalType": "uint256",
              "name": "gas",
              "type": "uint256"
            },
            {
              "internalType": "uint256",
              "name": "nonce",
              "type": "uint256"
            },
            {
              "internalType": "bytes",
              "name": "data",
              "type": "bytes"
            }
          ],
          "internalType": "struct IForwardRequest.ERC721ForwardRequest",
          "name": "req",
          "type": "tuple"
        },
        {
          "internalType": "bytes",
          "name": "signature",
          "type": "bytes"
        }
      ],
      "name": "verifyOwnershipProof",
      "outputs": [
        {
          "internalType": "bool",
          "name": "",
          "type": "bool"
        }
      ],
      "stateMutability": "view",
      "type": "function"
    }
  ],
  "transactionHash": "0xce840782cad4a9fdec170226792eadb86ca5eb72572f41dc29f2f6f11cfe3ccb",
  "args": [
    "0xEssential PlaySession",
    [
      "https://testnet-ownership-rpc.herokuapp.com/"
    ]
  ],
  "numDeployments": 1,
  "solcInputHash": "929f80341fdb0dc8b000a92af340aff1",
  "bytecode": "0x6101206040523480156200001257600080fd5b5060405162002b6438038062002b64833981016040819052620000359162000452565b6040805180820182526005815264302e302e3160d81b60209182015283518482012060c08181527fae209a0b48f21c054280f2455d32cf309387644879d9acbd8ffc19916381188560e08190524660a081815286517f36c25de3e541d5d970f66e4210d728721220fff5c077cc6cd008b3a0c62adab78188018190528189019690965260608101939093523060808085019190915283820192909252865180840390910181529190920190945283519390920192909220905261010052620000ff6000336200015b565b6200012b7fa49807205ce4d355092ef5a8a18f56e8913cf4a201fbe287825b095693c21775336200015b565b600180546001600160a01b031916331790558051620001529060059060208401906200020b565b50505062000586565b6200016782826200016b565b5050565b6000828152602081815260408083206001600160a01b038516845290915290205460ff1662000167576000828152602081815260408083206001600160a01b03851684529091529020805460ff19166001179055620001c73390565b6001600160a01b0316816001600160a01b0316837f2f8788117e7eff1d82e926ec794901d17c78024a50270940304540a733656f0d60405160405180910390a45050565b8280548282559060005260206000209081019282156200025d579160200282015b828111156200025d57825180516200024c9184916020909101906200026f565b50916020019190600101906200022c565b506200026b929150620002fa565b5090565b8280546200027d9062000549565b90600052602060002090601f016020900481019282620002a15760008555620002ec565b82601f10620002bc57805160ff1916838001178555620002ec565b82800160010185558215620002ec579182015b82811115620002ec578251825591602001919060010190620002cf565b506200026b9291506200031b565b808211156200026b57600062000311828262000332565b50600101620002fa565b5b808211156200026b57600081556001016200031c565b508054620003409062000549565b6000825580601f1062000351575050565b601f0160209004906000526020600020908101906200037191906200031b565b50565b634e487b7160e01b600052604160045260246000fd5b604051601f8201601f191681016001600160401b0381118282101715620003b557620003b562000374565b604052919050565b600082601f830112620003cf57600080fd5b81516001600160401b03811115620003eb57620003eb62000374565b602062000401601f8301601f191682016200038a565b82815285828487010111156200041657600080fd5b60005b838110156200043657858101830151828201840152820162000419565b83811115620004485760008385840101525b5095945050505050565b600080604083850312156200046657600080fd5b82516001600160401b03808211156200047e57600080fd5b6200048c86838701620003bd565b9350602091508185015181811115620004a457600080fd5b8501601f81018713620004b657600080fd5b805182811115620004cb57620004cb62000374565b8060051b620004dc8582016200038a565b918252828101850191858101908a841115620004f757600080fd5b86850192505b838310156200053857825186811115620005175760008081fd5b620005278c8983890101620003bd565b8352509186019190860190620004fd565b809750505050505050509250929050565b600181811c908216806200055e57607f821691505b602082108114156200058057634e487b7160e01b600052602260045260246000fd5b50919050565b60805160a05160c05160e05161010051612599620005cb6000396000611968015260006119b701526000611992015260006119160152600061193f01526125996000f3fe6080604052600436106101805760003560e01c806384bb5a43116100d6578063be0fb87e1161007f578063dbf0eeef11610059578063dbf0eeef14610558578063f2cde3ef1461056b578063ffb703ee1461058b57600080fd5b8063be0fb87e146104e0578063d547741f146104f5578063d6cd8e9d1461051557600080fd5b806391d14854116100b057806391d14854146104155780639ddd61d614610459578063a217fddf146104cb57600080fd5b806384bb5a431461034d5780638c8e13b91461036d5780638e9a75d2146103f557600080fd5b80633408e47011610138578063745125fc11610112578063745125fc146102cc57806375b238fc146102ec578063796676be1461032057600080fd5b80633408e4701461027857806336568abe1461028b5780634d20796c146102ab57600080fd5b8063248a9ca311610169578063248a9ca3146101e25780632d0335ab146102205780632f2ff15d1461025657600080fd5b806301ffc9a71461018557806312ce42fd146101ba575b600080fd5b34801561019157600080fd5b506101a56101a0366004611b37565b6105ab565b60405190151581526020015b60405180910390f35b3480156101c657600080fd5b506001546040516001600160a01b0390911681526020016101b1565b3480156101ee57600080fd5b506102126101fd366004611b79565b60009081526020819052604090206001015490565b6040519081526020016101b1565b34801561022c57600080fd5b5061021261023b366004611bae565b6001600160a01b031660009081526003602052604090205490565b34801561026257600080fd5b50610276610271366004611bc9565b610644565b005b34801561028457600080fd5b5046610212565b34801561029757600080fd5b506102766102a6366004611bc9565b61066f565b6102be6102b9366004611c37565b610700565b6040516101b1929190611d01565b3480156102d857600080fd5b506102766102e7366004611c37565b6108ad565b3480156102f857600080fd5b506102127fa49807205ce4d355092ef5a8a18f56e8913cf4a201fbe287825b095693c2177581565b34801561032c57600080fd5b5061034061033b366004611b79565b610a25565b6040516101b19190611d1c565b34801561035957600080fd5b506101a5610368366004611c37565b610ad1565b34801561037957600080fd5b506103d1610388366004611bae565b604080518082018252600080825260209182018190526001600160a01b039384168152600282528290208251808401909352805490931682526001909201549181019190915290565b6040805182516001600160a01b0316815260209283015192810192909252016101b1565b34801561040157600080fd5b506101a5610410366004611ebf565b610b23565b34801561042157600080fd5b506101a5610430366004611bc9565b6000918252602082815260408084206001600160a01b0393909316845291905290205460ff1690565b34801561046557600080fd5b50610212610474366004611f23565b604080516001600160a01b03808816602083015291810186905290841660608201526080810183905260a0810182905260009060c00160405160208183030381529060405280519060200120905095945050505050565b3480156104d757600080fd5b50610212600081565b3480156104ec57600080fd5b50610276610d02565b34801561050157600080fd5b50610276610510366004611bc9565b610d75565b34801561052157600080fd5b50610212610530366004611f71565b6001600160a01b03919091166000908152600460209081526040808320938352929052205490565b6102be610566366004611f9b565b610d9b565b34801561057757600080fd5b50610276610586366004611bae565b61101c565b34801561059757600080fd5b506102766105a6366004611f71565b61107e565b60007fffffffff0000000000000000000000000000000000000000000000000000000082167f7965db0b00000000000000000000000000000000000000000000000000000000148061063e57507f01ffc9a7000000000000000000000000000000000000000000000000000000007fffffffff000000000000000000000000000000000000000000000000000000008316145b92915050565b6000828152602081905260409020600101546106608133611088565b61066a8383611106565b505050565b6001600160a01b03811633146106f25760405162461bcd60e51b815260206004820152602f60248201527f416363657373436f6e74726f6c3a2063616e206f6e6c792072656e6f756e636560448201527f20726f6c657320666f722073656c66000000000000000000000000000000000060648201526084015b60405180910390fd5b6106fc82826111a4565b5050565b6000606061070f858585610ad1565b6107815760405162461bcd60e51b815260206004820152603260248201527f4d696e696d616c466f727761726465723a207369676e617475726520646f657360448201527f206e6f74206d617463682072657175657374000000000000000000000000000060648201526084016106e9565b610791610100860135600161201d565b600360006107a26020890189611bae565b6001600160a01b03166001600160a01b03168152602001908152602001600020819055506000808660400160208101906107dc9190611bae565b6001600160a01b031660e088013560c08901356107fd6101208b018b612035565b60008061080d60208f018f611bae565b60405160200161082195949392919061207c565b60408051601f198184030181529082905261083b916120b4565b600060405180830381858888f193505050503d8060008114610879576040519150601f19603f3d011682016040523d82523d6000602084013e61087e565b606091505b509092509050610893603f60e08901356120d0565b5a116108a1576108a16120f2565b90969095509350505050565b6108f56108b984612108565b83838080601f01602080910402602001604051908101604052809392919081815260200183838082843760009201919091525061122392505050565b1561066a5730600561090a6020860186611bae565b6003600061091b6020890189611bae565b6001600160a01b031681526020810191909152604001600020546109456080880160608901611bae565b60a08801356004600061095e60808c0160608d01611bae565b6001600160a01b0390811682526020808301939093526040918201600090812060a08e8101358352908552908390205483519883169489019490945291870195909552929093166060850152608084015282015260c00160405160208183030381529060405263dbf0eeef60e01b8686866040516020016109e193929190612185565b60408051601f19818403018152908290527f556f18300000000000000000000000000000000000000000000000000000000082526106e995949392916004016122b1565b60058181548110610a3557600080fd5b906000526020600020016000915090508054610a5090612276565b80601f0160208091040260200160405190810160405280929190818152602001828054610a7c90612276565b8015610ac95780601f10610a9e57610100808354040283529160200191610ac9565b820191906000526020600020905b815481529060010190602001808311610aac57829003601f168201915b505050505081565b6000610b1b610adf85612108565b84848080601f01602080910402602001604051908101604052809392919081815260200183838082843760009201919091525061122392505050565b949350505050565b6020808301516001600160a01b039081166000908152600283526040808220815180830190925280549093168152600190920154928201839052914210610bac5760405162461bcd60e51b815260206004820152600f60248201527f53657373696f6e2045787069726564000000000000000000000000000000000060448201526064016106e9565b835181516001600160a01b03908116911614610c0a5760405162461bcd60e51b815260206004820152601560248201527f5369676e6572206e6f7420617574686f72697a6564000000000000000000000060448201526064016106e9565b6000610cd6610c83866020015187610100015188606001518960a001518a60800151604080516001600160a01b03808816602083015291810186905290841660608201526080810183905260a0810182905260009060c00160405160208183030381529060405280519060200120905095945050505050565b6040517f19457468657265756d205369676e6564204d6573736167653a0a3332000000006020820152603c8101829052600090605c01604051602081830303815290604052805190602001209050919050565b6001549091506001600160a01b0316610cef8286611347565b6001600160a01b03161495945050505050565b6040517fffb703ee0000000000000000000000000000000000000000000000000000000081523360048201526000196024820152309063ffb703ee90604401600060405180830381600087803b158015610d5b57600080fd5b505af1158015610d6f573d6000803e3d6000fd5b50505050565b600082815260208190526040902060010154610d918133611088565b61066a83836111a4565b600060608180610dad85870187611ebf565b91509150610df18289898080601f016020809104026020016040519081016040528093929190818152602001838380828437600092019190915250610b2392505050565b610e635760405162461bcd60e51b815260206004820152603a60248201527f457373656e7469616c466f727761726465723a206f776e65727368697020707260448201527f6f6f6620646f6573206e6f74206d61746368207265717565737400000000000060648201526084016106e9565b610e6d8282611223565b610edf5760405162461bcd60e51b815260206004820152603460248201527f457373656e7469616c466f727761726465723a207369676e617475726520646f60448201527f6573206e6f74206d61746368207265717565737400000000000000000000000060648201526084016106e9565b81516001600160a01b031660009081526003602052604081208054909190610f0690612421565b9091555060608201516001600160a01b0316600090815260046020908152604080832060a0860151845290915281208054909190610f4390612421565b9190508190555060008083604001516001600160a01b03168460e0015160008661012001518760a0015188606001518960200151604051602001610f8a949392919061243c565b60408051601f1981840301815290829052610fa4916120b4565b600060405180830381858888f193505050503d8060008114610fe2576040519150601f19603f3d011682016040523d82523d6000602084013e610fe7565b606091505b5091509150603f8460e00151610ffd91906120d0565b5a1161100b5761100b6120f2565b909450925050505b94509492505050565b7fa49807205ce4d355092ef5a8a18f56e8913cf4a201fbe287825b095693c217756110478133611088565b600180547fffffffffffffffffffffffff0000000000000000000000000000000000000000166001600160a01b0384161790555050565b6106fc828261136b565b6000828152602081815260408083206001600160a01b038516845290915290205460ff166106fc576110c4816001600160a01b03166014611415565b6110cf836020611415565b6040516020016110e0929190612480565b60408051601f198184030181529082905262461bcd60e51b82526106e991600401611d1c565b6000828152602081815260408083206001600160a01b038516845290915290205460ff166106fc576000828152602081815260408083206001600160a01b03851684529091529020805460ff191660011790556111603390565b6001600160a01b0316816001600160a01b0316837f2f8788117e7eff1d82e926ec794901d17c78024a50270940304540a733656f0d60405160405180910390a45050565b6000828152602081815260408083206001600160a01b038516845290915290205460ff16156106fc576000828152602081815260408083206001600160a01b0385168085529252808320805460ff1916905551339285917ff6391f5c32d9c69d2a47ea670b442974b53935d1edc7fd64eb21e047a839171b9190a45050565b600080611304836112fe7fe9020ed6f4388239f345839ee2632ab28a7fc970b20ed7d68dc51ca3e401e8918760400151886000015189602001518a606001518b61010001518c608001518d60a001518e6101200151805190602001206040516020016112e3999897969594939291909889526001600160a01b0397881660208a01529587166040890152938616606088015291909416608086015260a085019390935260c084019290925260e08301919091526101008201526101200190565b60405160208183030381529060405280519060200120611645565b90611347565b61010085015185516001600160a01b0316600090815260036020526040902054919250148015610b1b575083516001600160a01b03828116911614949350505050565b600080600061135685856116ae565b915091506113638161171e565b509392505050565b6040518060400160405280836001600160a01b031681526020018242611391919061201d565b9052336000818152600260209081526040808320855181547fffffffffffffffffffffffff0000000000000000000000000000000000000000166001600160a01b039182161782559590920151600190920191909155518493861692917f1170e4b3e143a792ce7a7af268ecfe7d7b0574438d8040eb89c2bf5b7e6e15d891a45050565b60606000611424836002612501565b61142f90600261201d565b67ffffffffffffffff81111561144757611447611d2f565b6040519080825280601f01601f191660200182016040528015611471576020820181803683370190505b5090507f3000000000000000000000000000000000000000000000000000000000000000816000815181106114a8576114a8612520565b60200101907effffffffffffffffffffffffffffffffffffffffffffffffffffffffffffff1916908160001a9053507f78000000000000000000000000000000000000000000000000000000000000008160018151811061150b5761150b612520565b60200101907effffffffffffffffffffffffffffffffffffffffffffffffffffffffffffff1916908160001a9053506000611547846002612501565b61155290600161201d565b90505b60018111156115ef577f303132333435363738396162636465660000000000000000000000000000000085600f166010811061159357611593612520565b1a60f81b8282815181106115a9576115a9612520565b60200101907effffffffffffffffffffffffffffffffffffffffffffffffffffffffffffff1916908160001a90535060049490941c936115e881612536565b9050611555565b50831561163e5760405162461bcd60e51b815260206004820181905260248201527f537472696e67733a20686578206c656e67746820696e73756666696369656e7460448201526064016106e9565b9392505050565b600061063e611652611912565b836040517f19010000000000000000000000000000000000000000000000000000000000006020820152602281018390526042810182905260009060620160405160208183030381529060405280519060200120905092915050565b6000808251604114156116e55760208301516040840151606085015160001a6116d987828585611a05565b94509450505050611717565b82516040141561170f5760208301516040840151611704868383611aef565b935093505050611717565b506000905060025b9250929050565b60008160048111156117325761173261254d565b141561173b5750565b600181600481111561174f5761174f61254d565b141561179d5760405162461bcd60e51b815260206004820152601860248201527f45434453413a20696e76616c6964207369676e6174757265000000000000000060448201526064016106e9565b60028160048111156117b1576117b161254d565b14156117ff5760405162461bcd60e51b815260206004820152601f60248201527f45434453413a20696e76616c6964207369676e6174757265206c656e6774680060448201526064016106e9565b60038160048111156118135761181361254d565b14156118875760405162461bcd60e51b815260206004820152602260248201527f45434453413a20696e76616c6964207369676e6174757265202773272076616c60448201527f756500000000000000000000000000000000000000000000000000000000000060648201526084016106e9565b600481600481111561189b5761189b61254d565b141561190f5760405162461bcd60e51b815260206004820152602260248201527f45434453413a20696e76616c6964207369676e6174757265202776272076616c60448201527f756500000000000000000000000000000000000000000000000000000000000060648201526084016106e9565b50565b60007f000000000000000000000000000000000000000000000000000000000000000046141561196157507f000000000000000000000000000000000000000000000000000000000000000090565b50604080517f00000000000000000000000000000000000000000000000000000000000000006020808301919091527f0000000000000000000000000000000000000000000000000000000000000000828401527f000000000000000000000000000000000000000000000000000000000000000060608301523060808301524660a0808401919091528351808403909101815260c0909201909252805191012090565b6000807f7fffffffffffffffffffffffffffffff5d576e7357a4501ddfe92f46681b20a0831115611a3c5750600090506003611013565b8460ff16601b14158015611a5457508460ff16601c14155b15611a655750600090506004611013565b6040805160008082526020820180845289905260ff881692820192909252606081018690526080810185905260019060a0016020604051602081039080840390855afa158015611ab9573d6000803e3d6000fd5b5050604051601f1901519150506001600160a01b038116611ae257600060019250925050611013565b9660009650945050505050565b6000807f7fffffffffffffffffffffffffffffffffffffffffffffffffffffffffffffff831660ff84901c601b01611b2987828885611a05565b935093505050935093915050565b600060208284031215611b4957600080fd5b81357fffffffff000000000000000000000000000000000000000000000000000000008116811461163e57600080fd5b600060208284031215611b8b57600080fd5b5035919050565b80356001600160a01b0381168114611ba957600080fd5b919050565b600060208284031215611bc057600080fd5b61163e82611b92565b60008060408385031215611bdc57600080fd5b82359150611bec60208401611b92565b90509250929050565b60008083601f840112611c0757600080fd5b50813567ffffffffffffffff811115611c1f57600080fd5b60208301915083602082850101111561171757600080fd5b600080600060408486031215611c4c57600080fd5b833567ffffffffffffffff80821115611c6457600080fd5b908501906101408288031215611c7957600080fd5b90935060208501359080821115611c8f57600080fd5b50611c9c86828701611bf5565b9497909650939450505050565b60005b83811015611cc4578181015183820152602001611cac565b83811115610d6f5750506000910152565b60008151808452611ced816020860160208601611ca9565b601f01601f19169290920160200192915050565b8215158152604060208201526000610b1b6040830184611cd5565b60208152600061163e6020830184611cd5565b634e487b7160e01b600052604160045260246000fd5b604051610140810167ffffffffffffffff81118282101715611d6957611d69611d2f565b60405290565b600082601f830112611d8057600080fd5b813567ffffffffffffffff80821115611d9b57611d9b611d2f565b604051601f8301601f19908116603f01168101908282118183101715611dc357611dc3611d2f565b81604052838152866020858801011115611ddc57600080fd5b836020870160208301376000602085830101528094505050505092915050565b60006101408284031215611e0f57600080fd5b611e17611d45565b9050611e2282611b92565b8152611e3060208301611b92565b6020820152611e4160408301611b92565b6040820152611e5260608301611b92565b60608201526080820135608082015260a082013560a082015260c082013560c082015260e082013560e08201526101008083013581830152506101208083013567ffffffffffffffff811115611ea757600080fd5b611eb385828601611d6f565b82840152505092915050565b60008060408385031215611ed257600080fd5b823567ffffffffffffffff80821115611eea57600080fd5b611ef686838701611dfc565b93506020850135915080821115611f0c57600080fd5b50611f1985828601611d6f565b9150509250929050565b600080600080600060a08688031215611f3b57600080fd5b611f4486611b92565b945060208601359350611f5960408701611b92565b94979396509394606081013594506080013592915050565b60008060408385031215611f8457600080fd5b611f8d83611b92565b946020939093013593505050565b60008060008060408587031215611fb157600080fd5b843567ffffffffffffffff80821115611fc957600080fd5b611fd588838901611bf5565b90965094506020870135915080821115611fee57600080fd5b50611ffb87828801611bf5565b95989497509550505050565b634e487b7160e01b600052601160045260246000fd5b6000821982111561203057612030612007565b500190565b6000808335601e1984360301811261204c57600080fd5b83018035915067ffffffffffffffff82111561206757600080fd5b60200191503681900382131561171757600080fd5b84868237909301918252606090811b6bffffffffffffffffffffffff19908116602084015292901b9091166034820152604801919050565b600082516120c6818460208701611ca9565b9190910192915050565b6000826120ed57634e487b7160e01b600052601260045260246000fd5b500490565b634e487b7160e01b600052600160045260246000fd5b600061063e3683611dfc565b6000808335601e1984360301811261212b57600080fd5b830160208101925035905067ffffffffffffffff81111561214b57600080fd5b80360383131561171757600080fd5b818352818160208501375060006020828401015260006020601f19601f840116840101905092915050565b604081526121a66040820161219986611b92565b6001600160a01b03169052565b60006121b460208601611b92565b6001600160a01b031660608301526121ce60408601611b92565b6001600160a01b031660808301526121e860608601611b92565b6001600160a01b03811660a084015250608085013560c083015260a085013560e083015261010060c08601358184015261012060e087013581850152610140828801358186015261223b82890189612114565b9350915080610160860152506122566101808501838361215a565b915050828103602084015261226c81858761215a565b9695505050505050565b600181811c9082168061228a57607f821691505b602082108114156122ab57634e487b7160e01b600052602260045260246000fd5b50919050565b600060a082016001600160a01b0388168352602060a08185015281885480845260c08601915060c08160051b870101935060008a8152838120815b838110156123c1578887037fffffffffffffffffffffffffffffffffffffffffffffffffffffffffffffff4001855281548390600181811c908083168061233457607f831692505b8a831081141561235257634e487b7160e01b88526022600452602488fd5b828c5260208c0181801561236d576001811461237e576123a8565b60ff19861682528c820196506123a8565b6000898152602090208a5b868110156123a257815484820152908501908e01612389565b83019750505b50949b50509789019794909401935050506001016122ec565b50505050505082810360408401526123d98187611cd5565b7fffffffff0000000000000000000000000000000000000000000000000000000086166060850152905082810360808401526124158185611cd5565b98975050505050505050565b600060001982141561243557612435612007565b5060010190565b6000855161244e818460208a01611ca9565b91909101938452506bffffffffffffffffffffffff19606092831b81166020850152911b166034820152604801919050565b7f416363657373436f6e74726f6c3a206163636f756e74200000000000000000008152600083516124b8816017850160208801611ca9565b7f206973206d697373696e6720726f6c652000000000000000000000000000000060179184019182015283516124f5816028840160208801611ca9565b01602801949350505050565b600081600019048311821515161561251b5761251b612007565b500290565b634e487b7160e01b600052603260045260246000fd5b60008161254557612545612007565b506000190190565b634e487b7160e01b600052602160045260246000fdfea26469706673582212209ff7546e62aeed0fd1be1c714911d8b9170253dad53c95677b53187eb78a96b164736f6c63430008090033",
  "devdoc": {
    "author": "0xEssential",
    "details": "Allows a Relayer to submit meta-transactions that utilize an NFT (i.e. in a game) on behalf of EOAs. Transactions      are only executed if the Relayer provides a signature from a trusted signer. The signature must include the current      owner of the Layer 1 NFT being used, or a Burner EOA the owner has authorized to use its NFTs.      EssentialForwarder can be used to build Layer 2 games that use Layer 1 NFTs without bridging and with superior UX.      End users can specify a Burner EOA from their primary EOA, and then use that burner address to play games.      The Burner EOA can then sign messages for game moves without user interaction without any risk to the NFTs or other      assets owned by the primary EOA.",
    "kind": "dev",
    "methods": {
      "createMessage(address,uint256,address,uint256,uint256)": {
        "details": "The RPC server uses this view function to create the ownership proof",
        "params": {
          "nftContract": "the mainnet contract address for the NFT being utilized",
          "nftOwner": "the address that currently owns the L1 NFT",
          "nonce": "the meta-transaction nonce for account",
          "tokenId": "the tokenId from nftContract for the NFT being utilized"
        },
        "returns": {
          "_0": "the message _ownershipSigner should sign"
        }
      },
      "executeWithProof(bytes,bytes)": {
        "details": "The RPC call and re-submission should be handled by your Relayer client",
        "params": {
          "extraData": "The unaltered bytes in the OffchainLookup extraData error arg",
          "response": "The unaltered bytes reponse from a call made to an RPC based on OffchainLookup args"
        }
      },
      "getRoleAdmin(bytes32)": {
        "details": "Returns the admin role that controls `role`. See {grantRole} and {revokeRole}. To change a role's admin, use {_setRoleAdmin}."
      },
      "grantRole(bytes32,address)": {
        "details": "Grants `role` to `account`. If `account` had not been already granted `role`, emits a {RoleGranted} event. Requirements: - the caller must have ``role``'s admin role."
      },
      "hasRole(bytes32,address)": {
        "details": "Returns `true` if `account` has been granted `role`."
      },
      "invalidateSession()": {
        "details": "For efficiency in PlaySession persistence and lookup, an EOA must authorize      itself"
      },
      "ownershipSigner()": {
        "returns": {
          "_0": "the ownership proof signer address"
        }
      },
      "preflight((address,address,address,address,uint256,uint256,uint256,uint256,uint256,bytes),bytes)": {
        "details": "Per EIP-3668, a valid signature will cause a revert with useful error params."
      },
      "renounceRole(bytes32,address)": {
        "details": "Revokes `role` from the calling account. Roles are often managed via {grantRole} and {revokeRole}: this function's purpose is to provide a mechanism for accounts to lose their privileges if they are compromised (such as when a trusted device is misplaced). If the calling account had been revoked `role`, emits a {RoleRevoked} event. Requirements: - the caller must be `account`."
      },
      "revokeRole(bytes32,address)": {
        "details": "Revokes `role` from `account`. If `account` had been granted `role`, emits a {RoleRevoked} event. Requirements: - the caller must have ``role``'s admin role."
      },
      "supportsInterface(bytes4)": {
        "details": "See {IERC165-supportsInterface}."
      },
      "verify((address,address,address,address,uint256,uint256,uint256,uint256,uint256,bytes),bytes)": {
        "details": "Useful for transactions where the signer is not using a specific NFT, but values are still required in the signature - use the zero address for nftContract and 0 for tokenId"
      },
      "verifyOwnershipProof((address,address,address,address,uint256,uint256,uint256,uint256,uint256,bytes),bytes)": {
        "details": "Ensures that _ownershipSigner signed a message containing (nftOwner OR authorized address, nonce, nftContract, tokenId)",
        "params": {
          "req": "structured data submitted by EOA making a meta-transaction request",
          "signature": "the signature proof created by the ownership signer EOA"
        }
      }
    },
    "title": "EssentialForwarder",
    "version": 1
  },
  "userdoc": {
    "kind": "user",
    "methods": {
      "createMessage(address,uint256,address,uint256,uint256)": {
        "notice": "Construct message that _ownershipSigner must sign as ownership proof"
      },
      "createSession(address,uint256)": {
        "notice": "Allow `authorized` to use your NFTs in a game for `length` seconds. Your NFTs         will not be held in custody or approved for transfer."
      },
      "executeWithProof(bytes,bytes)": {
        "notice": "Re-submit a valid meta-tx request with trusted proof to execute the transaction."
      },
      "getNonce(address)": {
        "notice": "Get current nonce for EOA"
      },
      "getSession(address)": {
        "notice": "Get current session for Primary EOA"
      },
      "getTokenNonce(address,uint256)": {
        "notice": "Get current nonce for NFT"
      },
      "invalidateSession()": {
        "notice": "Stop allowing your current authorized burner address to use your NFTs."
      },
      "ownershipSigner()": {
        "notice": "Get ownershipSigner address"
      },
      "preflight((address,address,address,address,uint256,uint256,uint256,uint256,uint256,bytes),bytes)": {
        "notice": "Submit a meta-tx request and signature to check validity and receive         a response with data useful for fetching a trusted proof per EIP-3668."
      },
      "setOwnershipSigner(address)": {
        "notice": "Change the ownership signer"
      },
      "verify((address,address,address,address,uint256,uint256,uint256,uint256,uint256,bytes),bytes)": {
        "notice": "Submit a meta-tx request where a proof of ownership is not required."
      },
      "verifyOwnershipProof((address,address,address,address,uint256,uint256,uint256,uint256,uint256,bytes),bytes)": {
        "notice": "Verify signed OffchainLookup proof against meta-tx request data"
      }
    },
    "notice": "EIP-2771 based MetaTransaction Forwarding Contract with EIP-3668 OffchainLookup for cross-chain token gating",
    "version": 1
  },
  "storageLayout": {
    "storage": [
      {
        "astId": 24,
        "contract": "src/EssentialForwarder.sol:EssentialForwarder",
        "label": "_roles",
        "offset": 0,
        "slot": "0",
        "type": "t_mapping(t_bytes32,t_struct(RoleData)19_storage)"
      },
      {
        "astId": 1998,
        "contract": "src/EssentialForwarder.sol:EssentialForwarder",
        "label": "_ownershipSigner",
        "offset": 0,
        "slot": "1",
        "type": "t_address"
      },
      {
        "astId": 2003,
        "contract": "src/EssentialForwarder.sol:EssentialForwarder",
        "label": "_sessions",
        "offset": 0,
        "slot": "2",
        "type": "t_mapping(t_address,t_struct(PlaySession)1982_storage)"
      },
      {
        "astId": 1486,
        "contract": "src/EssentialForwarder.sol:EssentialForwarder",
        "label": "_nonces",
        "offset": 0,
        "slot": "3",
        "type": "t_mapping(t_address,t_uint256)"
      },
      {
        "astId": 1492,
        "contract": "src/EssentialForwarder.sol:EssentialForwarder",
        "label": "_tokenNonces",
        "offset": 0,
        "slot": "4",
        "type": "t_mapping(t_address,t_mapping(t_uint256,t_uint256))"
      },
      {
        "astId": 1495,
        "contract": "src/EssentialForwarder.sol:EssentialForwarder",
        "label": "urls",
        "offset": 0,
        "slot": "5",
        "type": "t_array(t_string_storage)dyn_storage"
      }
    ],
    "types": {
      "t_address": {
        "encoding": "inplace",
        "label": "address",
        "numberOfBytes": "20"
      },
      "t_array(t_string_storage)dyn_storage": {
        "base": "t_string_storage",
        "encoding": "dynamic_array",
        "label": "string[]",
        "numberOfBytes": "32"
      },
      "t_bool": {
        "encoding": "inplace",
        "label": "bool",
        "numberOfBytes": "1"
      },
      "t_bytes32": {
        "encoding": "inplace",
        "label": "bytes32",
        "numberOfBytes": "32"
      },
      "t_mapping(t_address,t_bool)": {
        "encoding": "mapping",
        "key": "t_address",
        "label": "mapping(address => bool)",
        "numberOfBytes": "32",
        "value": "t_bool"
      },
      "t_mapping(t_address,t_mapping(t_uint256,t_uint256))": {
        "encoding": "mapping",
        "key": "t_address",
        "label": "mapping(address => mapping(uint256 => uint256))",
        "numberOfBytes": "32",
        "value": "t_mapping(t_uint256,t_uint256)"
      },
      "t_mapping(t_address,t_struct(PlaySession)1982_storage)": {
        "encoding": "mapping",
        "key": "t_address",
        "label": "mapping(address => struct IForwardRequest.PlaySession)",
        "numberOfBytes": "32",
        "value": "t_struct(PlaySession)1982_storage"
      },
      "t_mapping(t_address,t_uint256)": {
        "encoding": "mapping",
        "key": "t_address",
        "label": "mapping(address => uint256)",
        "numberOfBytes": "32",
        "value": "t_uint256"
      },
      "t_mapping(t_bytes32,t_struct(RoleData)19_storage)": {
        "encoding": "mapping",
        "key": "t_bytes32",
        "label": "mapping(bytes32 => struct AccessControl.RoleData)",
        "numberOfBytes": "32",
        "value": "t_struct(RoleData)19_storage"
      },
      "t_mapping(t_uint256,t_uint256)": {
        "encoding": "mapping",
        "key": "t_uint256",
        "label": "mapping(uint256 => uint256)",
        "numberOfBytes": "32",
        "value": "t_uint256"
      },
      "t_string_storage": {
        "encoding": "bytes",
        "label": "string",
        "numberOfBytes": "32"
      },
      "t_struct(PlaySession)1982_storage": {
        "encoding": "inplace",
        "label": "struct IForwardRequest.PlaySession",
        "members": [
          {
            "astId": 1979,
            "contract": "src/EssentialForwarder.sol:EssentialForwarder",
            "label": "authorized",
            "offset": 0,
            "slot": "0",
            "type": "t_address"
          },
          {
            "astId": 1981,
            "contract": "src/EssentialForwarder.sol:EssentialForwarder",
            "label": "expiresAt",
            "offset": 0,
            "slot": "1",
            "type": "t_uint256"
          }
        ],
        "numberOfBytes": "64"
      },
      "t_struct(RoleData)19_storage": {
        "encoding": "inplace",
        "label": "struct AccessControl.RoleData",
        "members": [
          {
            "astId": 16,
            "contract": "src/EssentialForwarder.sol:EssentialForwarder",
            "label": "members",
            "offset": 0,
            "slot": "0",
            "type": "t_mapping(t_address,t_bool)"
          },
          {
            "astId": 18,
            "contract": "src/EssentialForwarder.sol:EssentialForwarder",
            "label": "adminRole",
            "offset": 0,
            "slot": "1",
            "type": "t_bytes32"
          }
        ],
        "numberOfBytes": "64"
      },
      "t_uint256": {
        "encoding": "inplace",
        "label": "uint256",
        "numberOfBytes": "32"
      }
    }
  }
}