{
  "address": "0x9e68946aCfeAfca1307B296CDF8CAb0854A1f110",
  "abi": [
    {
      "inputs": [
        {
          "internalType": "string",
          "name": "name",
          "type": "string"
        },
        {
          "internalType": "string[]",
          "name": "_urls",
          "type": "string[]"
        }
      ],
      "stateMutability": "nonpayable",
      "type": "constructor"
    },
    {
      "inputs": [],
      "name": "InvalidOwnership",
      "type": "error"
    },
    {
      "inputs": [],
      "name": "InvalidSignature",
      "type": "error"
    },
    {
      "inputs": [
        {
          "internalType": "address",
          "name": "sender",
          "type": "address"
        },
        {
          "internalType": "string[]",
          "name": "urls",
          "type": "string[]"
        },
        {
          "internalType": "bytes",
          "name": "callData",
          "type": "bytes"
        },
        {
          "internalType": "bytes4",
          "name": "callbackFunction",
          "type": "bytes4"
        },
        {
          "internalType": "bytes",
          "name": "extraData",
          "type": "bytes"
        }
      ],
      "name": "OffchainLookup",
      "type": "error"
    },
    {
      "inputs": [],
      "name": "Unauthorized",
      "type": "error"
    },
    {
      "anonymous": false,
      "inputs": [
        {
          "indexed": true,
          "internalType": "bytes32",
          "name": "role",
          "type": "bytes32"
        },
        {
          "indexed": true,
          "internalType": "bytes32",
          "name": "previousAdminRole",
          "type": "bytes32"
        },
        {
          "indexed": true,
          "internalType": "bytes32",
          "name": "newAdminRole",
          "type": "bytes32"
        }
      ],
      "name": "RoleAdminChanged",
      "type": "event"
    },
    {
      "anonymous": false,
      "inputs": [
        {
          "indexed": true,
          "internalType": "bytes32",
          "name": "role",
          "type": "bytes32"
        },
        {
          "indexed": true,
          "internalType": "address",
          "name": "account",
          "type": "address"
        },
        {
          "indexed": true,
          "internalType": "address",
          "name": "sender",
          "type": "address"
        }
      ],
      "name": "RoleGranted",
      "type": "event"
    },
    {
      "anonymous": false,
      "inputs": [
        {
          "indexed": true,
          "internalType": "bytes32",
          "name": "role",
          "type": "bytes32"
        },
        {
          "indexed": true,
          "internalType": "address",
          "name": "account",
          "type": "address"
        },
        {
          "indexed": true,
          "internalType": "address",
          "name": "sender",
          "type": "address"
        }
      ],
      "name": "RoleRevoked",
      "type": "event"
    },
    {
      "anonymous": false,
      "inputs": [
        {
          "indexed": true,
          "internalType": "address",
          "name": "owner",
          "type": "address"
        },
        {
          "indexed": true,
          "internalType": "address",
          "name": "authorized",
          "type": "address"
        },
        {
          "indexed": true,
          "internalType": "uint256",
          "name": "length",
          "type": "uint256"
        }
      ],
      "name": "Session",
      "type": "event"
    },
    {
      "inputs": [],
      "name": "ADMIN_ROLE",
      "outputs": [
        {
          "internalType": "bytes32",
          "name": "",
          "type": "bytes32"
        }
      ],
      "stateMutability": "view",
      "type": "function"
    },
    {
      "inputs": [],
      "name": "DEFAULT_ADMIN_ROLE",
      "outputs": [
        {
          "internalType": "bytes32",
          "name": "",
          "type": "bytes32"
        }
      ],
      "stateMutability": "view",
      "type": "function"
    },
    {
      "inputs": [
        {
          "internalType": "address",
          "name": "signer",
          "type": "address"
        },
        {
          "internalType": "address",
          "name": "authorizer",
          "type": "address"
        },
        {
          "internalType": "uint256",
          "name": "nonce",
          "type": "uint256"
        },
        {
          "internalType": "uint256",
          "name": "nftChainId",
          "type": "uint256"
        },
        {
          "internalType": "address",
          "name": "nftContract",
          "type": "address"
        },
        {
          "internalType": "uint256",
          "name": "tokenId",
          "type": "uint256"
        },
        {
          "internalType": "uint256",
          "name": "timestamp",
          "type": "uint256"
        }
      ],
      "name": "createMessage",
      "outputs": [
        {
          "internalType": "bytes32",
          "name": "",
          "type": "bytes32"
        }
      ],
      "stateMutability": "view",
      "type": "function"
    },
    {
      "inputs": [
        {
          "internalType": "address",
          "name": "authorized",
          "type": "address"
        },
        {
          "internalType": "uint256",
          "name": "length",
          "type": "uint256"
        }
      ],
      "name": "createSession",
      "outputs": [],
      "stateMutability": "nonpayable",
      "type": "function"
    },
    {
      "inputs": [
        {
          "components": [
            {
              "internalType": "address",
              "name": "from",
              "type": "address"
            },
            {
              "internalType": "address",
              "name": "authorizer",
              "type": "address"
            },
            {
              "internalType": "address",
              "name": "to",
              "type": "address"
            },
            {
              "internalType": "address",
              "name": "nftContract",
              "type": "address"
            },
            {
              "internalType": "uint256",
              "name": "nftTokenId",
              "type": "uint256"
            },
            {
              "internalType": "uint256",
              "name": "nftChainId",
              "type": "uint256"
            },
            {
              "internalType": "uint256",
              "name": "targetChainId",
              "type": "uint256"
            },
            {
              "internalType": "uint256",
              "name": "value",
              "type": "uint256"
            },
            {
              "internalType": "uint256",
              "name": "gas",
              "type": "uint256"
            },
            {
              "internalType": "uint256",
              "name": "nonce",
              "type": "uint256"
            },
            {
              "internalType": "bytes",
              "name": "data",
              "type": "bytes"
            }
          ],
          "internalType": "struct IForwardRequest.ERC721ForwardRequest",
          "name": "req",
          "type": "tuple"
        },
        {
          "internalType": "bytes",
          "name": "signature",
          "type": "bytes"
        }
      ],
      "name": "execute",
      "outputs": [
        {
          "internalType": "bool",
          "name": "",
          "type": "bool"
        },
        {
          "internalType": "bytes",
          "name": "",
          "type": "bytes"
        }
      ],
      "stateMutability": "payable",
      "type": "function"
    },
    {
      "inputs": [
        {
          "internalType": "bytes",
          "name": "response",
          "type": "bytes"
        },
        {
          "internalType": "bytes",
          "name": "extraData",
          "type": "bytes"
        }
      ],
      "name": "executeWithProof",
      "outputs": [
        {
          "internalType": "bool",
          "name": "",
          "type": "bool"
        },
        {
          "internalType": "bytes",
          "name": "",
          "type": "bytes"
        }
      ],
      "stateMutability": "payable",
      "type": "function"
    },
    {
      "inputs": [],
      "name": "getChainId",
      "outputs": [
        {
          "internalType": "uint256",
          "name": "id",
          "type": "uint256"
        }
      ],
      "stateMutability": "view",
      "type": "function"
    },
    {
      "inputs": [
        {
          "internalType": "address",
          "name": "from",
          "type": "address"
        }
      ],
      "name": "getNonce",
      "outputs": [
        {
          "internalType": "uint256",
          "name": "",
          "type": "uint256"
        }
      ],
      "stateMutability": "view",
      "type": "function"
    },
    {
      "inputs": [
        {
          "internalType": "bytes32",
          "name": "role",
          "type": "bytes32"
        }
      ],
      "name": "getRoleAdmin",
      "outputs": [
        {
          "internalType": "bytes32",
          "name": "",
          "type": "bytes32"
        }
      ],
      "stateMutability": "view",
      "type": "function"
    },
    {
      "inputs": [
        {
          "internalType": "address",
          "name": "authorizer",
          "type": "address"
        }
      ],
      "name": "getSession",
      "outputs": [
        {
          "components": [
            {
              "internalType": "address",
              "name": "authorized",
              "type": "address"
            },
            {
              "internalType": "uint256",
              "name": "expiresAt",
              "type": "uint256"
            }
          ],
          "internalType": "struct IForwardRequest.PlaySession",
          "name": "",
          "type": "tuple"
        }
      ],
      "stateMutability": "view",
      "type": "function"
    },
    {
      "inputs": [
        {
          "internalType": "bytes32",
          "name": "role",
          "type": "bytes32"
        },
        {
          "internalType": "address",
          "name": "account",
          "type": "address"
        }
      ],
      "name": "grantRole",
      "outputs": [],
      "stateMutability": "nonpayable",
      "type": "function"
    },
    {
      "inputs": [
        {
          "internalType": "bytes32",
          "name": "role",
          "type": "bytes32"
        },
        {
          "internalType": "address",
          "name": "account",
          "type": "address"
        }
      ],
      "name": "hasRole",
      "outputs": [
        {
          "internalType": "bool",
          "name": "",
          "type": "bool"
        }
      ],
      "stateMutability": "view",
      "type": "function"
    },
    {
      "inputs": [],
      "name": "invalidateSession",
      "outputs": [],
      "stateMutability": "nonpayable",
      "type": "function"
    },
    {
      "inputs": [],
      "name": "ownershipSigner",
      "outputs": [
        {
          "internalType": "address",
          "name": "",
          "type": "address"
        }
      ],
      "stateMutability": "view",
      "type": "function"
    },
    {
      "inputs": [
        {
          "components": [
            {
              "internalType": "address",
              "name": "from",
              "type": "address"
            },
            {
              "internalType": "address",
              "name": "authorizer",
              "type": "address"
            },
            {
              "internalType": "address",
              "name": "to",
              "type": "address"
            },
            {
              "internalType": "address",
              "name": "nftContract",
              "type": "address"
            },
            {
              "internalType": "uint256",
              "name": "nftTokenId",
              "type": "uint256"
            },
            {
              "internalType": "uint256",
              "name": "nftChainId",
              "type": "uint256"
            },
            {
              "internalType": "uint256",
              "name": "targetChainId",
              "type": "uint256"
            },
            {
              "internalType": "uint256",
              "name": "value",
              "type": "uint256"
            },
            {
              "internalType": "uint256",
              "name": "gas",
              "type": "uint256"
            },
            {
              "internalType": "uint256",
              "name": "nonce",
              "type": "uint256"
            },
            {
              "internalType": "bytes",
              "name": "data",
              "type": "bytes"
            }
          ],
          "internalType": "struct IForwardRequest.ERC721ForwardRequest",
          "name": "req",
          "type": "tuple"
        },
        {
          "internalType": "bytes",
          "name": "signature",
          "type": "bytes"
        }
      ],
      "name": "preflight",
      "outputs": [],
      "stateMutability": "view",
      "type": "function"
    },
    {
      "inputs": [
        {
          "internalType": "bytes32",
          "name": "role",
          "type": "bytes32"
        },
        {
          "internalType": "address",
          "name": "account",
          "type": "address"
        }
      ],
      "name": "renounceRole",
      "outputs": [],
      "stateMutability": "nonpayable",
      "type": "function"
    },
    {
      "inputs": [
        {
          "internalType": "bytes32",
          "name": "role",
          "type": "bytes32"
        },
        {
          "internalType": "address",
          "name": "account",
          "type": "address"
        }
      ],
      "name": "revokeRole",
      "outputs": [],
      "stateMutability": "nonpayable",
      "type": "function"
    },
    {
      "inputs": [
        {
          "internalType": "address",
          "name": "newSigner",
          "type": "address"
        }
      ],
      "name": "setOwnershipSigner",
      "outputs": [],
      "stateMutability": "nonpayable",
      "type": "function"
    },
    {
      "inputs": [
        {
          "internalType": "bytes4",
          "name": "interfaceId",
          "type": "bytes4"
        }
      ],
      "name": "supportsInterface",
      "outputs": [
        {
          "internalType": "bool",
          "name": "",
          "type": "bool"
        }
      ],
      "stateMutability": "view",
      "type": "function"
    },
    {
      "inputs": [
        {
          "internalType": "uint256",
          "name": "",
          "type": "uint256"
        }
      ],
      "name": "urls",
      "outputs": [
        {
          "internalType": "string",
          "name": "",
          "type": "string"
        }
      ],
      "stateMutability": "view",
      "type": "function"
    },
    {
      "inputs": [
        {
          "components": [
            {
              "internalType": "address",
              "name": "from",
              "type": "address"
            },
            {
              "internalType": "address",
              "name": "authorizer",
              "type": "address"
            },
            {
              "internalType": "address",
              "name": "to",
              "type": "address"
            },
            {
              "internalType": "address",
              "name": "nftContract",
              "type": "address"
            },
            {
              "internalType": "uint256",
              "name": "nftTokenId",
              "type": "uint256"
            },
            {
              "internalType": "uint256",
              "name": "nftChainId",
              "type": "uint256"
            },
            {
              "internalType": "uint256",
              "name": "targetChainId",
              "type": "uint256"
            },
            {
              "internalType": "uint256",
              "name": "value",
              "type": "uint256"
            },
            {
              "internalType": "uint256",
              "name": "gas",
              "type": "uint256"
            },
            {
              "internalType": "uint256",
              "name": "nonce",
              "type": "uint256"
            },
            {
              "internalType": "bytes",
              "name": "data",
              "type": "bytes"
            }
          ],
          "internalType": "struct IForwardRequest.ERC721ForwardRequest",
          "name": "req",
          "type": "tuple"
        },
        {
          "internalType": "bytes",
          "name": "signature",
          "type": "bytes"
        }
      ],
      "name": "verify",
      "outputs": [
        {
          "internalType": "bool",
          "name": "",
          "type": "bool"
        }
      ],
      "stateMutability": "view",
      "type": "function"
    },
    {
      "inputs": [
        {
          "components": [
            {
              "internalType": "address",
              "name": "from",
              "type": "address"
            },
            {
              "internalType": "address",
              "name": "authorizer",
              "type": "address"
            },
            {
              "internalType": "address",
              "name": "to",
              "type": "address"
            },
            {
              "internalType": "address",
              "name": "nftContract",
              "type": "address"
            },
            {
              "internalType": "uint256",
              "name": "nftTokenId",
              "type": "uint256"
            },
            {
              "internalType": "uint256",
              "name": "nftChainId",
              "type": "uint256"
            },
            {
              "internalType": "uint256",
              "name": "targetChainId",
              "type": "uint256"
            },
            {
              "internalType": "uint256",
              "name": "value",
              "type": "uint256"
            },
            {
              "internalType": "uint256",
              "name": "gas",
              "type": "uint256"
            },
            {
              "internalType": "uint256",
              "name": "nonce",
              "type": "uint256"
            },
            {
              "internalType": "bytes",
              "name": "data",
              "type": "bytes"
            }
          ],
          "internalType": "struct IForwardRequest.ERC721ForwardRequest",
          "name": "req",
          "type": "tuple"
        },
        {
          "internalType": "bytes",
          "name": "signature",
          "type": "bytes"
        },
        {
          "internalType": "uint256",
          "name": "timestamp",
          "type": "uint256"
        }
      ],
      "name": "verifyOwnershipProof",
      "outputs": [
        {
          "internalType": "bool",
          "name": "",
          "type": "bool"
        }
      ],
      "stateMutability": "view",
      "type": "function"
    }
  ],
  "transactionHash": "0xec113a58c4d9781a2efbf8dccb2950ed102b073063b599fa99f076c96ab5c14c",
  "args": [
    "0xEssential PlaySession",
    [
      "https://testnet-ownership-rpc.herokuapp.com/"
    ]
  ],
  "numDeployments": 5,
  "solcInputHash": "10e4fd3c1e061dddabc5b982f4378d7d",
  "bytecode": "0x6101206040523480156200001257600080fd5b5060405162002bfe38038062002bfe833981016040819052620000359162000452565b6040805180820182526005815264302e302e3160d81b60209182015283518482012060c08181527fae209a0b48f21c054280f2455d32cf309387644879d9acbd8ffc19916381188560e08190524660a081815286517f36c25de3e541d5d970f66e4210d728721220fff5c077cc6cd008b3a0c62adab78188018190528189019690965260608101939093523060808085019190915283820192909252865180840390910181529190920190945283519390920192909220905261010052620000ff6000336200015b565b6200012b7fa49807205ce4d355092ef5a8a18f56e8913cf4a201fbe287825b095693c21775336200015b565b600180546001600160a01b031916331790558051620001529060049060208401906200020b565b50505062000586565b6200016782826200016b565b5050565b6000828152602081815260408083206001600160a01b038516845290915290205460ff1662000167576000828152602081815260408083206001600160a01b03851684529091529020805460ff19166001179055620001c73390565b6001600160a01b0316816001600160a01b0316837f2f8788117e7eff1d82e926ec794901d17c78024a50270940304540a733656f0d60405160405180910390a45050565b8280548282559060005260206000209081019282156200025d579160200282015b828111156200025d57825180516200024c9184916020909101906200026f565b50916020019190600101906200022c565b506200026b929150620002fa565b5090565b8280546200027d9062000549565b90600052602060002090601f016020900481019282620002a15760008555620002ec565b82601f10620002bc57805160ff1916838001178555620002ec565b82800160010185558215620002ec579182015b82811115620002ec578251825591602001919060010190620002cf565b506200026b9291506200031b565b808211156200026b57600062000311828262000332565b50600101620002fa565b5b808211156200026b57600081556001016200031c565b508054620003409062000549565b6000825580601f1062000351575050565b601f0160209004906000526020600020908101906200037191906200031b565b50565b634e487b7160e01b600052604160045260246000fd5b604051601f8201601f191681016001600160401b0381118282101715620003b557620003b562000374565b604052919050565b600082601f830112620003cf57600080fd5b81516001600160401b03811115620003eb57620003eb62000374565b602062000401601f8301601f191682016200038a565b82815285828487010111156200041657600080fd5b60005b838110156200043657858101830151828201840152820162000419565b83811115620004485760008385840101525b5095945050505050565b600080604083850312156200046657600080fd5b82516001600160401b03808211156200047e57600080fd5b6200048c86838701620003bd565b9350602091508185015181811115620004a457600080fd5b8501601f81018713620004b657600080fd5b805182811115620004cb57620004cb62000374565b8060051b620004dc8582016200038a565b918252828101850191858101908a841115620004f757600080fd5b86850192505b838310156200053857825186811115620005175760008081fd5b620005278c8983890101620003bd565b8352509186019190860190620004fd565b809750505050505050509250929050565b600181811c908216806200055e57607f821691505b602082108114156200058057634e487b7160e01b600052602260045260246000fd5b50919050565b60805160a05160c05160e05161010051612633620005cb6000396000611a6b01526000611aba01526000611a9501526000611a1901526000611a4201526126336000f3fe6080604052600436106101755760003560e01c80638c4a7b1b116100cb578063be0fb87e1161007f578063dbf42df711610059578063dbf42df71461051d578063f2cde3ef14610530578063ffb703ee1461055057600080fd5b8063be0fb87e146104c7578063d547741f146104dc578063dbf0eeef146104fc57600080fd5b806391d14854116100b057806391d148541461044e57806395cb1c2d14610492578063a217fddf146104b257600080fd5b80638c4a7b1b146103a65780638c8e13b9146103c657600080fd5b80633408e4701161012d57806375b238fc1161010757806375b238fc14610325578063796676be14610359578063819025641461038657600080fd5b80633408e4701461026d57806336568abe146102805780635c0dfff6146102a057600080fd5b8063248a9ca31161015e578063248a9ca3146101d75780632d0335ab146102155780632f2ff15d1461024b57600080fd5b806301ffc9a71461017a57806312ce42fd146101af575b600080fd5b34801561018657600080fd5b5061019a610195366004611b08565b610570565b60405190151581526020015b60405180910390f35b3480156101bb57600080fd5b506001546040516001600160a01b0390911681526020016101a6565b3480156101e357600080fd5b506102076101f2366004611b4a565b60009081526020819052604090206001015490565b6040519081526020016101a6565b34801561022157600080fd5b50610207610230366004611b7f565b6001600160a01b031660009081526002602052604090205490565b34801561025757600080fd5b5061026b610266366004611b9a565b610609565b005b34801561027957600080fd5b5046610207565b34801561028c57600080fd5b5061026b61029b366004611b9a565b610634565b3480156102ac57600080fd5b506102076102bb366004611bc6565b604080516001600160a01b0398891660208083019190915297891681830152606081019690965260808601949094529190951660a084015260c08301949094524660e083015261010080830194909452805180830390940184526101209091019052815191012090565b34801561033157600080fd5b506102077fa49807205ce4d355092ef5a8a18f56e8913cf4a201fbe287825b095693c2177581565b34801561036557600080fd5b50610379610374366004611b4a565b6106c5565b6040516101a69190611c88565b34801561039257600080fd5b5061019a6103a1366004611e37565b610771565b3480156103b257600080fd5b5061019a6103c1366004611ee6565b6108bc565b3480156103d257600080fd5b5061042a6103e1366004611b7f565b604080518082018252600080825260209182018190526001600160a01b039384168152600382528290208251808401909352805490931682526001909201549181019190915290565b6040805182516001600160a01b0316815260209283015192810192909252016101a6565b34801561045a57600080fd5b5061019a610469366004611b9a565b6000918252602082815260408084206001600160a01b0393909316845291905290205460ff1690565b34801561049e57600080fd5b5061026b6104ad366004611ee6565b61090e565b3480156104be57600080fd5b50610207600081565b3480156104d357600080fd5b5061026b610ab2565b3480156104e857600080fd5b5061026b6104f7366004611b9a565b610b25565b61050f61050a366004611f58565b610b4b565b6040516101a6929190611fc4565b61050f61052b366004611ee6565b610da0565b34801561053c57600080fd5b5061026b61054b366004611b7f565b610f4f565b34801561055c57600080fd5b5061026b61056b366004611fdf565b610fb1565b60007fffffffff0000000000000000000000000000000000000000000000000000000082167f7965db0b00000000000000000000000000000000000000000000000000000000148061060357507f01ffc9a7000000000000000000000000000000000000000000000000000000007fffffffff000000000000000000000000000000000000000000000000000000008316145b92915050565b6000828152602081905260409020600101546106258133610fbb565b61062f8383611039565b505050565b6001600160a01b03811633146106b75760405162461bcd60e51b815260206004820152602f60248201527f416363657373436f6e74726f6c3a2063616e206f6e6c792072656e6f756e636560448201527f20726f6c657320666f722073656c66000000000000000000000000000000000060648201526084015b60405180910390fd5b6106c182826110d7565b5050565b600481815481106106d557600080fd5b9060005260206000200160009150905080546106f090612009565b80601f016020809104026020016040519081016040528092919081815260200182805461071c90612009565b80156107695780601f1061073e57610100808354040283529160200191610769565b820191906000526020600020905b81548152906001019060200180831161074c57829003601f168201915b505050505081565b6000610258610780834261205a565b106107cd5760405162461bcd60e51b815260206004820152600560248201527f5374616c6500000000000000000000000000000000000000000000000000000060448201526064016106ae565b83516020808601516101208088015160a0808a01516060808c01516080808e0151604080516001600160a01b039c8d16818d0152998c168a8201529389019690965287019290925296169084015260c08301524660e08301526101008083018790528451808403909101815290820184528051908301207f19457468657265756d205369676e6564204d6573736167653a0a33320000000061014083015261015c808301919091528351808303909101815261017c90910190925281519101206000906001549091506001600160a01b03166108a98286611156565b6001600160a01b03161495945050505050565b60006109066108ca85612071565b84848080601f01602080910402602001604051908101604052809392919081815260200183838082843760009201919091525061117a92505050565b949350505050565b61095661091a84612071565b83838080601f01602080910402602001604051908101604052809392919081815260200183838082843760009201919091525061117a92505050565b15610a805730600461096b6020860186611b7f565b61097b6040870160208801611b7f565b6002600061098c60208a018a611b7f565b6001600160a01b0316815260208101919091526040016000205460a08801356109bb60808a0160608b01611b7f565b604080516001600160a01b039687166020820152948616908501526060840192909252608083810191909152921660a08201529086013560c08281019190915286013560e0820152426101008201526101200160405160208183030381529060405263dbf0eeef60e01b42878787604051602001610a3c94939291906120ee565b60408051601f19818403018152908290527f556f18300000000000000000000000000000000000000000000000000000000082526106ae95949392916004016121f3565b6040517f8baa579f00000000000000000000000000000000000000000000000000000000815260040160405180910390fd5b6040517fffb703ee0000000000000000000000000000000000000000000000000000000081523360048201526000196024820152309063ffb703ee90604401600060405180830381600087803b158015610b0b57600080fd5b505af1158015610b1f573d6000803e3d6000fd5b50505050565b600082815260208190526040902060010154610b418133610fbb565b61062f83836110d7565b60006060818080610b5e86880188612363565b925092509250610b6d826112b9565b610bb95760405162461bcd60e51b815260206004820152600a60248201527f756e76657269666965640000000000000000000000000000000000000000000060448201526064016106ae565b610bfb828a8a8080601f016020809104026020016040519081016040528093929190818152602001838380828437600092019190915250889250610771915050565b610c475760405162461bcd60e51b815260206004820152600d60248201527f626164206f776e6572736869700000000000000000000000000000000000000060448201526064016106ae565b610c51828261117a565b610c9d5760405162461bcd60e51b815260206004820152600760248201527f626164207369670000000000000000000000000000000000000000000000000060448201526064016106ae565b81516001600160a01b031660009081526002602052604081208054909190610cc4906123d0565b9190508190555060008083604001516001600160a01b03168461010001516000866101400151876080015188606001518960200151604051602001610d0c94939291906123eb565b60408051601f1981840301815290829052610d269161242f565b600060405180830381858888f193505050503d8060008114610d64576040519150601f19603f3d011682016040523d82523d6000602084013e610d69565b606091505b5091509150603f846101000151610d80919061244b565b5a11610d8e57610d8e61246d565b90955093505050505b94509492505050565b60006060610daf8585856108bc565b610e215760405162461bcd60e51b815260206004820152603260248201527f4d696e696d616c466f727761726465723a207369676e617475726520646f657360448201527f206e6f74206d617463682072657175657374000000000000000000000000000060648201526084016106ae565b610e316101208601356001612483565b60026000610e426020890189611b7f565b6001600160a01b03166001600160a01b0316815260200190815260200160002081905550600080866040016020810190610e7c9190611b7f565b6001600160a01b031661010088013560e0890135610e9e6101408b018b61249b565b600080610eae60208f018f611b7f565b604051602001610ec29594939291906124e2565b60408051601f1981840301815290829052610edc9161242f565b600060405180830381858888f193505050503d8060008114610f1a576040519150601f19603f3d011682016040523d82523d6000602084013e610f1f565b606091505b509092509050610f35603f61010089013561244b565b5a11610f4357610f4361246d565b90969095509350505050565b7fa49807205ce4d355092ef5a8a18f56e8913cf4a201fbe287825b095693c21775610f7a8133610fbb565b600180547fffffffffffffffffffffffff0000000000000000000000000000000000000000166001600160a01b0384161790555050565b6106c1828261133c565b6000828152602081815260408083206001600160a01b038516845290915290205460ff166106c157610ff7816001600160a01b031660146113e6565b6110028360206113e6565b60405160200161101392919061251a565b60408051601f198184030181529082905262461bcd60e51b82526106ae91600401611c88565b6000828152602081815260408083206001600160a01b038516845290915290205460ff166106c1576000828152602081815260408083206001600160a01b03851684529091529020805460ff191660011790556110933390565b6001600160a01b0316816001600160a01b0316837f2f8788117e7eff1d82e926ec794901d17c78024a50270940304540a733656f0d60405160405180910390a45050565b6000828152602081815260408083206001600160a01b038516845290915290205460ff16156106c1576000828152602081815260408083206001600160a01b0385168085529252808320805460ff1916905551339285917ff6391f5c32d9c69d2a47ea670b442974b53935d1edc7fd64eb21e047a839171b9190a45050565b60008060006111658585611616565b9150915061117281611686565b509392505050565b600080611267836112617f43fa348c6c9d3f16a4580fbb7f1b7f0432ed8cdc844564275311b61f50661ea08760400151886000015189602001518a606001518b61012001518c60a001518d608001518e60c001518f6101400151805190602001206040516020016112469a99989796959493929190998a526001600160a01b0398891660208b015296881660408a0152948716606089015292909516608087015260a086015260c085019390935260e08401929092526101008301919091526101208201526101400190565b6040516020818303038152906040528051906020012061187a565b90611156565b61012085015185516001600160a01b03166000908152600260205260409020549192501480156112a3575083516001600160a01b038281169116145b80156109065750468460c0015114949350505050565b600081600001516001600160a01b031682602001516001600160a01b031614156112e557506001919050565b81516020808401516001600160a01b0390811660009081526003909252604090912054811691161480156106035750506020908101516001600160a01b031660009081526003909152604090206001015442111590565b6040518060400160405280836001600160a01b0316815260200182426113629190612483565b9052336000818152600360209081526040808320855181547fffffffffffffffffffffffff0000000000000000000000000000000000000000166001600160a01b039182161782559590920151600190920191909155518493861692917f1170e4b3e143a792ce7a7af268ecfe7d7b0574438d8040eb89c2bf5b7e6e15d891a45050565b606060006113f583600261259b565b611400906002612483565b67ffffffffffffffff81111561141857611418611c9b565b6040519080825280601f01601f191660200182016040528015611442576020820181803683370190505b5090507f300000000000000000000000000000000000000000000000000000000000000081600081518110611479576114796125ba565b60200101907effffffffffffffffffffffffffffffffffffffffffffffffffffffffffffff1916908160001a9053507f7800000000000000000000000000000000000000000000000000000000000000816001815181106114dc576114dc6125ba565b60200101907effffffffffffffffffffffffffffffffffffffffffffffffffffffffffffff1916908160001a905350600061151884600261259b565b611523906001612483565b90505b60018111156115c0577f303132333435363738396162636465660000000000000000000000000000000085600f1660108110611564576115646125ba565b1a60f81b82828151811061157a5761157a6125ba565b60200101907effffffffffffffffffffffffffffffffffffffffffffffffffffffffffffff1916908160001a90535060049490941c936115b9816125d0565b9050611526565b50831561160f5760405162461bcd60e51b815260206004820181905260248201527f537472696e67733a20686578206c656e67746820696e73756666696369656e7460448201526064016106ae565b9392505050565b60008082516041141561164d5760208301516040840151606085015160001a611641878285856118e3565b9450945050505061167f565b825160401415611677576020830151604084015161166c8683836119cd565b93509350505061167f565b506000905060025b9250929050565b600081600481111561169a5761169a6125e7565b14156116a35750565b60018160048111156116b7576116b76125e7565b14156117055760405162461bcd60e51b815260206004820152601860248201527f45434453413a20696e76616c6964207369676e6174757265000000000000000060448201526064016106ae565b6002816004811115611719576117196125e7565b14156117675760405162461bcd60e51b815260206004820152601f60248201527f45434453413a20696e76616c6964207369676e6174757265206c656e6774680060448201526064016106ae565b600381600481111561177b5761177b6125e7565b14156117ef5760405162461bcd60e51b815260206004820152602260248201527f45434453413a20696e76616c6964207369676e6174757265202773272076616c60448201527f756500000000000000000000000000000000000000000000000000000000000060648201526084016106ae565b6004816004811115611803576118036125e7565b14156118775760405162461bcd60e51b815260206004820152602260248201527f45434453413a20696e76616c6964207369676e6174757265202776272076616c60448201527f756500000000000000000000000000000000000000000000000000000000000060648201526084016106ae565b50565b6000610603611887611a15565b836040517f19010000000000000000000000000000000000000000000000000000000000006020820152602281018390526042810182905260009060620160405160208183030381529060405280519060200120905092915050565b6000807f7fffffffffffffffffffffffffffffff5d576e7357a4501ddfe92f46681b20a083111561191a5750600090506003610d97565b8460ff16601b1415801561193257508460ff16601c14155b156119435750600090506004610d97565b6040805160008082526020820180845289905260ff881692820192909252606081018690526080810185905260019060a0016020604051602081039080840390855afa158015611997573d6000803e3d6000fd5b5050604051601f1901519150506001600160a01b0381166119c057600060019250925050610d97565b9660009650945050505050565b6000807f7fffffffffffffffffffffffffffffffffffffffffffffffffffffffffffffff831660ff84901c601b01611a07878288856118e3565b935093505050935093915050565b60007f0000000000000000000000000000000000000000000000000000000000000000461415611a6457507f000000000000000000000000000000000000000000000000000000000000000090565b50604080517f00000000000000000000000000000000000000000000000000000000000000006020808301919091527f0000000000000000000000000000000000000000000000000000000000000000828401527f000000000000000000000000000000000000000000000000000000000000000060608301523060808301524660a0808401919091528351808403909101815260c0909201909252805191012090565b600060208284031215611b1a57600080fd5b81357fffffffff000000000000000000000000000000000000000000000000000000008116811461160f57600080fd5b600060208284031215611b5c57600080fd5b5035919050565b80356001600160a01b0381168114611b7a57600080fd5b919050565b600060208284031215611b9157600080fd5b61160f82611b63565b60008060408385031215611bad57600080fd5b82359150611bbd60208401611b63565b90509250929050565b600080600080600080600060e0888a031215611be157600080fd5b611bea88611b63565b9650611bf860208901611b63565b95506040880135945060608801359350611c1460808901611b63565b925060a0880135915060c0880135905092959891949750929550565b60005b83811015611c4b578181015183820152602001611c33565b83811115610b1f5750506000910152565b60008151808452611c74816020860160208601611c30565b601f01601f19169290920160200192915050565b60208152600061160f6020830184611c5c565b634e487b7160e01b600052604160045260246000fd5b604051610160810167ffffffffffffffff81118282101715611cd557611cd5611c9b565b60405290565b600082601f830112611cec57600080fd5b813567ffffffffffffffff80821115611d0757611d07611c9b565b604051601f8301601f19908116603f01168101908282118183101715611d2f57611d2f611c9b565b81604052838152866020858801011115611d4857600080fd5b836020870160208301376000602085830101528094505050505092915050565b60006101608284031215611d7b57600080fd5b611d83611cb1565b9050611d8e82611b63565b8152611d9c60208301611b63565b6020820152611dad60408301611b63565b6040820152611dbe60608301611b63565b60608201526080820135608082015260a082013560a082015260c082013560c082015260e082013560e08201526101008083013581830152506101208083013581830152506101408083013567ffffffffffffffff811115611e1f57600080fd5b611e2b85828601611cdb565b82840152505092915050565b600080600060608486031215611e4c57600080fd5b833567ffffffffffffffff80821115611e6457600080fd5b611e7087838801611d68565b94506020860135915080821115611e8657600080fd5b50611e9386828701611cdb565b925050604084013590509250925092565b60008083601f840112611eb657600080fd5b50813567ffffffffffffffff811115611ece57600080fd5b60208301915083602082850101111561167f57600080fd5b600080600060408486031215611efb57600080fd5b833567ffffffffffffffff80821115611f1357600080fd5b908501906101608288031215611f2857600080fd5b90935060208501359080821115611f3e57600080fd5b50611f4b86828701611ea4565b9497909650939450505050565b60008060008060408587031215611f6e57600080fd5b843567ffffffffffffffff80821115611f8657600080fd5b611f9288838901611ea4565b90965094506020870135915080821115611fab57600080fd5b50611fb887828801611ea4565b95989497509550505050565b82151581526040602082015260006109066040830184611c5c565b60008060408385031215611ff257600080fd5b611ffb83611b63565b946020939093013593505050565b600181811c9082168061201d57607f821691505b6020821081141561203e57634e487b7160e01b600052602260045260246000fd5b50919050565b634e487b7160e01b600052601160045260246000fd5b60008282101561206c5761206c612044565b500390565b60006106033683611d68565b6000808335601e1984360301811261209457600080fd5b830160208101925035905067ffffffffffffffff8111156120b457600080fd5b80360383131561167f57600080fd5b818352818160208501375060006020828401015260006020601f19601f840116840101905092915050565b848152606060208201526121156060820161210886611b63565b6001600160a01b03169052565b600061212360208601611b63565b6001600160a01b0316608083015261213d60408601611b63565b6001600160a01b031660a083015261215760608601611b63565b6001600160a01b03811660c084015250608085013560e083015261010060a08601358184015261012060c08701358185015261014060e0880135818601526101608389013581870152828901356101808701526121b6828a018a61207d565b94509250806101a087015250506121d26101c0850183836120c3565b91505082810360408401526121e88185876120c3565b979650505050505050565b600060a082016001600160a01b0388168352602060a08185015281885480845260c08601915060c08160051b870101935060008a8152838120815b83811015612303578887037fffffffffffffffffffffffffffffffffffffffffffffffffffffffffffffff4001855281548390600181811c908083168061227657607f831692505b8a831081141561229457634e487b7160e01b88526022600452602488fd5b828c5260208c018180156122af57600181146122c0576122ea565b60ff19861682528c820196506122ea565b6000898152602090208a5b868110156122e457815484820152908501908e016122cb565b83019750505b50949b505097890197949094019350505060010161222e565b505050505050828103604084015261231b8187611c5c565b7fffffffff0000000000000000000000000000000000000000000000000000000086166060850152905082810360808401526123578185611c5c565b98975050505050505050565b60008060006060848603121561237857600080fd5b83359250602084013567ffffffffffffffff8082111561239757600080fd5b6123a387838801611d68565b935060408601359150808211156123b957600080fd5b506123c686828701611cdb565b9150509250925092565b60006000198214156123e4576123e4612044565b5060010190565b600085516123fd818460208a01611c30565b91909101938452506bffffffffffffffffffffffff19606092831b81166020850152911b166034820152604801919050565b60008251612441818460208701611c30565b9190910192915050565b60008261246857634e487b7160e01b600052601260045260246000fd5b500490565b634e487b7160e01b600052600160045260246000fd5b6000821982111561249657612496612044565b500190565b6000808335601e198436030181126124b257600080fd5b83018035915067ffffffffffffffff8211156124cd57600080fd5b60200191503681900382131561167f57600080fd5b84868237909301918252606090811b6bffffffffffffffffffffffff19908116602084015292901b9091166034820152604801919050565b7f416363657373436f6e74726f6c3a206163636f756e7420000000000000000000815260008351612552816017850160208801611c30565b7f206973206d697373696e6720726f6c6520000000000000000000000000000000601791840191820152835161258f816028840160208801611c30565b01602801949350505050565b60008160001904831182151516156125b5576125b5612044565b500290565b634e487b7160e01b600052603260045260246000fd5b6000816125df576125df612044565b506000190190565b634e487b7160e01b600052602160045260246000fdfea2646970667358221220f583327f7eddb230cdd3cb73e2f851b2915e614a76766ba78c3cbee7204f9a0c64736f6c63430008090033",
  "devdoc": {
    "author": "0xEssential",
    "details": "Allows a Relayer to submit meta-transactions that utilize an NFT (i.e. in a game) on behalf of EOAs. Transactions      are only executed if the Relayer provides a signature from a trusted signer. The signature must include the current      owner of the Layer 1 NFT being used, or a Burner EOA the owner has authorized to use its NFTs.      EssentialForwarder can be used to build Layer 2 games that use Layer 1 NFTs without bridging and with superior UX.      End users can specify a Burner EOA from their primary EOA, and then use that burner address to play games.      The Burner EOA can then sign messages for game moves without user interaction without any risk to the NFTs or other      assets owned by the primary EOA.",
    "kind": "dev",
    "methods": {
      "createMessage(address,address,uint256,uint256,address,uint256,uint256)": {
        "details": "The RPC server uses this view function to create the ownership proof",
        "params": {
          "authorizer": "the address that currently owns the L1 NFT",
          "nftChainId": "the tokenId from nftContract for the NFT being utilized",
          "nftContract": "the mainnet contract address for the NFT being utilized",
          "nonce": "the meta-transaction nonce for account",
          "signer": "the address that currently owns the L1 NFT",
          "timestamp": "the tokenId from nftContract for the NFT being utilized",
          "tokenId": "the tokenId from nftContract for the NFT being utilized"
        },
        "returns": {
          "_0": "the message _ownershipSigner should sign"
        }
      },
      "executeWithProof(bytes,bytes)": {
        "details": "The RPC call and re-submission should be handled by your Relayer client",
        "params": {
          "extraData": "The unaltered bytes in the OffchainLookup extraData error arg",
          "response": "The unaltered bytes reponse from a call made to an RPC based on OffchainLookup args"
        }
      },
      "getRoleAdmin(bytes32)": {
        "details": "Returns the admin role that controls `role`. See {grantRole} and {revokeRole}. To change a role's admin, use {_setRoleAdmin}."
      },
      "grantRole(bytes32,address)": {
        "details": "Grants `role` to `account`. If `account` had not been already granted `role`, emits a {RoleGranted} event. Requirements: - the caller must have ``role``'s admin role."
      },
      "hasRole(bytes32,address)": {
        "details": "Returns `true` if `account` has been granted `role`."
      },
      "invalidateSession()": {
        "details": "For efficiency in PlaySession persistence and lookup, an EOA must authorize      itself"
      },
      "ownershipSigner()": {
        "returns": {
          "_0": "the ownership proof signer address"
        }
      },
      "preflight((address,address,address,address,uint256,uint256,uint256,uint256,uint256,uint256,bytes),bytes)": {
        "details": "Per EIP-3668, a valid signature will cause a revert with useful error params."
      },
      "renounceRole(bytes32,address)": {
        "details": "Revokes `role` from the calling account. Roles are often managed via {grantRole} and {revokeRole}: this function's purpose is to provide a mechanism for accounts to lose their privileges if they are compromised (such as when a trusted device is misplaced). If the calling account had been revoked `role`, emits a {RoleRevoked} event. Requirements: - the caller must be `account`."
      },
      "revokeRole(bytes32,address)": {
        "details": "Revokes `role` from `account`. If `account` had been granted `role`, emits a {RoleRevoked} event. Requirements: - the caller must have ``role``'s admin role."
      },
      "supportsInterface(bytes4)": {
        "details": "See {IERC165-supportsInterface}."
      },
      "verify((address,address,address,address,uint256,uint256,uint256,uint256,uint256,uint256,bytes),bytes)": {
        "details": "Useful for transactions where the signer is not using a specific NFT, but values are still required in the signature - use the zero address for nftContract and 0 for tokenId"
      },
      "verifyOwnershipProof((address,address,address,address,uint256,uint256,uint256,uint256,uint256,uint256,bytes),bytes,uint256)": {
        "details": "Ensures that _ownershipSigner signed a message containing (nftOwner OR authorized address, nonce, nftContract, tokenId)",
        "params": {
          "req": "structured data submitted by EOA making a meta-transaction request",
          "signature": "the signature proof created by the ownership signer EOA"
        }
      }
    },
    "title": "EssentialForwarder",
    "version": 1
  },
  "userdoc": {
    "kind": "user",
    "methods": {
      "createMessage(address,address,uint256,uint256,address,uint256,uint256)": {
        "notice": "Construct message that _ownershipSigner must sign as ownership proof"
      },
      "createSession(address,uint256)": {
        "notice": "Allow `authorized` to use your NFTs in a game for `length` seconds. Your NFTs         will not be held in custody or approved for transfer."
      },
      "executeWithProof(bytes,bytes)": {
        "notice": "Re-submit a valid meta-tx request with trusted proof to execute the transaction."
      },
      "getNonce(address)": {
        "notice": "Get current nonce for EOA"
      },
      "getSession(address)": {
        "notice": "Get current session for Primary EOA"
      },
      "invalidateSession()": {
        "notice": "Stop allowing your current authorized burner address to use your NFTs."
      },
      "ownershipSigner()": {
        "notice": "Get ownershipSigner address"
      },
      "preflight((address,address,address,address,uint256,uint256,uint256,uint256,uint256,uint256,bytes),bytes)": {
        "notice": "Submit a meta-tx request and signature to check validity and receive         a response with data useful for fetching a trusted proof per EIP-3668."
      },
      "setOwnershipSigner(address)": {
        "notice": "Change the ownership signer"
      },
      "verify((address,address,address,address,uint256,uint256,uint256,uint256,uint256,uint256,bytes),bytes)": {
        "notice": "Submit a meta-tx request where a proof of ownership is not required."
      },
      "verifyOwnershipProof((address,address,address,address,uint256,uint256,uint256,uint256,uint256,uint256,bytes),bytes,uint256)": {
        "notice": "Verify signed OffchainLookup proof against meta-tx request data"
      }
    },
    "notice": "EIP-2771 based MetaTransaction Forwarding Contract with EIP-3668 OffchainLookup for cross-chain token gating",
    "version": 1
  },
  "storageLayout": {
    "storage": [
      {
        "astId": 24,
        "contract": "src/EssentialForwarder.sol:EssentialForwarder",
        "label": "_roles",
        "offset": 0,
        "slot": "0",
        "type": "t_mapping(t_bytes32,t_struct(RoleData)19_storage)"
      },
      {
        "astId": 2039,
        "contract": "src/EssentialForwarder.sol:EssentialForwarder",
        "label": "_ownershipSigner",
        "offset": 0,
        "slot": "1",
        "type": "t_address"
      },
      {
        "astId": 1492,
        "contract": "src/EssentialForwarder.sol:EssentialForwarder",
        "label": "_nonces",
        "offset": 0,
        "slot": "2",
        "type": "t_mapping(t_address,t_uint256)"
      },
      {
        "astId": 1497,
        "contract": "src/EssentialForwarder.sol:EssentialForwarder",
        "label": "_sessions",
        "offset": 0,
        "slot": "3",
        "type": "t_mapping(t_address,t_struct(PlaySession)2022_storage)"
      },
      {
        "astId": 1500,
        "contract": "src/EssentialForwarder.sol:EssentialForwarder",
        "label": "urls",
        "offset": 0,
        "slot": "4",
        "type": "t_array(t_string_storage)dyn_storage"
      }
    ],
    "types": {
      "t_address": {
        "encoding": "inplace",
        "label": "address",
        "numberOfBytes": "20"
      },
      "t_array(t_string_storage)dyn_storage": {
        "base": "t_string_storage",
        "encoding": "dynamic_array",
        "label": "string[]",
        "numberOfBytes": "32"
      },
      "t_bool": {
        "encoding": "inplace",
        "label": "bool",
        "numberOfBytes": "1"
      },
      "t_bytes32": {
        "encoding": "inplace",
        "label": "bytes32",
        "numberOfBytes": "32"
      },
      "t_mapping(t_address,t_bool)": {
        "encoding": "mapping",
        "key": "t_address",
        "label": "mapping(address => bool)",
        "numberOfBytes": "32",
        "value": "t_bool"
      },
      "t_mapping(t_address,t_struct(PlaySession)2022_storage)": {
        "encoding": "mapping",
        "key": "t_address",
        "label": "mapping(address => struct IForwardRequest.PlaySession)",
        "numberOfBytes": "32",
        "value": "t_struct(PlaySession)2022_storage"
      },
      "t_mapping(t_address,t_uint256)": {
        "encoding": "mapping",
        "key": "t_address",
        "label": "mapping(address => uint256)",
        "numberOfBytes": "32",
        "value": "t_uint256"
      },
      "t_mapping(t_bytes32,t_struct(RoleData)19_storage)": {
        "encoding": "mapping",
        "key": "t_bytes32",
        "label": "mapping(bytes32 => struct AccessControl.RoleData)",
        "numberOfBytes": "32",
        "value": "t_struct(RoleData)19_storage"
      },
      "t_string_storage": {
        "encoding": "bytes",
        "label": "string",
        "numberOfBytes": "32"
      },
      "t_struct(PlaySession)2022_storage": {
        "encoding": "inplace",
        "label": "struct IForwardRequest.PlaySession",
        "members": [
          {
            "astId": 2019,
            "contract": "src/EssentialForwarder.sol:EssentialForwarder",
            "label": "authorized",
            "offset": 0,
            "slot": "0",
            "type": "t_address"
          },
          {
            "astId": 2021,
            "contract": "src/EssentialForwarder.sol:EssentialForwarder",
            "label": "expiresAt",
            "offset": 0,
            "slot": "1",
            "type": "t_uint256"
          }
        ],
        "numberOfBytes": "64"
      },
      "t_struct(RoleData)19_storage": {
        "encoding": "inplace",
        "label": "struct AccessControl.RoleData",
        "members": [
          {
            "astId": 16,
            "contract": "src/EssentialForwarder.sol:EssentialForwarder",
            "label": "members",
            "offset": 0,
            "slot": "0",
            "type": "t_mapping(t_address,t_bool)"
          },
          {
            "astId": 18,
            "contract": "src/EssentialForwarder.sol:EssentialForwarder",
            "label": "adminRole",
            "offset": 0,
            "slot": "1",
            "type": "t_bytes32"
          }
        ],
        "numberOfBytes": "64"
      },
      "t_uint256": {
        "encoding": "inplace",
        "label": "uint256",
        "numberOfBytes": "32"
      }
    }
  }
}