{
  "address": "0x49B432fD47400F929608DA03211D28dfA1716210",
  "abi": [
    {
      "inputs": [
        {
          "internalType": "string",
          "name": "name",
          "type": "string"
        },
        {
          "internalType": "string[]",
          "name": "_urls",
          "type": "string[]"
        }
      ],
      "stateMutability": "nonpayable",
      "type": "constructor"
    },
    {
      "inputs": [
        {
          "internalType": "address",
          "name": "sender",
          "type": "address"
        },
        {
          "internalType": "string[]",
          "name": "urls",
          "type": "string[]"
        },
        {
          "internalType": "bytes",
          "name": "callData",
          "type": "bytes"
        },
        {
          "internalType": "bytes4",
          "name": "callbackFunction",
          "type": "bytes4"
        },
        {
          "internalType": "bytes",
          "name": "extraData",
          "type": "bytes"
        }
      ],
      "name": "OffchainLookup",
      "type": "error"
    },
    {
      "anonymous": false,
      "inputs": [
        {
          "indexed": true,
          "internalType": "bytes32",
          "name": "role",
          "type": "bytes32"
        },
        {
          "indexed": true,
          "internalType": "bytes32",
          "name": "previousAdminRole",
          "type": "bytes32"
        },
        {
          "indexed": true,
          "internalType": "bytes32",
          "name": "newAdminRole",
          "type": "bytes32"
        }
      ],
      "name": "RoleAdminChanged",
      "type": "event"
    },
    {
      "anonymous": false,
      "inputs": [
        {
          "indexed": true,
          "internalType": "bytes32",
          "name": "role",
          "type": "bytes32"
        },
        {
          "indexed": true,
          "internalType": "address",
          "name": "account",
          "type": "address"
        },
        {
          "indexed": true,
          "internalType": "address",
          "name": "sender",
          "type": "address"
        }
      ],
      "name": "RoleGranted",
      "type": "event"
    },
    {
      "anonymous": false,
      "inputs": [
        {
          "indexed": true,
          "internalType": "bytes32",
          "name": "role",
          "type": "bytes32"
        },
        {
          "indexed": true,
          "internalType": "address",
          "name": "account",
          "type": "address"
        },
        {
          "indexed": true,
          "internalType": "address",
          "name": "sender",
          "type": "address"
        }
      ],
      "name": "RoleRevoked",
      "type": "event"
    },
    {
      "anonymous": false,
      "inputs": [
        {
          "indexed": true,
          "internalType": "address",
          "name": "owner",
          "type": "address"
        },
        {
          "indexed": true,
          "internalType": "address",
          "name": "authorized",
          "type": "address"
        },
        {
          "indexed": true,
          "internalType": "uint256",
          "name": "length",
          "type": "uint256"
        }
      ],
      "name": "Session",
      "type": "event"
    },
    {
      "inputs": [],
      "name": "ADMIN_ROLE",
      "outputs": [
        {
          "internalType": "bytes32",
          "name": "",
          "type": "bytes32"
        }
      ],
      "stateMutability": "view",
      "type": "function"
    },
    {
      "inputs": [],
      "name": "DEFAULT_ADMIN_ROLE",
      "outputs": [
        {
          "internalType": "bytes32",
          "name": "",
          "type": "bytes32"
        }
      ],
      "stateMutability": "view",
      "type": "function"
    },
    {
      "inputs": [
        {
          "internalType": "address",
          "name": "nftOwner",
          "type": "address"
        },
        {
          "internalType": "uint256",
          "name": "nonce",
          "type": "uint256"
        },
        {
          "internalType": "address",
          "name": "nftContract",
          "type": "address"
        },
        {
          "internalType": "uint256",
          "name": "tokenId",
          "type": "uint256"
        },
        {
          "internalType": "uint256",
          "name": "tokenNonce",
          "type": "uint256"
        }
      ],
      "name": "createMessage",
      "outputs": [
        {
          "internalType": "bytes32",
          "name": "",
          "type": "bytes32"
        }
      ],
      "stateMutability": "pure",
      "type": "function"
    },
    {
      "inputs": [
        {
          "internalType": "address",
          "name": "authorized",
          "type": "address"
        },
        {
          "internalType": "uint256",
          "name": "length",
          "type": "uint256"
        }
      ],
      "name": "createSession",
      "outputs": [],
      "stateMutability": "nonpayable",
      "type": "function"
    },
    {
      "inputs": [
        {
          "components": [
            {
              "internalType": "address",
              "name": "from",
              "type": "address"
            },
            {
              "internalType": "address",
              "name": "authorizer",
              "type": "address"
            },
            {
              "internalType": "address",
              "name": "to",
              "type": "address"
            },
            {
              "internalType": "address",
              "name": "nftContract",
              "type": "address"
            },
            {
              "internalType": "uint256",
              "name": "nftNonce",
              "type": "uint256"
            },
            {
              "internalType": "uint256",
              "name": "tokenId",
              "type": "uint256"
            },
            {
              "internalType": "uint256",
              "name": "value",
              "type": "uint256"
            },
            {
              "internalType": "uint256",
              "name": "gas",
              "type": "uint256"
            },
            {
              "internalType": "uint256",
              "name": "nonce",
              "type": "uint256"
            },
            {
              "internalType": "bytes",
              "name": "data",
              "type": "bytes"
            }
          ],
          "internalType": "struct IForwardRequest.ERC721ForwardRequest",
          "name": "req",
          "type": "tuple"
        },
        {
          "internalType": "bytes",
          "name": "signature",
          "type": "bytes"
        }
      ],
      "name": "execute",
      "outputs": [
        {
          "internalType": "bool",
          "name": "",
          "type": "bool"
        },
        {
          "internalType": "bytes",
          "name": "",
          "type": "bytes"
        }
      ],
      "stateMutability": "payable",
      "type": "function"
    },
    {
      "inputs": [
        {
          "internalType": "bytes",
          "name": "response",
          "type": "bytes"
        },
        {
          "internalType": "bytes",
          "name": "extraData",
          "type": "bytes"
        }
      ],
      "name": "executeWithProof",
      "outputs": [
        {
          "internalType": "bool",
          "name": "",
          "type": "bool"
        },
        {
          "internalType": "bytes",
          "name": "",
          "type": "bytes"
        }
      ],
      "stateMutability": "payable",
      "type": "function"
    },
    {
      "inputs": [],
      "name": "getChainId",
      "outputs": [
        {
          "internalType": "uint256",
          "name": "id",
          "type": "uint256"
        }
      ],
      "stateMutability": "view",
      "type": "function"
    },
    {
      "inputs": [
        {
          "internalType": "address",
          "name": "from",
          "type": "address"
        }
      ],
      "name": "getNonce",
      "outputs": [
        {
          "internalType": "uint256",
          "name": "",
          "type": "uint256"
        }
      ],
      "stateMutability": "view",
      "type": "function"
    },
    {
      "inputs": [
        {
          "internalType": "bytes32",
          "name": "role",
          "type": "bytes32"
        }
      ],
      "name": "getRoleAdmin",
      "outputs": [
        {
          "internalType": "bytes32",
          "name": "",
          "type": "bytes32"
        }
      ],
      "stateMutability": "view",
      "type": "function"
    },
    {
      "inputs": [
        {
          "internalType": "address",
          "name": "authorizer",
          "type": "address"
        }
      ],
      "name": "getSession",
      "outputs": [
        {
          "components": [
            {
              "internalType": "address",
              "name": "authorized",
              "type": "address"
            },
            {
              "internalType": "uint256",
              "name": "expiresAt",
              "type": "uint256"
            }
          ],
          "internalType": "struct IForwardRequest.PlaySession",
          "name": "",
          "type": "tuple"
        }
      ],
      "stateMutability": "view",
      "type": "function"
    },
    {
      "inputs": [
        {
          "internalType": "bytes32",
          "name": "role",
          "type": "bytes32"
        },
        {
          "internalType": "address",
          "name": "account",
          "type": "address"
        }
      ],
      "name": "grantRole",
      "outputs": [],
      "stateMutability": "nonpayable",
      "type": "function"
    },
    {
      "inputs": [
        {
          "internalType": "bytes32",
          "name": "role",
          "type": "bytes32"
        },
        {
          "internalType": "address",
          "name": "account",
          "type": "address"
        }
      ],
      "name": "hasRole",
      "outputs": [
        {
          "internalType": "bool",
          "name": "",
          "type": "bool"
        }
      ],
      "stateMutability": "view",
      "type": "function"
    },
    {
      "inputs": [],
      "name": "invalidateSession",
      "outputs": [],
      "stateMutability": "nonpayable",
      "type": "function"
    },
    {
      "inputs": [],
      "name": "ownershipSigner",
      "outputs": [
        {
          "internalType": "address",
          "name": "",
          "type": "address"
        }
      ],
      "stateMutability": "view",
      "type": "function"
    },
    {
      "inputs": [
        {
          "components": [
            {
              "internalType": "address",
              "name": "from",
              "type": "address"
            },
            {
              "internalType": "address",
              "name": "authorizer",
              "type": "address"
            },
            {
              "internalType": "address",
              "name": "to",
              "type": "address"
            },
            {
              "internalType": "address",
              "name": "nftContract",
              "type": "address"
            },
            {
              "internalType": "uint256",
              "name": "nftNonce",
              "type": "uint256"
            },
            {
              "internalType": "uint256",
              "name": "tokenId",
              "type": "uint256"
            },
            {
              "internalType": "uint256",
              "name": "value",
              "type": "uint256"
            },
            {
              "internalType": "uint256",
              "name": "gas",
              "type": "uint256"
            },
            {
              "internalType": "uint256",
              "name": "nonce",
              "type": "uint256"
            },
            {
              "internalType": "bytes",
              "name": "data",
              "type": "bytes"
            }
          ],
          "internalType": "struct IForwardRequest.ERC721ForwardRequest",
          "name": "req",
          "type": "tuple"
        },
        {
          "internalType": "bytes",
          "name": "signature",
          "type": "bytes"
        }
      ],
      "name": "preflight",
      "outputs": [],
      "stateMutability": "view",
      "type": "function"
    },
    {
      "inputs": [
        {
          "internalType": "bytes32",
          "name": "role",
          "type": "bytes32"
        },
        {
          "internalType": "address",
          "name": "account",
          "type": "address"
        }
      ],
      "name": "renounceRole",
      "outputs": [],
      "stateMutability": "nonpayable",
      "type": "function"
    },
    {
      "inputs": [
        {
          "internalType": "bytes32",
          "name": "role",
          "type": "bytes32"
        },
        {
          "internalType": "address",
          "name": "account",
          "type": "address"
        }
      ],
      "name": "revokeRole",
      "outputs": [],
      "stateMutability": "nonpayable",
      "type": "function"
    },
    {
      "inputs": [
        {
          "internalType": "address",
          "name": "newSigner",
          "type": "address"
        }
      ],
      "name": "setOwnershipSigner",
      "outputs": [],
      "stateMutability": "nonpayable",
      "type": "function"
    },
    {
      "inputs": [
        {
          "internalType": "bytes4",
          "name": "interfaceId",
          "type": "bytes4"
        }
      ],
      "name": "supportsInterface",
      "outputs": [
        {
          "internalType": "bool",
          "name": "",
          "type": "bool"
        }
      ],
      "stateMutability": "view",
      "type": "function"
    },
    {
      "inputs": [
        {
          "internalType": "uint256",
          "name": "",
          "type": "uint256"
        }
      ],
      "name": "urls",
      "outputs": [
        {
          "internalType": "string",
          "name": "",
          "type": "string"
        }
      ],
      "stateMutability": "view",
      "type": "function"
    },
    {
      "inputs": [
        {
          "components": [
            {
              "internalType": "address",
              "name": "from",
              "type": "address"
            },
            {
              "internalType": "address",
              "name": "authorizer",
              "type": "address"
            },
            {
              "internalType": "address",
              "name": "to",
              "type": "address"
            },
            {
              "internalType": "address",
              "name": "nftContract",
              "type": "address"
            },
            {
              "internalType": "uint256",
              "name": "nftNonce",
              "type": "uint256"
            },
            {
              "internalType": "uint256",
              "name": "tokenId",
              "type": "uint256"
            },
            {
              "internalType": "uint256",
              "name": "value",
              "type": "uint256"
            },
            {
              "internalType": "uint256",
              "name": "gas",
              "type": "uint256"
            },
            {
              "internalType": "uint256",
              "name": "nonce",
              "type": "uint256"
            },
            {
              "internalType": "bytes",
              "name": "data",
              "type": "bytes"
            }
          ],
          "internalType": "struct IForwardRequest.ERC721ForwardRequest",
          "name": "req",
          "type": "tuple"
        },
        {
          "internalType": "bytes",
          "name": "signature",
          "type": "bytes"
        }
      ],
      "name": "verify",
      "outputs": [
        {
          "internalType": "bool",
          "name": "",
          "type": "bool"
        }
      ],
      "stateMutability": "view",
      "type": "function"
    },
    {
      "inputs": [
        {
          "components": [
            {
              "internalType": "address",
              "name": "from",
              "type": "address"
            },
            {
              "internalType": "address",
              "name": "authorizer",
              "type": "address"
            },
            {
              "internalType": "address",
              "name": "to",
              "type": "address"
            },
            {
              "internalType": "address",
              "name": "nftContract",
              "type": "address"
            },
            {
              "internalType": "uint256",
              "name": "nftNonce",
              "type": "uint256"
            },
            {
              "internalType": "uint256",
              "name": "tokenId",
              "type": "uint256"
            },
            {
              "internalType": "uint256",
              "name": "value",
              "type": "uint256"
            },
            {
              "internalType": "uint256",
              "name": "gas",
              "type": "uint256"
            },
            {
              "internalType": "uint256",
              "name": "nonce",
              "type": "uint256"
            },
            {
              "internalType": "bytes",
              "name": "data",
              "type": "bytes"
            }
          ],
          "internalType": "struct IForwardRequest.ERC721ForwardRequest",
          "name": "req",
          "type": "tuple"
        },
        {
          "internalType": "bytes",
          "name": "signature",
          "type": "bytes"
        }
      ],
      "name": "verifyOwnershipProof",
      "outputs": [
        {
          "internalType": "bool",
          "name": "",
          "type": "bool"
        }
      ],
      "stateMutability": "view",
      "type": "function"
    }
  ],
  "transactionHash": "0xa23e8141ed9ccede8d2d15363c321e2ee7e062a5e74dc11d60ec5cba8b62cf38",
  "args": [
    "0xEssential PlaySession",
    [
      "https://middleware.nfight.xyz"
    ]
  ],
  "numDeployments": 2,
  "solcInputHash": "35abd2ebb21c88d88a1cba9eb3ac78dc",
  "bytecode": "0x6101206040523480156200001257600080fd5b5060405162002b1638038062002b16833981016040819052620000359162000452565b6040805180820182526005815264302e302e3160d81b60209182015283518482012060c08181527fae209a0b48f21c054280f2455d32cf309387644879d9acbd8ffc19916381188560e08190524660a081815286517f36c25de3e541d5d970f66e4210d728721220fff5c077cc6cd008b3a0c62adab78188018190528189019690965260608101939093523060808085019190915283820192909252865180840390910181529190920190945283519390920192909220905261010052620000ff6000336200015b565b6200012b7fa49807205ce4d355092ef5a8a18f56e8913cf4a201fbe287825b095693c21775336200015b565b600180546001600160a01b031916331790558051620001529060059060208401906200020b565b50505062000586565b6200016782826200016b565b5050565b6000828152602081815260408083206001600160a01b038516845290915290205460ff1662000167576000828152602081815260408083206001600160a01b03851684529091529020805460ff19166001179055620001c73390565b6001600160a01b0316816001600160a01b0316837f2f8788117e7eff1d82e926ec794901d17c78024a50270940304540a733656f0d60405160405180910390a45050565b8280548282559060005260206000209081019282156200025d579160200282015b828111156200025d57825180516200024c9184916020909101906200026f565b50916020019190600101906200022c565b506200026b929150620002fa565b5090565b8280546200027d9062000549565b90600052602060002090601f016020900481019282620002a15760008555620002ec565b82601f10620002bc57805160ff1916838001178555620002ec565b82800160010185558215620002ec579182015b82811115620002ec578251825591602001919060010190620002cf565b506200026b9291506200031b565b808211156200026b57600062000311828262000332565b50600101620002fa565b5b808211156200026b57600081556001016200031c565b508054620003409062000549565b6000825580601f1062000351575050565b601f0160209004906000526020600020908101906200037191906200031b565b50565b634e487b7160e01b600052604160045260246000fd5b604051601f8201601f191681016001600160401b0381118282101715620003b557620003b562000374565b604052919050565b600082601f830112620003cf57600080fd5b81516001600160401b03811115620003eb57620003eb62000374565b602062000401601f8301601f191682016200038a565b82815285828487010111156200041657600080fd5b60005b838110156200043657858101830151828201840152820162000419565b83811115620004485760008385840101525b5095945050505050565b600080604083850312156200046657600080fd5b82516001600160401b03808211156200047e57600080fd5b6200048c86838701620003bd565b9350602091508185015181811115620004a457600080fd5b8501601f81018713620004b657600080fd5b805182811115620004cb57620004cb62000374565b8060051b620004dc8582016200038a565b918252828101850191858101908a841115620004f757600080fd5b86850192505b838310156200053857825186811115620005175760008081fd5b620005278c8983890101620003bd565b8352509186019190860190620004fd565b809750505050505050509250929050565b600181811c908216806200055e57607f821691505b602082108114156200058057634e487b7160e01b600052602260045260246000fd5b50919050565b60805160a05160c05160e0516101005161254b620005cb600039600061191a0152600061196901526000611944015260006118c8015260006118f1015261254b6000f3fe6080604052600436106101755760003560e01c806384bb5a43116100cb578063a217fddf1161007f578063dbf0eeef11610059578063dbf0eeef1461050a578063f2cde3ef1461051d578063ffb703ee1461053d57600080fd5b8063a217fddf146104c0578063be0fb87e146104d5578063d547741f146104ea57600080fd5b80638e9a75d2116100b05780638e9a75d2146103ea57806391d148541461040a5780639ddd61d61461044e57600080fd5b806384bb5a43146103425780638c8e13b91461036257600080fd5b80633408e4701161012d578063745125fc11610107578063745125fc146102c157806375b238fc146102e1578063796676be1461031557600080fd5b80633408e4701461026d57806336568abe146102805780634d20796c146102a057600080fd5b8063248a9ca31161015e578063248a9ca3146101d75780632d0335ab146102155780632f2ff15d1461024b57600080fd5b806301ffc9a71461017a57806312ce42fd146101af575b600080fd5b34801561018657600080fd5b5061019a610195366004611ae9565b61055d565b60405190151581526020015b60405180910390f35b3480156101bb57600080fd5b506001546040516001600160a01b0390911681526020016101a6565b3480156101e357600080fd5b506102076101f2366004611b2b565b60009081526020819052604090206001015490565b6040519081526020016101a6565b34801561022157600080fd5b50610207610230366004611b60565b6001600160a01b031660009081526003602052604090205490565b34801561025757600080fd5b5061026b610266366004611b7b565b6105f6565b005b34801561027957600080fd5b5046610207565b34801561028c57600080fd5b5061026b61029b366004611b7b565b610621565b6102b36102ae366004611be9565b6106b2565b6040516101a6929190611cb3565b3480156102cd57600080fd5b5061026b6102dc366004611be9565b61085f565b3480156102ed57600080fd5b506102077fa49807205ce4d355092ef5a8a18f56e8913cf4a201fbe287825b095693c2177581565b34801561032157600080fd5b50610335610330366004611b2b565b6109d7565b6040516101a69190611cce565b34801561034e57600080fd5b5061019a61035d366004611be9565b610a83565b34801561036e57600080fd5b506103c661037d366004611b60565b604080518082018252600080825260209182018190526001600160a01b039384168152600282528290208251808401909352805490931682526001909201549181019190915290565b6040805182516001600160a01b0316815260209283015192810192909252016101a6565b3480156103f657600080fd5b5061019a610405366004611e71565b610ad5565b34801561041657600080fd5b5061019a610425366004611b7b565b6000918252602082815260408084206001600160a01b0393909316845291905290205460ff1690565b34801561045a57600080fd5b50610207610469366004611ed5565b604080516001600160a01b03808816602083015291810186905290841660608201526080810183905260a0810182905260009060c00160405160208183030381529060405280519060200120905095945050505050565b3480156104cc57600080fd5b50610207600081565b3480156104e157600080fd5b5061026b610cb4565b3480156104f657600080fd5b5061026b610505366004611b7b565b610d27565b6102b3610518366004611f23565b610d4d565b34801561052957600080fd5b5061026b610538366004611b60565b610fce565b34801561054957600080fd5b5061026b610558366004611f8f565b611030565b60007fffffffff0000000000000000000000000000000000000000000000000000000082167f7965db0b0000000000000000000000000000000000000000000000000000000014806105f057507f01ffc9a7000000000000000000000000000000000000000000000000000000007fffffffff000000000000000000000000000000000000000000000000000000008316145b92915050565b600082815260208190526040902060010154610612813361103a565b61061c83836110b8565b505050565b6001600160a01b03811633146106a45760405162461bcd60e51b815260206004820152602f60248201527f416363657373436f6e74726f6c3a2063616e206f6e6c792072656e6f756e636560448201527f20726f6c657320666f722073656c66000000000000000000000000000000000060648201526084015b60405180910390fd5b6106ae8282611156565b5050565b600060606106c1858585610a83565b6107335760405162461bcd60e51b815260206004820152603260248201527f4d696e696d616c466f727761726465723a207369676e617475726520646f657360448201527f206e6f74206d6174636820726571756573740000000000000000000000000000606482015260840161069b565b6107436101008601356001611fcf565b600360006107546020890189611b60565b6001600160a01b03166001600160a01b031681526020019081526020016000208190555060008086604001602081019061078e9190611b60565b6001600160a01b031660e088013560c08901356107af6101208b018b611fe7565b6000806107bf60208f018f611b60565b6040516020016107d395949392919061202e565b60408051601f19818403018152908290526107ed91612066565b600060405180830381858888f193505050503d806000811461082b576040519150601f19603f3d011682016040523d82523d6000602084013e610830565b606091505b509092509050610845603f60e0890135612082565b5a11610853576108536120a4565b90969095509350505050565b6108a761086b846120ba565b83838080601f0160208091040260200160405190810160405280939291908181526020018383808284376000920191909152506111d592505050565b1561061c573060056108bc6020860186611b60565b600360006108cd6020890189611b60565b6001600160a01b031681526020810191909152604001600020546108f76080880160608901611b60565b60a08801356004600061091060808c0160608d01611b60565b6001600160a01b0390811682526020808301939093526040918201600090812060a08e8101358352908552908390205483519883169489019490945291870195909552929093166060850152608084015282015260c00160405160208183030381529060405263dbf0eeef60e01b86868660405160200161099393929190612137565b60408051601f19818403018152908290527f556f183000000000000000000000000000000000000000000000000000000000825261069b9594939291600401612263565b600581815481106109e757600080fd5b906000526020600020016000915090508054610a0290612228565b80601f0160208091040260200160405190810160405280929190818152602001828054610a2e90612228565b8015610a7b5780601f10610a5057610100808354040283529160200191610a7b565b820191906000526020600020905b815481529060010190602001808311610a5e57829003601f168201915b505050505081565b6000610acd610a91856120ba565b84848080601f0160208091040260200160405190810160405280939291908181526020018383808284376000920191909152506111d592505050565b949350505050565b6020808301516001600160a01b039081166000908152600283526040808220815180830190925280549093168152600190920154928201839052914210610b5e5760405162461bcd60e51b815260206004820152600f60248201527f53657373696f6e20457870697265640000000000000000000000000000000000604482015260640161069b565b835181516001600160a01b03908116911614610bbc5760405162461bcd60e51b815260206004820152601560248201527f5369676e6572206e6f7420617574686f72697a65640000000000000000000000604482015260640161069b565b6000610c88610c35866020015187610100015188606001518960a001518a60800151604080516001600160a01b03808816602083015291810186905290841660608201526080810183905260a0810182905260009060c00160405160208183030381529060405280519060200120905095945050505050565b6040517f19457468657265756d205369676e6564204d6573736167653a0a3332000000006020820152603c8101829052600090605c01604051602081830303815290604052805190602001209050919050565b6001549091506001600160a01b0316610ca182866112f9565b6001600160a01b03161495945050505050565b6040517fffb703ee0000000000000000000000000000000000000000000000000000000081523360048201526000196024820152309063ffb703ee90604401600060405180830381600087803b158015610d0d57600080fd5b505af1158015610d21573d6000803e3d6000fd5b50505050565b600082815260208190526040902060010154610d43813361103a565b61061c8383611156565b600060608180610d5f85870187611e71565b91509150610da38289898080601f016020809104026020016040519081016040528093929190818152602001838380828437600092019190915250610ad592505050565b610e155760405162461bcd60e51b815260206004820152603a60248201527f457373656e7469616c466f727761726465723a206f776e65727368697020707260448201527f6f6f6620646f6573206e6f74206d617463682072657175657374000000000000606482015260840161069b565b610e1f82826111d5565b610e915760405162461bcd60e51b815260206004820152603460248201527f457373656e7469616c466f727761726465723a207369676e617475726520646f60448201527f6573206e6f74206d617463682072657175657374000000000000000000000000606482015260840161069b565b81516001600160a01b031660009081526003602052604081208054909190610eb8906123d3565b9091555060608201516001600160a01b0316600090815260046020908152604080832060a0860151845290915281208054909190610ef5906123d3565b9190508190555060008083604001516001600160a01b03168460e0015160008661012001518760a0015188606001518960200151604051602001610f3c94939291906123ee565b60408051601f1981840301815290829052610f5691612066565b600060405180830381858888f193505050503d8060008114610f94576040519150601f19603f3d011682016040523d82523d6000602084013e610f99565b606091505b5091509150603f8460e00151610faf9190612082565b5a11610fbd57610fbd6120a4565b909450925050505b94509492505050565b7fa49807205ce4d355092ef5a8a18f56e8913cf4a201fbe287825b095693c21775610ff9813361103a565b600180547fffffffffffffffffffffffff0000000000000000000000000000000000000000166001600160a01b0384161790555050565b6106ae828261131d565b6000828152602081815260408083206001600160a01b038516845290915290205460ff166106ae57611076816001600160a01b031660146113c7565b6110818360206113c7565b604051602001611092929190612432565b60408051601f198184030181529082905262461bcd60e51b825261069b91600401611cce565b6000828152602081815260408083206001600160a01b038516845290915290205460ff166106ae576000828152602081815260408083206001600160a01b03851684529091529020805460ff191660011790556111123390565b6001600160a01b0316816001600160a01b0316837f2f8788117e7eff1d82e926ec794901d17c78024a50270940304540a733656f0d60405160405180910390a45050565b6000828152602081815260408083206001600160a01b038516845290915290205460ff16156106ae576000828152602081815260408083206001600160a01b0385168085529252808320805460ff1916905551339285917ff6391f5c32d9c69d2a47ea670b442974b53935d1edc7fd64eb21e047a839171b9190a45050565b6000806112b6836112b07fe9020ed6f4388239f345839ee2632ab28a7fc970b20ed7d68dc51ca3e401e8918760400151886000015189602001518a606001518b61010001518c608001518d60a001518e610120015180519060200120604051602001611295999897969594939291909889526001600160a01b0397881660208a01529587166040890152938616606088015291909416608086015260a085019390935260c084019290925260e08301919091526101008201526101200190565b604051602081830303815290604052805190602001206115f7565b906112f9565b61010085015185516001600160a01b0316600090815260036020526040902054919250148015610acd575083516001600160a01b03828116911614949350505050565b60008060006113088585611660565b91509150611315816116d0565b509392505050565b6040518060400160405280836001600160a01b0316815260200182426113439190611fcf565b9052336000818152600260209081526040808320855181547fffffffffffffffffffffffff0000000000000000000000000000000000000000166001600160a01b039182161782559590920151600190920191909155518493861692917f1170e4b3e143a792ce7a7af268ecfe7d7b0574438d8040eb89c2bf5b7e6e15d891a45050565b606060006113d68360026124b3565b6113e1906002611fcf565b67ffffffffffffffff8111156113f9576113f9611ce1565b6040519080825280601f01601f191660200182016040528015611423576020820181803683370190505b5090507f30000000000000000000000000000000000000000000000000000000000000008160008151811061145a5761145a6124d2565b60200101907effffffffffffffffffffffffffffffffffffffffffffffffffffffffffffff1916908160001a9053507f7800000000000000000000000000000000000000000000000000000000000000816001815181106114bd576114bd6124d2565b60200101907effffffffffffffffffffffffffffffffffffffffffffffffffffffffffffff1916908160001a90535060006114f98460026124b3565b611504906001611fcf565b90505b60018111156115a1577f303132333435363738396162636465660000000000000000000000000000000085600f1660108110611545576115456124d2565b1a60f81b82828151811061155b5761155b6124d2565b60200101907effffffffffffffffffffffffffffffffffffffffffffffffffffffffffffff1916908160001a90535060049490941c9361159a816124e8565b9050611507565b5083156115f05760405162461bcd60e51b815260206004820181905260248201527f537472696e67733a20686578206c656e67746820696e73756666696369656e74604482015260640161069b565b9392505050565b60006105f06116046118c4565b836040517f19010000000000000000000000000000000000000000000000000000000000006020820152602281018390526042810182905260009060620160405160208183030381529060405280519060200120905092915050565b6000808251604114156116975760208301516040840151606085015160001a61168b878285856119b7565b945094505050506116c9565b8251604014156116c157602083015160408401516116b6868383611aa1565b9350935050506116c9565b506000905060025b9250929050565b60008160048111156116e4576116e46124ff565b14156116ed5750565b6001816004811115611701576117016124ff565b141561174f5760405162461bcd60e51b815260206004820152601860248201527f45434453413a20696e76616c6964207369676e61747572650000000000000000604482015260640161069b565b6002816004811115611763576117636124ff565b14156117b15760405162461bcd60e51b815260206004820152601f60248201527f45434453413a20696e76616c6964207369676e6174757265206c656e67746800604482015260640161069b565b60038160048111156117c5576117c56124ff565b14156118395760405162461bcd60e51b815260206004820152602260248201527f45434453413a20696e76616c6964207369676e6174757265202773272076616c60448201527f7565000000000000000000000000000000000000000000000000000000000000606482015260840161069b565b600481600481111561184d5761184d6124ff565b14156118c15760405162461bcd60e51b815260206004820152602260248201527f45434453413a20696e76616c6964207369676e6174757265202776272076616c60448201527f7565000000000000000000000000000000000000000000000000000000000000606482015260840161069b565b50565b60007f000000000000000000000000000000000000000000000000000000000000000046141561191357507f000000000000000000000000000000000000000000000000000000000000000090565b50604080517f00000000000000000000000000000000000000000000000000000000000000006020808301919091527f0000000000000000000000000000000000000000000000000000000000000000828401527f000000000000000000000000000000000000000000000000000000000000000060608301523060808301524660a0808401919091528351808403909101815260c0909201909252805191012090565b6000807f7fffffffffffffffffffffffffffffff5d576e7357a4501ddfe92f46681b20a08311156119ee5750600090506003610fc5565b8460ff16601b14158015611a0657508460ff16601c14155b15611a175750600090506004610fc5565b6040805160008082526020820180845289905260ff881692820192909252606081018690526080810185905260019060a0016020604051602081039080840390855afa158015611a6b573d6000803e3d6000fd5b5050604051601f1901519150506001600160a01b038116611a9457600060019250925050610fc5565b9660009650945050505050565b6000807f7fffffffffffffffffffffffffffffffffffffffffffffffffffffffffffffff831660ff84901c601b01611adb878288856119b7565b935093505050935093915050565b600060208284031215611afb57600080fd5b81357fffffffff00000000000000000000000000000000000000000000000000000000811681146115f057600080fd5b600060208284031215611b3d57600080fd5b5035919050565b80356001600160a01b0381168114611b5b57600080fd5b919050565b600060208284031215611b7257600080fd5b6115f082611b44565b60008060408385031215611b8e57600080fd5b82359150611b9e60208401611b44565b90509250929050565b60008083601f840112611bb957600080fd5b50813567ffffffffffffffff811115611bd157600080fd5b6020830191508360208285010111156116c957600080fd5b600080600060408486031215611bfe57600080fd5b833567ffffffffffffffff80821115611c1657600080fd5b908501906101408288031215611c2b57600080fd5b90935060208501359080821115611c4157600080fd5b50611c4e86828701611ba7565b9497909650939450505050565b60005b83811015611c76578181015183820152602001611c5e565b83811115610d215750506000910152565b60008151808452611c9f816020860160208601611c5b565b601f01601f19169290920160200192915050565b8215158152604060208201526000610acd6040830184611c87565b6020815260006115f06020830184611c87565b634e487b7160e01b600052604160045260246000fd5b604051610140810167ffffffffffffffff81118282101715611d1b57611d1b611ce1565b60405290565b600082601f830112611d3257600080fd5b813567ffffffffffffffff80821115611d4d57611d4d611ce1565b604051601f8301601f19908116603f01168101908282118183101715611d7557611d75611ce1565b81604052838152866020858801011115611d8e57600080fd5b836020870160208301376000602085830101528094505050505092915050565b60006101408284031215611dc157600080fd5b611dc9611cf7565b9050611dd482611b44565b8152611de260208301611b44565b6020820152611df360408301611b44565b6040820152611e0460608301611b44565b60608201526080820135608082015260a082013560a082015260c082013560c082015260e082013560e08201526101008083013581830152506101208083013567ffffffffffffffff811115611e5957600080fd5b611e6585828601611d21565b82840152505092915050565b60008060408385031215611e8457600080fd5b823567ffffffffffffffff80821115611e9c57600080fd5b611ea886838701611dae565b93506020850135915080821115611ebe57600080fd5b50611ecb85828601611d21565b9150509250929050565b600080600080600060a08688031215611eed57600080fd5b611ef686611b44565b945060208601359350611f0b60408701611b44565b94979396509394606081013594506080013592915050565b60008060008060408587031215611f3957600080fd5b843567ffffffffffffffff80821115611f5157600080fd5b611f5d88838901611ba7565b90965094506020870135915080821115611f7657600080fd5b50611f8387828801611ba7565b95989497509550505050565b60008060408385031215611fa257600080fd5b611fab83611b44565b946020939093013593505050565b634e487b7160e01b600052601160045260246000fd5b60008219821115611fe257611fe2611fb9565b500190565b6000808335601e19843603018112611ffe57600080fd5b83018035915067ffffffffffffffff82111561201957600080fd5b6020019150368190038213156116c957600080fd5b84868237909301918252606090811b6bffffffffffffffffffffffff19908116602084015292901b9091166034820152604801919050565b60008251612078818460208701611c5b565b9190910192915050565b60008261209f57634e487b7160e01b600052601260045260246000fd5b500490565b634e487b7160e01b600052600160045260246000fd5b60006105f03683611dae565b6000808335601e198436030181126120dd57600080fd5b830160208101925035905067ffffffffffffffff8111156120fd57600080fd5b8036038313156116c957600080fd5b818352818160208501375060006020828401015260006020601f19601f840116840101905092915050565b604081526121586040820161214b86611b44565b6001600160a01b03169052565b600061216660208601611b44565b6001600160a01b0316606083015261218060408601611b44565b6001600160a01b0316608083015261219a60608601611b44565b6001600160a01b03811660a084015250608085013560c083015260a085013560e083015261010060c08601358184015261012060e08701358185015261014082880135818601526121ed828901896120c6565b9350915080610160860152506122086101808501838361210c565b915050828103602084015261221e81858761210c565b9695505050505050565b600181811c9082168061223c57607f821691505b6020821081141561225d57634e487b7160e01b600052602260045260246000fd5b50919050565b600060a082016001600160a01b0388168352602060a08185015281885480845260c08601915060c08160051b870101935060008a8152838120815b83811015612373578887037fffffffffffffffffffffffffffffffffffffffffffffffffffffffffffffff4001855281548390600181811c90808316806122e657607f831692505b8a831081141561230457634e487b7160e01b88526022600452602488fd5b828c5260208c0181801561231f57600181146123305761235a565b60ff19861682528c8201965061235a565b6000898152602090208a5b8681101561235457815484820152908501908e0161233b565b83019750505b50949b505097890197949094019350505060010161229e565b505050505050828103604084015261238b8187611c87565b7fffffffff0000000000000000000000000000000000000000000000000000000086166060850152905082810360808401526123c78185611c87565b98975050505050505050565b60006000198214156123e7576123e7611fb9565b5060010190565b60008551612400818460208a01611c5b565b91909101938452506bffffffffffffffffffffffff19606092831b81166020850152911b166034820152604801919050565b7f416363657373436f6e74726f6c3a206163636f756e742000000000000000000081526000835161246a816017850160208801611c5b565b7f206973206d697373696e6720726f6c652000000000000000000000000000000060179184019182015283516124a7816028840160208801611c5b565b01602801949350505050565b60008160001904831182151516156124cd576124cd611fb9565b500290565b634e487b7160e01b600052603260045260246000fd5b6000816124f7576124f7611fb9565b506000190190565b634e487b7160e01b600052602160045260246000fdfea2646970667358221220d010576b0c914c58351c21cf1921fb26aff1070707ffbd061057b14f3099585664736f6c63430008090033",
  "devdoc": {
    "author": "0xEssential",
    "details": "Allows a Relayer to submit meta-transactions that utilize an NFT (i.e. in a game) on behalf of EOAs. Transactions      are only executed if the Relayer provides a signature from a trusted signer. The signature must include the current      owner of the Layer 1 NFT being used, or a Burner EOA the owner has authorized to use its NFTs.      EssentialForwarder can be used to build Layer 2 games that use Layer 1 NFTs without bridging and with superior UX.      End users can specify a Burner EOA from their primary EOA, and then use that burner address to play games.      The Burner EOA can then sign messages for game moves without user interaction without any risk to the NFTs or other      assets owned by the primary EOA.",
    "kind": "dev",
    "methods": {
      "createMessage(address,uint256,address,uint256,uint256)": {
        "details": "The RPC server uses this view function to create the ownership proof",
        "params": {
          "nftContract": "the mainnet contract address for the NFT being utilized",
          "nftOwner": "the address that currently owns the L1 NFT",
          "nonce": "the meta-transaction nonce for account",
          "tokenId": "the tokenId from nftContract for the NFT being utilized"
        },
        "returns": {
          "_0": "the message _ownershipSigner should sign"
        }
      },
      "executeWithProof(bytes,bytes)": {
        "details": "The RPC call and re-submission should be handled by your Relayer client",
        "params": {
          "extraData": "The unaltered bytes in the OffchainLookup extraData error arg",
          "response": "The unaltered bytes reponse from a call made to an RPC based on OffchainLookup args"
        }
      },
      "getRoleAdmin(bytes32)": {
        "details": "Returns the admin role that controls `role`. See {grantRole} and {revokeRole}. To change a role's admin, use {_setRoleAdmin}."
      },
      "grantRole(bytes32,address)": {
        "details": "Grants `role` to `account`. If `account` had not been already granted `role`, emits a {RoleGranted} event. Requirements: - the caller must have ``role``'s admin role."
      },
      "hasRole(bytes32,address)": {
        "details": "Returns `true` if `account` has been granted `role`."
      },
      "invalidateSession()": {
        "details": "For efficiency in PlaySession persistence and lookup, an EOA must authorize      itself"
      },
      "ownershipSigner()": {
        "returns": {
          "_0": "the ownership proof signer address"
        }
      },
      "preflight((address,address,address,address,uint256,uint256,uint256,uint256,uint256,bytes),bytes)": {
        "details": "Per EIP-3668, a valid signature will cause a revert with useful error params."
      },
      "renounceRole(bytes32,address)": {
        "details": "Revokes `role` from the calling account. Roles are often managed via {grantRole} and {revokeRole}: this function's purpose is to provide a mechanism for accounts to lose their privileges if they are compromised (such as when a trusted device is misplaced). If the calling account had been revoked `role`, emits a {RoleRevoked} event. Requirements: - the caller must be `account`."
      },
      "revokeRole(bytes32,address)": {
        "details": "Revokes `role` from `account`. If `account` had been granted `role`, emits a {RoleRevoked} event. Requirements: - the caller must have ``role``'s admin role."
      },
      "supportsInterface(bytes4)": {
        "details": "See {IERC165-supportsInterface}."
      },
      "verify((address,address,address,address,uint256,uint256,uint256,uint256,uint256,bytes),bytes)": {
        "details": "Useful for transactions where the signer is not using a specific NFT, but values are still required in the signature - use the zero address for nftContract and 0 for tokenId"
      },
      "verifyOwnershipProof((address,address,address,address,uint256,uint256,uint256,uint256,uint256,bytes),bytes)": {
        "details": "Ensures that _ownershipSigner signed a message containing (nftOwner OR authorized address, nonce, nftContract, tokenId)",
        "params": {
          "req": "structured data submitted by EOA making a meta-transaction request",
          "signature": "the signature proof created by the ownership signer EOA"
        }
      }
    },
    "title": "EssentialForwarder",
    "version": 1
  },
  "userdoc": {
    "kind": "user",
    "methods": {
      "createMessage(address,uint256,address,uint256,uint256)": {
        "notice": "Construct message that _ownershipSigner must sign as ownership proof"
      },
      "createSession(address,uint256)": {
        "notice": "Allow `authorized` to use your NFTs in a game for `length` seconds. Your NFTs         will not be held in custody or approved for transfer."
      },
      "executeWithProof(bytes,bytes)": {
        "notice": "Re-submit a valid meta-tx request with trusted proof to execute the transaction."
      },
      "getNonce(address)": {
        "notice": "Get current nonce for EOA"
      },
      "getSession(address)": {
        "notice": "Get current session for Primary EOA"
      },
      "invalidateSession()": {
        "notice": "Stop allowing your current authorized burner address to use your NFTs."
      },
      "ownershipSigner()": {
        "notice": "Get ownershipSigner address"
      },
      "preflight((address,address,address,address,uint256,uint256,uint256,uint256,uint256,bytes),bytes)": {
        "notice": "Submit a meta-tx request and signature to check validity and receive         a response with data useful for fetching a trusted proof per EIP-3668."
      },
      "setOwnershipSigner(address)": {
        "notice": "Change the ownership signer"
      },
      "verify((address,address,address,address,uint256,uint256,uint256,uint256,uint256,bytes),bytes)": {
        "notice": "Submit a meta-tx request where a proof of ownership is not required."
      },
      "verifyOwnershipProof((address,address,address,address,uint256,uint256,uint256,uint256,uint256,bytes),bytes)": {
        "notice": "Verify signed OffchainLookup proof against meta-tx request data"
      }
    },
    "notice": "EIP-2771 based MetaTransaction Forwarding Contract with EIP-3668 OffchainLookup for cross-chain token gating",
    "version": 1
  },
  "storageLayout": {
    "storage": [
      {
        "astId": 24,
        "contract": "src/EssentialForwarder.sol:EssentialForwarder",
        "label": "_roles",
        "offset": 0,
        "slot": "0",
        "type": "t_mapping(t_bytes32,t_struct(RoleData)19_storage)"
      },
      {
        "astId": 1971,
        "contract": "src/EssentialForwarder.sol:EssentialForwarder",
        "label": "_ownershipSigner",
        "offset": 0,
        "slot": "1",
        "type": "t_address"
      },
      {
        "astId": 1976,
        "contract": "src/EssentialForwarder.sol:EssentialForwarder",
        "label": "_sessions",
        "offset": 0,
        "slot": "2",
        "type": "t_mapping(t_address,t_struct(PlaySession)1955_storage)"
      },
      {
        "astId": 1476,
        "contract": "src/EssentialForwarder.sol:EssentialForwarder",
        "label": "_nonces",
        "offset": 0,
        "slot": "3",
        "type": "t_mapping(t_address,t_uint256)"
      },
      {
        "astId": 1482,
        "contract": "src/EssentialForwarder.sol:EssentialForwarder",
        "label": "_tokenNonces",
        "offset": 0,
        "slot": "4",
        "type": "t_mapping(t_address,t_mapping(t_uint256,t_uint256))"
      },
      {
        "astId": 1485,
        "contract": "src/EssentialForwarder.sol:EssentialForwarder",
        "label": "urls",
        "offset": 0,
        "slot": "5",
        "type": "t_array(t_string_storage)dyn_storage"
      }
    ],
    "types": {
      "t_address": {
        "encoding": "inplace",
        "label": "address",
        "numberOfBytes": "20"
      },
      "t_array(t_string_storage)dyn_storage": {
        "base": "t_string_storage",
        "encoding": "dynamic_array",
        "label": "string[]",
        "numberOfBytes": "32"
      },
      "t_bool": {
        "encoding": "inplace",
        "label": "bool",
        "numberOfBytes": "1"
      },
      "t_bytes32": {
        "encoding": "inplace",
        "label": "bytes32",
        "numberOfBytes": "32"
      },
      "t_mapping(t_address,t_bool)": {
        "encoding": "mapping",
        "key": "t_address",
        "label": "mapping(address => bool)",
        "numberOfBytes": "32",
        "value": "t_bool"
      },
      "t_mapping(t_address,t_mapping(t_uint256,t_uint256))": {
        "encoding": "mapping",
        "key": "t_address",
        "label": "mapping(address => mapping(uint256 => uint256))",
        "numberOfBytes": "32",
        "value": "t_mapping(t_uint256,t_uint256)"
      },
      "t_mapping(t_address,t_struct(PlaySession)1955_storage)": {
        "encoding": "mapping",
        "key": "t_address",
        "label": "mapping(address => struct IForwardRequest.PlaySession)",
        "numberOfBytes": "32",
        "value": "t_struct(PlaySession)1955_storage"
      },
      "t_mapping(t_address,t_uint256)": {
        "encoding": "mapping",
        "key": "t_address",
        "label": "mapping(address => uint256)",
        "numberOfBytes": "32",
        "value": "t_uint256"
      },
      "t_mapping(t_bytes32,t_struct(RoleData)19_storage)": {
        "encoding": "mapping",
        "key": "t_bytes32",
        "label": "mapping(bytes32 => struct AccessControl.RoleData)",
        "numberOfBytes": "32",
        "value": "t_struct(RoleData)19_storage"
      },
      "t_mapping(t_uint256,t_uint256)": {
        "encoding": "mapping",
        "key": "t_uint256",
        "label": "mapping(uint256 => uint256)",
        "numberOfBytes": "32",
        "value": "t_uint256"
      },
      "t_string_storage": {
        "encoding": "bytes",
        "label": "string",
        "numberOfBytes": "32"
      },
      "t_struct(PlaySession)1955_storage": {
        "encoding": "inplace",
        "label": "struct IForwardRequest.PlaySession",
        "members": [
          {
            "astId": 1952,
            "contract": "src/EssentialForwarder.sol:EssentialForwarder",
            "label": "authorized",
            "offset": 0,
            "slot": "0",
            "type": "t_address"
          },
          {
            "astId": 1954,
            "contract": "src/EssentialForwarder.sol:EssentialForwarder",
            "label": "expiresAt",
            "offset": 0,
            "slot": "1",
            "type": "t_uint256"
          }
        ],
        "numberOfBytes": "64"
      },
      "t_struct(RoleData)19_storage": {
        "encoding": "inplace",
        "label": "struct AccessControl.RoleData",
        "members": [
          {
            "astId": 16,
            "contract": "src/EssentialForwarder.sol:EssentialForwarder",
            "label": "members",
            "offset": 0,
            "slot": "0",
            "type": "t_mapping(t_address,t_bool)"
          },
          {
            "astId": 18,
            "contract": "src/EssentialForwarder.sol:EssentialForwarder",
            "label": "adminRole",
            "offset": 0,
            "slot": "1",
            "type": "t_bytes32"
          }
        ],
        "numberOfBytes": "64"
      },
      "t_uint256": {
        "encoding": "inplace",
        "label": "uint256",
        "numberOfBytes": "32"
      }
    }
  }
}