{
  "address": "0xA6049951bBc727827439f0A136B14607A91dE178",
  "abi": [
    {
      "inputs": [
        {
          "internalType": "string",
          "name": "name",
          "type": "string"
        },
        {
          "internalType": "string[]",
          "name": "_urls",
          "type": "string[]"
        }
      ],
      "stateMutability": "nonpayable",
      "type": "constructor"
    },
    {
      "inputs": [
        {
          "internalType": "address",
          "name": "sender",
          "type": "address"
        },
        {
          "internalType": "string[]",
          "name": "urls",
          "type": "string[]"
        },
        {
          "internalType": "bytes",
          "name": "callData",
          "type": "bytes"
        },
        {
          "internalType": "bytes4",
          "name": "callbackFunction",
          "type": "bytes4"
        },
        {
          "internalType": "bytes",
          "name": "extraData",
          "type": "bytes"
        }
      ],
      "name": "OffchainLookup",
      "type": "error"
    },
    {
      "anonymous": false,
      "inputs": [
        {
          "indexed": true,
          "internalType": "bytes32",
          "name": "role",
          "type": "bytes32"
        },
        {
          "indexed": true,
          "internalType": "bytes32",
          "name": "previousAdminRole",
          "type": "bytes32"
        },
        {
          "indexed": true,
          "internalType": "bytes32",
          "name": "newAdminRole",
          "type": "bytes32"
        }
      ],
      "name": "RoleAdminChanged",
      "type": "event"
    },
    {
      "anonymous": false,
      "inputs": [
        {
          "indexed": true,
          "internalType": "bytes32",
          "name": "role",
          "type": "bytes32"
        },
        {
          "indexed": true,
          "internalType": "address",
          "name": "account",
          "type": "address"
        },
        {
          "indexed": true,
          "internalType": "address",
          "name": "sender",
          "type": "address"
        }
      ],
      "name": "RoleGranted",
      "type": "event"
    },
    {
      "anonymous": false,
      "inputs": [
        {
          "indexed": true,
          "internalType": "bytes32",
          "name": "role",
          "type": "bytes32"
        },
        {
          "indexed": true,
          "internalType": "address",
          "name": "account",
          "type": "address"
        },
        {
          "indexed": true,
          "internalType": "address",
          "name": "sender",
          "type": "address"
        }
      ],
      "name": "RoleRevoked",
      "type": "event"
    },
    {
      "anonymous": false,
      "inputs": [
        {
          "indexed": true,
          "internalType": "address",
          "name": "owner",
          "type": "address"
        },
        {
          "indexed": true,
          "internalType": "address",
          "name": "authorized",
          "type": "address"
        },
        {
          "indexed": true,
          "internalType": "uint256",
          "name": "length",
          "type": "uint256"
        }
      ],
      "name": "Session",
      "type": "event"
    },
    {
      "inputs": [],
      "name": "ADMIN_ROLE",
      "outputs": [
        {
          "internalType": "bytes32",
          "name": "",
          "type": "bytes32"
        }
      ],
      "stateMutability": "view",
      "type": "function"
    },
    {
      "inputs": [],
      "name": "DEFAULT_ADMIN_ROLE",
      "outputs": [
        {
          "internalType": "bytes32",
          "name": "",
          "type": "bytes32"
        }
      ],
      "stateMutability": "view",
      "type": "function"
    },
    {
      "inputs": [
        {
          "internalType": "address",
          "name": "nftOwner",
          "type": "address"
        },
        {
          "internalType": "uint256",
          "name": "nonce",
          "type": "uint256"
        },
        {
          "internalType": "address",
          "name": "nftContract",
          "type": "address"
        },
        {
          "internalType": "uint256",
          "name": "tokenId",
          "type": "uint256"
        }
      ],
      "name": "createMessage",
      "outputs": [
        {
          "internalType": "bytes32",
          "name": "",
          "type": "bytes32"
        }
      ],
      "stateMutability": "pure",
      "type": "function"
    },
    {
      "inputs": [
        {
          "internalType": "address",
          "name": "authorized",
          "type": "address"
        },
        {
          "internalType": "uint256",
          "name": "length",
          "type": "uint256"
        }
      ],
      "name": "createSession",
      "outputs": [],
      "stateMutability": "nonpayable",
      "type": "function"
    },
    {
      "inputs": [
        {
          "internalType": "bytes",
          "name": "signature",
          "type": "bytes"
        },
        {
          "internalType": "address",
          "name": "authorized",
          "type": "address"
        },
        {
          "internalType": "uint256",
          "name": "length",
          "type": "uint256"
        },
        {
          "internalType": "address",
          "name": "sender",
          "type": "address"
        }
      ],
      "name": "createSignedSession",
      "outputs": [],
      "stateMutability": "nonpayable",
      "type": "function"
    },
    {
      "inputs": [
        {
          "internalType": "bytes",
          "name": "response",
          "type": "bytes"
        },
        {
          "internalType": "bytes",
          "name": "extraData",
          "type": "bytes"
        }
      ],
      "name": "executeWithProof",
      "outputs": [
        {
          "internalType": "bool",
          "name": "",
          "type": "bool"
        },
        {
          "internalType": "bytes",
          "name": "",
          "type": "bytes"
        }
      ],
      "stateMutability": "payable",
      "type": "function"
    },
    {
      "inputs": [
        {
          "internalType": "address",
          "name": "from",
          "type": "address"
        }
      ],
      "name": "getNonce",
      "outputs": [
        {
          "internalType": "uint256",
          "name": "",
          "type": "uint256"
        }
      ],
      "stateMutability": "view",
      "type": "function"
    },
    {
      "inputs": [
        {
          "internalType": "bytes32",
          "name": "role",
          "type": "bytes32"
        }
      ],
      "name": "getRoleAdmin",
      "outputs": [
        {
          "internalType": "bytes32",
          "name": "",
          "type": "bytes32"
        }
      ],
      "stateMutability": "view",
      "type": "function"
    },
    {
      "inputs": [],
      "name": "getSession",
      "outputs": [
        {
          "components": [
            {
              "internalType": "address",
              "name": "authorized",
              "type": "address"
            },
            {
              "internalType": "uint256",
              "name": "expiresAt",
              "type": "uint256"
            }
          ],
          "internalType": "struct IForwardRequest.PlaySession",
          "name": "",
          "type": "tuple"
        }
      ],
      "stateMutability": "view",
      "type": "function"
    },
    {
      "inputs": [
        {
          "internalType": "bytes32",
          "name": "role",
          "type": "bytes32"
        },
        {
          "internalType": "address",
          "name": "account",
          "type": "address"
        }
      ],
      "name": "grantRole",
      "outputs": [],
      "stateMutability": "nonpayable",
      "type": "function"
    },
    {
      "inputs": [
        {
          "internalType": "bytes32",
          "name": "role",
          "type": "bytes32"
        },
        {
          "internalType": "address",
          "name": "account",
          "type": "address"
        }
      ],
      "name": "hasRole",
      "outputs": [
        {
          "internalType": "bool",
          "name": "",
          "type": "bool"
        }
      ],
      "stateMutability": "view",
      "type": "function"
    },
    {
      "inputs": [],
      "name": "invalidateSession",
      "outputs": [],
      "stateMutability": "nonpayable",
      "type": "function"
    },
    {
      "inputs": [],
      "name": "ownershipSigner",
      "outputs": [
        {
          "internalType": "address",
          "name": "",
          "type": "address"
        }
      ],
      "stateMutability": "view",
      "type": "function"
    },
    {
      "inputs": [
        {
          "components": [
            {
              "internalType": "address",
              "name": "from",
              "type": "address"
            },
            {
              "internalType": "address",
              "name": "authorizer",
              "type": "address"
            },
            {
              "internalType": "address",
              "name": "to",
              "type": "address"
            },
            {
              "internalType": "address",
              "name": "nftContract",
              "type": "address"
            },
            {
              "internalType": "uint256",
              "name": "tokenId",
              "type": "uint256"
            },
            {
              "internalType": "uint256",
              "name": "value",
              "type": "uint256"
            },
            {
              "internalType": "uint256",
              "name": "gas",
              "type": "uint256"
            },
            {
              "internalType": "uint256",
              "name": "nonce",
              "type": "uint256"
            },
            {
              "internalType": "bytes",
              "name": "data",
              "type": "bytes"
            }
          ],
          "internalType": "struct IForwardRequest.ForwardRequest",
          "name": "req",
          "type": "tuple"
        },
        {
          "internalType": "bytes",
          "name": "signature",
          "type": "bytes"
        }
      ],
      "name": "preflight",
      "outputs": [],
      "stateMutability": "view",
      "type": "function"
    },
    {
      "inputs": [
        {
          "internalType": "bytes32",
          "name": "role",
          "type": "bytes32"
        },
        {
          "internalType": "address",
          "name": "account",
          "type": "address"
        }
      ],
      "name": "renounceRole",
      "outputs": [],
      "stateMutability": "nonpayable",
      "type": "function"
    },
    {
      "inputs": [
        {
          "internalType": "bytes32",
          "name": "role",
          "type": "bytes32"
        },
        {
          "internalType": "address",
          "name": "account",
          "type": "address"
        }
      ],
      "name": "revokeRole",
      "outputs": [],
      "stateMutability": "nonpayable",
      "type": "function"
    },
    {
      "inputs": [
        {
          "internalType": "address",
          "name": "newSigner",
          "type": "address"
        }
      ],
      "name": "setOwnershipSigner",
      "outputs": [],
      "stateMutability": "nonpayable",
      "type": "function"
    },
    {
      "inputs": [
        {
          "internalType": "bytes4",
          "name": "interfaceId",
          "type": "bytes4"
        }
      ],
      "name": "supportsInterface",
      "outputs": [
        {
          "internalType": "bool",
          "name": "",
          "type": "bool"
        }
      ],
      "stateMutability": "view",
      "type": "function"
    },
    {
      "inputs": [
        {
          "internalType": "uint256",
          "name": "",
          "type": "uint256"
        }
      ],
      "name": "urls",
      "outputs": [
        {
          "internalType": "string",
          "name": "",
          "type": "string"
        }
      ],
      "stateMutability": "view",
      "type": "function"
    },
    {
      "inputs": [
        {
          "components": [
            {
              "internalType": "address",
              "name": "from",
              "type": "address"
            },
            {
              "internalType": "address",
              "name": "authorizer",
              "type": "address"
            },
            {
              "internalType": "address",
              "name": "to",
              "type": "address"
            },
            {
              "internalType": "address",
              "name": "nftContract",
              "type": "address"
            },
            {
              "internalType": "uint256",
              "name": "tokenId",
              "type": "uint256"
            },
            {
              "internalType": "uint256",
              "name": "value",
              "type": "uint256"
            },
            {
              "internalType": "uint256",
              "name": "gas",
              "type": "uint256"
            },
            {
              "internalType": "uint256",
              "name": "nonce",
              "type": "uint256"
            },
            {
              "internalType": "bytes",
              "name": "data",
              "type": "bytes"
            }
          ],
          "internalType": "struct IForwardRequest.ForwardRequest",
          "name": "req",
          "type": "tuple"
        },
        {
          "internalType": "bytes",
          "name": "signature",
          "type": "bytes"
        }
      ],
      "name": "verifyOwnershipProof",
      "outputs": [
        {
          "internalType": "bool",
          "name": "",
          "type": "bool"
        }
      ],
      "stateMutability": "view",
      "type": "function"
    }
  ],
  "transactionHash": "0x22c758252cd1cb5d462c514cda3a466615403036b1c419d20f0cd7dd961222e1",
  "args": [
    "0xEssential PlaySession",
    [
      "https://middleware.nfight.xyz"
    ]
  ],
  "numDeployments": 5,
  "solcInputHash": "d8a240ea8153405bdc68da5ac1b17dd4",
  "bytecode": "0x6101406040523480156200001257600080fd5b506040516200298738038062002987833981016040819052620000359162000455565b6040805180820182526005815264302e302e3160d81b60209182015283518482012060e08190527fae209a0b48f21c054280f2455d32cf309387644879d9acbd8ffc1991638118856101008190524660a081815285517f8b73c3c69bb8fe3d512ecc4cf759cc79239f7b179b0ffacaa9a75d522b39400f818701819052818801959095526060810193909352608080840192909252308382018190528651808503909201825260c0938401909652805194019390932090925291905261012052620001026000336200015e565b6200012e7fa49807205ce4d355092ef5a8a18f56e8913cf4a201fbe287825b095693c21775336200015e565b600180546001600160a01b031916331790558051620001559060049060208401906200020e565b50505062000589565b6200016a82826200016e565b5050565b6000828152602081815260408083206001600160a01b038516845290915290205460ff166200016a576000828152602081815260408083206001600160a01b03851684529091529020805460ff19166001179055620001ca3390565b6001600160a01b0316816001600160a01b0316837f2f8788117e7eff1d82e926ec794901d17c78024a50270940304540a733656f0d60405160405180910390a45050565b82805482825590600052602060002090810192821562000260579160200282015b828111156200026057825180516200024f91849160209091019062000272565b50916020019190600101906200022f565b506200026e929150620002fd565b5090565b82805462000280906200054c565b90600052602060002090601f016020900481019282620002a45760008555620002ef565b82601f10620002bf57805160ff1916838001178555620002ef565b82800160010185558215620002ef579182015b82811115620002ef578251825591602001919060010190620002d2565b506200026e9291506200031e565b808211156200026e57600062000314828262000335565b50600101620002fd565b5b808211156200026e57600081556001016200031f565b50805462000343906200054c565b6000825580601f1062000354575050565b601f0160209004906000526020600020908101906200037491906200031e565b50565b634e487b7160e01b600052604160045260246000fd5b604051601f8201601f191681016001600160401b0381118282101715620003b857620003b862000377565b604052919050565b600082601f830112620003d257600080fd5b81516001600160401b03811115620003ee57620003ee62000377565b602062000404601f8301601f191682016200038d565b82815285828487010111156200041957600080fd5b60005b83811015620004395785810183015182820184015282016200041c565b838111156200044b5760008385840101525b5095945050505050565b600080604083850312156200046957600080fd5b82516001600160401b03808211156200048157600080fd5b6200048f86838701620003c0565b9350602091508185015181811115620004a757600080fd5b8501601f81018713620004b957600080fd5b805182811115620004ce57620004ce62000377565b8060051b620004df8582016200038d565b918252828101850191858101908a841115620004fa57600080fd5b86850192505b838310156200053b578251868111156200051a5760008081fd5b6200052a8c8983890101620003c0565b835250918601919086019062000500565b809750505050505050509250929050565b600181811c908216806200056157607f821691505b602082108114156200058357634e487b7160e01b600052602260045260246000fd5b50919050565b60805160a05160c05160e05161010051610120516123ae620005d960003960006117a7015260006117f6015260006117d10152600061172a015260006117540152600061177e01526123ae6000f3fe60806040526004361061015f5760003560e01c8063796676be116100c0578063d547741f11610074578063f2cde3ef11610059578063f2cde3ef14610492578063fa1b035a146104b2578063ffb703ee146104d257600080fd5b8063d547741f14610451578063dbf0eeef1461047157600080fd5b80639c48439f116100a55780639c48439f14610407578063a217fddf14610427578063be0fb87e1461043c57600080fd5b8063796676be1461039657806391d14854146103c357600080fd5b80632f2ff15d1161011757806336ff5f30116100fc57806336ff5f30146102e157806375b238fc146103015780637909e08c1461033557600080fd5b80632f2ff15d1461029f57806336568abe146102c157600080fd5b80631a929fb1116101485780631a929fb1146101c1578063248a9ca3146102395780632d0335ab1461026957600080fd5b806301ffc9a71461016457806312ce42fd14610199575b600080fd5b34801561017057600080fd5b5061018461017f366004611976565b6104f2565b60405190151581526020015b60405180910390f35b3480156101a557600080fd5b506001546040516001600160a01b039091168152602001610190565b3480156101cd57600080fd5b5061022b6101dc3660046119d4565b604080516001600160a01b03808716602083015291810185905290831660608201526080810182905260009060a001604051602081830303815290604052805190602001209050949350505050565b604051908152602001610190565b34801561024557600080fd5b5061022b610254366004611a18565b60009081526020819052604090206001015490565b34801561027557600080fd5b5061022b610284366004611a31565b6001600160a01b031660009081526003602052604090205490565b3480156102ab57600080fd5b506102bf6102ba366004611a4c565b61058b565b005b3480156102cd57600080fd5b506102bf6102dc366004611a4c565b6105b6565b3480156102ed57600080fd5b506102bf6102fc366004611aba565b610647565b34801561030d57600080fd5b5061022b7fa49807205ce4d355092ef5a8a18f56e8913cf4a201fbe287825b095693c2177581565b34801561034157600080fd5b5060408051808201825260008082526020918201819052338152600282528290208251808401845281546001600160a01b03168082526001909201549083019081528351918252519181019190915201610190565b3480156103a257600080fd5b506103b66103b1366004611a18565b610794565b6040516101909190611b84565b3480156103cf57600080fd5b506101846103de366004611a4c565b6000918252602082815260408084206001600160a01b0393909316845291905290205460ff1690565b34801561041357600080fd5b50610184610422366004611d1b565b610840565b34801561043357600080fd5b5061022b600081565b34801561044857600080fd5b506102bf610a11565b34801561045d57600080fd5b506102bf61046c366004611a4c565b610a84565b61048461047f366004611d7f565b610aaa565b604051610190929190611deb565b34801561049e57600080fd5b506102bf6104ad366004611a31565b610cf1565b3480156104be57600080fd5b506102bf6104cd366004611e06565b610d53565b3480156104de57600080fd5b506102bf6104ed366004611e75565b610eab565b60007fffffffff0000000000000000000000000000000000000000000000000000000082167f7965db0b00000000000000000000000000000000000000000000000000000000148061058557507f01ffc9a7000000000000000000000000000000000000000000000000000000007fffffffff000000000000000000000000000000000000000000000000000000008316145b92915050565b6000828152602081905260409020600101546105a78133610eb5565b6105b18383610f33565b505050565b6001600160a01b03811633146106395760405162461bcd60e51b815260206004820152602f60248201527f416363657373436f6e74726f6c3a2063616e206f6e6c792072656e6f756e636560448201527f20726f6c657320666f722073656c66000000000000000000000000000000000060648201526084015b60405180910390fd5b6106438282610fd1565b5050565b61068f61065384611e9f565b83838080601f01602080910402602001604051908101604052809392919081815260200183838082843760009201919091525061105092505050565b156105b1573060046106a46020860186611a31565b600360006106b56020890189611a31565b6001600160a01b031681526020810191909152604001600020546106df6080880160608901611a31565b604080516001600160a01b0394851660208201528082019390935292166060820152608087810135818301528251808303909101815260a082019092527fdbf0eeef00000000000000000000000000000000000000000000000000000000906107509088908890889060c001611f3a565b60408051601f19818403018152908290527f556f18300000000000000000000000000000000000000000000000000000000082526106309594939291600401612059565b600481815481106107a457600080fd5b9060005260206000200160009150905080546107bf9061201e565b80601f01602080910402602001604051908101604052809291908181526020018280546107eb9061201e565b80156108385780601f1061080d57610100808354040283529160200191610838565b820191906000526020600020905b81548152906001019060200180831161081b57829003601f168201915b505050505081565b6020808301516001600160a01b0390811660009081526002835260408082208151808301909252805490931681526001909201549282018390529142106108c95760405162461bcd60e51b815260206004820152600f60248201527f53657373696f6e204578706972656400000000000000000000000000000000006044820152606401610630565b835181516001600160a01b039081169116146109275760405162461bcd60e51b815260206004820152601560248201527f5369676e6572206e6f7420617574686f72697a656400000000000000000000006044820152606401610630565b60006109e561099286602001518760e0015188606001518960800151604080516001600160a01b03808716602083015291810185905290831660608201526080810182905260009060a001604051602081830303815290604052805190602001209050949350505050565b6040517f19457468657265756d205369676e6564204d6573736167653a0a3332000000006020820152603c8101829052600090605c01604051602081830303815290604052805190602001209050919050565b6001549091506001600160a01b03166109fe8286611152565b6001600160a01b03161495945050505050565b6040517fffb703ee0000000000000000000000000000000000000000000000000000000081523360048201526000196024820152309063ffb703ee90604401600060405180830381600087803b158015610a6a57600080fd5b505af1158015610a7e573d6000803e3d6000fd5b50505050565b600082815260208190526040902060010154610aa08133610eb5565b6105b18383610fd1565b600060608180610abc85870187611d1b565b91509150610b008289898080601f01602080910402602001604051908101604052809392919081815260200183838082843760009201919091525061084092505050565b610b725760405162461bcd60e51b815260206004820152603560248201527f54657374466f727761726465723a206f776e6572736869702070726f6f66206460448201527f6f6573206e6f74206d61746368207265717565737400000000000000000000006064820152608401610630565b610b7c8282611050565b610bee5760405162461bcd60e51b815260206004820152602f60248201527f54657374466f727761726465723a207369676e617475726520646f6573206e6f60448201527f74206d61746368207265717565737400000000000000000000000000000000006064820152608401610630565b60e0820151610bfe9060016121df565b6003600084600001516001600160a01b03166001600160a01b031681526020019081526020016000208190555060008083604001516001600160a01b03168460c0015160008661010001518760200151604051602001610c5f9291906121f7565b60408051601f1981840301815290829052610c7991612241565b600060405180830381858888f193505050503d8060008114610cb7576040519150601f19603f3d011682016040523d82523d6000602084013e610cbc565b606091505b5091509150603f8460c00151610cd2919061225d565b5a11610ce057610ce061227f565b909450925050505b94509492505050565b7fa49807205ce4d355092ef5a8a18f56e8913cf4a201fbe287825b095693c21775610d1c8133610eb5565b600180547fffffffffffffffffffffffff0000000000000000000000000000000000000000166001600160a01b0384161790555050565b7fa49807205ce4d355092ef5a8a18f56e8913cf4a201fbe287825b095693c21775610d7e8133610eb5565b604080516001600160a01b0384166020808301919091528183018690528251808303840181526060830184528051908201207f19457468657265756d205369676e6564204d6573736167653a0a3332000000006080840152609c808401919091528351808403909101815260bc9092019092528051910120826001600160a01b0316610e4288888080601f01602080910402602001604051908101604052809392919081815260200183838082843760009201919091525086939250506111529050565b6001600160a01b031614610e985760405162461bcd60e51b815260206004820152601d60248201527f506c617953657373696f6e207369676e617475726520696e76616c69640000006044820152606401610630565b610ea28585611176565b50505050505050565b6106438282611176565b6000828152602081815260408083206001600160a01b038516845290915290205460ff1661064357610ef1816001600160a01b03166014611220565b610efc836020611220565b604051602001610f0d929190612295565b60408051601f198184030181529082905262461bcd60e51b825261063091600401611b84565b6000828152602081815260408083206001600160a01b038516845290915290205460ff16610643576000828152602081815260408083206001600160a01b03851684529091529020805460ff19166001179055610f8d3390565b6001600160a01b0316816001600160a01b0316837f2f8788117e7eff1d82e926ec794901d17c78024a50270940304540a733656f0d60405160405180910390a45050565b6000828152602081815260408083206001600160a01b038516845290915290205460ff1615610643576000828152602081815260408083206001600160a01b0385168085529252808320805460ff1916905551339285917ff6391f5c32d9c69d2a47ea670b442974b53935d1edc7fd64eb21e047a839171b9190a45050565b60008061110f836111097fdd8f4b70b0f4393e889bd39128a30628a78b61816a9eb8199759e7a349657e488760000151886040015160008a60c001518b60e001518c6101000151805190602001206040516020016110ee97969594939291909687526001600160a01b03958616602088015293909416604086015260ff919091166060850152608084015260a083019190915260c082015260e00190565b60405160208183030381529060405280519060200120611450565b90611152565b60e085015185516001600160a01b031660009081526003602052604090205491925014801561114a575083516001600160a01b038281169116145b949350505050565b600080600061116185856114b9565b9150915061116e81611529565b509392505050565b6040518060400160405280836001600160a01b03168152602001824261119c91906121df565b9052336000818152600260209081526040808320855181547fffffffffffffffffffffffff0000000000000000000000000000000000000000166001600160a01b039182161782559590920151600190920191909155518493861692917f1170e4b3e143a792ce7a7af268ecfe7d7b0574438d8040eb89c2bf5b7e6e15d891a45050565b6060600061122f836002612316565b61123a9060026121df565b67ffffffffffffffff81111561125257611252611b97565b6040519080825280601f01601f19166020018201604052801561127c576020820181803683370190505b5090507f3000000000000000000000000000000000000000000000000000000000000000816000815181106112b3576112b3612335565b60200101907effffffffffffffffffffffffffffffffffffffffffffffffffffffffffffff1916908160001a9053507f78000000000000000000000000000000000000000000000000000000000000008160018151811061131657611316612335565b60200101907effffffffffffffffffffffffffffffffffffffffffffffffffffffffffffff1916908160001a9053506000611352846002612316565b61135d9060016121df565b90505b60018111156113fa577f303132333435363738396162636465660000000000000000000000000000000085600f166010811061139e5761139e612335565b1a60f81b8282815181106113b4576113b4612335565b60200101907effffffffffffffffffffffffffffffffffffffffffffffffffffffffffffff1916908160001a90535060049490941c936113f38161234b565b9050611360565b5083156114495760405162461bcd60e51b815260206004820181905260248201527f537472696e67733a20686578206c656e67746820696e73756666696369656e746044820152606401610630565b9392505050565b600061058561145d61171d565b836040517f19010000000000000000000000000000000000000000000000000000000000006020820152602281018390526042810182905260009060620160405160208183030381529060405280519060200120905092915050565b6000808251604114156114f05760208301516040840151606085015160001a6114e487828585611844565b94509450505050611522565b82516040141561151a576020830151604084015161150f86838361192e565b935093505050611522565b506000905060025b9250929050565b600081600481111561153d5761153d612362565b14156115465750565b600181600481111561155a5761155a612362565b14156115a85760405162461bcd60e51b815260206004820152601860248201527f45434453413a20696e76616c6964207369676e617475726500000000000000006044820152606401610630565b60028160048111156115bc576115bc612362565b141561160a5760405162461bcd60e51b815260206004820152601f60248201527f45434453413a20696e76616c6964207369676e6174757265206c656e677468006044820152606401610630565b600381600481111561161e5761161e612362565b14156116925760405162461bcd60e51b815260206004820152602260248201527f45434453413a20696e76616c6964207369676e6174757265202773272076616c60448201527f75650000000000000000000000000000000000000000000000000000000000006064820152608401610630565b60048160048111156116a6576116a6612362565b141561171a5760405162461bcd60e51b815260206004820152602260248201527f45434453413a20696e76616c6964207369676e6174757265202776272076616c60448201527f75650000000000000000000000000000000000000000000000000000000000006064820152608401610630565b50565b6000306001600160a01b037f00000000000000000000000000000000000000000000000000000000000000001614801561177657507f000000000000000000000000000000000000000000000000000000000000000046145b156117a057507f000000000000000000000000000000000000000000000000000000000000000090565b50604080517f00000000000000000000000000000000000000000000000000000000000000006020808301919091527f0000000000000000000000000000000000000000000000000000000000000000828401527f000000000000000000000000000000000000000000000000000000000000000060608301524660808301523060a0808401919091528351808403909101815260c0909201909252805191012090565b6000807f7fffffffffffffffffffffffffffffff5d576e7357a4501ddfe92f46681b20a083111561187b5750600090506003610ce8565b8460ff16601b1415801561189357508460ff16601c14155b156118a45750600090506004610ce8565b6040805160008082526020820180845289905260ff881692820192909252606081018690526080810185905260019060a0016020604051602081039080840390855afa1580156118f8573d6000803e3d6000fd5b5050604051601f1901519150506001600160a01b03811661192157600060019250925050610ce8565b9660009650945050505050565b6000807f7fffffffffffffffffffffffffffffffffffffffffffffffffffffffffffffff831660ff84901c601b0161196887828885611844565b935093505050935093915050565b60006020828403121561198857600080fd5b81357fffffffff000000000000000000000000000000000000000000000000000000008116811461144957600080fd5b80356001600160a01b03811681146119cf57600080fd5b919050565b600080600080608085870312156119ea57600080fd5b6119f3856119b8565b935060208501359250611a08604086016119b8565b9396929550929360600135925050565b600060208284031215611a2a57600080fd5b5035919050565b600060208284031215611a4357600080fd5b611449826119b8565b60008060408385031215611a5f57600080fd5b82359150611a6f602084016119b8565b90509250929050565b60008083601f840112611a8a57600080fd5b50813567ffffffffffffffff811115611aa257600080fd5b60208301915083602082850101111561152257600080fd5b600080600060408486031215611acf57600080fd5b833567ffffffffffffffff80821115611ae757600080fd5b908501906101208288031215611afc57600080fd5b90935060208501359080821115611b1257600080fd5b50611b1f86828701611a78565b9497909650939450505050565b60005b83811015611b47578181015183820152602001611b2f565b83811115610a7e5750506000910152565b60008151808452611b70816020860160208601611b2c565b601f01601f19169290920160200192915050565b6020815260006114496020830184611b58565b634e487b7160e01b600052604160045260246000fd5b604051610120810167ffffffffffffffff81118282101715611bd157611bd1611b97565b60405290565b600082601f830112611be857600080fd5b813567ffffffffffffffff80821115611c0357611c03611b97565b604051601f8301601f19908116603f01168101908282118183101715611c2b57611c2b611b97565b81604052838152866020858801011115611c4457600080fd5b836020870160208301376000602085830101528094505050505092915050565b60006101208284031215611c7757600080fd5b611c7f611bad565b9050611c8a826119b8565b8152611c98602083016119b8565b6020820152611ca9604083016119b8565b6040820152611cba606083016119b8565b60608201526080820135608082015260a082013560a082015260c082013560c082015260e082013560e08201526101008083013567ffffffffffffffff811115611d0357600080fd5b611d0f85828601611bd7565b82840152505092915050565b60008060408385031215611d2e57600080fd5b823567ffffffffffffffff80821115611d4657600080fd5b611d5286838701611c64565b93506020850135915080821115611d6857600080fd5b50611d7585828601611bd7565b9150509250929050565b60008060008060408587031215611d9557600080fd5b843567ffffffffffffffff80821115611dad57600080fd5b611db988838901611a78565b90965094506020870135915080821115611dd257600080fd5b50611ddf87828801611a78565b95989497509550505050565b821515815260406020820152600061114a6040830184611b58565b600080600080600060808688031215611e1e57600080fd5b853567ffffffffffffffff811115611e3557600080fd5b611e4188828901611a78565b9096509450611e549050602087016119b8565b925060408601359150611e69606087016119b8565b90509295509295909350565b60008060408385031215611e8857600080fd5b611e91836119b8565b946020939093013593505050565b60006105853683611c64565b60008083357fffffffffffffffffffffffffffffffffffffffffffffffffffffffffffffffe1843603018112611ee057600080fd5b830160208101925035905067ffffffffffffffff811115611f0057600080fd5b80360383131561152257600080fd5b818352818160208501375060006020828401015260006020601f19601f840116840101905092915050565b60408152611f5b60408201611f4e866119b8565b6001600160a01b03169052565b6000611f69602086016119b8565b6001600160a01b03166060830152611f83604086016119b8565b6001600160a01b03166080830152611f9d606086016119b8565b6001600160a01b03811660a084015250608085013560c083015260a085013560e083015261010060c08601358184015261012060e087013581850152611fe582880188611eab565b925081610140860152611ffd61016086018483611f0f565b925050508281036020840152612014818587611f0f565b9695505050505050565b600181811c9082168061203257607f821691505b6020821081141561205357634e487b7160e01b600052602260045260246000fd5b50919050565b600060a082016001600160a01b0388168352602060a08185015281885480845260c08601915060c08160051b870101935060008a8152838120815b83811015612169578887037fffffffffffffffffffffffffffffffffffffffffffffffffffffffffffffff4001855281548390600181811c90808316806120dc57607f831692505b8a83108114156120fa57634e487b7160e01b88526022600452602488fd5b828c5260208c01818015612115576001811461212657612150565b60ff19861682528c82019650612150565b6000898152602090208a5b8681101561214a57815484820152908501908e01612131565b83019750505b50949b5050978901979490940193505050600101612094565b50505050505082810360408401526121818187611b58565b7fffffffff0000000000000000000000000000000000000000000000000000000086166060850152905082810360808401526121bd8185611b58565b98975050505050505050565b634e487b7160e01b600052601160045260246000fd5b600082198211156121f2576121f26121c9565b500190565b60008351612209818460208801611b2c565b60609390931b7fffffffffffffffffffffffffffffffffffffffff000000000000000000000000169190920190815260140192915050565b60008251612253818460208701611b2c565b9190910192915050565b60008261227a57634e487b7160e01b600052601260045260246000fd5b500490565b634e487b7160e01b600052600160045260246000fd5b7f416363657373436f6e74726f6c3a206163636f756e74200000000000000000008152600083516122cd816017850160208801611b2c565b7f206973206d697373696e6720726f6c6520000000000000000000000000000000601791840191820152835161230a816028840160208801611b2c565b01602801949350505050565b6000816000190483118215151615612330576123306121c9565b500290565b634e487b7160e01b600052603260045260246000fd5b60008161235a5761235a6121c9565b506000190190565b634e487b7160e01b600052602160045260246000fdfea2646970667358221220cfeffc593a0045973956a503a455c6c81cfab5593ed6b827825556cd251477a564736f6c63430008090033",
  "devdoc": {
    "author": "0xEssential",
    "details": "Allows a Relayer to submit meta-transactions that utilize an NFT (i.e. in a game) on behalf of EOAs. Transactions      are only executed if the Relayer provides a signature from a trusted signer. The signature must include the current      owner of the Layer 1 NFT being used, or a Burner EOA the owner has authorized to use its NFTs.      EssentialForwarder can be used to build Layer 2 games that use Layer 1 NFTs without bridging and with superior UX.      End users can specify a Burner EOA from their primary EOA, and then use that burner address to play games.      The Burner EOA can then sign messages for game moves without user interaction without any risk to the NFTs or other      assets owned by the primary EOA.",
    "kind": "dev",
    "methods": {
      "createMessage(address,uint256,address,uint256)": {
        "details": "The RPC server uses this view function to create the ownership proof",
        "params": {
          "nftContract": "the mainnet contract address for the NFT being utilized",
          "nftOwner": "the address that currently owns the L1 NFT",
          "nonce": "the meta-transaction nonce for account",
          "tokenId": "the tokenId from nftContract for the NFT being utilized"
        },
        "returns": {
          "_0": "the message _ownershipSigner should sign"
        }
      },
      "executeWithProof(bytes,bytes)": {
        "details": "The RPC call and re-submission should be handled by your Relayer client",
        "params": {
          "extraData": "The unaltered bytes in the OffchainLookup extraData error arg",
          "response": "The unaltered bytes reponse from a call made to an RPC based on OffchainLookup args"
        }
      },
      "getRoleAdmin(bytes32)": {
        "details": "Returns the admin role that controls `role`. See {grantRole} and {revokeRole}. To change a role's admin, use {_setRoleAdmin}."
      },
      "grantRole(bytes32,address)": {
        "details": "Grants `role` to `account`. If `account` had not been already granted `role`, emits a {RoleGranted} event. Requirements: - the caller must have ``role``'s admin role."
      },
      "hasRole(bytes32,address)": {
        "details": "Returns `true` if `account` has been granted `role`."
      },
      "invalidateSession()": {
        "details": "For efficiency in PlaySession persistence and lookup, an EOA must authorize      itself"
      },
      "ownershipSigner()": {
        "returns": {
          "_0": "the ownership proof signer address"
        }
      },
      "preflight((address,address,address,address,uint256,uint256,uint256,uint256,bytes),bytes)": {
        "details": "Per EIP-3668, a valid signature will cause a revert with useful error params."
      },
      "renounceRole(bytes32,address)": {
        "details": "Revokes `role` from the calling account. Roles are often managed via {grantRole} and {revokeRole}: this function's purpose is to provide a mechanism for accounts to lose their privileges if they are compromised (such as when a trusted device is misplaced). If the calling account had been revoked `role`, emits a {RoleRevoked} event. Requirements: - the caller must be `account`."
      },
      "revokeRole(bytes32,address)": {
        "details": "Revokes `role` from `account`. If `account` had been granted `role`, emits a {RoleRevoked} event. Requirements: - the caller must have ``role``'s admin role."
      },
      "supportsInterface(bytes4)": {
        "details": "See {IERC165-supportsInterface}."
      },
      "verifyOwnershipProof((address,address,address,address,uint256,uint256,uint256,uint256,bytes),bytes)": {
        "details": "Ensures that _ownershipSigner signed a message containing (nftOwner OR authorized address, nonce, nftContract, tokenId)",
        "params": {
          "req": "structured data submitted by EOA making a meta-transaction request",
          "signature": "the signature proof created by the ownership signer EOA"
        }
      }
    },
    "title": "EssentialForwarder",
    "version": 1
  },
  "userdoc": {
    "kind": "user",
    "methods": {
      "createMessage(address,uint256,address,uint256)": {
        "notice": "Construct message that _ownershipSigner must sign as ownership proof"
      },
      "createSession(address,uint256)": {
        "notice": "Allow `authorized` to use your NFTs in a game for `length` seconds. Your NFTs         will not be held in custody or approved for transfer."
      },
      "createSignedSession(bytes,address,uint256,address)": {
        "notice": "Allow `authorized` to use your NFTs in a game for `length` seconds through a         signed message from the primary EOA"
      },
      "executeWithProof(bytes,bytes)": {
        "notice": "Re-submit a valid meta-tx request with trusted proof to execute the transaction."
      },
      "getNonce(address)": {
        "notice": "Get current nonce for EOA"
      },
      "getSession()": {
        "notice": "Get current session for Primary EOA"
      },
      "invalidateSession()": {
        "notice": "Stop allowing your current authorized burner address to use your NFTs."
      },
      "ownershipSigner()": {
        "notice": "Get ownershipSigner address"
      },
      "preflight((address,address,address,address,uint256,uint256,uint256,uint256,bytes),bytes)": {
        "notice": "Submit a meta-tx request and signature to check validity and receive         a response with data useful for fetching a trusted proof per EIP-3668."
      },
      "setOwnershipSigner(address)": {
        "notice": "Change the ownership signer"
      },
      "verifyOwnershipProof((address,address,address,address,uint256,uint256,uint256,uint256,bytes),bytes)": {
        "notice": "Verify signed OffchainLookup proof against meta-tx request data"
      }
    },
    "notice": "EIP-2771 based MetaTransaction Forwarding Contract with EIP-3668 OffchainLookup for cross-chain token gating",
    "version": 1
  },
  "storageLayout": {
    "storage": [
      {
        "astId": 24,
        "contract": "src/EssentialForwarder.sol:EssentialForwarder",
        "label": "_roles",
        "offset": 0,
        "slot": "0",
        "type": "t_mapping(t_bytes32,t_struct(RoleData)19_storage)"
      },
      {
        "astId": 1794,
        "contract": "src/EssentialForwarder.sol:EssentialForwarder",
        "label": "_ownershipSigner",
        "offset": 0,
        "slot": "1",
        "type": "t_address"
      },
      {
        "astId": 1799,
        "contract": "src/EssentialForwarder.sol:EssentialForwarder",
        "label": "_sessions",
        "offset": 0,
        "slot": "2",
        "type": "t_mapping(t_address,t_struct(PlaySession)1783_storage)"
      },
      {
        "astId": 1390,
        "contract": "src/EssentialForwarder.sol:EssentialForwarder",
        "label": "_nonces",
        "offset": 0,
        "slot": "3",
        "type": "t_mapping(t_address,t_uint256)"
      },
      {
        "astId": 1393,
        "contract": "src/EssentialForwarder.sol:EssentialForwarder",
        "label": "urls",
        "offset": 0,
        "slot": "4",
        "type": "t_array(t_string_storage)dyn_storage"
      }
    ],
    "types": {
      "t_address": {
        "encoding": "inplace",
        "label": "address",
        "numberOfBytes": "20"
      },
      "t_array(t_string_storage)dyn_storage": {
        "base": "t_string_storage",
        "encoding": "dynamic_array",
        "label": "string[]",
        "numberOfBytes": "32"
      },
      "t_bool": {
        "encoding": "inplace",
        "label": "bool",
        "numberOfBytes": "1"
      },
      "t_bytes32": {
        "encoding": "inplace",
        "label": "bytes32",
        "numberOfBytes": "32"
      },
      "t_mapping(t_address,t_bool)": {
        "encoding": "mapping",
        "key": "t_address",
        "label": "mapping(address => bool)",
        "numberOfBytes": "32",
        "value": "t_bool"
      },
      "t_mapping(t_address,t_struct(PlaySession)1783_storage)": {
        "encoding": "mapping",
        "key": "t_address",
        "label": "mapping(address => struct IForwardRequest.PlaySession)",
        "numberOfBytes": "32",
        "value": "t_struct(PlaySession)1783_storage"
      },
      "t_mapping(t_address,t_uint256)": {
        "encoding": "mapping",
        "key": "t_address",
        "label": "mapping(address => uint256)",
        "numberOfBytes": "32",
        "value": "t_uint256"
      },
      "t_mapping(t_bytes32,t_struct(RoleData)19_storage)": {
        "encoding": "mapping",
        "key": "t_bytes32",
        "label": "mapping(bytes32 => struct AccessControl.RoleData)",
        "numberOfBytes": "32",
        "value": "t_struct(RoleData)19_storage"
      },
      "t_string_storage": {
        "encoding": "bytes",
        "label": "string",
        "numberOfBytes": "32"
      },
      "t_struct(PlaySession)1783_storage": {
        "encoding": "inplace",
        "label": "struct IForwardRequest.PlaySession",
        "members": [
          {
            "astId": 1780,
            "contract": "src/EssentialForwarder.sol:EssentialForwarder",
            "label": "authorized",
            "offset": 0,
            "slot": "0",
            "type": "t_address"
          },
          {
            "astId": 1782,
            "contract": "src/EssentialForwarder.sol:EssentialForwarder",
            "label": "expiresAt",
            "offset": 0,
            "slot": "1",
            "type": "t_uint256"
          }
        ],
        "numberOfBytes": "64"
      },
      "t_struct(RoleData)19_storage": {
        "encoding": "inplace",
        "label": "struct AccessControl.RoleData",
        "members": [
          {
            "astId": 16,
            "contract": "src/EssentialForwarder.sol:EssentialForwarder",
            "label": "members",
            "offset": 0,
            "slot": "0",
            "type": "t_mapping(t_address,t_bool)"
          },
          {
            "astId": 18,
            "contract": "src/EssentialForwarder.sol:EssentialForwarder",
            "label": "adminRole",
            "offset": 0,
            "slot": "1",
            "type": "t_bytes32"
          }
        ],
        "numberOfBytes": "64"
      },
      "t_uint256": {
        "encoding": "inplace",
        "label": "uint256",
        "numberOfBytes": "32"
      }
    }
  }
}