{
  "address": "0xc7d6035011Cd74b3D483b23B038547d51F72F72B",
  "abi": [
    {
      "inputs": [
        {
          "internalType": "string",
          "name": "name",
          "type": "string"
        },
        {
          "internalType": "string[]",
          "name": "_urls",
          "type": "string[]"
        }
      ],
      "stateMutability": "nonpayable",
      "type": "constructor"
    },
    {
      "inputs": [
        {
          "internalType": "address",
          "name": "sender",
          "type": "address"
        },
        {
          "internalType": "string[]",
          "name": "urls",
          "type": "string[]"
        },
        {
          "internalType": "bytes",
          "name": "callData",
          "type": "bytes"
        },
        {
          "internalType": "bytes4",
          "name": "callbackFunction",
          "type": "bytes4"
        },
        {
          "internalType": "bytes",
          "name": "extraData",
          "type": "bytes"
        }
      ],
      "name": "OffchainLookup",
      "type": "error"
    },
    {
      "anonymous": false,
      "inputs": [
        {
          "indexed": true,
          "internalType": "bytes32",
          "name": "role",
          "type": "bytes32"
        },
        {
          "indexed": true,
          "internalType": "bytes32",
          "name": "previousAdminRole",
          "type": "bytes32"
        },
        {
          "indexed": true,
          "internalType": "bytes32",
          "name": "newAdminRole",
          "type": "bytes32"
        }
      ],
      "name": "RoleAdminChanged",
      "type": "event"
    },
    {
      "anonymous": false,
      "inputs": [
        {
          "indexed": true,
          "internalType": "bytes32",
          "name": "role",
          "type": "bytes32"
        },
        {
          "indexed": true,
          "internalType": "address",
          "name": "account",
          "type": "address"
        },
        {
          "indexed": true,
          "internalType": "address",
          "name": "sender",
          "type": "address"
        }
      ],
      "name": "RoleGranted",
      "type": "event"
    },
    {
      "anonymous": false,
      "inputs": [
        {
          "indexed": true,
          "internalType": "bytes32",
          "name": "role",
          "type": "bytes32"
        },
        {
          "indexed": true,
          "internalType": "address",
          "name": "account",
          "type": "address"
        },
        {
          "indexed": true,
          "internalType": "address",
          "name": "sender",
          "type": "address"
        }
      ],
      "name": "RoleRevoked",
      "type": "event"
    },
    {
      "anonymous": false,
      "inputs": [
        {
          "indexed": true,
          "internalType": "address",
          "name": "owner",
          "type": "address"
        },
        {
          "indexed": true,
          "internalType": "address",
          "name": "authorized",
          "type": "address"
        },
        {
          "indexed": true,
          "internalType": "uint256",
          "name": "length",
          "type": "uint256"
        }
      ],
      "name": "Session",
      "type": "event"
    },
    {
      "inputs": [],
      "name": "ADMIN_ROLE",
      "outputs": [
        {
          "internalType": "bytes32",
          "name": "",
          "type": "bytes32"
        }
      ],
      "stateMutability": "view",
      "type": "function"
    },
    {
      "inputs": [],
      "name": "DEFAULT_ADMIN_ROLE",
      "outputs": [
        {
          "internalType": "bytes32",
          "name": "",
          "type": "bytes32"
        }
      ],
      "stateMutability": "view",
      "type": "function"
    },
    {
      "inputs": [
        {
          "internalType": "address",
          "name": "account",
          "type": "address"
        },
        {
          "internalType": "uint256",
          "name": "nonce",
          "type": "uint256"
        },
        {
          "internalType": "address",
          "name": "nftContract",
          "type": "address"
        },
        {
          "internalType": "uint256",
          "name": "tokenId",
          "type": "uint256"
        }
      ],
      "name": "createMessage",
      "outputs": [
        {
          "internalType": "bytes32",
          "name": "",
          "type": "bytes32"
        }
      ],
      "stateMutability": "view",
      "type": "function"
    },
    {
      "inputs": [
        {
          "internalType": "address",
          "name": "authorized",
          "type": "address"
        },
        {
          "internalType": "uint256",
          "name": "length",
          "type": "uint256"
        }
      ],
      "name": "createSession",
      "outputs": [],
      "stateMutability": "nonpayable",
      "type": "function"
    },
    {
      "inputs": [
        {
          "internalType": "bytes",
          "name": "signature",
          "type": "bytes"
        },
        {
          "internalType": "address",
          "name": "authorized",
          "type": "address"
        },
        {
          "internalType": "uint256",
          "name": "length",
          "type": "uint256"
        },
        {
          "internalType": "address",
          "name": "sender",
          "type": "address"
        }
      ],
      "name": "createSignedSession",
      "outputs": [],
      "stateMutability": "nonpayable",
      "type": "function"
    },
    {
      "inputs": [
        {
          "internalType": "bytes",
          "name": "response",
          "type": "bytes"
        },
        {
          "internalType": "bytes",
          "name": "extraData",
          "type": "bytes"
        }
      ],
      "name": "executeWithProof",
      "outputs": [
        {
          "internalType": "bool",
          "name": "",
          "type": "bool"
        },
        {
          "internalType": "bytes",
          "name": "",
          "type": "bytes"
        }
      ],
      "stateMutability": "payable",
      "type": "function"
    },
    {
      "inputs": [
        {
          "internalType": "address",
          "name": "from",
          "type": "address"
        }
      ],
      "name": "getNonce",
      "outputs": [
        {
          "internalType": "uint256",
          "name": "",
          "type": "uint256"
        }
      ],
      "stateMutability": "view",
      "type": "function"
    },
    {
      "inputs": [
        {
          "internalType": "bytes32",
          "name": "role",
          "type": "bytes32"
        }
      ],
      "name": "getRoleAdmin",
      "outputs": [
        {
          "internalType": "bytes32",
          "name": "",
          "type": "bytes32"
        }
      ],
      "stateMutability": "view",
      "type": "function"
    },
    {
      "inputs": [],
      "name": "getSession",
      "outputs": [
        {
          "components": [
            {
              "internalType": "address",
              "name": "authorized",
              "type": "address"
            },
            {
              "internalType": "uint256",
              "name": "expiresAt",
              "type": "uint256"
            }
          ],
          "internalType": "struct IForwardRequest.PlaySession",
          "name": "",
          "type": "tuple"
        }
      ],
      "stateMutability": "view",
      "type": "function"
    },
    {
      "inputs": [
        {
          "internalType": "bytes32",
          "name": "role",
          "type": "bytes32"
        },
        {
          "internalType": "address",
          "name": "account",
          "type": "address"
        }
      ],
      "name": "grantRole",
      "outputs": [],
      "stateMutability": "nonpayable",
      "type": "function"
    },
    {
      "inputs": [
        {
          "internalType": "bytes32",
          "name": "role",
          "type": "bytes32"
        },
        {
          "internalType": "address",
          "name": "account",
          "type": "address"
        }
      ],
      "name": "hasRole",
      "outputs": [
        {
          "internalType": "bool",
          "name": "",
          "type": "bool"
        }
      ],
      "stateMutability": "view",
      "type": "function"
    },
    {
      "inputs": [],
      "name": "invalidateSession",
      "outputs": [],
      "stateMutability": "nonpayable",
      "type": "function"
    },
    {
      "inputs": [],
      "name": "ownershipSigner",
      "outputs": [
        {
          "internalType": "address",
          "name": "",
          "type": "address"
        }
      ],
      "stateMutability": "view",
      "type": "function"
    },
    {
      "inputs": [
        {
          "components": [
            {
              "internalType": "address",
              "name": "from",
              "type": "address"
            },
            {
              "internalType": "address",
              "name": "authorizer",
              "type": "address"
            },
            {
              "internalType": "address",
              "name": "to",
              "type": "address"
            },
            {
              "internalType": "address",
              "name": "nftContract",
              "type": "address"
            },
            {
              "internalType": "uint256",
              "name": "tokenId",
              "type": "uint256"
            },
            {
              "internalType": "uint256",
              "name": "value",
              "type": "uint256"
            },
            {
              "internalType": "uint256",
              "name": "gas",
              "type": "uint256"
            },
            {
              "internalType": "uint256",
              "name": "nonce",
              "type": "uint256"
            },
            {
              "internalType": "bytes",
              "name": "data",
              "type": "bytes"
            }
          ],
          "internalType": "struct IForwardRequest.ForwardRequest",
          "name": "req",
          "type": "tuple"
        },
        {
          "internalType": "bytes",
          "name": "signature",
          "type": "bytes"
        }
      ],
      "name": "preflight",
      "outputs": [],
      "stateMutability": "view",
      "type": "function"
    },
    {
      "inputs": [
        {
          "internalType": "bytes32",
          "name": "role",
          "type": "bytes32"
        },
        {
          "internalType": "address",
          "name": "account",
          "type": "address"
        }
      ],
      "name": "renounceRole",
      "outputs": [],
      "stateMutability": "nonpayable",
      "type": "function"
    },
    {
      "inputs": [
        {
          "internalType": "bytes32",
          "name": "role",
          "type": "bytes32"
        },
        {
          "internalType": "address",
          "name": "account",
          "type": "address"
        }
      ],
      "name": "revokeRole",
      "outputs": [],
      "stateMutability": "nonpayable",
      "type": "function"
    },
    {
      "inputs": [
        {
          "internalType": "address",
          "name": "newSigner",
          "type": "address"
        }
      ],
      "name": "setOwnershipSigner",
      "outputs": [],
      "stateMutability": "nonpayable",
      "type": "function"
    },
    {
      "inputs": [
        {
          "internalType": "bytes4",
          "name": "interfaceId",
          "type": "bytes4"
        }
      ],
      "name": "supportsInterface",
      "outputs": [
        {
          "internalType": "bool",
          "name": "",
          "type": "bool"
        }
      ],
      "stateMutability": "view",
      "type": "function"
    },
    {
      "inputs": [
        {
          "internalType": "uint256",
          "name": "",
          "type": "uint256"
        }
      ],
      "name": "urls",
      "outputs": [
        {
          "internalType": "string",
          "name": "",
          "type": "string"
        }
      ],
      "stateMutability": "view",
      "type": "function"
    },
    {
      "inputs": [
        {
          "components": [
            {
              "internalType": "address",
              "name": "from",
              "type": "address"
            },
            {
              "internalType": "address",
              "name": "authorizer",
              "type": "address"
            },
            {
              "internalType": "address",
              "name": "to",
              "type": "address"
            },
            {
              "internalType": "address",
              "name": "nftContract",
              "type": "address"
            },
            {
              "internalType": "uint256",
              "name": "tokenId",
              "type": "uint256"
            },
            {
              "internalType": "uint256",
              "name": "value",
              "type": "uint256"
            },
            {
              "internalType": "uint256",
              "name": "gas",
              "type": "uint256"
            },
            {
              "internalType": "uint256",
              "name": "nonce",
              "type": "uint256"
            },
            {
              "internalType": "bytes",
              "name": "data",
              "type": "bytes"
            }
          ],
          "internalType": "struct IForwardRequest.ForwardRequest",
          "name": "req",
          "type": "tuple"
        },
        {
          "internalType": "bytes",
          "name": "signature",
          "type": "bytes"
        }
      ],
      "name": "verifyOwnershipProof",
      "outputs": [
        {
          "internalType": "bool",
          "name": "",
          "type": "bool"
        }
      ],
      "stateMutability": "view",
      "type": "function"
    }
  ],
  "transactionHash": "0x7d0d48281c2e84024150f9c947eba158877ccb460692ca33019ecb6b0cf3a0e7",
  "args": [
    "0xEssential PlaySession",
    [
      "https://middleware.nfight.xyz"
    ]
  ],
  "numDeployments": 4,
  "solcInputHash": "d7ef7b28d8c59fa7a6d7fa024f6e709d",
  "bytecode": "0x6101406040523480156200001257600080fd5b50604051620028e1380380620028e1833981016040819052620000359162000455565b6040805180820182526005815264302e302e3160d81b60209182015283518482012060e08190527fae209a0b48f21c054280f2455d32cf309387644879d9acbd8ffc1991638118856101008190524660a081815285517f8b73c3c69bb8fe3d512ecc4cf759cc79239f7b179b0ffacaa9a75d522b39400f818701819052818801959095526060810193909352608080840192909252308382018190528651808503909201825260c0938401909652805194019390932090925291905261012052620001026000336200015e565b6200012e7fa49807205ce4d355092ef5a8a18f56e8913cf4a201fbe287825b095693c21775336200015e565b600180546001600160a01b031916331790558051620001559060049060208401906200020e565b50505062000589565b6200016a82826200016e565b5050565b6000828152602081815260408083206001600160a01b038516845290915290205460ff166200016a576000828152602081815260408083206001600160a01b03851684529091529020805460ff19166001179055620001ca3390565b6001600160a01b0316816001600160a01b0316837f2f8788117e7eff1d82e926ec794901d17c78024a50270940304540a733656f0d60405160405180910390a45050565b82805482825590600052602060002090810192821562000260579160200282015b828111156200026057825180516200024f91849160209091019062000272565b50916020019190600101906200022f565b506200026e929150620002fd565b5090565b82805462000280906200054c565b90600052602060002090601f016020900481019282620002a45760008555620002ef565b82601f10620002bf57805160ff1916838001178555620002ef565b82800160010185558215620002ef579182015b82811115620002ef578251825591602001919060010190620002d2565b506200026e9291506200031e565b808211156200026e57600062000314828262000335565b50600101620002fd565b5b808211156200026e57600081556001016200031f565b50805462000343906200054c565b6000825580601f1062000354575050565b601f0160209004906000526020600020908101906200037491906200031e565b50565b634e487b7160e01b600052604160045260246000fd5b604051601f8201601f191681016001600160401b0381118282101715620003b857620003b862000377565b604052919050565b600082601f830112620003d257600080fd5b81516001600160401b03811115620003ee57620003ee62000377565b602062000404601f8301601f191682016200038d565b82815285828487010111156200041957600080fd5b60005b83811015620004395785810183015182820184015282016200041c565b838111156200044b5760008385840101525b5095945050505050565b600080604083850312156200046957600080fd5b82516001600160401b03808211156200048157600080fd5b6200048f86838701620003c0565b9350602091508185015181811115620004a757600080fd5b8501601f81018713620004b957600080fd5b805182811115620004ce57620004ce62000377565b8060051b620004df8582016200038d565b918252828101850191858101908a841115620004fa57600080fd5b86850192505b838310156200053b578251868111156200051a5760008081fd5b6200052a8c8983890101620003c0565b835250918601919086019062000500565b809750505050505050509250929050565b600181811c908216806200056157607f821691505b602082108114156200058357634e487b7160e01b600052602260045260246000fd5b50919050565b60805160a05160c05160e0516101005161012051612308620005d96000396000611701015260006117500152600061172b01526000611684015260006116ae015260006116d801526123086000f3fe60806040526004361061015f5760003560e01c8063796676be116100c0578063d547741f11610074578063f2cde3ef11610059578063f2cde3ef14610448578063fa1b035a14610468578063ffb703ee1461048857600080fd5b8063d547741f14610407578063dbf0eeef1461042757600080fd5b80639c48439f116100a55780639c48439f146103bd578063a217fddf146103dd578063be0fb87e146103f257600080fd5b8063796676be1461034c57806391d148541461037957600080fd5b80632f2ff15d1161011757806336ff5f30116100fc57806336ff5f301461029757806375b238fc146102b75780637909e08c146102eb57600080fd5b80632f2ff15d1461025557806336568abe1461027757600080fd5b80631a929fb1116101485780631a929fb1146101c1578063248a9ca3146101ef5780632d0335ab1461021f57600080fd5b806301ffc9a71461016457806312ce42fd14610199575b600080fd5b34801561017057600080fd5b5061018461017f3660046118d0565b6104a8565b60405190151581526020015b60405180910390f35b3480156101a557600080fd5b506001546040516001600160a01b039091168152602001610190565b3480156101cd57600080fd5b506101e16101dc36600461192e565b610541565b604051908152602001610190565b3480156101fb57600080fd5b506101e161020a366004611972565b60009081526020819052604090206001015490565b34801561022b57600080fd5b506101e161023a36600461198b565b6001600160a01b031660009081526003602052604090205490565b34801561026157600080fd5b506102756102703660046119a6565b61061b565b005b34801561028357600080fd5b506102756102923660046119a6565b610646565b3480156102a357600080fd5b506102756102b2366004611a14565b6106d2565b3480156102c357600080fd5b506101e17fa49807205ce4d355092ef5a8a18f56e8913cf4a201fbe287825b095693c2177581565b3480156102f757600080fd5b5060408051808201825260008082526020918201819052338152600282528290208251808401845281546001600160a01b03168082526001909201549083019081528351918252519181019190915201610190565b34801561035857600080fd5b5061036c610367366004611972565b61081f565b6040516101909190611ade565b34801561038557600080fd5b506101846103943660046119a6565b6000918252602082815260408084206001600160a01b0393909316845291905290205460ff1690565b3480156103c957600080fd5b506101846103d8366004611c75565b6108cb565b3480156103e957600080fd5b506101e1600081565b3480156103fe57600080fd5b5061027561096b565b34801561041357600080fd5b506102756104223660046119a6565b6109de565b61043a610435366004611cd9565b610a04565b604051610190929190611d45565b34801561045457600080fd5b5061027561046336600461198b565b610c4b565b34801561047457600080fd5b50610275610483366004611d60565b610cad565b34801561049457600080fd5b506102756104a3366004611dcf565b610e05565b60007fffffffff0000000000000000000000000000000000000000000000000000000082167f7965db0b00000000000000000000000000000000000000000000000000000000148061053b57507f01ffc9a7000000000000000000000000000000000000000000000000000000007fffffffff000000000000000000000000000000000000000000000000000000008316145b92915050565b6001600160a01b03808516600090815260026020908152604080832081518083019092528054909416815260019093015490830181905290919042106105ce5760405162461bcd60e51b815260206004820152600f60248201527f53657373696f6e2045787069726564000000000000000000000000000000000060448201526064015b60405180910390fd5b604080516001600160a01b03808916602083015291810187905290851660608201526080810184905260a00160405160208183030381529060405280519060200120915050949350505050565b6000828152602081905260409020600101546106378133610e0f565b6106418383610e8d565b505050565b6001600160a01b03811633146106c45760405162461bcd60e51b815260206004820152602f60248201527f416363657373436f6e74726f6c3a2063616e206f6e6c792072656e6f756e636560448201527f20726f6c657320666f722073656c66000000000000000000000000000000000060648201526084016105c5565b6106ce8282610f2b565b5050565b61071a6106de84611df9565b83838080601f016020809104026020016040519081016040528093929190818152602001838380828437600092019190915250610faa92505050565b156106415730600461072f602086018661198b565b60036000610740602089018961198b565b6001600160a01b0316815260208101919091526040016000205461076a608088016060890161198b565b604080516001600160a01b0394851660208201528082019390935292166060820152608087810135818301528251808303909101815260a082019092527fdbf0eeef00000000000000000000000000000000000000000000000000000000906107db9088908890889060c001611e94565b60408051601f19818403018152908290527f556f18300000000000000000000000000000000000000000000000000000000082526105c59594939291600401611fb3565b6004818154811061082f57600080fd5b90600052602060002001600091509050805461084a90611f78565b80601f016020809104026020016040519081016040528092919081815260200182805461087690611f78565b80156108c35780601f10610898576101008083540402835291602001916108c3565b820191906000526020600020905b8154815290600101906020018083116108a657829003601f168201915b505050505081565b6000806109406108ed85602001518660e0015187606001518860800151610541565b6040517f19457468657265756d205369676e6564204d6573736167653a0a3332000000006020820152603c8101829052600090605c01604051602081830303815290604052805190602001209050919050565b6001549091506001600160a01b031661095982856110ac565b6001600160a01b031614949350505050565b6040517fffb703ee0000000000000000000000000000000000000000000000000000000081523360048201526000196024820152309063ffb703ee90604401600060405180830381600087803b1580156109c457600080fd5b505af11580156109d8573d6000803e3d6000fd5b50505050565b6000828152602081905260409020600101546109fa8133610e0f565b6106418383610f2b565b600060608180610a1685870187611c75565b91509150610a5a8289898080601f0160208091040260200160405190810160405280939291908181526020018383808284376000920191909152506108cb92505050565b610acc5760405162461bcd60e51b815260206004820152603560248201527f54657374466f727761726465723a206f776e6572736869702070726f6f66206460448201527f6f6573206e6f74206d617463682072657175657374000000000000000000000060648201526084016105c5565b610ad68282610faa565b610b485760405162461bcd60e51b815260206004820152602f60248201527f54657374466f727761726465723a207369676e617475726520646f6573206e6f60448201527f74206d617463682072657175657374000000000000000000000000000000000060648201526084016105c5565b60e0820151610b58906001612139565b6003600084600001516001600160a01b03166001600160a01b031681526020019081526020016000208190555060008083604001516001600160a01b03168460c0015160008661010001518760200151604051602001610bb9929190612151565b60408051601f1981840301815290829052610bd39161219b565b600060405180830381858888f193505050503d8060008114610c11576040519150601f19603f3d011682016040523d82523d6000602084013e610c16565b606091505b5091509150603f8460c00151610c2c91906121b7565b5a11610c3a57610c3a6121d9565b909450925050505b94509492505050565b7fa49807205ce4d355092ef5a8a18f56e8913cf4a201fbe287825b095693c21775610c768133610e0f565b600180547fffffffffffffffffffffffff0000000000000000000000000000000000000000166001600160a01b0384161790555050565b7fa49807205ce4d355092ef5a8a18f56e8913cf4a201fbe287825b095693c21775610cd88133610e0f565b604080516001600160a01b0384166020808301919091528183018690528251808303840181526060830184528051908201207f19457468657265756d205369676e6564204d6573736167653a0a3332000000006080840152609c808401919091528351808403909101815260bc9092019092528051910120826001600160a01b0316610d9c88888080601f01602080910402602001604051908101604052809392919081815260200183838082843760009201919091525086939250506110ac9050565b6001600160a01b031614610df25760405162461bcd60e51b815260206004820152601d60248201527f506c617953657373696f6e207369676e617475726520696e76616c696400000060448201526064016105c5565b610dfc85856110d0565b50505050505050565b6106ce82826110d0565b6000828152602081815260408083206001600160a01b038516845290915290205460ff166106ce57610e4b816001600160a01b0316601461117a565b610e5683602061117a565b604051602001610e679291906121ef565b60408051601f198184030181529082905262461bcd60e51b82526105c591600401611ade565b6000828152602081815260408083206001600160a01b038516845290915290205460ff166106ce576000828152602081815260408083206001600160a01b03851684529091529020805460ff19166001179055610ee73390565b6001600160a01b0316816001600160a01b0316837f2f8788117e7eff1d82e926ec794901d17c78024a50270940304540a733656f0d60405160405180910390a45050565b6000828152602081815260408083206001600160a01b038516845290915290205460ff16156106ce576000828152602081815260408083206001600160a01b0385168085529252808320805460ff1916905551339285917ff6391f5c32d9c69d2a47ea670b442974b53935d1edc7fd64eb21e047a839171b9190a45050565b600080611069836110637fdd8f4b70b0f4393e889bd39128a30628a78b61816a9eb8199759e7a349657e488760000151886040015160008a60c001518b60e001518c61010001518051906020012060405160200161104897969594939291909687526001600160a01b03958616602088015293909416604086015260ff919091166060850152608084015260a083019190915260c082015260e00190565b604051602081830303815290604052805190602001206113aa565b906110ac565b60e085015185516001600160a01b03166000908152600360205260409020549192501480156110a4575083516001600160a01b038281169116145b949350505050565b60008060006110bb8585611413565b915091506110c881611483565b509392505050565b6040518060400160405280836001600160a01b0316815260200182426110f69190612139565b9052336000818152600260209081526040808320855181547fffffffffffffffffffffffff0000000000000000000000000000000000000000166001600160a01b039182161782559590920151600190920191909155518493861692917f1170e4b3e143a792ce7a7af268ecfe7d7b0574438d8040eb89c2bf5b7e6e15d891a45050565b60606000611189836002612270565b611194906002612139565b67ffffffffffffffff8111156111ac576111ac611af1565b6040519080825280601f01601f1916602001820160405280156111d6576020820181803683370190505b5090507f30000000000000000000000000000000000000000000000000000000000000008160008151811061120d5761120d61228f565b60200101907effffffffffffffffffffffffffffffffffffffffffffffffffffffffffffff1916908160001a9053507f7800000000000000000000000000000000000000000000000000000000000000816001815181106112705761127061228f565b60200101907effffffffffffffffffffffffffffffffffffffffffffffffffffffffffffff1916908160001a90535060006112ac846002612270565b6112b7906001612139565b90505b6001811115611354577f303132333435363738396162636465660000000000000000000000000000000085600f16601081106112f8576112f861228f565b1a60f81b82828151811061130e5761130e61228f565b60200101907effffffffffffffffffffffffffffffffffffffffffffffffffffffffffffff1916908160001a90535060049490941c9361134d816122a5565b90506112ba565b5083156113a35760405162461bcd60e51b815260206004820181905260248201527f537472696e67733a20686578206c656e67746820696e73756666696369656e7460448201526064016105c5565b9392505050565b600061053b6113b7611677565b836040517f19010000000000000000000000000000000000000000000000000000000000006020820152602281018390526042810182905260009060620160405160208183030381529060405280519060200120905092915050565b60008082516041141561144a5760208301516040840151606085015160001a61143e8782858561179e565b9450945050505061147c565b8251604014156114745760208301516040840151611469868383611888565b93509350505061147c565b506000905060025b9250929050565b6000816004811115611497576114976122bc565b14156114a05750565b60018160048111156114b4576114b46122bc565b14156115025760405162461bcd60e51b815260206004820152601860248201527f45434453413a20696e76616c6964207369676e6174757265000000000000000060448201526064016105c5565b6002816004811115611516576115166122bc565b14156115645760405162461bcd60e51b815260206004820152601f60248201527f45434453413a20696e76616c6964207369676e6174757265206c656e6774680060448201526064016105c5565b6003816004811115611578576115786122bc565b14156115ec5760405162461bcd60e51b815260206004820152602260248201527f45434453413a20696e76616c6964207369676e6174757265202773272076616c60448201527f756500000000000000000000000000000000000000000000000000000000000060648201526084016105c5565b6004816004811115611600576116006122bc565b14156116745760405162461bcd60e51b815260206004820152602260248201527f45434453413a20696e76616c6964207369676e6174757265202776272076616c60448201527f756500000000000000000000000000000000000000000000000000000000000060648201526084016105c5565b50565b6000306001600160a01b037f0000000000000000000000000000000000000000000000000000000000000000161480156116d057507f000000000000000000000000000000000000000000000000000000000000000046145b156116fa57507f000000000000000000000000000000000000000000000000000000000000000090565b50604080517f00000000000000000000000000000000000000000000000000000000000000006020808301919091527f0000000000000000000000000000000000000000000000000000000000000000828401527f000000000000000000000000000000000000000000000000000000000000000060608301524660808301523060a0808401919091528351808403909101815260c0909201909252805191012090565b6000807f7fffffffffffffffffffffffffffffff5d576e7357a4501ddfe92f46681b20a08311156117d55750600090506003610c42565b8460ff16601b141580156117ed57508460ff16601c14155b156117fe5750600090506004610c42565b6040805160008082526020820180845289905260ff881692820192909252606081018690526080810185905260019060a0016020604051602081039080840390855afa158015611852573d6000803e3d6000fd5b5050604051601f1901519150506001600160a01b03811661187b57600060019250925050610c42565b9660009650945050505050565b6000807f7fffffffffffffffffffffffffffffffffffffffffffffffffffffffffffffff831660ff84901c601b016118c28782888561179e565b935093505050935093915050565b6000602082840312156118e257600080fd5b81357fffffffff00000000000000000000000000000000000000000000000000000000811681146113a357600080fd5b80356001600160a01b038116811461192957600080fd5b919050565b6000806000806080858703121561194457600080fd5b61194d85611912565b93506020850135925061196260408601611912565b9396929550929360600135925050565b60006020828403121561198457600080fd5b5035919050565b60006020828403121561199d57600080fd5b6113a382611912565b600080604083850312156119b957600080fd5b823591506119c960208401611912565b90509250929050565b60008083601f8401126119e457600080fd5b50813567ffffffffffffffff8111156119fc57600080fd5b60208301915083602082850101111561147c57600080fd5b600080600060408486031215611a2957600080fd5b833567ffffffffffffffff80821115611a4157600080fd5b908501906101208288031215611a5657600080fd5b90935060208501359080821115611a6c57600080fd5b50611a79868287016119d2565b9497909650939450505050565b60005b83811015611aa1578181015183820152602001611a89565b838111156109d85750506000910152565b60008151808452611aca816020860160208601611a86565b601f01601f19169290920160200192915050565b6020815260006113a36020830184611ab2565b634e487b7160e01b600052604160045260246000fd5b604051610120810167ffffffffffffffff81118282101715611b2b57611b2b611af1565b60405290565b600082601f830112611b4257600080fd5b813567ffffffffffffffff80821115611b5d57611b5d611af1565b604051601f8301601f19908116603f01168101908282118183101715611b8557611b85611af1565b81604052838152866020858801011115611b9e57600080fd5b836020870160208301376000602085830101528094505050505092915050565b60006101208284031215611bd157600080fd5b611bd9611b07565b9050611be482611912565b8152611bf260208301611912565b6020820152611c0360408301611912565b6040820152611c1460608301611912565b60608201526080820135608082015260a082013560a082015260c082013560c082015260e082013560e08201526101008083013567ffffffffffffffff811115611c5d57600080fd5b611c6985828601611b31565b82840152505092915050565b60008060408385031215611c8857600080fd5b823567ffffffffffffffff80821115611ca057600080fd5b611cac86838701611bbe565b93506020850135915080821115611cc257600080fd5b50611ccf85828601611b31565b9150509250929050565b60008060008060408587031215611cef57600080fd5b843567ffffffffffffffff80821115611d0757600080fd5b611d13888389016119d2565b90965094506020870135915080821115611d2c57600080fd5b50611d39878288016119d2565b95989497509550505050565b82151581526040602082015260006110a46040830184611ab2565b600080600080600060808688031215611d7857600080fd5b853567ffffffffffffffff811115611d8f57600080fd5b611d9b888289016119d2565b9096509450611dae905060208701611912565b925060408601359150611dc360608701611912565b90509295509295909350565b60008060408385031215611de257600080fd5b611deb83611912565b946020939093013593505050565b600061053b3683611bbe565b60008083357fffffffffffffffffffffffffffffffffffffffffffffffffffffffffffffffe1843603018112611e3a57600080fd5b830160208101925035905067ffffffffffffffff811115611e5a57600080fd5b80360383131561147c57600080fd5b818352818160208501375060006020828401015260006020601f19601f840116840101905092915050565b60408152611eb560408201611ea886611912565b6001600160a01b03169052565b6000611ec360208601611912565b6001600160a01b03166060830152611edd60408601611912565b6001600160a01b03166080830152611ef760608601611912565b6001600160a01b03811660a084015250608085013560c083015260a085013560e083015261010060c08601358184015261012060e087013581850152611f3f82880188611e05565b925081610140860152611f5761016086018483611e69565b925050508281036020840152611f6e818587611e69565b9695505050505050565b600181811c90821680611f8c57607f821691505b60208210811415611fad57634e487b7160e01b600052602260045260246000fd5b50919050565b600060a082016001600160a01b0388168352602060a08185015281885480845260c08601915060c08160051b870101935060008a8152838120815b838110156120c3578887037fffffffffffffffffffffffffffffffffffffffffffffffffffffffffffffff4001855281548390600181811c908083168061203657607f831692505b8a831081141561205457634e487b7160e01b88526022600452602488fd5b828c5260208c0181801561206f5760018114612080576120aa565b60ff19861682528c820196506120aa565b6000898152602090208a5b868110156120a457815484820152908501908e0161208b565b83019750505b50949b5050978901979490940193505050600101611fee565b50505050505082810360408401526120db8187611ab2565b7fffffffff0000000000000000000000000000000000000000000000000000000086166060850152905082810360808401526121178185611ab2565b98975050505050505050565b634e487b7160e01b600052601160045260246000fd5b6000821982111561214c5761214c612123565b500190565b60008351612163818460208801611a86565b60609390931b7fffffffffffffffffffffffffffffffffffffffff000000000000000000000000169190920190815260140192915050565b600082516121ad818460208701611a86565b9190910192915050565b6000826121d457634e487b7160e01b600052601260045260246000fd5b500490565b634e487b7160e01b600052600160045260246000fd5b7f416363657373436f6e74726f6c3a206163636f756e7420000000000000000000815260008351612227816017850160208801611a86565b7f206973206d697373696e6720726f6c65200000000000000000000000000000006017918401918201528351612264816028840160208801611a86565b01602801949350505050565b600081600019048311821515161561228a5761228a612123565b500290565b634e487b7160e01b600052603260045260246000fd5b6000816122b4576122b4612123565b506000190190565b634e487b7160e01b600052602160045260246000fdfea264697066735822122077ff0d113077d60fbb1c38b5bccc0dd8989a851dd2a764498a5f10743de7b30b64736f6c63430008090033",
  "devdoc": {
    "author": "0xEssential",
    "details": "Allows a Relayer to submit meta-transactions that utilize an NFT (i.e. in a game) on behalf of EOAs. Transactions      are only executed if the Relayer provides a signature from a trusted signer. The signature must include the current      owner of the Layer 1 NFT being used, or a Burner EOA the owner has authorized to use its NFTs.      EssentialForwarder can be used to build Layer 2 games that use Layer 1 NFTs without bridging and with superior UX.      End users can specify a Burner EOA from their primary EOA, and then use that burner address to play games.      The Burner EOA can then sign messages for game moves without user interaction without any risk to the NFTs or other      assets owned by the primary EOA.",
    "kind": "dev",
    "methods": {
      "createMessage(address,uint256,address,uint256)": {
        "details": "The RPC server uses this view function to create the ownership proof",
        "params": {
          "account": "the address that currently owns the L1 NFT",
          "nftContract": "the mainnet contract address for the NFT being utilized",
          "nonce": "the meta-transaction nonce for account",
          "tokenId": "the tokenId from nftContract for the NFT being utilized"
        },
        "returns": {
          "_0": "the message _ownershipSigner should sign"
        }
      },
      "executeWithProof(bytes,bytes)": {
        "details": "The RPC call and re-submission should be handled by your Relayer client",
        "params": {
          "extraData": "The unaltered bytes in the OffchainLookup extraData error arg",
          "response": "The unaltered bytes reponse from a call made to an RPC based on OffchainLookup args"
        }
      },
      "getRoleAdmin(bytes32)": {
        "details": "Returns the admin role that controls `role`. See {grantRole} and {revokeRole}. To change a role's admin, use {_setRoleAdmin}."
      },
      "grantRole(bytes32,address)": {
        "details": "Grants `role` to `account`. If `account` had not been already granted `role`, emits a {RoleGranted} event. Requirements: - the caller must have ``role``'s admin role."
      },
      "hasRole(bytes32,address)": {
        "details": "Returns `true` if `account` has been granted `role`."
      },
      "invalidateSession()": {
        "details": "For efficiency in PlaySession persistence and lookup, an EOA must authorize      itself"
      },
      "ownershipSigner()": {
        "returns": {
          "_0": "the ownership proof signer address"
        }
      },
      "preflight((address,address,address,address,uint256,uint256,uint256,uint256,bytes),bytes)": {
        "details": "Per EIP-3668, a valid signature will cause a revert with useful error params."
      },
      "renounceRole(bytes32,address)": {
        "details": "Revokes `role` from the calling account. Roles are often managed via {grantRole} and {revokeRole}: this function's purpose is to provide a mechanism for accounts to lose their privileges if they are compromised (such as when a trusted device is misplaced). If the calling account had been revoked `role`, emits a {RoleRevoked} event. Requirements: - the caller must be `account`."
      },
      "revokeRole(bytes32,address)": {
        "details": "Revokes `role` from `account`. If `account` had been granted `role`, emits a {RoleRevoked} event. Requirements: - the caller must have ``role``'s admin role."
      },
      "supportsInterface(bytes4)": {
        "details": "See {IERC165-supportsInterface}."
      },
      "verifyOwnershipProof((address,address,address,address,uint256,uint256,uint256,uint256,bytes),bytes)": {
        "details": "Ensures that _ownershipSigner signed a message containing (nftOwner OR authorized address, nonce, nftContract, tokenId)",
        "params": {
          "req": "structured data submitted by EOA making a meta-transaction request",
          "signature": "the signature proof created by the ownership signer EOA"
        }
      }
    },
    "title": "EssentialForwarder",
    "version": 1
  },
  "userdoc": {
    "kind": "user",
    "methods": {
      "createMessage(address,uint256,address,uint256)": {
        "notice": "Construct message that _ownershipSigner must sign as ownership proof"
      },
      "createSession(address,uint256)": {
        "notice": "Allow `authorized` to use your NFTs in a game for `length` seconds. Your NFTs         will not be held in custody or approved for transfer."
      },
      "createSignedSession(bytes,address,uint256,address)": {
        "notice": "Allow `authorized` to use your NFTs in a game for `length` seconds through a         signed message from the primary EOA"
      },
      "executeWithProof(bytes,bytes)": {
        "notice": "Re-submit a valid meta-tx request with trusted proof to execute the transaction."
      },
      "getNonce(address)": {
        "notice": "Get current nonce for EOA"
      },
      "getSession()": {
        "notice": "Get current session for Primary EOA"
      },
      "invalidateSession()": {
        "notice": "Stop allowing your current authorized burner address to use your NFTs."
      },
      "ownershipSigner()": {
        "notice": "Get ownershipSigner address"
      },
      "preflight((address,address,address,address,uint256,uint256,uint256,uint256,bytes),bytes)": {
        "notice": "Submit a meta-tx request and signature to check validity and receive         a response with data useful for fetching a trusted proof per EIP-3668."
      },
      "setOwnershipSigner(address)": {
        "notice": "Change the ownership signer"
      },
      "verifyOwnershipProof((address,address,address,address,uint256,uint256,uint256,uint256,bytes),bytes)": {
        "notice": "Verify signed OffchainLookup proof against meta-tx request data"
      }
    },
    "notice": "EIP-2771 based MetaTransaction Forwarding Contract with EIP-3668 OffchainLookup for cross-chain token gating",
    "version": 1
  },
  "storageLayout": {
    "storage": [
      {
        "astId": 24,
        "contract": "src/EssentialForwarder.sol:EssentialForwarder",
        "label": "_roles",
        "offset": 0,
        "slot": "0",
        "type": "t_mapping(t_bytes32,t_struct(RoleData)19_storage)"
      },
      {
        "astId": 9870,
        "contract": "src/EssentialForwarder.sol:EssentialForwarder",
        "label": "_ownershipSigner",
        "offset": 0,
        "slot": "1",
        "type": "t_address"
      },
      {
        "astId": 9875,
        "contract": "src/EssentialForwarder.sol:EssentialForwarder",
        "label": "_sessions",
        "offset": 0,
        "slot": "2",
        "type": "t_mapping(t_address,t_struct(PlaySession)9859_storage)"
      },
      {
        "astId": 9466,
        "contract": "src/EssentialForwarder.sol:EssentialForwarder",
        "label": "_nonces",
        "offset": 0,
        "slot": "3",
        "type": "t_mapping(t_address,t_uint256)"
      },
      {
        "astId": 9469,
        "contract": "src/EssentialForwarder.sol:EssentialForwarder",
        "label": "urls",
        "offset": 0,
        "slot": "4",
        "type": "t_array(t_string_storage)dyn_storage"
      }
    ],
    "types": {
      "t_address": {
        "encoding": "inplace",
        "label": "address",
        "numberOfBytes": "20"
      },
      "t_array(t_string_storage)dyn_storage": {
        "base": "t_string_storage",
        "encoding": "dynamic_array",
        "label": "string[]",
        "numberOfBytes": "32"
      },
      "t_bool": {
        "encoding": "inplace",
        "label": "bool",
        "numberOfBytes": "1"
      },
      "t_bytes32": {
        "encoding": "inplace",
        "label": "bytes32",
        "numberOfBytes": "32"
      },
      "t_mapping(t_address,t_bool)": {
        "encoding": "mapping",
        "key": "t_address",
        "label": "mapping(address => bool)",
        "numberOfBytes": "32",
        "value": "t_bool"
      },
      "t_mapping(t_address,t_struct(PlaySession)9859_storage)": {
        "encoding": "mapping",
        "key": "t_address",
        "label": "mapping(address => struct IForwardRequest.PlaySession)",
        "numberOfBytes": "32",
        "value": "t_struct(PlaySession)9859_storage"
      },
      "t_mapping(t_address,t_uint256)": {
        "encoding": "mapping",
        "key": "t_address",
        "label": "mapping(address => uint256)",
        "numberOfBytes": "32",
        "value": "t_uint256"
      },
      "t_mapping(t_bytes32,t_struct(RoleData)19_storage)": {
        "encoding": "mapping",
        "key": "t_bytes32",
        "label": "mapping(bytes32 => struct AccessControl.RoleData)",
        "numberOfBytes": "32",
        "value": "t_struct(RoleData)19_storage"
      },
      "t_string_storage": {
        "encoding": "bytes",
        "label": "string",
        "numberOfBytes": "32"
      },
      "t_struct(PlaySession)9859_storage": {
        "encoding": "inplace",
        "label": "struct IForwardRequest.PlaySession",
        "members": [
          {
            "astId": 9856,
            "contract": "src/EssentialForwarder.sol:EssentialForwarder",
            "label": "authorized",
            "offset": 0,
            "slot": "0",
            "type": "t_address"
          },
          {
            "astId": 9858,
            "contract": "src/EssentialForwarder.sol:EssentialForwarder",
            "label": "expiresAt",
            "offset": 0,
            "slot": "1",
            "type": "t_uint256"
          }
        ],
        "numberOfBytes": "64"
      },
      "t_struct(RoleData)19_storage": {
        "encoding": "inplace",
        "label": "struct AccessControl.RoleData",
        "members": [
          {
            "astId": 16,
            "contract": "src/EssentialForwarder.sol:EssentialForwarder",
            "label": "members",
            "offset": 0,
            "slot": "0",
            "type": "t_mapping(t_address,t_bool)"
          },
          {
            "astId": 18,
            "contract": "src/EssentialForwarder.sol:EssentialForwarder",
            "label": "adminRole",
            "offset": 0,
            "slot": "1",
            "type": "t_bytes32"
          }
        ],
        "numberOfBytes": "64"
      },
      "t_uint256": {
        "encoding": "inplace",
        "label": "uint256",
        "numberOfBytes": "32"
      }
    }
  }
}