{
  "address": "0x9928351FD354D4E45416fc53e90457a428960cF4",
  "abi": [
    {
      "inputs": [
        {
          "internalType": "string",
          "name": "name",
          "type": "string"
        },
        {
          "internalType": "string[]",
          "name": "_urls",
          "type": "string[]"
        }
      ],
      "stateMutability": "nonpayable",
      "type": "constructor"
    },
    {
      "inputs": [],
      "name": "InvalidOwnership",
      "type": "error"
    },
    {
      "inputs": [],
      "name": "InvalidSignature",
      "type": "error"
    },
    {
      "inputs": [
        {
          "internalType": "address",
          "name": "sender",
          "type": "address"
        },
        {
          "internalType": "string[]",
          "name": "urls",
          "type": "string[]"
        },
        {
          "internalType": "bytes",
          "name": "callData",
          "type": "bytes"
        },
        {
          "internalType": "bytes4",
          "name": "callbackFunction",
          "type": "bytes4"
        },
        {
          "internalType": "bytes",
          "name": "extraData",
          "type": "bytes"
        }
      ],
      "name": "OffchainLookup",
      "type": "error"
    },
    {
      "inputs": [],
      "name": "Unauthorized",
      "type": "error"
    },
    {
      "anonymous": false,
      "inputs": [
        {
          "indexed": true,
          "internalType": "bytes32",
          "name": "role",
          "type": "bytes32"
        },
        {
          "indexed": true,
          "internalType": "bytes32",
          "name": "previousAdminRole",
          "type": "bytes32"
        },
        {
          "indexed": true,
          "internalType": "bytes32",
          "name": "newAdminRole",
          "type": "bytes32"
        }
      ],
      "name": "RoleAdminChanged",
      "type": "event"
    },
    {
      "anonymous": false,
      "inputs": [
        {
          "indexed": true,
          "internalType": "bytes32",
          "name": "role",
          "type": "bytes32"
        },
        {
          "indexed": true,
          "internalType": "address",
          "name": "account",
          "type": "address"
        },
        {
          "indexed": true,
          "internalType": "address",
          "name": "sender",
          "type": "address"
        }
      ],
      "name": "RoleGranted",
      "type": "event"
    },
    {
      "anonymous": false,
      "inputs": [
        {
          "indexed": true,
          "internalType": "bytes32",
          "name": "role",
          "type": "bytes32"
        },
        {
          "indexed": true,
          "internalType": "address",
          "name": "account",
          "type": "address"
        },
        {
          "indexed": true,
          "internalType": "address",
          "name": "sender",
          "type": "address"
        }
      ],
      "name": "RoleRevoked",
      "type": "event"
    },
    {
      "anonymous": false,
      "inputs": [
        {
          "indexed": true,
          "internalType": "address",
          "name": "owner",
          "type": "address"
        },
        {
          "indexed": true,
          "internalType": "address",
          "name": "authorized",
          "type": "address"
        },
        {
          "indexed": true,
          "internalType": "uint256",
          "name": "length",
          "type": "uint256"
        }
      ],
      "name": "Session",
      "type": "event"
    },
    {
      "inputs": [],
      "name": "ADMIN_ROLE",
      "outputs": [
        {
          "internalType": "bytes32",
          "name": "",
          "type": "bytes32"
        }
      ],
      "stateMutability": "view",
      "type": "function"
    },
    {
      "inputs": [],
      "name": "DEFAULT_ADMIN_ROLE",
      "outputs": [
        {
          "internalType": "bytes32",
          "name": "",
          "type": "bytes32"
        }
      ],
      "stateMutability": "view",
      "type": "function"
    },
    {
      "inputs": [],
      "name": "PlaySession",
      "outputs": [
        {
          "internalType": "contract IEssentialPlaySession",
          "name": "",
          "type": "address"
        }
      ],
      "stateMutability": "view",
      "type": "function"
    },
    {
      "inputs": [
        {
          "internalType": "address",
          "name": "signer",
          "type": "address"
        },
        {
          "internalType": "address",
          "name": "authorizer",
          "type": "address"
        },
        {
          "internalType": "uint256",
          "name": "nonce",
          "type": "uint256"
        },
        {
          "internalType": "uint256",
          "name": "nftChainId",
          "type": "uint256"
        },
        {
          "internalType": "address",
          "name": "nftContract",
          "type": "address"
        },
        {
          "internalType": "uint256",
          "name": "tokenId",
          "type": "uint256"
        },
        {
          "internalType": "uint256",
          "name": "timestamp",
          "type": "uint256"
        }
      ],
      "name": "createMessage",
      "outputs": [
        {
          "internalType": "bytes32",
          "name": "",
          "type": "bytes32"
        }
      ],
      "stateMutability": "view",
      "type": "function"
    },
    {
      "inputs": [
        {
          "internalType": "address",
          "name": "authorized",
          "type": "address"
        },
        {
          "internalType": "uint256",
          "name": "length",
          "type": "uint256"
        }
      ],
      "name": "createSession",
      "outputs": [],
      "stateMutability": "nonpayable",
      "type": "function"
    },
    {
      "inputs": [
        {
          "components": [
            {
              "internalType": "address",
              "name": "from",
              "type": "address"
            },
            {
              "internalType": "address",
              "name": "authorizer",
              "type": "address"
            },
            {
              "internalType": "address",
              "name": "to",
              "type": "address"
            },
            {
              "internalType": "address",
              "name": "nftContract",
              "type": "address"
            },
            {
              "internalType": "uint256",
              "name": "nftTokenId",
              "type": "uint256"
            },
            {
              "internalType": "uint256",
              "name": "nftChainId",
              "type": "uint256"
            },
            {
              "internalType": "uint256",
              "name": "targetChainId",
              "type": "uint256"
            },
            {
              "internalType": "uint256",
              "name": "value",
              "type": "uint256"
            },
            {
              "internalType": "uint256",
              "name": "gas",
              "type": "uint256"
            },
            {
              "internalType": "uint256",
              "name": "nonce",
              "type": "uint256"
            },
            {
              "internalType": "bytes",
              "name": "data",
              "type": "bytes"
            }
          ],
          "internalType": "struct IForwardRequest.ERC721ForwardRequest",
          "name": "req",
          "type": "tuple"
        },
        {
          "internalType": "bytes",
          "name": "signature",
          "type": "bytes"
        }
      ],
      "name": "execute",
      "outputs": [
        {
          "internalType": "bool",
          "name": "",
          "type": "bool"
        },
        {
          "internalType": "bytes",
          "name": "",
          "type": "bytes"
        }
      ],
      "stateMutability": "payable",
      "type": "function"
    },
    {
      "inputs": [
        {
          "internalType": "bytes",
          "name": "response",
          "type": "bytes"
        },
        {
          "internalType": "bytes",
          "name": "extraData",
          "type": "bytes"
        }
      ],
      "name": "executeWithProof",
      "outputs": [
        {
          "internalType": "bool",
          "name": "",
          "type": "bool"
        },
        {
          "internalType": "bytes",
          "name": "",
          "type": "bytes"
        }
      ],
      "stateMutability": "payable",
      "type": "function"
    },
    {
      "inputs": [],
      "name": "getChainId",
      "outputs": [
        {
          "internalType": "uint256",
          "name": "id",
          "type": "uint256"
        }
      ],
      "stateMutability": "view",
      "type": "function"
    },
    {
      "inputs": [
        {
          "internalType": "address",
          "name": "from",
          "type": "address"
        }
      ],
      "name": "getNonce",
      "outputs": [
        {
          "internalType": "uint256",
          "name": "",
          "type": "uint256"
        }
      ],
      "stateMutability": "view",
      "type": "function"
    },
    {
      "inputs": [
        {
          "internalType": "bytes32",
          "name": "role",
          "type": "bytes32"
        }
      ],
      "name": "getRoleAdmin",
      "outputs": [
        {
          "internalType": "bytes32",
          "name": "",
          "type": "bytes32"
        }
      ],
      "stateMutability": "view",
      "type": "function"
    },
    {
      "inputs": [
        {
          "internalType": "address",
          "name": "authorizer",
          "type": "address"
        }
      ],
      "name": "getSession",
      "outputs": [
        {
          "components": [
            {
              "internalType": "address",
              "name": "authorized",
              "type": "address"
            },
            {
              "internalType": "uint256",
              "name": "expiresAt",
              "type": "uint256"
            }
          ],
          "internalType": "struct IForwardRequest.PlaySession",
          "name": "",
          "type": "tuple"
        }
      ],
      "stateMutability": "view",
      "type": "function"
    },
    {
      "inputs": [
        {
          "internalType": "bytes32",
          "name": "role",
          "type": "bytes32"
        },
        {
          "internalType": "address",
          "name": "account",
          "type": "address"
        }
      ],
      "name": "grantRole",
      "outputs": [],
      "stateMutability": "nonpayable",
      "type": "function"
    },
    {
      "inputs": [
        {
          "internalType": "bytes32",
          "name": "role",
          "type": "bytes32"
        },
        {
          "internalType": "address",
          "name": "account",
          "type": "address"
        }
      ],
      "name": "hasRole",
      "outputs": [
        {
          "internalType": "bool",
          "name": "",
          "type": "bool"
        }
      ],
      "stateMutability": "view",
      "type": "function"
    },
    {
      "inputs": [],
      "name": "ownershipSigner",
      "outputs": [
        {
          "internalType": "address",
          "name": "",
          "type": "address"
        }
      ],
      "stateMutability": "view",
      "type": "function"
    },
    {
      "inputs": [
        {
          "components": [
            {
              "internalType": "address",
              "name": "from",
              "type": "address"
            },
            {
              "internalType": "address",
              "name": "authorizer",
              "type": "address"
            },
            {
              "internalType": "address",
              "name": "to",
              "type": "address"
            },
            {
              "internalType": "address",
              "name": "nftContract",
              "type": "address"
            },
            {
              "internalType": "uint256",
              "name": "nftTokenId",
              "type": "uint256"
            },
            {
              "internalType": "uint256",
              "name": "nftChainId",
              "type": "uint256"
            },
            {
              "internalType": "uint256",
              "name": "targetChainId",
              "type": "uint256"
            },
            {
              "internalType": "uint256",
              "name": "value",
              "type": "uint256"
            },
            {
              "internalType": "uint256",
              "name": "gas",
              "type": "uint256"
            },
            {
              "internalType": "uint256",
              "name": "nonce",
              "type": "uint256"
            },
            {
              "internalType": "bytes",
              "name": "data",
              "type": "bytes"
            }
          ],
          "internalType": "struct IForwardRequest.ERC721ForwardRequest",
          "name": "req",
          "type": "tuple"
        },
        {
          "internalType": "bytes",
          "name": "signature",
          "type": "bytes"
        }
      ],
      "name": "preflight",
      "outputs": [],
      "stateMutability": "view",
      "type": "function"
    },
    {
      "inputs": [
        {
          "internalType": "bytes32",
          "name": "role",
          "type": "bytes32"
        },
        {
          "internalType": "address",
          "name": "account",
          "type": "address"
        }
      ],
      "name": "renounceRole",
      "outputs": [],
      "stateMutability": "nonpayable",
      "type": "function"
    },
    {
      "inputs": [
        {
          "internalType": "bytes32",
          "name": "role",
          "type": "bytes32"
        },
        {
          "internalType": "address",
          "name": "account",
          "type": "address"
        }
      ],
      "name": "revokeRole",
      "outputs": [],
      "stateMutability": "nonpayable",
      "type": "function"
    },
    {
      "inputs": [
        {
          "internalType": "address",
          "name": "newSigner",
          "type": "address"
        }
      ],
      "name": "setOwnershipSigner",
      "outputs": [],
      "stateMutability": "nonpayable",
      "type": "function"
    },
    {
      "inputs": [
        {
          "internalType": "address",
          "name": "playSession",
          "type": "address"
        }
      ],
      "name": "setPlaySessionOperator",
      "outputs": [],
      "stateMutability": "nonpayable",
      "type": "function"
    },
    {
      "inputs": [
        {
          "internalType": "bytes4",
          "name": "interfaceId",
          "type": "bytes4"
        }
      ],
      "name": "supportsInterface",
      "outputs": [
        {
          "internalType": "bool",
          "name": "",
          "type": "bool"
        }
      ],
      "stateMutability": "view",
      "type": "function"
    },
    {
      "inputs": [
        {
          "internalType": "uint256",
          "name": "",
          "type": "uint256"
        }
      ],
      "name": "urls",
      "outputs": [
        {
          "internalType": "string",
          "name": "",
          "type": "string"
        }
      ],
      "stateMutability": "view",
      "type": "function"
    },
    {
      "inputs": [
        {
          "components": [
            {
              "internalType": "address",
              "name": "from",
              "type": "address"
            },
            {
              "internalType": "address",
              "name": "authorizer",
              "type": "address"
            },
            {
              "internalType": "address",
              "name": "to",
              "type": "address"
            },
            {
              "internalType": "address",
              "name": "nftContract",
              "type": "address"
            },
            {
              "internalType": "uint256",
              "name": "nftTokenId",
              "type": "uint256"
            },
            {
              "internalType": "uint256",
              "name": "nftChainId",
              "type": "uint256"
            },
            {
              "internalType": "uint256",
              "name": "targetChainId",
              "type": "uint256"
            },
            {
              "internalType": "uint256",
              "name": "value",
              "type": "uint256"
            },
            {
              "internalType": "uint256",
              "name": "gas",
              "type": "uint256"
            },
            {
              "internalType": "uint256",
              "name": "nonce",
              "type": "uint256"
            },
            {
              "internalType": "bytes",
              "name": "data",
              "type": "bytes"
            }
          ],
          "internalType": "struct IForwardRequest.ERC721ForwardRequest",
          "name": "req",
          "type": "tuple"
        },
        {
          "internalType": "bytes",
          "name": "signature",
          "type": "bytes"
        }
      ],
      "name": "verify",
      "outputs": [
        {
          "internalType": "bool",
          "name": "",
          "type": "bool"
        }
      ],
      "stateMutability": "view",
      "type": "function"
    },
    {
      "inputs": [
        {
          "components": [
            {
              "internalType": "address",
              "name": "from",
              "type": "address"
            },
            {
              "internalType": "address",
              "name": "authorizer",
              "type": "address"
            },
            {
              "internalType": "address",
              "name": "to",
              "type": "address"
            },
            {
              "internalType": "address",
              "name": "nftContract",
              "type": "address"
            },
            {
              "internalType": "uint256",
              "name": "nftTokenId",
              "type": "uint256"
            },
            {
              "internalType": "uint256",
              "name": "nftChainId",
              "type": "uint256"
            },
            {
              "internalType": "uint256",
              "name": "targetChainId",
              "type": "uint256"
            },
            {
              "internalType": "uint256",
              "name": "value",
              "type": "uint256"
            },
            {
              "internalType": "uint256",
              "name": "gas",
              "type": "uint256"
            },
            {
              "internalType": "uint256",
              "name": "nonce",
              "type": "uint256"
            },
            {
              "internalType": "bytes",
              "name": "data",
              "type": "bytes"
            }
          ],
          "internalType": "struct IForwardRequest.ERC721ForwardRequest",
          "name": "req",
          "type": "tuple"
        },
        {
          "internalType": "bytes",
          "name": "signature",
          "type": "bytes"
        },
        {
          "internalType": "uint256",
          "name": "timestamp",
          "type": "uint256"
        }
      ],
      "name": "verifyOwnershipProof",
      "outputs": [
        {
          "internalType": "bool",
          "name": "",
          "type": "bool"
        }
      ],
      "stateMutability": "view",
      "type": "function"
    }
  ],
  "transactionHash": "0xddd363077a9ef54fd6a35e68d406af4cc3c69e1eb5d84ec6a0b397887578fa8c",
  "args": [
    "0xEssential PlaySession",
    [
      "https://testnet-ownership-rpc.herokuapp.com/"
    ]
  ],
  "numDeployments": 9,
  "solcInputHash": "dbbeebbf423efb20393cbacd39a2b1ba",
  "bytecode": "0x6101206040523480156200001257600080fd5b5060405162002d7f38038062002d7f833981016040819052620000359162000452565b6040805180820182526005815264302e302e3160d81b60209182015283518482012060c08181527fae209a0b48f21c054280f2455d32cf309387644879d9acbd8ffc19916381188560e08190524660a081815286517f36c25de3e541d5d970f66e4210d728721220fff5c077cc6cd008b3a0c62adab78188018190528189019690965260608101939093523060808085019190915283820192909252865180840390910181529190920190945283519390920192909220905261010052620000ff6000336200015b565b6200012b7fa49807205ce4d355092ef5a8a18f56e8913cf4a201fbe287825b095693c21775336200015b565b600180546001600160a01b031916331790558051620001529060049060208401906200020b565b50505062000586565b6200016782826200016b565b5050565b6000828152602081815260408083206001600160a01b038516845290915290205460ff1662000167576000828152602081815260408083206001600160a01b03851684529091529020805460ff19166001179055620001c73390565b6001600160a01b0316816001600160a01b0316837f2f8788117e7eff1d82e926ec794901d17c78024a50270940304540a733656f0d60405160405180910390a45050565b8280548282559060005260206000209081019282156200025d579160200282015b828111156200025d57825180516200024c9184916020909101906200026f565b50916020019190600101906200022c565b506200026b929150620002fa565b5090565b8280546200027d9062000549565b90600052602060002090601f016020900481019282620002a15760008555620002ec565b82601f10620002bc57805160ff1916838001178555620002ec565b82800160010185558215620002ec579182015b82811115620002ec578251825591602001919060010190620002cf565b506200026b9291506200031b565b808211156200026b57600062000311828262000332565b50600101620002fa565b5b808211156200026b57600081556001016200031c565b508054620003409062000549565b6000825580601f1062000351575050565b601f0160209004906000526020600020908101906200037191906200031b565b50565b634e487b7160e01b600052604160045260246000fd5b604051601f8201601f191681016001600160401b0381118282101715620003b557620003b562000374565b604052919050565b600082601f830112620003cf57600080fd5b81516001600160401b03811115620003eb57620003eb62000374565b602062000401601f8301601f191682016200038a565b82815285828487010111156200041657600080fd5b60005b838110156200043657858101830151828201840152820162000419565b83811115620004485760008385840101525b5095945050505050565b600080604083850312156200046657600080fd5b82516001600160401b03808211156200047e57600080fd5b6200048c86838701620003bd565b9350602091508185015181811115620004a457600080fd5b8501601f81018713620004b657600080fd5b805182811115620004cb57620004cb62000374565b8060051b620004dc8582016200038a565b918252828101850191858101908a841115620004f757600080fd5b86850192505b838310156200053857825186811115620005175760008081fd5b620005278c8983890101620003bd565b8352509186019190860190620004fd565b809750505050505050509250929050565b600181811c908216806200055e57607f821691505b602082108114156200058057634e487b7160e01b600052602260045260246000fd5b50919050565b60805160a05160c05160e051610100516127b4620005cb6000396000611a8e01526000611add01526000611ab801526000611a3c01526000611a6501526127b46000f3fe6080604052600436106101805760003560e01c80637b5f9ae9116100d6578063a217fddf1161007f578063dbf42df711610059578063dbf42df714610519578063f2cde3ef1461052c578063ffb703ee1461054c57600080fd5b8063a217fddf146104c3578063d547741f146104d8578063dbf0eeef146104f857600080fd5b80638c8e13b9116100b05780638c8e13b91461041b57806391d148541461045f57806395cb1c2d146104a357600080fd5b80637b5f9ae9146103bb57806381902564146103db5780638c4a7b1b146103fb57600080fd5b80632f2ff15d116101385780635c0dfff6116101125780635c0dfff6146102d557806375b238fc1461035a578063796676be1461038e57600080fd5b80632f2ff15d146102805780633408e470146102a257806336568abe146102b557600080fd5b8063248a9ca311610169578063248a9ca3146101ec5780632d0335ab1461022a5780632dfcd8731461026057600080fd5b806301ffc9a71461018557806312ce42fd146101ba575b600080fd5b34801561019157600080fd5b506101a56101a0366004611b2b565b61056c565b60405190151581526020015b60405180910390f35b3480156101c657600080fd5b506001546001600160a01b03165b6040516001600160a01b0390911681526020016101b1565b3480156101f857600080fd5b5061021c610207366004611b6d565b60009081526020819052604090206001015490565b6040519081526020016101b1565b34801561023657600080fd5b5061021c610245366004611bab565b6001600160a01b031660009081526002602052604090205490565b34801561026c57600080fd5b506005546101d4906001600160a01b031681565b34801561028c57600080fd5b506102a061029b366004611bc8565b610605565b005b3480156102ae57600080fd5b504661021c565b3480156102c157600080fd5b506102a06102d0366004611bc8565b610630565b3480156102e157600080fd5b5061021c6102f0366004611bf8565b604080516001600160a01b0398891660208083019190915297891681830152606081019690965260808601949094529190951660a084015260c08301949094524660e083015261010080830194909452805180830390940184526101209091019052815191012090565b34801561036657600080fd5b5061021c7fa49807205ce4d355092ef5a8a18f56e8913cf4a201fbe287825b095693c2177581565b34801561039a57600080fd5b506103ae6103a9366004611b6d565b6106c1565b6040516101b19190611cc5565b3480156103c757600080fd5b506102a06103d6366004611bab565b61076d565b3480156103e757600080fd5b506101a56103f6366004611e74565b6107d3565b34801561040757600080fd5b506101a5610416366004611f23565b61091e565b34801561042757600080fd5b5061043b610436366004611bab565b610970565b6040805182516001600160a01b0316815260209283015192810192909252016101b1565b34801561046b57600080fd5b506101a561047a366004611bc8565b6000918252602082815260408084206001600160a01b0393909316845291905290205460ff1690565b3480156104af57600080fd5b506102a06104be366004611f23565b610a19565b3480156104cf57600080fd5b5061021c600081565b3480156104e457600080fd5b506102a06104f3366004611bc8565b610b79565b61050b610506366004611f95565b610b9f565b6040516101b1929190612001565b61050b610527366004611f23565b610db2565b34801561053857600080fd5b506102a0610547366004611bab565b610f61565b34801561055857600080fd5b506102a061056736600461201c565b610fc3565b60007fffffffff0000000000000000000000000000000000000000000000000000000082167f7965db0b0000000000000000000000000000000000000000000000000000000014806105ff57507f01ffc9a7000000000000000000000000000000000000000000000000000000007fffffffff000000000000000000000000000000000000000000000000000000008316145b92915050565b6000828152602081905260409020600101546106218133611046565b61062b83836110c4565b505050565b6001600160a01b03811633146106b35760405162461bcd60e51b815260206004820152602f60248201527f416363657373436f6e74726f6c3a2063616e206f6e6c792072656e6f756e636560448201527f20726f6c657320666f722073656c66000000000000000000000000000000000060648201526084015b60405180910390fd5b6106bd8282611162565b5050565b600481815481106106d157600080fd5b9060005260206000200160009150905080546106ec90612048565b80601f016020809104026020016040519081016040528092919081815260200182805461071890612048565b80156107655780601f1061073a57610100808354040283529160200191610765565b820191906000526020600020905b81548152906001019060200180831161074857829003601f168201915b505050505081565b7fa49807205ce4d355092ef5a8a18f56e8913cf4a201fbe287825b095693c217756107988133611046565b50600580547fffffffffffffffffffffffff0000000000000000000000000000000000000000166001600160a01b0392909216919091179055565b60006102586107e28342612099565b1061082f5760405162461bcd60e51b815260206004820152600560248201527f5374616c6500000000000000000000000000000000000000000000000000000060448201526064016106aa565b83516020808601516101208088015160a0808a01516060808c01516080808e0151604080516001600160a01b039c8d16818d0152998c168a8201529389019690965287019290925296169084015260c08301524660e08301526101008083018790528451808403909101815290820184528051908301207f19457468657265756d205369676e6564204d6573736167653a0a33320000000061014083015261015c808301919091528351808303909101815261017c90910190925281519101206000906001549091506001600160a01b031661090b82866111e1565b6001600160a01b03161495945050505050565b600061096861092c856120b0565b84848080601f01602080910402602001604051908101604052809392919081815260200183838082843760009201919091525061120592505050565b949350505050565b60408051808201909152600080825260208201526005546040517f8c8e13b90000000000000000000000000000000000000000000000000000000081526001600160a01b03848116600483015290911690638c8e13b990602401604080518083038186803b1580156109e157600080fd5b505afa1580156109f5573d6000803e3d6000fd5b505050506040513d601f19601f820116820180604052508101906105ff91906120bc565b610a2483838361091e565b610a5a576040517f8baa579f00000000000000000000000000000000000000000000000000000000815260040160405180910390fd5b306004610a6a6020860186611bab565b610a7a6040870160208801611bab565b60026000610a8b60208a018a611bab565b6001600160a01b0316815260208101919091526040016000205460a0880135610aba60808a0160608b01611bab565b604080516001600160a01b039687166020820152948616908501526060840192909252608083810191909152921660a08201529086013560c08201524660e0820152426101008201526101200160405160208183030381529060405263dbf0eeef60e01b42878787604051602001610b359493929190612185565b60408051601f19818403018152908290527f556f18300000000000000000000000000000000000000000000000000000000082526106aa959493929160040161228a565b600082815260208190526040902060010154610b958133611046565b61062b8383611162565b60006060818080610bb2868801886123fa565b925092509250610bc182611344565b610bf7576040517f82b4290000000000000000000000000000000000000000000000000000000000815260040160405180910390fd5b610c39828a8a8080601f0160208091040260200160405190810160405280939291908181526020018383808284376000920191909152508892506107d3915050565b610c6f576040517f78fc174800000000000000000000000000000000000000000000000000000000815260040160405180910390fd5b610c798282611205565b610caf576040517f8baa579f00000000000000000000000000000000000000000000000000000000815260040160405180910390fd5b81516001600160a01b031660009081526002602052604081208054909190610cd690612467565b9190508190555060008083604001516001600160a01b03168461010001516000866101400151876080015188606001518960200151604051602001610d1e9493929190612482565b60408051601f1981840301815290829052610d38916124c6565b600060405180830381858888f193505050503d8060008114610d76576040519150601f19603f3d011682016040523d82523d6000602084013e610d7b565b606091505b5091509150603f846101000151610d9291906124e2565b5a11610da057610da0612504565b90955093505050505b94509492505050565b60006060610dc185858561091e565b610e335760405162461bcd60e51b815260206004820152603260248201527f4d696e696d616c466f727761726465723a207369676e617475726520646f657360448201527f206e6f74206d617463682072657175657374000000000000000000000000000060648201526084016106aa565b610e43610120860135600161251a565b60026000610e546020890189611bab565b6001600160a01b03166001600160a01b0316815260200190815260200160002081905550600080866040016020810190610e8e9190611bab565b6001600160a01b031661010088013560e0890135610eb06101408b018b612532565b600080610ec060208f018f611bab565b604051602001610ed4959493929190612579565b60408051601f1981840301815290829052610eee916124c6565b600060405180830381858888f193505050503d8060008114610f2c576040519150601f19603f3d011682016040523d82523d6000602084013e610f31565b606091505b509092509050610f47603f6101008901356124e2565b5a11610f5557610f55612504565b90969095509350505050565b7fa49807205ce4d355092ef5a8a18f56e8913cf4a201fbe287825b095693c21775610f8c8133611046565b600180547fffffffffffffffffffffffff0000000000000000000000000000000000000000166001600160a01b0384161790555050565b6005546040517fffb703ee0000000000000000000000000000000000000000000000000000000081526001600160a01b038481166004830152602482018490529091169063ffb703ee90604401600060405180830381600087803b15801561102a57600080fd5b505af115801561103e573d6000803e3d6000fd5b505050505050565b6000828152602081815260408083206001600160a01b038516845290915290205460ff166106bd57611082816001600160a01b03166014611409565b61108d836020611409565b60405160200161109e9291906125b1565b60408051601f198184030181529082905262461bcd60e51b82526106aa91600401611cc5565b6000828152602081815260408083206001600160a01b038516845290915290205460ff166106bd576000828152602081815260408083206001600160a01b03851684529091529020805460ff1916600117905561111e3390565b6001600160a01b0316816001600160a01b0316837f2f8788117e7eff1d82e926ec794901d17c78024a50270940304540a733656f0d60405160405180910390a45050565b6000828152602081815260408083206001600160a01b038516845290915290205460ff16156106bd576000828152602081815260408083206001600160a01b0385168085529252808320805460ff1916905551339285917ff6391f5c32d9c69d2a47ea670b442974b53935d1edc7fd64eb21e047a839171b9190a45050565b60008060006111f08585611639565b915091506111fd816116a9565b509392505050565b6000806112f2836112ec7f43fa348c6c9d3f16a4580fbb7f1b7f0432ed8cdc844564275311b61f50661ea08760400151886000015189602001518a606001518b61012001518c60a001518d608001518e60c001518f6101400151805190602001206040516020016112d19a99989796959493929190998a526001600160a01b0398891660208b015296881660408a0152948716606089015292909516608087015260a086015260c085019390935260e08401929092526101008301919091526101208201526101400190565b6040516020818303038152906040528051906020012061189d565b906111e1565b61012085015185516001600160a01b031660009081526002602052604090205491925014801561132e575083516001600160a01b038281169116145b80156109685750468460c0015114949350505050565b600081600001516001600160a01b031682602001516001600160a01b0316141561137057506001919050565b6005546040517fcd502eb70000000000000000000000000000000000000000000000000000000081526001600160a01b039091169063cd502eb7906113b9908590600401612632565b60206040518083038186803b1580156113d157600080fd5b505afa1580156113e5573d6000803e3d6000fd5b505050506040513d601f19601f820116820180604052508101906105ff91906126fa565b6060600061141883600261271c565b61142390600261251a565b67ffffffffffffffff81111561143b5761143b611cd8565b6040519080825280601f01601f191660200182016040528015611465576020820181803683370190505b5090507f30000000000000000000000000000000000000000000000000000000000000008160008151811061149c5761149c61273b565b60200101907effffffffffffffffffffffffffffffffffffffffffffffffffffffffffffff1916908160001a9053507f7800000000000000000000000000000000000000000000000000000000000000816001815181106114ff576114ff61273b565b60200101907effffffffffffffffffffffffffffffffffffffffffffffffffffffffffffff1916908160001a905350600061153b84600261271c565b61154690600161251a565b90505b60018111156115e3577f303132333435363738396162636465660000000000000000000000000000000085600f16601081106115875761158761273b565b1a60f81b82828151811061159d5761159d61273b565b60200101907effffffffffffffffffffffffffffffffffffffffffffffffffffffffffffff1916908160001a90535060049490941c936115dc81612751565b9050611549565b5083156116325760405162461bcd60e51b815260206004820181905260248201527f537472696e67733a20686578206c656e67746820696e73756666696369656e7460448201526064016106aa565b9392505050565b6000808251604114156116705760208301516040840151606085015160001a61166487828585611906565b945094505050506116a2565b82516040141561169a576020830151604084015161168f8683836119f0565b9350935050506116a2565b506000905060025b9250929050565b60008160048111156116bd576116bd612768565b14156116c65750565b60018160048111156116da576116da612768565b14156117285760405162461bcd60e51b815260206004820152601860248201527f45434453413a20696e76616c6964207369676e6174757265000000000000000060448201526064016106aa565b600281600481111561173c5761173c612768565b141561178a5760405162461bcd60e51b815260206004820152601f60248201527f45434453413a20696e76616c6964207369676e6174757265206c656e6774680060448201526064016106aa565b600381600481111561179e5761179e612768565b14156118125760405162461bcd60e51b815260206004820152602260248201527f45434453413a20696e76616c6964207369676e6174757265202773272076616c60448201527f756500000000000000000000000000000000000000000000000000000000000060648201526084016106aa565b600481600481111561182657611826612768565b141561189a5760405162461bcd60e51b815260206004820152602260248201527f45434453413a20696e76616c6964207369676e6174757265202776272076616c60448201527f756500000000000000000000000000000000000000000000000000000000000060648201526084016106aa565b50565b60006105ff6118aa611a38565b836040517f19010000000000000000000000000000000000000000000000000000000000006020820152602281018390526042810182905260009060620160405160208183030381529060405280519060200120905092915050565b6000807f7fffffffffffffffffffffffffffffff5d576e7357a4501ddfe92f46681b20a083111561193d5750600090506003610da9565b8460ff16601b1415801561195557508460ff16601c14155b156119665750600090506004610da9565b6040805160008082526020820180845289905260ff881692820192909252606081018690526080810185905260019060a0016020604051602081039080840390855afa1580156119ba573d6000803e3d6000fd5b5050604051601f1901519150506001600160a01b0381166119e357600060019250925050610da9565b9660009650945050505050565b6000807f7fffffffffffffffffffffffffffffffffffffffffffffffffffffffffffffff831660ff84901c601b01611a2a87828885611906565b935093505050935093915050565b60007f0000000000000000000000000000000000000000000000000000000000000000461415611a8757507f000000000000000000000000000000000000000000000000000000000000000090565b50604080517f00000000000000000000000000000000000000000000000000000000000000006020808301919091527f0000000000000000000000000000000000000000000000000000000000000000828401527f000000000000000000000000000000000000000000000000000000000000000060608301523060808301524660a0808401919091528351808403909101815260c0909201909252805191012090565b600060208284031215611b3d57600080fd5b81357fffffffff000000000000000000000000000000000000000000000000000000008116811461163257600080fd5b600060208284031215611b7f57600080fd5b5035919050565b6001600160a01b038116811461189a57600080fd5b8035611ba681611b86565b919050565b600060208284031215611bbd57600080fd5b813561163281611b86565b60008060408385031215611bdb57600080fd5b823591506020830135611bed81611b86565b809150509250929050565b600080600080600080600060e0888a031215611c1357600080fd5b8735611c1e81611b86565b96506020880135611c2e81611b86565b955060408801359450606088013593506080880135611c4c81611b86565b9699959850939692959460a0840135945060c09093013592915050565b60005b83811015611c84578181015183820152602001611c6c565b83811115611c93576000848401525b50505050565b60008151808452611cb1816020860160208601611c69565b601f01601f19169290920160200192915050565b6020815260006116326020830184611c99565b634e487b7160e01b600052604160045260246000fd5b604051610160810167ffffffffffffffff81118282101715611d1257611d12611cd8565b60405290565b600082601f830112611d2957600080fd5b813567ffffffffffffffff80821115611d4457611d44611cd8565b604051601f8301601f19908116603f01168101908282118183101715611d6c57611d6c611cd8565b81604052838152866020858801011115611d8557600080fd5b836020870160208301376000602085830101528094505050505092915050565b60006101608284031215611db857600080fd5b611dc0611cee565b9050611dcb82611b9b565b8152611dd960208301611b9b565b6020820152611dea60408301611b9b565b6040820152611dfb60608301611b9b565b60608201526080820135608082015260a082013560a082015260c082013560c082015260e082013560e08201526101008083013581830152506101208083013581830152506101408083013567ffffffffffffffff811115611e5c57600080fd5b611e6885828601611d18565b82840152505092915050565b600080600060608486031215611e8957600080fd5b833567ffffffffffffffff80821115611ea157600080fd5b611ead87838801611da5565b94506020860135915080821115611ec357600080fd5b50611ed086828701611d18565b925050604084013590509250925092565b60008083601f840112611ef357600080fd5b50813567ffffffffffffffff811115611f0b57600080fd5b6020830191508360208285010111156116a257600080fd5b600080600060408486031215611f3857600080fd5b833567ffffffffffffffff80821115611f5057600080fd5b908501906101608288031215611f6557600080fd5b90935060208501359080821115611f7b57600080fd5b50611f8886828701611ee1565b9497909650939450505050565b60008060008060408587031215611fab57600080fd5b843567ffffffffffffffff80821115611fc357600080fd5b611fcf88838901611ee1565b90965094506020870135915080821115611fe857600080fd5b50611ff587828801611ee1565b95989497509550505050565b82151581526040602082015260006109686040830184611c99565b6000806040838503121561202f57600080fd5b823561203a81611b86565b946020939093013593505050565b600181811c9082168061205c57607f821691505b6020821081141561207d57634e487b7160e01b600052602260045260246000fd5b50919050565b634e487b7160e01b600052601160045260246000fd5b6000828210156120ab576120ab612083565b500390565b60006105ff3683611da5565b6000604082840312156120ce57600080fd5b6040516040810181811067ffffffffffffffff821117156120f1576120f1611cd8565b60405282516120ff81611b86565b81526020928301519281019290925250919050565b6000808335601e1984360301811261212b57600080fd5b830160208101925035905067ffffffffffffffff81111561214b57600080fd5b8036038313156116a257600080fd5b818352818160208501375060006020828401015260006020601f19601f840116840101905092915050565b848152606060208201526121ac6060820161219f86611b9b565b6001600160a01b03169052565b60006121ba60208601611b9b565b6001600160a01b031660808301526121d460408601611b9b565b6001600160a01b031660a08301526121ee60608601611b9b565b6001600160a01b03811660c084015250608085013560e083015261010060a08601358184015261012060c08701358185015261014060e08801358186015261016083890135818701528289013561018087015261224d828a018a612114565b94509250806101a087015250506122696101c08501838361215a565b915050828103604084015261227f81858761215a565b979650505050505050565b600060a082016001600160a01b0388168352602060a08185015281885480845260c08601915060c08160051b870101935060008a8152838120815b8381101561239a578887037fffffffffffffffffffffffffffffffffffffffffffffffffffffffffffffff4001855281548390600181811c908083168061230d57607f831692505b8a831081141561232b57634e487b7160e01b88526022600452602488fd5b828c5260208c01818015612346576001811461235757612381565b60ff19861682528c82019650612381565b6000898152602090208a5b8681101561237b57815484820152908501908e01612362565b83019750505b50949b50509789019794909401935050506001016122c5565b50505050505082810360408401526123b28187611c99565b7fffffffff0000000000000000000000000000000000000000000000000000000086166060850152905082810360808401526123ee8185611c99565b98975050505050505050565b60008060006060848603121561240f57600080fd5b83359250602084013567ffffffffffffffff8082111561242e57600080fd5b61243a87838801611da5565b9350604086013591508082111561245057600080fd5b5061245d86828701611d18565b9150509250925092565b600060001982141561247b5761247b612083565b5060010190565b60008551612494818460208a01611c69565b91909101938452506bffffffffffffffffffffffff19606092831b81166020850152911b166034820152604801919050565b600082516124d8818460208701611c69565b9190910192915050565b6000826124ff57634e487b7160e01b600052601260045260246000fd5b500490565b634e487b7160e01b600052600160045260246000fd5b6000821982111561252d5761252d612083565b500190565b6000808335601e1984360301811261254957600080fd5b83018035915067ffffffffffffffff82111561256457600080fd5b6020019150368190038213156116a257600080fd5b84868237909301918252606090811b6bffffffffffffffffffffffff19908116602084015292901b9091166034820152604801919050565b7f416363657373436f6e74726f6c3a206163636f756e74200000000000000000008152600083516125e9816017850160208801611c69565b7f206973206d697373696e6720726f6c65200000000000000000000000000000006017918401918201528351612626816028840160208801611c69565b01602801949350505050565b6020815261264c6020820183516001600160a01b03169052565b6000602083015161266860408401826001600160a01b03169052565b5060408301516001600160a01b03811660608401525060608301516001600160a01b038116608084015250608083015160a083015260a083015160c083015260c083015160e083015260e0830151610100818185015280850151915050610120818185015280850151915050610140818185015280850151915050610160808185015250610968610180840182611c99565b60006020828403121561270c57600080fd5b8151801515811461163257600080fd5b600081600019048311821515161561273657612736612083565b500290565b634e487b7160e01b600052603260045260246000fd5b60008161276057612760612083565b506000190190565b634e487b7160e01b600052602160045260246000fdfea2646970667358221220c3accb15bb456b2f9987b360e11a9be3ac42bccd2c6a51e896e2639d3bf3893a64736f6c63430008090033",
  "devdoc": {
    "author": "0xEssential",
    "details": "Allows a Relayer to submit meta-transactions that utilize an NFT (i.e. in a game) on behalf of EOAs. Transactions      are only executed if the Relayer provides a signature from a trusted signer. The signature must include the current      owner of the Layer 1 NFT being used, or a Burner EOA the owner has authorized to use its NFTs.      EssentialForwarder can be used to build Layer 2 games that use Layer 1 NFTs without bridging and with superior UX.      End users can specify a Burner EOA from their primary EOA, and then use that burner address to play games.      The Burner EOA can then sign messages for game moves without user interaction without any risk to the NFTs or other      assets owned by the primary EOA.",
    "kind": "dev",
    "methods": {
      "createMessage(address,address,uint256,uint256,address,uint256,uint256)": {
        "details": "The RPC server uses this view function to create the ownership proof",
        "params": {
          "authorizer": "the address that currently owns the L1 NFT",
          "nftChainId": "the tokenId from nftContract for the NFT being utilized",
          "nftContract": "the mainnet contract address for the NFT being utilized",
          "nonce": "the meta-transaction nonce for account",
          "signer": "the address that currently owns the L1 NFT",
          "timestamp": "the tokenId from nftContract for the NFT being utilized",
          "tokenId": "the tokenId from nftContract for the NFT being utilized"
        },
        "returns": {
          "_0": "the message _ownershipSigner should sign"
        }
      },
      "executeWithProof(bytes,bytes)": {
        "details": "The RPC call and re-submission should be handled by your Relayer client",
        "params": {
          "extraData": "The unaltered bytes from OffchainLookup::extraData",
          "response": "The unaltered bytes reponse from a call made to an RPC url from OffchainLookup::urls"
        }
      },
      "getRoleAdmin(bytes32)": {
        "details": "Returns the admin role that controls `role`. See {grantRole} and {revokeRole}. To change a role's admin, use {_setRoleAdmin}."
      },
      "grantRole(bytes32,address)": {
        "details": "Grants `role` to `account`. If `account` had not been already granted `role`, emits a {RoleGranted} event. Requirements: - the caller must have ``role``'s admin role."
      },
      "hasRole(bytes32,address)": {
        "details": "Returns `true` if `account` has been granted `role`."
      },
      "ownershipSigner()": {
        "returns": {
          "_0": "the ownership proof signer address"
        }
      },
      "preflight((address,address,address,address,uint256,uint256,uint256,uint256,uint256,uint256,bytes),bytes)": {
        "details": "Per EIP-3668, a valid signature will cause a revert with useful error params."
      },
      "renounceRole(bytes32,address)": {
        "details": "Revokes `role` from the calling account. Roles are often managed via {grantRole} and {revokeRole}: this function's purpose is to provide a mechanism for accounts to lose their privileges if they are compromised (such as when a trusted device is misplaced). If the calling account had been revoked `role`, emits a {RoleRevoked} event. Requirements: - the caller must be `account`."
      },
      "revokeRole(bytes32,address)": {
        "details": "Revokes `role` from `account`. If `account` had been granted `role`, emits a {RoleRevoked} event. Requirements: - the caller must have ``role``'s admin role."
      },
      "supportsInterface(bytes4)": {
        "details": "See {IERC165-supportsInterface}."
      },
      "verify((address,address,address,address,uint256,uint256,uint256,uint256,uint256,uint256,bytes),bytes)": {
        "details": "Useful for transactions where the signer is not using a specific NFT, but values are still required in the signature - use the zero address for nftContract and 0 for tokenId"
      },
      "verifyOwnershipProof((address,address,address,address,uint256,uint256,uint256,uint256,uint256,uint256,bytes),bytes,uint256)": {
        "details": "Ensures that _ownershipSigner signed a message containing (nftOwner OR authorized address, nonce, nftContract, tokenId)",
        "params": {
          "req": "structured data submitted by EOA making a meta-transaction request",
          "signature": "the signature proof created by the ownership signer EOA"
        }
      }
    },
    "title": "EssentialForwarder",
    "version": 1
  },
  "userdoc": {
    "kind": "user",
    "methods": {
      "createMessage(address,address,uint256,uint256,address,uint256,uint256)": {
        "notice": "Construct message that _ownershipSigner must sign as ownership proof"
      },
      "createSession(address,uint256)": {
        "notice": "Allow `authorized` to use your NFTs in a game for `length` seconds. Your NFTs         will not be held in custody or approved for transfer."
      },
      "executeWithProof(bytes,bytes)": {
        "notice": "Re-submit a valid meta-tx request with trust-minimized proof to execute the transaction."
      },
      "getNonce(address)": {
        "notice": "Get current nonce for EOA"
      },
      "getSession(address)": {
        "notice": "Get current session for Primary EOA"
      },
      "ownershipSigner()": {
        "notice": "Get ownershipSigner address"
      },
      "preflight((address,address,address,address,uint256,uint256,uint256,uint256,uint256,uint256,bytes),bytes)": {
        "notice": "Submit a meta-tx request and signature to check validity and receive a response with data useful for fetching a trusted proof per EIP-3668."
      },
      "setOwnershipSigner(address)": {
        "notice": "Change the ownership signer"
      },
      "setPlaySessionOperator(address)": {
        "notice": "Change the PlaySession source"
      },
      "verify((address,address,address,address,uint256,uint256,uint256,uint256,uint256,uint256,bytes),bytes)": {
        "notice": "Submit a meta-tx request where a proof of ownership is not required."
      },
      "verifyOwnershipProof((address,address,address,address,uint256,uint256,uint256,uint256,uint256,uint256,bytes),bytes,uint256)": {
        "notice": "Verify signed OffchainLookup proof against meta-tx request data"
      }
    },
    "notice": "EIP-2771 based MetaTransaction Forwarding Contract with EIP-3668 OffchainLookup for cross-chain token gating",
    "version": 1
  },
  "storageLayout": {
    "storage": [
      {
        "astId": 24,
        "contract": "src/EssentialForwarder.sol:EssentialForwarder",
        "label": "_roles",
        "offset": 0,
        "slot": "0",
        "type": "t_mapping(t_bytes32,t_struct(RoleData)19_storage)"
      },
      {
        "astId": 2180,
        "contract": "src/EssentialForwarder.sol:EssentialForwarder",
        "label": "_ownershipSigner",
        "offset": 0,
        "slot": "1",
        "type": "t_address"
      },
      {
        "astId": 1493,
        "contract": "src/EssentialForwarder.sol:EssentialForwarder",
        "label": "_nonces",
        "offset": 0,
        "slot": "2",
        "type": "t_mapping(t_address,t_uint256)"
      },
      {
        "astId": 1498,
        "contract": "src/EssentialForwarder.sol:EssentialForwarder",
        "label": "_sessions",
        "offset": 0,
        "slot": "3",
        "type": "t_mapping(t_address,t_struct(PlaySession)2163_storage)"
      },
      {
        "astId": 1501,
        "contract": "src/EssentialForwarder.sol:EssentialForwarder",
        "label": "urls",
        "offset": 0,
        "slot": "4",
        "type": "t_array(t_string_storage)dyn_storage"
      },
      {
        "astId": 1504,
        "contract": "src/EssentialForwarder.sol:EssentialForwarder",
        "label": "PlaySession",
        "offset": 0,
        "slot": "5",
        "type": "t_contract(IEssentialPlaySession)2126"
      }
    ],
    "types": {
      "t_address": {
        "encoding": "inplace",
        "label": "address",
        "numberOfBytes": "20"
      },
      "t_array(t_string_storage)dyn_storage": {
        "base": "t_string_storage",
        "encoding": "dynamic_array",
        "label": "string[]",
        "numberOfBytes": "32"
      },
      "t_bool": {
        "encoding": "inplace",
        "label": "bool",
        "numberOfBytes": "1"
      },
      "t_bytes32": {
        "encoding": "inplace",
        "label": "bytes32",
        "numberOfBytes": "32"
      },
      "t_contract(IEssentialPlaySession)2126": {
        "encoding": "inplace",
        "label": "contract IEssentialPlaySession",
        "numberOfBytes": "20"
      },
      "t_mapping(t_address,t_bool)": {
        "encoding": "mapping",
        "key": "t_address",
        "label": "mapping(address => bool)",
        "numberOfBytes": "32",
        "value": "t_bool"
      },
      "t_mapping(t_address,t_struct(PlaySession)2163_storage)": {
        "encoding": "mapping",
        "key": "t_address",
        "label": "mapping(address => struct IForwardRequest.PlaySession)",
        "numberOfBytes": "32",
        "value": "t_struct(PlaySession)2163_storage"
      },
      "t_mapping(t_address,t_uint256)": {
        "encoding": "mapping",
        "key": "t_address",
        "label": "mapping(address => uint256)",
        "numberOfBytes": "32",
        "value": "t_uint256"
      },
      "t_mapping(t_bytes32,t_struct(RoleData)19_storage)": {
        "encoding": "mapping",
        "key": "t_bytes32",
        "label": "mapping(bytes32 => struct AccessControl.RoleData)",
        "numberOfBytes": "32",
        "value": "t_struct(RoleData)19_storage"
      },
      "t_string_storage": {
        "encoding": "bytes",
        "label": "string",
        "numberOfBytes": "32"
      },
      "t_struct(PlaySession)2163_storage": {
        "encoding": "inplace",
        "label": "struct IForwardRequest.PlaySession",
        "members": [
          {
            "astId": 2160,
            "contract": "src/EssentialForwarder.sol:EssentialForwarder",
            "label": "authorized",
            "offset": 0,
            "slot": "0",
            "type": "t_address"
          },
          {
            "astId": 2162,
            "contract": "src/EssentialForwarder.sol:EssentialForwarder",
            "label": "expiresAt",
            "offset": 0,
            "slot": "1",
            "type": "t_uint256"
          }
        ],
        "numberOfBytes": "64"
      },
      "t_struct(RoleData)19_storage": {
        "encoding": "inplace",
        "label": "struct AccessControl.RoleData",
        "members": [
          {
            "astId": 16,
            "contract": "src/EssentialForwarder.sol:EssentialForwarder",
            "label": "members",
            "offset": 0,
            "slot": "0",
            "type": "t_mapping(t_address,t_bool)"
          },
          {
            "astId": 18,
            "contract": "src/EssentialForwarder.sol:EssentialForwarder",
            "label": "adminRole",
            "offset": 0,
            "slot": "1",
            "type": "t_bytes32"
          }
        ],
        "numberOfBytes": "64"
      },
      "t_uint256": {
        "encoding": "inplace",
        "label": "uint256",
        "numberOfBytes": "32"
      }
    }
  }
}