{
  "address": "0xDf3Bdf6830DdB4d6887e9743B2A9D1123CE29fdF",
  "abi": [
    {
      "inputs": [
        {
          "internalType": "string",
          "name": "name",
          "type": "string"
        },
        {
          "internalType": "string[]",
          "name": "_urls",
          "type": "string[]"
        }
      ],
      "stateMutability": "nonpayable",
      "type": "constructor"
    },
    {
      "inputs": [
        {
          "internalType": "address",
          "name": "sender",
          "type": "address"
        },
        {
          "internalType": "string[]",
          "name": "urls",
          "type": "string[]"
        },
        {
          "internalType": "bytes",
          "name": "callData",
          "type": "bytes"
        },
        {
          "internalType": "bytes4",
          "name": "callbackFunction",
          "type": "bytes4"
        },
        {
          "internalType": "bytes",
          "name": "extraData",
          "type": "bytes"
        }
      ],
      "name": "OffchainLookup",
      "type": "error"
    },
    {
      "anonymous": false,
      "inputs": [
        {
          "indexed": true,
          "internalType": "bytes32",
          "name": "role",
          "type": "bytes32"
        },
        {
          "indexed": true,
          "internalType": "bytes32",
          "name": "previousAdminRole",
          "type": "bytes32"
        },
        {
          "indexed": true,
          "internalType": "bytes32",
          "name": "newAdminRole",
          "type": "bytes32"
        }
      ],
      "name": "RoleAdminChanged",
      "type": "event"
    },
    {
      "anonymous": false,
      "inputs": [
        {
          "indexed": true,
          "internalType": "bytes32",
          "name": "role",
          "type": "bytes32"
        },
        {
          "indexed": true,
          "internalType": "address",
          "name": "account",
          "type": "address"
        },
        {
          "indexed": true,
          "internalType": "address",
          "name": "sender",
          "type": "address"
        }
      ],
      "name": "RoleGranted",
      "type": "event"
    },
    {
      "anonymous": false,
      "inputs": [
        {
          "indexed": true,
          "internalType": "bytes32",
          "name": "role",
          "type": "bytes32"
        },
        {
          "indexed": true,
          "internalType": "address",
          "name": "account",
          "type": "address"
        },
        {
          "indexed": true,
          "internalType": "address",
          "name": "sender",
          "type": "address"
        }
      ],
      "name": "RoleRevoked",
      "type": "event"
    },
    {
      "anonymous": false,
      "inputs": [
        {
          "indexed": true,
          "internalType": "address",
          "name": "owner",
          "type": "address"
        },
        {
          "indexed": true,
          "internalType": "address",
          "name": "authorized",
          "type": "address"
        },
        {
          "indexed": true,
          "internalType": "uint256",
          "name": "length",
          "type": "uint256"
        }
      ],
      "name": "Session",
      "type": "event"
    },
    {
      "inputs": [],
      "name": "ADMIN_ROLE",
      "outputs": [
        {
          "internalType": "bytes32",
          "name": "",
          "type": "bytes32"
        }
      ],
      "stateMutability": "view",
      "type": "function"
    },
    {
      "inputs": [],
      "name": "DEFAULT_ADMIN_ROLE",
      "outputs": [
        {
          "internalType": "bytes32",
          "name": "",
          "type": "bytes32"
        }
      ],
      "stateMutability": "view",
      "type": "function"
    },
    {
      "inputs": [
        {
          "internalType": "address",
          "name": "account",
          "type": "address"
        },
        {
          "internalType": "uint256",
          "name": "nonce",
          "type": "uint256"
        },
        {
          "internalType": "address",
          "name": "nftContract",
          "type": "address"
        },
        {
          "internalType": "uint256",
          "name": "tokenId",
          "type": "uint256"
        }
      ],
      "name": "createMessage",
      "outputs": [
        {
          "internalType": "bytes32",
          "name": "",
          "type": "bytes32"
        }
      ],
      "stateMutability": "view",
      "type": "function"
    },
    {
      "inputs": [
        {
          "internalType": "address",
          "name": "authorized",
          "type": "address"
        },
        {
          "internalType": "uint256",
          "name": "length",
          "type": "uint256"
        }
      ],
      "name": "createSession",
      "outputs": [],
      "stateMutability": "nonpayable",
      "type": "function"
    },
    {
      "inputs": [
        {
          "internalType": "bytes",
          "name": "signature",
          "type": "bytes"
        },
        {
          "internalType": "address",
          "name": "authorized",
          "type": "address"
        },
        {
          "internalType": "uint256",
          "name": "length",
          "type": "uint256"
        },
        {
          "internalType": "address",
          "name": "sender",
          "type": "address"
        }
      ],
      "name": "createSignedSession",
      "outputs": [],
      "stateMutability": "nonpayable",
      "type": "function"
    },
    {
      "inputs": [
        {
          "internalType": "bytes",
          "name": "response",
          "type": "bytes"
        },
        {
          "internalType": "bytes",
          "name": "extraData",
          "type": "bytes"
        }
      ],
      "name": "executeWithProof",
      "outputs": [
        {
          "internalType": "bool",
          "name": "",
          "type": "bool"
        },
        {
          "internalType": "bytes",
          "name": "",
          "type": "bytes"
        }
      ],
      "stateMutability": "payable",
      "type": "function"
    },
    {
      "inputs": [
        {
          "internalType": "address",
          "name": "from",
          "type": "address"
        }
      ],
      "name": "getNonce",
      "outputs": [
        {
          "internalType": "uint256",
          "name": "",
          "type": "uint256"
        }
      ],
      "stateMutability": "view",
      "type": "function"
    },
    {
      "inputs": [
        {
          "internalType": "bytes32",
          "name": "role",
          "type": "bytes32"
        }
      ],
      "name": "getRoleAdmin",
      "outputs": [
        {
          "internalType": "bytes32",
          "name": "",
          "type": "bytes32"
        }
      ],
      "stateMutability": "view",
      "type": "function"
    },
    {
      "inputs": [],
      "name": "getSession",
      "outputs": [
        {
          "components": [
            {
              "internalType": "address",
              "name": "authorized",
              "type": "address"
            },
            {
              "internalType": "uint256",
              "name": "expiresAt",
              "type": "uint256"
            }
          ],
          "internalType": "struct IForwardRequest.PlaySession",
          "name": "",
          "type": "tuple"
        }
      ],
      "stateMutability": "view",
      "type": "function"
    },
    {
      "inputs": [
        {
          "internalType": "bytes32",
          "name": "role",
          "type": "bytes32"
        },
        {
          "internalType": "address",
          "name": "account",
          "type": "address"
        }
      ],
      "name": "grantRole",
      "outputs": [],
      "stateMutability": "nonpayable",
      "type": "function"
    },
    {
      "inputs": [
        {
          "internalType": "bytes32",
          "name": "role",
          "type": "bytes32"
        },
        {
          "internalType": "address",
          "name": "account",
          "type": "address"
        }
      ],
      "name": "hasRole",
      "outputs": [
        {
          "internalType": "bool",
          "name": "",
          "type": "bool"
        }
      ],
      "stateMutability": "view",
      "type": "function"
    },
    {
      "inputs": [],
      "name": "invalidateSession",
      "outputs": [],
      "stateMutability": "nonpayable",
      "type": "function"
    },
    {
      "inputs": [],
      "name": "ownershipSigner",
      "outputs": [
        {
          "internalType": "address",
          "name": "",
          "type": "address"
        }
      ],
      "stateMutability": "view",
      "type": "function"
    },
    {
      "inputs": [
        {
          "components": [
            {
              "internalType": "address",
              "name": "from",
              "type": "address"
            },
            {
              "internalType": "address",
              "name": "authorizer",
              "type": "address"
            },
            {
              "internalType": "address",
              "name": "to",
              "type": "address"
            },
            {
              "internalType": "address",
              "name": "nftContract",
              "type": "address"
            },
            {
              "internalType": "uint256",
              "name": "tokenId",
              "type": "uint256"
            },
            {
              "internalType": "uint256",
              "name": "value",
              "type": "uint256"
            },
            {
              "internalType": "uint256",
              "name": "gas",
              "type": "uint256"
            },
            {
              "internalType": "uint256",
              "name": "nonce",
              "type": "uint256"
            },
            {
              "internalType": "bytes",
              "name": "data",
              "type": "bytes"
            }
          ],
          "internalType": "struct IForwardRequest.ForwardRequest",
          "name": "req",
          "type": "tuple"
        },
        {
          "internalType": "bytes",
          "name": "signature",
          "type": "bytes"
        }
      ],
      "name": "preflight",
      "outputs": [],
      "stateMutability": "view",
      "type": "function"
    },
    {
      "inputs": [
        {
          "internalType": "bytes32",
          "name": "role",
          "type": "bytes32"
        },
        {
          "internalType": "address",
          "name": "account",
          "type": "address"
        }
      ],
      "name": "renounceRole",
      "outputs": [],
      "stateMutability": "nonpayable",
      "type": "function"
    },
    {
      "inputs": [
        {
          "internalType": "bytes32",
          "name": "role",
          "type": "bytes32"
        },
        {
          "internalType": "address",
          "name": "account",
          "type": "address"
        }
      ],
      "name": "revokeRole",
      "outputs": [],
      "stateMutability": "nonpayable",
      "type": "function"
    },
    {
      "inputs": [
        {
          "internalType": "bytes4",
          "name": "interfaceId",
          "type": "bytes4"
        }
      ],
      "name": "supportsInterface",
      "outputs": [
        {
          "internalType": "bool",
          "name": "",
          "type": "bool"
        }
      ],
      "stateMutability": "view",
      "type": "function"
    },
    {
      "inputs": [
        {
          "internalType": "uint256",
          "name": "",
          "type": "uint256"
        }
      ],
      "name": "urls",
      "outputs": [
        {
          "internalType": "string",
          "name": "",
          "type": "string"
        }
      ],
      "stateMutability": "view",
      "type": "function"
    },
    {
      "inputs": [
        {
          "components": [
            {
              "internalType": "address",
              "name": "from",
              "type": "address"
            },
            {
              "internalType": "address",
              "name": "authorizer",
              "type": "address"
            },
            {
              "internalType": "address",
              "name": "to",
              "type": "address"
            },
            {
              "internalType": "address",
              "name": "nftContract",
              "type": "address"
            },
            {
              "internalType": "uint256",
              "name": "tokenId",
              "type": "uint256"
            },
            {
              "internalType": "uint256",
              "name": "value",
              "type": "uint256"
            },
            {
              "internalType": "uint256",
              "name": "gas",
              "type": "uint256"
            },
            {
              "internalType": "uint256",
              "name": "nonce",
              "type": "uint256"
            },
            {
              "internalType": "bytes",
              "name": "data",
              "type": "bytes"
            }
          ],
          "internalType": "struct IForwardRequest.ForwardRequest",
          "name": "req",
          "type": "tuple"
        },
        {
          "internalType": "bytes",
          "name": "signature",
          "type": "bytes"
        }
      ],
      "name": "verifyOwnershipProof",
      "outputs": [
        {
          "internalType": "bool",
          "name": "",
          "type": "bool"
        }
      ],
      "stateMutability": "view",
      "type": "function"
    }
  ],
  "transactionHash": "0xc577917a0488cd33fe71a441572620164857fa957b123a18ab2f6df618c408cd",
  "args": [
    "0xEssential PlaySession",
    [
      "https://middleware.nfight.xyz"
    ]
  ],
  "numDeployments": 2,
  "solcInputHash": "7d6bcdccbb1b3ae1cf60c61d169ef42a",
  "bytecode": "0x6101406040523480156200001257600080fd5b506040516200284438038062002844833981016040819052620000359162000455565b6040805180820182526005815264302e302e3160d81b60209182015283518482012060e08190527fae209a0b48f21c054280f2455d32cf309387644879d9acbd8ffc1991638118856101008190524660a081815285517f8b73c3c69bb8fe3d512ecc4cf759cc79239f7b179b0ffacaa9a75d522b39400f818701819052818801959095526060810193909352608080840192909252308382018190528651808503909201825260c0938401909652805194019390932090925291905261012052620001026000336200015e565b6200012e7fa49807205ce4d355092ef5a8a18f56e8913cf4a201fbe287825b095693c21775336200015e565b600180546001600160a01b031916331790558051620001559060049060208401906200020e565b50505062000589565b6200016a82826200016e565b5050565b6000828152602081815260408083206001600160a01b038516845290915290205460ff166200016a576000828152602081815260408083206001600160a01b03851684529091529020805460ff19166001179055620001ca3390565b6001600160a01b0316816001600160a01b0316837f2f8788117e7eff1d82e926ec794901d17c78024a50270940304540a733656f0d60405160405180910390a45050565b82805482825590600052602060002090810192821562000260579160200282015b828111156200026057825180516200024f91849160209091019062000272565b50916020019190600101906200022f565b506200026e929150620002fd565b5090565b82805462000280906200054c565b90600052602060002090601f016020900481019282620002a45760008555620002ef565b82601f10620002bf57805160ff1916838001178555620002ef565b82800160010185558215620002ef579182015b82811115620002ef578251825591602001919060010190620002d2565b506200026e9291506200031e565b808211156200026e57600062000314828262000335565b50600101620002fd565b5b808211156200026e57600081556001016200031f565b50805462000343906200054c565b6000825580601f1062000354575050565b601f0160209004906000526020600020908101906200037491906200031e565b50565b634e487b7160e01b600052604160045260246000fd5b604051601f8201601f191681016001600160401b0381118282101715620003b857620003b862000377565b604052919050565b600082601f830112620003d257600080fd5b81516001600160401b03811115620003ee57620003ee62000377565b602062000404601f8301601f191682016200038d565b82815285828487010111156200041957600080fd5b60005b83811015620004395785810183015182820184015282016200041c565b838111156200044b5760008385840101525b5095945050505050565b600080604083850312156200046957600080fd5b82516001600160401b03808211156200048157600080fd5b6200048f86838701620003c0565b9350602091508185015181811115620004a757600080fd5b8501601f81018713620004b957600080fd5b805182811115620004ce57620004ce62000377565b8060051b620004df8582016200038d565b918252828101850191858101908a841115620004fa57600080fd5b86850192505b838310156200053b578251868111156200051a5760008081fd5b6200052a8c8983890101620003c0565b835250918601919086019062000500565b809750505050505050509250929050565b600181811c908216806200056157607f821691505b602082108114156200058357634e487b7160e01b600052602260045260246000fd5b50919050565b60805160a05160c05160e051610100516101205161226b620005d96000396000611664015260006116b30152600061168e015260006115e7015260006116110152600061163b015261226b6000f3fe6080604052600436106101445760003560e01c80637909e08c116100c0578063be0fb87e11610074578063dbf0eeef11610059578063dbf0eeef1461040c578063fa1b035a1461042d578063ffb703ee1461044d57600080fd5b8063be0fb87e146103d7578063d547741f146103ec57600080fd5b806391d14854116100a557806391d148541461035e5780639c48439f146103a2578063a217fddf146103c257600080fd5b80637909e08c146102d0578063796676be1461033157600080fd5b80632d0335ab1161011757806336568abe116100fc57806336568abe1461025c57806336ff5f301461027c57806375b238fc1461029c57600080fd5b80632d0335ab146102045780632f2ff15d1461023a57600080fd5b806301ffc9a71461014957806312ce42fd1461017e5780631a929fb1146101a6578063248a9ca3146101d4575b600080fd5b34801561015557600080fd5b50610169610164366004611833565b61046d565b60405190151581526020015b60405180910390f35b34801561018a57600080fd5b506001546040516001600160a01b039091168152602001610175565b3480156101b257600080fd5b506101c66101c1366004611891565b610506565b604051908152602001610175565b3480156101e057600080fd5b506101c66101ef3660046118d5565b60009081526020819052604090206001015490565b34801561021057600080fd5b506101c661021f3660046118ee565b6001600160a01b031660009081526003602052604090205490565b34801561024657600080fd5b5061025a610255366004611909565b6105e0565b005b34801561026857600080fd5b5061025a610277366004611909565b61060b565b34801561028857600080fd5b5061025a610297366004611977565b610697565b3480156102a857600080fd5b506101c67fa49807205ce4d355092ef5a8a18f56e8913cf4a201fbe287825b095693c2177581565b3480156102dc57600080fd5b5060408051808201825260008082526020918201819052338152600282528290208251808401845281546001600160a01b03168082526001909201549083019081528351918252519181019190915201610175565b34801561033d57600080fd5b5061035161034c3660046118d5565b6107e4565b6040516101759190611a41565b34801561036a57600080fd5b50610169610379366004611909565b6000918252602082815260408084206001600160a01b0393909316845291905290205460ff1690565b3480156103ae57600080fd5b506101696103bd366004611bd8565b610890565b3480156103ce57600080fd5b506101c6600081565b3480156103e357600080fd5b5061025a610930565b3480156103f857600080fd5b5061025a610407366004611909565b6109a3565b61041f61041a366004611c3c565b6109c9565b604051610175929190611ca8565b34801561043957600080fd5b5061025a610448366004611cc3565b610c10565b34801561045957600080fd5b5061025a610468366004611d32565b610d68565b60007fffffffff0000000000000000000000000000000000000000000000000000000082167f7965db0b00000000000000000000000000000000000000000000000000000000148061050057507f01ffc9a7000000000000000000000000000000000000000000000000000000007fffffffff000000000000000000000000000000000000000000000000000000008316145b92915050565b6001600160a01b03808516600090815260026020908152604080832081518083019092528054909416815260019093015490830181905290919042106105935760405162461bcd60e51b815260206004820152600f60248201527f53657373696f6e2045787069726564000000000000000000000000000000000060448201526064015b60405180910390fd5b604080516001600160a01b03808916602083015291810187905290851660608201526080810184905260a00160405160208183030381529060405280519060200120915050949350505050565b6000828152602081905260409020600101546105fc8133610d72565b6106068383610df0565b505050565b6001600160a01b03811633146106895760405162461bcd60e51b815260206004820152602f60248201527f416363657373436f6e74726f6c3a2063616e206f6e6c792072656e6f756e636560448201527f20726f6c657320666f722073656c660000000000000000000000000000000000606482015260840161058a565b6106938282610e8e565b5050565b6106df6106a384611d5c565b83838080601f016020809104026020016040519081016040528093929190818152602001838380828437600092019190915250610f0d92505050565b15610606573060046106f460208601866118ee565b6003600061070560208901896118ee565b6001600160a01b0316815260208101919091526040016000205461072f60808801606089016118ee565b604080516001600160a01b0394851660208201528082019390935292166060820152608087810135818301528251808303909101815260a082019092527fdbf0eeef00000000000000000000000000000000000000000000000000000000906107a09088908890889060c001611df7565b60408051601f19818403018152908290527f556f183000000000000000000000000000000000000000000000000000000000825261058a9594939291600401611f16565b600481815481106107f457600080fd5b90600052602060002001600091509050805461080f90611edb565b80601f016020809104026020016040519081016040528092919081815260200182805461083b90611edb565b80156108885780601f1061085d57610100808354040283529160200191610888565b820191906000526020600020905b81548152906001019060200180831161086b57829003601f168201915b505050505081565b6000806109056108b285600001518660e0015187606001518860800151610506565b6040517f19457468657265756d205369676e6564204d6573736167653a0a3332000000006020820152603c8101829052600090605c01604051602081830303815290604052805190602001209050919050565b6001549091506001600160a01b031661091e828561100f565b6001600160a01b031614949350505050565b6040517fffb703ee0000000000000000000000000000000000000000000000000000000081523360048201526000196024820152309063ffb703ee90604401600060405180830381600087803b15801561098957600080fd5b505af115801561099d573d6000803e3d6000fd5b50505050565b6000828152602081905260409020600101546109bf8133610d72565b6106068383610e8e565b6000606081806109db85870187611bd8565b91509150610a1f8289898080601f01602080910402602001604051908101604052809392919081815260200183838082843760009201919091525061089092505050565b610a915760405162461bcd60e51b815260206004820152603560248201527f54657374466f727761726465723a206f776e6572736869702070726f6f66206460448201527f6f6573206e6f74206d6174636820726571756573740000000000000000000000606482015260840161058a565b610a9b8282610f0d565b610b0d5760405162461bcd60e51b815260206004820152602f60248201527f54657374466f727761726465723a207369676e617475726520646f6573206e6f60448201527f74206d6174636820726571756573740000000000000000000000000000000000606482015260840161058a565b60e0820151610b1d90600161209c565b6003600084600001516001600160a01b03166001600160a01b031681526020019081526020016000208190555060008083604001516001600160a01b03168460c0015160008661010001518760200151604051602001610b7e9291906120b4565b60408051601f1981840301815290829052610b98916120fe565b600060405180830381858888f193505050503d8060008114610bd6576040519150601f19603f3d011682016040523d82523d6000602084013e610bdb565b606091505b5091509150603f8460c00151610bf1919061211a565b5a11610bff57610bff61213c565b909450925050505b94509492505050565b7fa49807205ce4d355092ef5a8a18f56e8913cf4a201fbe287825b095693c21775610c3b8133610d72565b604080516001600160a01b0384166020808301919091528183018690528251808303840181526060830184528051908201207f19457468657265756d205369676e6564204d6573736167653a0a3332000000006080840152609c808401919091528351808403909101815260bc9092019092528051910120826001600160a01b0316610cff88888080601f016020809104026020016040519081016040528093929190818152602001838380828437600092019190915250869392505061100f9050565b6001600160a01b031614610d555760405162461bcd60e51b815260206004820152601d60248201527f506c617953657373696f6e207369676e617475726520696e76616c6964000000604482015260640161058a565b610d5f8585611033565b50505050505050565b6106938282611033565b6000828152602081815260408083206001600160a01b038516845290915290205460ff1661069357610dae816001600160a01b031660146110dd565b610db98360206110dd565b604051602001610dca929190612152565b60408051601f198184030181529082905262461bcd60e51b825261058a91600401611a41565b6000828152602081815260408083206001600160a01b038516845290915290205460ff16610693576000828152602081815260408083206001600160a01b03851684529091529020805460ff19166001179055610e4a3390565b6001600160a01b0316816001600160a01b0316837f2f8788117e7eff1d82e926ec794901d17c78024a50270940304540a733656f0d60405160405180910390a45050565b6000828152602081815260408083206001600160a01b038516845290915290205460ff1615610693576000828152602081815260408083206001600160a01b0385168085529252808320805460ff1916905551339285917ff6391f5c32d9c69d2a47ea670b442974b53935d1edc7fd64eb21e047a839171b9190a45050565b600080610fcc83610fc67fdd8f4b70b0f4393e889bd39128a30628a78b61816a9eb8199759e7a349657e488760000151886040015160008a60c001518b60e001518c610100015180519060200120604051602001610fab97969594939291909687526001600160a01b03958616602088015293909416604086015260ff919091166060850152608084015260a083019190915260c082015260e00190565b6040516020818303038152906040528051906020012061130d565b9061100f565b60e085015185516001600160a01b0316600090815260036020526040902054919250148015611007575083516001600160a01b038281169116145b949350505050565b600080600061101e8585611376565b9150915061102b816113e6565b509392505050565b6040518060400160405280836001600160a01b031681526020018242611059919061209c565b9052336000818152600260209081526040808320855181547fffffffffffffffffffffffff0000000000000000000000000000000000000000166001600160a01b039182161782559590920151600190920191909155518493861692917f1170e4b3e143a792ce7a7af268ecfe7d7b0574438d8040eb89c2bf5b7e6e15d891a45050565b606060006110ec8360026121d3565b6110f790600261209c565b67ffffffffffffffff81111561110f5761110f611a54565b6040519080825280601f01601f191660200182016040528015611139576020820181803683370190505b5090507f300000000000000000000000000000000000000000000000000000000000000081600081518110611170576111706121f2565b60200101907effffffffffffffffffffffffffffffffffffffffffffffffffffffffffffff1916908160001a9053507f7800000000000000000000000000000000000000000000000000000000000000816001815181106111d3576111d36121f2565b60200101907effffffffffffffffffffffffffffffffffffffffffffffffffffffffffffff1916908160001a905350600061120f8460026121d3565b61121a90600161209c565b90505b60018111156112b7577f303132333435363738396162636465660000000000000000000000000000000085600f166010811061125b5761125b6121f2565b1a60f81b828281518110611271576112716121f2565b60200101907effffffffffffffffffffffffffffffffffffffffffffffffffffffffffffff1916908160001a90535060049490941c936112b081612208565b905061121d565b5083156113065760405162461bcd60e51b815260206004820181905260248201527f537472696e67733a20686578206c656e67746820696e73756666696369656e74604482015260640161058a565b9392505050565b600061050061131a6115da565b836040517f19010000000000000000000000000000000000000000000000000000000000006020820152602281018390526042810182905260009060620160405160208183030381529060405280519060200120905092915050565b6000808251604114156113ad5760208301516040840151606085015160001a6113a187828585611701565b945094505050506113df565b8251604014156113d757602083015160408401516113cc8683836117eb565b9350935050506113df565b506000905060025b9250929050565b60008160048111156113fa576113fa61221f565b14156114035750565b60018160048111156114175761141761221f565b14156114655760405162461bcd60e51b815260206004820152601860248201527f45434453413a20696e76616c6964207369676e61747572650000000000000000604482015260640161058a565b60028160048111156114795761147961221f565b14156114c75760405162461bcd60e51b815260206004820152601f60248201527f45434453413a20696e76616c6964207369676e6174757265206c656e67746800604482015260640161058a565b60038160048111156114db576114db61221f565b141561154f5760405162461bcd60e51b815260206004820152602260248201527f45434453413a20696e76616c6964207369676e6174757265202773272076616c60448201527f7565000000000000000000000000000000000000000000000000000000000000606482015260840161058a565b60048160048111156115635761156361221f565b14156115d75760405162461bcd60e51b815260206004820152602260248201527f45434453413a20696e76616c6964207369676e6174757265202776272076616c60448201527f7565000000000000000000000000000000000000000000000000000000000000606482015260840161058a565b50565b6000306001600160a01b037f00000000000000000000000000000000000000000000000000000000000000001614801561163357507f000000000000000000000000000000000000000000000000000000000000000046145b1561165d57507f000000000000000000000000000000000000000000000000000000000000000090565b50604080517f00000000000000000000000000000000000000000000000000000000000000006020808301919091527f0000000000000000000000000000000000000000000000000000000000000000828401527f000000000000000000000000000000000000000000000000000000000000000060608301524660808301523060a0808401919091528351808403909101815260c0909201909252805191012090565b6000807f7fffffffffffffffffffffffffffffff5d576e7357a4501ddfe92f46681b20a08311156117385750600090506003610c07565b8460ff16601b1415801561175057508460ff16601c14155b156117615750600090506004610c07565b6040805160008082526020820180845289905260ff881692820192909252606081018690526080810185905260019060a0016020604051602081039080840390855afa1580156117b5573d6000803e3d6000fd5b5050604051601f1901519150506001600160a01b0381166117de57600060019250925050610c07565b9660009650945050505050565b6000807f7fffffffffffffffffffffffffffffffffffffffffffffffffffffffffffffff831660ff84901c601b0161182587828885611701565b935093505050935093915050565b60006020828403121561184557600080fd5b81357fffffffff000000000000000000000000000000000000000000000000000000008116811461130657600080fd5b80356001600160a01b038116811461188c57600080fd5b919050565b600080600080608085870312156118a757600080fd5b6118b085611875565b9350602085013592506118c560408601611875565b9396929550929360600135925050565b6000602082840312156118e757600080fd5b5035919050565b60006020828403121561190057600080fd5b61130682611875565b6000806040838503121561191c57600080fd5b8235915061192c60208401611875565b90509250929050565b60008083601f84011261194757600080fd5b50813567ffffffffffffffff81111561195f57600080fd5b6020830191508360208285010111156113df57600080fd5b60008060006040848603121561198c57600080fd5b833567ffffffffffffffff808211156119a457600080fd5b9085019061012082880312156119b957600080fd5b909350602085013590808211156119cf57600080fd5b506119dc86828701611935565b9497909650939450505050565b60005b83811015611a045781810151838201526020016119ec565b8381111561099d5750506000910152565b60008151808452611a2d8160208601602086016119e9565b601f01601f19169290920160200192915050565b6020815260006113066020830184611a15565b634e487b7160e01b600052604160045260246000fd5b604051610120810167ffffffffffffffff81118282101715611a8e57611a8e611a54565b60405290565b600082601f830112611aa557600080fd5b813567ffffffffffffffff80821115611ac057611ac0611a54565b604051601f8301601f19908116603f01168101908282118183101715611ae857611ae8611a54565b81604052838152866020858801011115611b0157600080fd5b836020870160208301376000602085830101528094505050505092915050565b60006101208284031215611b3457600080fd5b611b3c611a6a565b9050611b4782611875565b8152611b5560208301611875565b6020820152611b6660408301611875565b6040820152611b7760608301611875565b60608201526080820135608082015260a082013560a082015260c082013560c082015260e082013560e08201526101008083013567ffffffffffffffff811115611bc057600080fd5b611bcc85828601611a94565b82840152505092915050565b60008060408385031215611beb57600080fd5b823567ffffffffffffffff80821115611c0357600080fd5b611c0f86838701611b21565b93506020850135915080821115611c2557600080fd5b50611c3285828601611a94565b9150509250929050565b60008060008060408587031215611c5257600080fd5b843567ffffffffffffffff80821115611c6a57600080fd5b611c7688838901611935565b90965094506020870135915080821115611c8f57600080fd5b50611c9c87828801611935565b95989497509550505050565b82151581526040602082015260006110076040830184611a15565b600080600080600060808688031215611cdb57600080fd5b853567ffffffffffffffff811115611cf257600080fd5b611cfe88828901611935565b9096509450611d11905060208701611875565b925060408601359150611d2660608701611875565b90509295509295909350565b60008060408385031215611d4557600080fd5b611d4e83611875565b946020939093013593505050565b60006105003683611b21565b60008083357fffffffffffffffffffffffffffffffffffffffffffffffffffffffffffffffe1843603018112611d9d57600080fd5b830160208101925035905067ffffffffffffffff811115611dbd57600080fd5b8036038313156113df57600080fd5b818352818160208501375060006020828401015260006020601f19601f840116840101905092915050565b60408152611e1860408201611e0b86611875565b6001600160a01b03169052565b6000611e2660208601611875565b6001600160a01b03166060830152611e4060408601611875565b6001600160a01b03166080830152611e5a60608601611875565b6001600160a01b03811660a084015250608085013560c083015260a085013560e083015261010060c08601358184015261012060e087013581850152611ea282880188611d68565b925081610140860152611eba61016086018483611dcc565b925050508281036020840152611ed1818587611dcc565b9695505050505050565b600181811c90821680611eef57607f821691505b60208210811415611f1057634e487b7160e01b600052602260045260246000fd5b50919050565b600060a082016001600160a01b0388168352602060a08185015281885480845260c08601915060c08160051b870101935060008a8152838120815b83811015612026578887037fffffffffffffffffffffffffffffffffffffffffffffffffffffffffffffff4001855281548390600181811c9080831680611f9957607f831692505b8a8310811415611fb757634e487b7160e01b88526022600452602488fd5b828c5260208c01818015611fd25760018114611fe35761200d565b60ff19861682528c8201965061200d565b6000898152602090208a5b8681101561200757815484820152908501908e01611fee565b83019750505b50949b5050978901979490940193505050600101611f51565b505050505050828103604084015261203e8187611a15565b7fffffffff00000000000000000000000000000000000000000000000000000000861660608501529050828103608084015261207a8185611a15565b98975050505050505050565b634e487b7160e01b600052601160045260246000fd5b600082198211156120af576120af612086565b500190565b600083516120c68184602088016119e9565b60609390931b7fffffffffffffffffffffffffffffffffffffffff000000000000000000000000169190920190815260140192915050565b600082516121108184602087016119e9565b9190910192915050565b60008261213757634e487b7160e01b600052601260045260246000fd5b500490565b634e487b7160e01b600052600160045260246000fd5b7f416363657373436f6e74726f6c3a206163636f756e742000000000000000000081526000835161218a8160178501602088016119e9565b7f206973206d697373696e6720726f6c652000000000000000000000000000000060179184019182015283516121c78160288401602088016119e9565b01602801949350505050565b60008160001904831182151516156121ed576121ed612086565b500290565b634e487b7160e01b600052603260045260246000fd5b60008161221757612217612086565b506000190190565b634e487b7160e01b600052602160045260246000fdfea264697066735822122028ecd1fc3a30e1f26a8ed54957aa545870e9830f256e353bf812e7394134142564736f6c63430008090033",
  "devdoc": {
    "author": "0xEssential",
    "details": "Allows a Relayer to submit meta-transactions that utilize an NFT (i.e. in a game) on behalf of EOAs. Transactions      are only executed if the Relayer provides a signature from a trusted signer. The signature must include the current      owner of the Layer 1 NFT being used, or a Burner EOA the owner has authorized to use its NFTs.      EssentialForwarder can be used to build Layer 2 games that use Layer 1 NFTs without bridging and with superior UX.      End users can specify a Burner EOA from their primary EOA, and then use that burner address to play games.      The Burner EOA can then sign messages for game moves without user interaction without any risk to the NFTs or other      assets owned by the primary EOA.",
    "kind": "dev",
    "methods": {
      "createMessage(address,uint256,address,uint256)": {
        "details": "The RPC server uses this view function to create the ownership proof",
        "params": {
          "account": "the address that currently owns the L1 NFT",
          "nftContract": "the mainnet contract address for the NFT being utilized",
          "nonce": "the meta-transaction nonce for account",
          "tokenId": "the tokenId from nftContract for the NFT being utilized"
        },
        "returns": {
          "_0": "the message _ownershipSigner should sign"
        }
      },
      "executeWithProof(bytes,bytes)": {
        "details": "The RPC call and re-submission should be handled by your Relayer client",
        "params": {
          "extraData": "The unaltered bytes in the OffchainLookup extraData error arg",
          "response": "The unaltered bytes reponse from a call made to an RPC based on OffchainLookup args"
        }
      },
      "getRoleAdmin(bytes32)": {
        "details": "Returns the admin role that controls `role`. See {grantRole} and {revokeRole}. To change a role's admin, use {_setRoleAdmin}."
      },
      "grantRole(bytes32,address)": {
        "details": "Grants `role` to `account`. If `account` had not been already granted `role`, emits a {RoleGranted} event. Requirements: - the caller must have ``role``'s admin role."
      },
      "hasRole(bytes32,address)": {
        "details": "Returns `true` if `account` has been granted `role`."
      },
      "invalidateSession()": {
        "details": "For efficiency in PlaySession persistence and lookup, an EOA must authorize      itself"
      },
      "ownershipSigner()": {
        "returns": {
          "_0": "the ownership proof signer address"
        }
      },
      "preflight((address,address,address,address,uint256,uint256,uint256,uint256,bytes),bytes)": {
        "details": "Per EIP-3668, a valid signature will cause a revert with useful error params."
      },
      "renounceRole(bytes32,address)": {
        "details": "Revokes `role` from the calling account. Roles are often managed via {grantRole} and {revokeRole}: this function's purpose is to provide a mechanism for accounts to lose their privileges if they are compromised (such as when a trusted device is misplaced). If the calling account had been revoked `role`, emits a {RoleRevoked} event. Requirements: - the caller must be `account`."
      },
      "revokeRole(bytes32,address)": {
        "details": "Revokes `role` from `account`. If `account` had been granted `role`, emits a {RoleRevoked} event. Requirements: - the caller must have ``role``'s admin role."
      },
      "supportsInterface(bytes4)": {
        "details": "See {IERC165-supportsInterface}."
      },
      "verifyOwnershipProof((address,address,address,address,uint256,uint256,uint256,uint256,bytes),bytes)": {
        "details": "Ensures that _ownershipSigner signed a message containing (nftOwner OR authorized address, nonce, nftContract, tokenId)",
        "params": {
          "req": "structured data submitted by EOA making a meta-transaction request",
          "signature": "the signature proof created by the ownership signer EOA"
        }
      }
    },
    "title": "EssentialForwarder",
    "version": 1
  },
  "userdoc": {
    "kind": "user",
    "methods": {
      "createMessage(address,uint256,address,uint256)": {
        "notice": "Construct message that _ownershipSigner must sign as ownership proof"
      },
      "createSession(address,uint256)": {
        "notice": "Allow `authorized` to use your NFTs in a game for `length` seconds. Your NFTs         will not be held in custody or approved for transfer."
      },
      "createSignedSession(bytes,address,uint256,address)": {
        "notice": "Allow `authorized` to use your NFTs in a game for `length` seconds through a         signed message from the primary EOA"
      },
      "executeWithProof(bytes,bytes)": {
        "notice": "Re-submit a valid meta-tx request with trusted proof to execute the transaction."
      },
      "getNonce(address)": {
        "notice": "Get current nonce for EOA"
      },
      "getSession()": {
        "notice": "Get current session for Primary EOA"
      },
      "invalidateSession()": {
        "notice": "Stop allowing your current authorized burner address to use your NFTs."
      },
      "ownershipSigner()": {
        "notice": "Get ownershipSigner address"
      },
      "preflight((address,address,address,address,uint256,uint256,uint256,uint256,bytes),bytes)": {
        "notice": "Submit a meta-tx request and signature to check validity and receive         a response with data useful for fetching a trusted proof per EIP-3668."
      },
      "verifyOwnershipProof((address,address,address,address,uint256,uint256,uint256,uint256,bytes),bytes)": {
        "notice": "Verify signed OffchainLookup proof against meta-tx request data"
      }
    },
    "notice": "EIP-2771 based MetaTransaction Forwarding Contract with EIP-3668 OffchainLookup for cross-chain token gating",
    "version": 1
  },
  "storageLayout": {
    "storage": [
      {
        "astId": 24,
        "contract": "src/EssentialForwarder.sol:EssentialForwarder",
        "label": "_roles",
        "offset": 0,
        "slot": "0",
        "type": "t_mapping(t_bytes32,t_struct(RoleData)19_storage)"
      },
      {
        "astId": 9856,
        "contract": "src/EssentialForwarder.sol:EssentialForwarder",
        "label": "_ownershipSigner",
        "offset": 0,
        "slot": "1",
        "type": "t_address"
      },
      {
        "astId": 9861,
        "contract": "src/EssentialForwarder.sol:EssentialForwarder",
        "label": "_sessions",
        "offset": 0,
        "slot": "2",
        "type": "t_mapping(t_address,t_struct(PlaySession)9845_storage)"
      },
      {
        "astId": 9466,
        "contract": "src/EssentialForwarder.sol:EssentialForwarder",
        "label": "_nonces",
        "offset": 0,
        "slot": "3",
        "type": "t_mapping(t_address,t_uint256)"
      },
      {
        "astId": 9469,
        "contract": "src/EssentialForwarder.sol:EssentialForwarder",
        "label": "urls",
        "offset": 0,
        "slot": "4",
        "type": "t_array(t_string_storage)dyn_storage"
      }
    ],
    "types": {
      "t_address": {
        "encoding": "inplace",
        "label": "address",
        "numberOfBytes": "20"
      },
      "t_array(t_string_storage)dyn_storage": {
        "base": "t_string_storage",
        "encoding": "dynamic_array",
        "label": "string[]",
        "numberOfBytes": "32"
      },
      "t_bool": {
        "encoding": "inplace",
        "label": "bool",
        "numberOfBytes": "1"
      },
      "t_bytes32": {
        "encoding": "inplace",
        "label": "bytes32",
        "numberOfBytes": "32"
      },
      "t_mapping(t_address,t_bool)": {
        "encoding": "mapping",
        "key": "t_address",
        "label": "mapping(address => bool)",
        "numberOfBytes": "32",
        "value": "t_bool"
      },
      "t_mapping(t_address,t_struct(PlaySession)9845_storage)": {
        "encoding": "mapping",
        "key": "t_address",
        "label": "mapping(address => struct IForwardRequest.PlaySession)",
        "numberOfBytes": "32",
        "value": "t_struct(PlaySession)9845_storage"
      },
      "t_mapping(t_address,t_uint256)": {
        "encoding": "mapping",
        "key": "t_address",
        "label": "mapping(address => uint256)",
        "numberOfBytes": "32",
        "value": "t_uint256"
      },
      "t_mapping(t_bytes32,t_struct(RoleData)19_storage)": {
        "encoding": "mapping",
        "key": "t_bytes32",
        "label": "mapping(bytes32 => struct AccessControl.RoleData)",
        "numberOfBytes": "32",
        "value": "t_struct(RoleData)19_storage"
      },
      "t_string_storage": {
        "encoding": "bytes",
        "label": "string",
        "numberOfBytes": "32"
      },
      "t_struct(PlaySession)9845_storage": {
        "encoding": "inplace",
        "label": "struct IForwardRequest.PlaySession",
        "members": [
          {
            "astId": 9842,
            "contract": "src/EssentialForwarder.sol:EssentialForwarder",
            "label": "authorized",
            "offset": 0,
            "slot": "0",
            "type": "t_address"
          },
          {
            "astId": 9844,
            "contract": "src/EssentialForwarder.sol:EssentialForwarder",
            "label": "expiresAt",
            "offset": 0,
            "slot": "1",
            "type": "t_uint256"
          }
        ],
        "numberOfBytes": "64"
      },
      "t_struct(RoleData)19_storage": {
        "encoding": "inplace",
        "label": "struct AccessControl.RoleData",
        "members": [
          {
            "astId": 16,
            "contract": "src/EssentialForwarder.sol:EssentialForwarder",
            "label": "members",
            "offset": 0,
            "slot": "0",
            "type": "t_mapping(t_address,t_bool)"
          },
          {
            "astId": 18,
            "contract": "src/EssentialForwarder.sol:EssentialForwarder",
            "label": "adminRole",
            "offset": 0,
            "slot": "1",
            "type": "t_bytes32"
          }
        ],
        "numberOfBytes": "64"
      },
      "t_uint256": {
        "encoding": "inplace",
        "label": "uint256",
        "numberOfBytes": "32"
      }
    }
  }
}